:1000000078FFE4B8200118F6D8F99000007F007E50

:1000100007E4F0A3DFFCDEFA7581200226E59001FB

:10002000CFE0248F601C24F37005122BFC8013900A

:1000300001CFE0FF122BD67F03122957EF60037F19

:1000400002227F0422122B452200000222ACEFD3B1

:100050009403500D121220F583E5822D1210CEE488

:10006000F0220002280975F002121B07E0FCA3E051

:10007000FD75F088EFA42434F582E5F03400F583B3

:10008000EE75F002021B07EF2448FFEE34FEFE7C03

:10009000007D0A121A267D32121A38EF24B8FFEEBC

:1000A0003401FEEB75F002A42416F582E5F034006D

:1000B000F583229003B6E0FF9003B5E0FE75F0886B

:1000C000A42497F582E5F03400F583E5822FF582CC

:1000D000E43583F583229003B7E0FEA3E0FF9003AD

:1000E000B5E0FD75F088A4246AF582E5F03400F5EA

:1000F0008322E0FCA3E0FDEF75F088A42446F5829E

:10010000E5F0340022FDEC541FF0EDA3F0EB75F0A8

:1001100002A42410F582E5F03400F5832275F00284

:10012000EBA4240AF582E5F03400F583E0FCA3E0BB

:10013000FDEB75F002A42404F582E5F03400F583AC

:100140002275F004121B07E0F8A3E0F9A3E0FAA37C

:10015000E0FB900290E0FCA3E0FDA3E0FEA3E02220

:10016000F583E493FC740193FD75F002EFA422C3C0

:100170009DFFEE9CFEE075F088A42458F582E5F022

:100180003400F5832275F088A4247CF582E5F034F0

:1001900000F583EC75F002021B079003B5E0FF75D4

:1001A000F088A42422F582E5F03400F58322900340

:1001B000B5E0FF75F088A42434F582E5F03400F54D

:1001C0008322F0A3F0A3F0A3F0A3F0A3F0A32224D2

:1001D000C0F582E5F03401F583ECF0A3EDF0EF25F6

:1001E000E02275F002EBA4240AF582E5F03400F574

:1001F00083229003B5E0FD75F088A4247CF582E5A8

:10020000F03400F58322C39BFBEE9AFAED99F9ECEA

:1002100098F8E493FE740193FFE4FCFDC3021AB95D

:10022000EF75F009A42494F582E4340222EF75F00E

:1002300009A42409F582E43402229003B6E0FF9079

:1002400003B5E075F088A4248EF582E5F034002231

:10025000E4F075F088EEA424A0F582E5F0340022E5

:100260009003B9E0FDEF9D7480F86E98229003B57D

:10027000E0FFA3E0FD2275F088EEA424A9F582E555

:10028000F0340022E0FEA3E0FFD32274D32BF582EA

:10029000E43401F58322F583E0FCA3E0FD75F00270

:1002A00022E0FF25E024A9F582E43403F58322EB64

:1002B00025E0248CF582E43422F58322E0248EF5B7

:1002C00082E43400F583E0640122EF25E024AFF5F9

:1002D00082E43403F58322241CF582E5F03400F532

:1002E00083ECF0A3EDF00F22E4F0A3F075F0882288

:1002F000E0FCA3E0FD75F08822E0FEA3E0C39DFFD3

:10030000EE9CFE22EE8FF0121A8D75F088ED22C35E

:10031000EF94F6EE6480947F22FE7C007D0A121A30

:10032000267D1E121A38EF2224BAF582E5F0340138

:100330002224C6F582E5F034012225E025E024DD03

:10034000F582E43401F5832275F024A424AFF5820C

:10035000E43402F5832275F024A42424F582E434E5

:1003600002F583229003B5E0FFA3E0FD22A42497C9

:10037000F582E5F03400F583E58222E0FF9003A9E1

:10038000E0FEEFC8EEC80822F582E43402F58322CD

:10039000940AEE6480948022902EC6F0902EC5744C

:1003A00001F022EDF0CBEFCBEBD394032275F004F8

:1003B000121B07021ACAECF0A3EDF09003B5E0227D

:1003C0009003A8E004F022ECF0A3EDF09003A7E086

:1003D000229001D0E0FE75F002A4229003B5EFF068

:1003E000A3EDF09003B97403F0ED70037402F09084

:1003F00003B5E0FF1210F8F583C083C0829003B606

:10040000E0FED082D0831210661212F99003B7F08A

:10041000A3EFF0122D1EC312126040030214D0127B

:1004200010D6C083C0829003B6E0FCD082D0831285

:1004300010811213041210E6EC12108112128412B1

:10044000139040241210DEC083C0829003B6E0FCFB

:10045000D082D083121081E4F0A3F0ED1210F812D4

:100460001191E475F001802B12130F50299003B500

:10047000E0FF1210E3C083C0829003B6E0FED0829A

:10048000D083121081E4F0A3F01210F712107E74E2

:10049000FFF5F0121A8D12126D12104E12126D121B

:1004A0002B0012126D122907EF70030215FC900346

:1004B000B6E0FF9003B5E0FE1212431210C9E4F05B

:1004C000EF60030215FC121276F583E4F00215FCCE

:1004D0009003B6E0703EA3E0FEA3E0FF122D1E9055

:1004E00003B9E02402FDE433FCD3EF9DEC6480F813

:1004F000EE648098400912123A1210C97401F01289

:100500001635D3121260402C9003B5E075F08812B6

:10051000127A801B1216359003B9E0FDD3121265D2

:10052000401212123AF583E5822FF582E43583F505

:10053000837401F01210D6C083C0829003B6E0FC31

:10054000D082D0831210811213041210E61211937C

:100550001212849464EE6480948040231210DEC0F2

:1005600083C0829003B6E0FCD082D0831210811247

:1005700012E8ED1210FB121191E475F0018031C305

:10058000EF949CEE6480947F50299003B5E0FF12B5

:1005900010E3C083C0829003B6E0FED082D0831205

:1005A0001081E4F0A3F01210F712107E74FFF5F042

:1005B000121A8DC39003B7E06480948050321212F7

:1005C0006D122AC712126D1228B7EF60299003B579

:1005D0001211B1C083C0829003B6E0FED082D083F6

:1005E0001210811210F212107EECF0A3EDF08006D2

:1005F00012126D12104E12126D122CDD9003B5E026

:10060000FF1210F8F583C083C0829003B6E0FED0DD

:1006100082D083121066E0FEA3E09003B512116F42

:10062000C083C0829003B6E0D082D083121081EEE6

:10063000F0A3EFF0229003B7E0FEA3E0FF122D1E1F

:10064000229003B5EFF0A3EDF09003B97407F0ED3D

:10065000603F90008EE06401700280089003B61243

:1006600012BC702D12119AC083C0829003B6E0FEB6

:10067000D082D0831210661213B61211F7C083C055

:10068000829003B6E0D082D083121081E4F0A3F010

:10069000229003B51211B1C083C0829003B6E0FE70

:1006A000D082D0831210811212F0EFA42422F5829E

:1006B000E5F0340012107E1212F99003B7F0A3EFA8

:1006C000F0122D1E9003B9E0FDC312126540030223

:1006D00017951210B3E06401703775F088EE1211AF

:1006E00079EF121194E0FEA3E0C3941EEE648094AF

:1006F0008040030217DB12119AC083C0829003B6B8

:10070000E0FED082D083121066ECF0A3EDF0021769

:10071000DB9003B7E0FEA3E0FF1211F2C083C082BA

:100720009003B6E0FCD082D083121081EE8FF012DD

:100730001A8DED1211851212841213904029121194

:10074000F2C083C0829003B6E0FCD082D083121046

:10075000811212E8EDA42434F582E5F03400121180

:1007600091E475F001802812130F506F9003B5E0EB

:10077000FF1211F7C083C0829003B6E0FED082D092

:1007800083121081E4F0A3F012107174FFF5F012DF

:100790001A8D0217DB12119AC083C0829003B6E053

:1007A000FED082D0831210661213B6FF121176C0EB

:1007B00083C0829003B6E0FED082D083121081E025

:1007C000FCA3E0C3941EEC64809480400E75F08816

:1007D000EF12136D2E1210CE7401F01210B3E064FC

:1007E0000170281212521210C9E004121251121094

:1007F000C9E0D3940540149003B6E0FF75F088EE8D

:100800001210C01212501210C9E4F022CBEFCB121A

:1008100011E2E0FEA3E0FF121131E0FCA3E0FDC312

:100820009FEC9E50030218BBE42DFFEC3404FE1233

:1008300011E2E0FCA3E0FDC3EF9DFFEE9CFE121170

:100840000DEEF0A3EFF01211E2E0FEA3E0FF1211B3

:1008500031E0FCA3E0C39FFFEC9E1210A2EEF0A3D8

:10086000EFF01212AFE493FE740193FF1210A3E0B5

:10087000FCA3E0FDD39FEC9E40241212AFE493FE54

:10088000740193FFC3ED9FFFEC9EC313FEEF13FFB4

:100890001212AF7401932FFFE4933EFE80131210E7

:1008A000A3E0FEA3E0FF7C007D63121A260D121A5E

:1008B000381210A3EEF0A3EFF08038121131E0FEF1

:1008C000A3E0FF1211E2E0FCA3E0C39FEC9EC394FF

:1008D0000475F002EB50101210A7E4F012110B7423

:1008E00004F0A3E4F0800C1210A7E4F012110BE462

:1008F000F0A3F0EB640270571210A312128494B8A4

:10090000EE94014008121087EEF0A3EFF01210A34E

:10091000E0FCA3E090032B121105121284940EEE5A

:1009200094064019EF24F2FFEE34F9121319240E45

:10093000FFEE3406FE12110DEEF0A3EFF012110DD2

:10094000E0FCA3E0FDEC541F90032FF0EDA3F0EBCF

:10095000640170571210A312128494B8EE940140EF

:1009600008121087EEF0A3EFF01210A3E0FCA3E052

:1009700090032D12110512128494FAEE9405401979

:10098000EF2406FFEE34FA12131924FAFFEE3405B1

:10099000FE12110DEEF0A3EFF012110DE0FCA3E03A

:1009A000FDEC541F900331F0EDA3F022BB0106894A

:1009B000828A83E0225002E722BBFE02E322898280

:1009C0008A83E49322BB010CE58229F582E5833A10

:1009D000F583E0225006E92582F8E622BBFE06E90F

:1009E0002582F8E222E58229F582E5833AF583E45F

:1009F0009322BB010689828A83F0225002F722BB30

:100A0000FE01F322F8BB010DE58229F582E5833A68

:100A1000F583E8F0225006E92582C8F622BBFE05E0

:100A2000E92582C8F222EF8DF0A4A8F0CF8CF0A4C3

:100A300028CE8DF0A42EFE22BC000BBE0029EF8D27

:100A4000F084FFADF022E4CCF875F008EF2FFFEE54

:100A500033FEEC33FCEE9DEC984005FCEE9DFE0F62

:100A6000D5F0E9E4CEFD22EDF8F5F0EE8420D21CBD

:100A7000FEADF075F008EF2FFFED33FD4007985005

:100A800006D5F0F222C398FD0FD5F0EA22C5F0F8A2

:100A9000A3E028F0C5F0F8E582158270021583E026

:100AA00038F022A3F8E0C5F025F0F0E58215827059

:100AB000021583E0C838F0E822EB9FF5F0EA9E4289

:100AC000F0E99D42F0E89C45F022ECF0A3EDF0A3A4

:100AD000EEF0A3EFF022A8828583F0D083D08212BB

:100AE0001AED121AED121AED121AEDE473E493A343

:100AF000C583C5F0C583C8C582C8F0A3C583C5F04A

:100B0000C583C8C582C822A42582F582E5F0358355

:100B1000F58322EF4E6012EF60010EEDBB010B89F1

:100B2000828A83F0A3DFFCDEFA2289F05007F709FE

:100B3000DFFCA9F022BBFEFCF309DFFCA9F022E4F4

:100B40009003A8F09003A8E0FFC394094003021C9F

:100B5000C8EF902EC87014E0545FF0A3746AF09050

:100B60002EC3744AF0A37401F08012E044F0F0A3A5

:100B7000742AF0902EC37470F0A3740CF09003A844

:100B8000E090214D93902ECAF0E49003A7F09000DE

:100B900003E0FF9003A7E0FEC39F4003021CBF7465

:100BA000062E121388E0FF9003A9F0E4F5E2EFC3EC

:100BB0009408503A7415121398C083C08212137BA4

:100BC0008002C333D8FCD082D083F0902ECD740144

:100BD000F0C083C082E0FFC8EEC8088002C333D8EB

:100BE000FCD082D083F0902EC074C1F0805D900361

:100BF000A9E024F8F07416121398C083C08212136F

:100C00007B8002C333D8FCD082D083F0902ECE7488

:100C100001F0C083C082E0FFC8EEC8088002C33381

:100C2000D8FCD082D083F0EEB40506902EC974288B

:100C3000F0EEB40606902EC97433F0EEB4070690B9

:100C40002EC97429F0902EC074C2F0E4FF90000009

:100C5000742EF0A3E4F09003A7E02406121388E0BA

:100C60009003A9F0E5E220E2050FEFB4C8DF90039E

:100C7000A9E0FD75F002A4FFAEF0900001E02FF0B6

:100C8000900000E03EF0ED90217C93FF900000E4A6

:100C900075F002121AA385F082F5831212F0EF129A

:100CA00011A2C083C0829003A8E0D082D08312102A

:100CB00081ECF0A3EDF09003A7E004F0021B8E900E

:100CC00003A8E004F0021B449001CC7401F02290D0

:100CD00003B5EFF0A3EDF09003B97407F0ED7003E6

:100CE0007404F090008EE06401700280089003B6F6

:100CF0001212BC70381211AEC083C0829003B6E0ED

:100D0000FED082D0831210811210F212107EECF00D

:100D1000A3EDF09003B5121175C083C0829003B6A5

:100D2000E0D082D083121081E4F0A3F0229003B5CA

:100D3000E0FF1210F8F583C083C0829003B6E0FE96

:100D4000D082D0831210661212F99003B7F0A3EF8D

:100D5000F0122D1E9003B9E0FDC31212654003028C

:100D60001DED9003B7E0FEA3E0FF9003B51210E184

:100D7000C083C0829003B6E0FCD082D08312108181

:100D80001213041210E612119312128412139040DF

:100D9000269003B51210E1C083C0829003B6E0FC38

:100DA000D082D0831210811212E8ED1210FB1211C2

:100DB00091E475F001802B12130F50299003B5E0D8

:100DC000FF1210E3C083C0829003B6E0FED082D051

:100DD00083121081E4F0A3F01210F712107E74FF5A

:100DE000F5F0121A8D12136412104E8038C390035E

:100DF000B7E064809480502D121364122AC7121336

:100E0000641228B7EF601E1211AEC083C082900337

:100E1000B6E0FED082D0831210811210F212107E42

:100E2000ECF0A3EDF09003B5E0FF1210F8F583C0ED

:100E300083C0829003B6E0FED082D083121066E0B9

:100E4000FEA3E09003B512116FC083C0829003B679

:100E5000E0D082D083121081EEF0A3EFF022900157

:100E6000D2E024FE601B146021147003021F3F2493

:100E7000036003021FDD9001D27402F0E4900205CA

:100E8000F01225989001D27403F0121B3F9001CC10

:100E9000E07003021F1D900205E004F0E49003A639

:100EA000F0900003E0FF9003A6E0C39F506FE4FFC3

:100EB0009003A6E0FE12119F75F002EF121B0712BD

:100EC00012F0EE1210FBF58375F002EF121B071201

:100ED00012E1EFB409DA9003A6E0FF1210A4E4F0E7

:100EE000A3F0EF12110E7404F0A3E4F0EFB40210BB

:100EF000E490032BF0A3F090032F7404F0E4A3F02C

:100F0000EFB40110E490032DF0A3F09003317404CA

:100F1000F0E4A3F09003A6E004F0021EA190020505

:100F2000E0C394035003021FDD900002747EF0E4DE

:100F30009001CDF0900205F09001D27404F02212DD

:100F40001B3F9001CCE07003021FDD121FDEE49016

:100F500003A6F0900003E0FE9003A6E0FFC39E50BE

:100F600016122A8B122A409003A6E0FF12180C904A

:100F700003A6E004F080DC122BA812262512101E16

:100F80009001D2EFF064047054900002E0FFD3941B

:100F9000104015EF647E7045900321E04408F09006

:100FA0000205E06038E4802A900321E054F0F090DC

:100FB0000002E0B40207900321E04401F090000237

:100FC000E0B40107900321E04402F0900205E070D4

:100FD0000C04F0C28A000000000000D28A22E490D3

:100FE00003A8F09003A8E0FDC394095023E0FF7527

:100FF000F0021211A2E0FAA3E0FB75F002EF121169

:10100000B6EAF0A3EBF0E4FF1213DB1213C080D3B7

:10101000E49003A7F0900003E0FF9003A7E0C39FD4

:1010200040030221471212A1E4F0A3F01212CAE415

:10103000F0A3F0EF700302211FE49003A8F09003E7

:10104000A8E0FDC3940950189003A7E0FF121641D1

:101050009003A7E0FFA3E0FD121CCF1213C080DEB7

:10106000E49003A8F09003A8E0FFC39409400302B2

:10107000211F748E2F1212BF60109003A7E075F02D

:101080008812127AF583E0B401239003A7E0FF12DF

:1010900011761212F0EF121179C083C0829003A86A

:1010A000E0D082D083121081ECF0A3EDF09003A881

:1010B000E060669003A7E0FF1210F8F583C083C0DC

:1010C000829003A8E0FED082D083121081E0FCA3BE

:1010D000E0FD1212CAEC8DF0121A8D9003A7E0FF0A

:1010E00075F088A42458F582E5F0340012107E12C1

:1010F00010F2F583C083C0829003A8E0D082D08331

:10110000121081E0FEA3E02DFFEE3CFE9003A7E06D

:101110001212A3EE8FF0121A8D1213C002206590E6

:1011200003A71212A1E0FCA3E0FDEF12113212138B

:10113000C7FF1212CBE0FCA3E01211681211E712F4

:1011400013C704F0022015E49001CCF0223F3F3F8A

:101150003F3F3F3F3F3F0032003217707530001E67

:101160000032000A000F0064000A000A00000000BC

:101170000000000000000000000101010D0E0F033F

:101180000405060708090A0B0C00010200370037A6

:101190000037003700370037003700370037003797

:1011A0000037003700370037003700370046004669

:1011B00000460046004600460046004600460046FF

:1011C000004600460046004600460046001E001E3F

:1011D000001E001E001E001E001E001E001E001E1F

:1011E000001E001E001E001E001E001E002D002DF1

:1011F000002D002D002D002D002D002D002D002D87

:10120000002D002D002D002D002D002D005A005A1C

:10121000005A005A005A005A005A005A005A005AFE

:10122000005A005A005A005A005A005A00640064DA

:10123000006400640064006400640064006400648E

:1012400000640064006400640064006400410041C4

:101250000041004100410041004100410041004186

:10126000004100410041004100410041002D002D9E

:10127000002D002D002D002D002D002D002D002D06

:10128000002D002D002D002D002D002D00FA00FA5C

:1012900000FA00FA00FA00FA00FA00FA00FA00FA7E

:1012A00000FA00FA00FA00FA00FA00FAC0E0C0837F

:1012B000C082C0D0E8C0E0E9C0E0EAC0E0EBC0E036

:1012C000EFC0E0D2AFE5DB30E415E5DB30E10280D2

:1012D00028900320E5DFF09003A1E4F002237BE5F2

:1012E000DB30E50812104590031D802BE5DB30E173

:1012F00019E5DB20E00302237B9003A3122B3C12B1

:101300002B551219C5F5DF02237B9003A1E0700D68

:10131000A3E5DFF09003A17401F002237B9003A208

:10132000E090272A93FFB4FF0E900320E5DFF090B2

:1013300003A2E004F0803EEF640F9003A3702B1231

:101340002B3C9003A2E0FF122B69540F1219F2906C

:1013500003A3122B3C9003A2E0FF04F0122B69FFC1

:10136000E5DF54F04F1219F2800B122B3C122B5573

:10137000E5DF121A0490031FE004F075DBFFD0E0F4

:10138000FFD0E0FBD0E0FAD0E0F9D0E0F8D0D0D048

:1013900082D083D0E032900334E0FE6410704EFFC0

:1013A000900003E0FDEFC39D400302243DEF25E0E4

:1013B000242CF582E434221211601211CF240CF592

:1013C00082E434221211601213281211D7244CF532

:1013D00082E434221211601213311211D7246CF5F9

:1013E00082E434221211601212D70223A0EE64208C

:1013F000705DFF900003E0FEEFC39E5040EF25E0DC

:1014000024ACF582E434211211601211CF248CF542

:1014100082E434211211601213281211D724CCF562

:1014200082E434211211601213311211D724ECF529

:1014300082E434211211601212D70223F39001BC0E

:10144000A3E0900325F09001BEA3E0900326F022D4

:10145000E49003A8F0FF9003A7F0EF14601E14605F

:101460003514604C14605B240470749003A97401FB

:10147000F0A3742FF0A37458F00224D9122B3990E2

:1014800000011219C5FED3941F4003122B621219DA

:10149000AC6E704B8043122B399000021219C5FEBE

:1014A000D394064003122B621219AC6E703180295E

:1014B000122B399000031219C5FE1219AC6E701F61

:1014C0008017122B399000041219C5FE648B60033B

:1014D000122B621219AC6E70069003A7E004F00F95

:1014E000EF6405600302245A9003A7E0B40504A347

:1014F0007401F09003A8E0FD6007900335E0547F8D

:10150000F0CFEDCF22758A50538AEF9003BF74114C

:10151000F09003BD7422F09003C07433F075997F8E

:10152000759A80E4FFFEC29620970AD296309705FE

:10153000E49003BFF00FBF00010EEF640A4E70E6A7

:1015400075993F759AC0E4FEFF2097069003BD741D

:1015500027F020960C9003BD7426F0209703742882

:10156000F00FBF00010EEF640A4E70DDE4F5AD75BB

:10157000AEF075AF09F5AC7589FF75913F75991F90

:10158000F59675931FF59BF595F592F59A75800C78

:10159000D28A9003BE04F0227E017FCD7D007B01C4

:1015A0007A007904121B131228609003347410F02F

:1015B000122396E4FE900003E0FFEEC39F5056E432

:1015C000FC75F088EE1210E61211931212E8EE127A

:1015D0001246F583E5822C1210CEE4F0EE1211854E

:1015E0001212E8EE12136D2C1210CE121250F58367

:1015F000E5822C1210CEE4F0CFEECFCDECCD121060

:101600004E122CDD0CEC640970B7121276F583E4EF

:10161000F00E0225B59001CF747EF0900002F0E448

:101620009001CEF022900002E0FFC394105024A35A

:10163000E0FEEFC39E501C900002E075F002A41281

:101640001331121296EF1210A7E0FEA3E0C39DEE35

:101650009C50567F7E9001CEE070291213D124C099

:10166000F582E5F03401121296EE1210A7E0FAA30B

:10167000E0C39DEA9C40299001D0E0FF9001CE7428

:1016800001F0801C1213D1121328121296EE1210C0

:10169000A7E0FAA3E0C39DEA9C40059001D0E0FFDB

:1016A0009001CFE06F6002EFF022022B72E493A36F

:1016B000F8E493A34003F68001F208DFF48029E404

:1016C00093A3F85407240CC8C333C4540F4420C850

:1016D000834004F456800146F6DFE4800B010204E7

:1016E0000810204080902C22E47E019360BCA3FF70

:1016F000543F30E509541FFEE493A360010ECF541C

:10170000C025E060A840B8E493A3FAE493A3F8E40A

:1017100093A3C8C582C8CAC583CAF0A3C8C582C876

:10172000CAC583CADFE9DEE780BE0FFFFF00000005

:1017300000000000FFFFFFFFFFFFFFFFFF000000B2

:101740000000000000000000000000000000000099

:101750000000000000000000000000000000000089

:101760000000000000000000000000000000000079

:101770000000000000000000000000000000000069

:101780000000000000000000000000000000000059

:101790000000000000000000000000000000000049

:1017A00000000000000000000000902EC0E4F09057

:1017B0002ECB74F7F0902F58E0540F24F0902EC8E1

:1017C000F0902ECC7448F0902EC97428F0A3743F8A

:1017D000F0902E4074811211C2F0A3F0A3041211F4

:1017E000C214F0A3F0902EC67414F0902EC1749021

:1017F000F0A37401F0A37470F0A3740CF043E31031

:10180000122C48900003EFF022C0E0C0F0C083C06B

:1018100082C0D0E8C0E0ECC0E0EDC0E0EEC0E0EF98

:10182000C0E0D2AF9001D1E004F0C3940A4017E4C5

:10183000F01211522401FFE43EFEE43DFDE43CFCC5

:10184000900290121ACAD0E0FFD0E0FED0E0FDD0A6

:10185000E0FCD0E0F8D0D0D082D083D0F0D0E0321D

:101860007E007F807D007B017A037921121B13901B

:1018700003217408F0E4900323F090033374ABF079

:10188000900335748BF09003BFE0900327F0900332

:10189000BDE0900328F09003C0E0900329F01224EB

:1018A0005090031EE060089003227401F08005E46C

:1018B000900322F00229F59003BBEDF09003BAEFFC

:1018C000F0A3E0FE121220F583E5822E1210CEE086

:1018D00060329003BAE0121348C083C0829003BB09

:1018E000E0D082D083121141902160121206401480

:1018F0009003BBE0FF9003BAE01212211210C9E47A

:10190000F07F01227F00229003BBEDF09003BAEF3D

:10191000F0A3E0FE12122DF583E5822E1210CEE028

:1019200060329003BAE0121356C083C0829003BBAA

:10193000E0D082D08312114190216212120640142D

:101940009003BBE0FF9003BAE012122E1210C9E41C

:10195000F07F01227F00229003A7EFF0C3940A508A

:1019600042E0FF24D312128EE06038EF12133A12D5

:101970001147C39BFBEE9AFAED99F9EC98F89003A6

:10198000A7E025E02456F582E43421F583121212F3

:10199000400E9003A7E024D312128EE4F07F0122C0

:1019A0007F00227F00229003A67410F0A3E4F0A32E

:1019B000743FF0A374FFF0E4FDFCF99003A6E0FE91

:1019C000A3E02DF582EE3CF583E493FF69F90DBDAC

:1019D00000010CBC2FE5BDFFE29003A8E0FEA3E0F0

:1019E000F5828E83E49369700690031E04F022E46E

:1019F00090031EF0229001C4A3E0900379F09001BF

:101A0000C2A3E090037AF09001BEA3E090037BF0C4

:101A10009001BCA3E090037CF09001CAA3E0900386

:101A20007DF09001C8A3E090037EF09022907401B5

:101A30009390037FF090228E740193900380F022A4

:101A40009003BEE06044900008E0FEA3E0FFC39472

:101A500070EE941750069003C07426F0C3900007F0

:101A6000E09470900006E0941750129003C0742721

:101A7000F0C3EF9470EE941750037428F0E49003D1

:101A8000BEF09003C0E0900329F022CBEFCBEB64D3

:101A900002701712111DE0900371F0121131A3E0D2

:101AA000900372F0ECA3F0EDA3F0EB640170171259

:101AB000111DE0900375F0121131A3E0900376F050

:101AC000ECA3F0EDA3F0229003BA1213A3503090D0

:101AD00003BAE0FFEB1212211210C9E07021EB12E1

:101AE00012211210C97401F0121152FFEB121348A7

:101AF000C083C0829003BAE0D082D0831213AD229B

:101B00009003BA1213A350309003BAE0FFEB121205

:101B10002E1210C9E07021EB12122E1210C974019E

:101B2000F0121152FFEB121356C083C0829003BA19

:101B3000E0D082D0831213AD229003A9E0FBA3E092

:101B4000FAA3E0F922E4F5DA75DA4043DA2075D732

:101B50004075DA58229003A2E0FF04F08F8275836B

:101B600000229003A87401F022E92FF9E43AFA0266

:101B700019AC7520011229A653A87F122505122D34

:101B800012122CF1122CA943A880122C8CEF24E005

:101B9000600A2410700AC283C2828004D283D28277

:101BA000122396121E5E80E2E4FFFE900003E0FD29

:101BB000EEC39D501BEF1210A4121298EE1210A744

:101BC000E0FAA3E0D39DEA9C4003CFEECF0E80DB8A

:101BD0009001D0EFF022CAEFCAEAC39410501C90D3

:101BE0000002E06A60157F01122D037F03122C6B47

:101BF000900002EAF09001CD7401F022900002748E

:101C00007EF07F03122D039001CDE060147F01125E

:101C10002C6B7F01122957EF6007E49001CDF0A3F0

:101C2000F022410205004101D1004103A10041031E

:101C3000A20042031B000041031D0041031F00419D

:101C4000031E004103201000902EC5E4F0902ECD1D

:101C5000F0A3F0FFFEEE90216C93600974062F1242

:101C60001388EEF00F0EEEB410EB22CBEFCBEBD3DC

:101C7000940A501712128BE0701112128B7401F03B

:101C8000121152FFEB12133A121ACA22E4FD90030A

:101C90001DE06011900321E0FE54F0FDEE540FF0C2

:101CA000E490031DF0CFEDCF229003A37401F0A3C5

:101CB0007403F0A37421F0122B4543A90875B808EA

:101CC00075F80822900290121AD6000000007E00DB

:101CD0007F0A7D007B017A0179D3021B13EFD39435

:101CE00003500D12122DF583E5822D1210CEE4F073

:101CF0002275B28E75B6F9E4F5B743B20143AA0175

:101D0000022CC4EFD3940A500874D32F12128EE41D

:101D1000F0221227AA9001D27401F0022598EE3029

:101D2000E707C3E49FFFE49EFE22000000000000DE

:101D300000000000000000000000000000000000A3

:101D40000000000000000000000000000000000093

:101D50000000000000000000000000000000000083

:101D60000000000000000000000000000000000073









































































































































































































































































































:102FF0000000000000000000000000000000004E83

:00000001FF
