:10000000FF004C6174746963650069434563756200
:10001000653220323031342E30382E32363732339A
:1000200000506172743A20694345354C50344B2D71
:10003000535747333600446174653A204A756E2041
:10004000323320323031352030383A35303A00FF03
:100050003330007EAA997E51000105920020620291
:10006000B37200B082000011000101000000000026
:100070000000000000001000000000000040000030
:10008000000000010000000000000400000000006B
:100090000010000040000000001000000000000000
:1000A000400180000000000000000100000000008E
:1000B00000040000000000001000004000000000EC
:1000C000000000000000000000000000020000002E
:1000D00000000008000000000000200000000000F8
:1000E000008000000000000200000000000000008E
:1000F00000000000000000000800000000000000F8
:10010000002000000000000080000000000002004D
:10011000000000500000000000000000000000008F
:1001200000000000000000000000000000000000CF
:1001300000000000000000000000000000000000BF
:1001400000400B00000010024000000000400000D2
:10015000000000000000000000000000000000009F
:10016000000000000000000040010000000000004E
:10017000000000000000000000000000000000007F
:10018000000000000000000000000000000000006F
:10019000000000000000000000B8000000002C007B
:1001A000000000000000000000000000000000004F
:1001B000000000000000000000000000000000003F
:1001C00080000000000000000000000000000000AF
:1001D000000000000000000000000000000000001F
:1001E000000000000000000000000000000080008F
:1001F000000F00200000000000008007800D0000BC
:1002000000000000000000000000000000000000EE
:1002100000000000008000000B0000000000000053
:1002200000000000000000000000000000000000CE
:1002300000000000000000000000000000000000BE
:10024000000000000000000050000000001C000042
:1002500000000000D00000000000000000000000CE
:10026000000000000000000000000000000000F09E
:10027000000000000000000000000000000000007E
:10028000000000000000000000000000000000006E
:10029000000000000000000000000000000000005E
:1002A000000000000000000000000000000000004E
:1002B000000000000000000000000000000000003E
:1002C000000000000000000000000000000000002E
:1002D000000000000000000000000000000000001E
:1002E000000000000000000000000000000000000E
:1002F00000000000000000000000000000000000FE
:1003000000000000000000000000000000000000ED
:1003100000000000000000000000000000000000DD
:1003200000000000000000000000000000000000CD
:1003300000000000000000000000000000000000BD
:100340000000000000000000000782000000000024
:10035000800000000000020000000000000000001B
:10036000000000000000000000000000000000008D
:100370000702000000000000000000000000000074
:10038000000000000000000000000000000000006D
:10039000000000000000000000000000000000005D
:1003A000000000000000000000000000000000004D
:1003B000000000000000000000000000000000003D
:1003C00000000000000000700000000000000000BD
:1003D000000000000000000000000000000000001D
:1003E000000000000000000000000000000000000D
:1003F00000000000000000000D400000000140006F
:100400000000008007000000000000000000000065
:100410000000000000000000000000000000000DCF
:10042000C00000000000000000000000000000000C
:1004300000000000000000000000000000000000BC
:100440000000000000000000000000040000000C9C
:10045000010000003C0000040058002000000000E3
:10046000000000000000000000000000000000008C
:1004700000000400000084000000000000000000F4
:10048000000000000000000000000000000000006C
:10049000000000000000000000000000000000005C
:1004A00000000007000000000060000000000000E5
:1004B000000000000000000000000000000000003C
:1004C000000000000000000000000000000000002C
:1004D000000000000000000000000000000000001C
:1004E000000000000000000000000000000000000C
:1004F00000000000000000000400000000010002F5
:1005000000000000040000000000000000000000E7
:1005100000000000000000000000000000000004D7
:1005200000000000000000000000000000000000CB
:1005300000000000000000000000000000000000BB
:1005400000000000000000000000000000000000AB
:100550000D0100000002404000000000008100008A
:10056000000000000000000000000000000000008B
:10057000000000000000000D01000000000000006D
:10058000000000000000000000000000000000006B
:10059000000000000000000000000000000000005B
:1005A00000000000000800800000020020000000A1
:1005B00000080070000000000000000000000000C3
:1005C0000000000000000000000000000800000023
:1005D000000000000000000C3020000000000000BF
:1005E000000000000000000000000000000000000B
:1005F00000000000000000000000000100000000FA
:1006000000000000003FD0000000000000000000DB
:1006100000000000000000000E10080000000100B3
:100620000000000000000000000000000000C30007
:1006300000000000000000000000000000000000BA
:1006400000000000000000000000000000000000AA
:1006500000001100002C000000000003FC0000005E
:100660000000000000020000000000000000002E5A
:100670000000000000A000000000000000000000DA
:10068000000000000C30200000000000000000000E
:10069000000000000000000000000000000000005A
:1006A00000000000000000000A00000000028000BE
:1006B0000000000002000000000000001000000028
:1006C0000000A000005C850C0000058A000000000E
:1006D0000000000000000000000000C30000000057
:1006E000000000000000000000000000000000000A
:1006F000000000000000000000000000000000807A
:1007000000002C0028000000000000A000000000F5
:1007100000000000000000000800003AC005400092
:1007200000010000000000000000000000000000C8
:10073000000C30200000000000000000000000005D
:1007400000000000000000000000000000000000A9
:10075000000000000000013E00000000000000005A
:100760000000000400000000000000000000000085
:100770000006548F0C0000059A360040000000006F
:100780000000000000000000C300000000000000A6
:100790000000000000000000000000000000000059
:1007A0000000000000000000000000000003E03C2A
:1007B0000000000000000000000000000000000039
:1007C000000000000000000020200F400000000397
:1007D000F8000000000000000000000000000C30E5
:1007E00020000000000000000000000000000000E9
:1007F00000000000000000000000000000000000F9
:100800000000000000020000000040B83FC00000EF
:100810002000000000003A000000000000006054CA
:10082000850C000008199690088000000000000068
:100830000000000000C300000000000000000000F5
:1008400000000000000000000000000000000000A8
:100850000000000000000000000000002C0000006C
:1008600000070294000002C00000000002C0000067
:10087000000000000022E00540000050A5C000007C
:1008800000000000000000000000000C302000000C
:100890000000000000000000000000000000000058
:1008A0000000000000000000000000000000000048
:1008B0000004700000000000003FD00000000000B5
:1008C000FF60000000000000000000069E8F0C008A
:1008D00000000E03B00080000000000000000000D7
:1008E0000000C30000000000000000000000000045
:1008F00000000000000000000000000000000000F8
:100900000000000000000000225C00000000000366
:10091000FC00000000000FF00000000000000000DC
:10092000000000000F400000D10043000000000064
:1009300000000000000000000C302000000000005B
:1009400000000000000000000000000000000000A7
:10095000000000000000000000000000000000385F
:100960000000000000000000000000000000000087
:10097000000000000000000002968F0C0000000044
:10098000000000000000000000000000000000C3A4
:100990000000000000000000000000000000000057
:1009A0000000000000000000000000000000000047
:1009B0000000000002400C000000100000000000D9
:1009C0000000000000000000000000000000000027
:1009D000000F4000000000000000000000000000C8
:1009E00000000000000C30200000000000000000AB
:1009F00000000000000000000000000000000000F7
:100A000000000000000000000001001C20000000A9
:100A10000700000000000000021AFA1000000000A9
:100A2000000000000060168F0C00000500000000B0
:100A3000000000000000000000000000C3000000F3
:100A400000000000000000000000000000000000A6
:100A50000000000000000000000000000000000096
:100A60000000001400000008000000000000001C4E
:100A70000F500000000000000000000000200F40A8
:100A8000000008E00000000000000000000000007E
:100A900000000C30200000000000000000000000FA
:100AA0000000000000000000000000000000000046
:100AB0000000000000000C0000000000000000002A
:100AC00000000000040000FF4000000000000000E3
:100AD0004006C006850C00000000D2C000000000E7
:100AE000000000000000000000C300000000000043
:100AF00000000000000000000000000000000000F6
:100B000000000000000000000000000000400000A5
:100B100014000000F000000000000020000FF000B2
:100B200000000000000000008602E00560000000F8
:100B300001AC800000000000000000000000000C7C
:100B40003020000000000000000000000000000055
:100B50000000000000000000000000000000000095
:100B60000000000000000000400000000000000045
:100B70000000000000000000000000000000006015
:100B80001C850C00000000000000000000000000B8
:100B9000000000000000C300000000000000000092
:100BA0000000000000000000000000000000000045
:100BB00000000000000000000000008000000000B5
:100BC0000000000000000020000000000000000005
:100BD0000000000001000340054400000000000088
:100BE0000000000000000000000000000C302000A9
:100BF00000000000000000000000000000000000F5
:100C000000000000000000000000000000000000E4
:100C10000000000000000000000000000A002000AA
:100C200018FA0100020000000000A0000014850472
:100C30000280000000000000000000000000000032
:100C4000000000C3000000000000000000000000E1
:100C50000000000000000000000000000000000094
:100C6000000000000000000000000008000070000C
:100C7000000000A003401C0F5000004000000000D6
:100C800008000000600A4020000000000000000092
:100C90000000000000000000000C302000000000F8
:100CA0000000000000000000000000000000000044
:100CB000000000000000000000000000000C000028
:100CC00000000000001A000000000000000000000A
:100CD000000000000000000080060000000000008E
:100CE0000000000000000000000000000000000004
:100CF000C300000000000000000000000000000031
:100D000000000000000000000000000000000000E3
:100D100000000000C000000008000001000000000A
:100D200000000000000000000000000000000000C3
:100D30004000000000000000000000000000000073
:100D40000000000000000C30200000000000000047
:100D50000000000000000000000000000000000093
:100D60000000000000000000000000000000000083
:100D70000000000000000000000000000000000073
:100D8000000000002000000000000000001800002B
:100D900000020000000000000000000000C300008E
:100DA0000000000000000000000000000000000043
:100DB0000000000000000000000000000000000033
:100DC00000000000000080000000000000000000A3
:100DD0000000000000000000000000000000000013
:100DE0000000000000000000000000000000000003
:100DF0000000000C30200000000000000000000097
:100E000000000000000000000000000000000000E2
:100E100000000000000000000000000000000000D2
:100E200000000000000000000000000000000000C2
:100E300000000000000000000000000000000200B0
:100E400000000000000000000000C30000000000DF
:100E50000000000000000000000000000000000092
:100E6000000000000000000000000000000004007E
:100E7000000008000000000000000000000000006A
:100E80000000000000000000000000000000000062
:100E90000000000000000000000000000000000052
:100EA0000C302000000000000000000000000000E6
:100EB0000000000000000000000000000000000032
:100EC00000000000000000000040000000562BC0A1
:100ED00020000000000000000000000000000000F2
:100EE0000000000000000000000000020000000000
:100EF00000000000000000C300000000000000002F
:100F000000000000000000000000000000000000E1
:100F100000000000000000000000000000000000D1
:100F20000000000082BC0000000000000000000083
:100F300000000000000000000000000000000000B1
:100F4000000000140000000000000000000C302031
:100F50000000000000000000000000000000000091
:100F60000000000000000000000000000000000081
:100F70000000000020004000000003ABC00000049F
:100F80000000FF4000000000000000000A00000018
:100F90000000000000000000000100000000000050
:100FA00000000000C300000000000000000000007E
:100FB0000000000000000000000000000000000031
:100FC0000000000000000000000000000000000021
:100FD000FD417C80000260000FF0800000000000F6
:100FE00000000044000000000000000000000000BD
:100FF000800000000000000000000C302000000015
:1010000000000000000000000000000000000000E0
:1010100000000000000000000000000000000000D0
:10102000000000400000000000000000000000FF81
:10103000600000000000000040000000000001000F
:10104000001C7EA5900000000000000000000000D1
:1010500000C30000000000000000000000000000CD
:101060000000000000000000000000000000000080
:101070000000000000000000000000000000000070
:1010800000000000000FF000000000000000000061
:10109000000000000000000100C259000000000034
:1010A000000000000000000C3020000000000000E4
:1010B0000000000000000000000000000000000030
:1010C0000000000000000000000000000000000020
:1010D0000000000000000000000000000000000010
:1010E0000000000000000000000000000000000000
:1010F00000000000000000FF408000000000C3006E
:1011000000000000000000000000000000000000DF
:1011100000000000000000000000000000000000CF
:1011200000000000000000000000000000000000BF
:1011300000000000000000000000000000000000AF
:10114000000000000000000000000000000FF000A0
:10115000000000000C302000000000000000000033
:10116000000000000000000000000000000000007F
:10117000000000000000000000000000000000006F
:10118000000000000000000000000000000000005F
:10119000000000000000000000000000000000024D
:1011A0000000000000000000000000C3000000007C
:1011B000000000000000000000000000000000002F
:1011C000000000000000000000000000000000001F
:1011D00000000000000000000000004000000000CF
:1011E00000000000000000000000000000000000FF
:1011F000000000000000A00000000000000000004F
:10120000000C302000000000000000000000000082
:1012100000000000000000000000000000000000CE
:1012200000000000000000000000000000000000BE
:1012300000000000000000000000000000000000AE
:101240000000000000000000000000000100160087
:101250000000000000000000C300000000000000CB
:10126000000000000000000000000000000000007E
:10127000000000000000000000000000040000006A
:10128000000000000000000000000000000000005E
:10129000000000000000000000000000000000004E
:1012A00000000000002000000000000000000C30E2
:1012B000200000000000000000000000000000000E
:1012C000000000000000000000000000000000001E
:1012D000000000000000000000000000000000000E
:1012E00000000000000000000000000004000000FA
:1012F00000000000000000000000000000000000EE
:101300000000000000C3000000000000000000001A
:1013100000000000000000000000000000000000CD
:1013200000000000000000000000000000000000BD
:1013300000000000000000000000000000000000AD
:10134000000000800000000000000000000000001D
:1013500000000000000000000000000C3020000031
:10136000000000000000000000000000000000007D
:10137000000000000000000000000000000000006D
:101380000000000000280000000000000000000035
:10139000000000000000000000000000000000004D
:1013A000000000000000000000000000000000003D
:1013B0000000C3000000000000000000000000006A
:1013C000000000000000000000000000000000001D
:1013D000000000000000000000000000000000000D
:1013E00000000000000000000000000000000000FD
:1013F00000000000000000000000000000000000ED
:1014000000000000000000000C3020000000000080
:1014100000000000000000000000000000000000CC
:1014200000000000000000000000000000000000BC
:1014300000000000000000000000000000000000AC
:10144000000000000000000000000000000000009C
:10145000000000000000000000000000000000C3C9
:10146000000000000000000000000000000000007C
:10147000000000000000000000000000000000006C
:10148000000000000000000000000000000000005C
:10149000000000000000000000000000000000004C
:1014A000000000000000000000000000000000003C
:1014B00000000000000C30200000000000000000D0
:1014C000000000000000000000000000000000001C
:1014D0000000000000000000000000000000000804
:1014E00000000000000000400000000000000000BC
:1014F00000000000000000000000000000000000EC
:10150000000000000000000000000000C300000018
:1015100000000000000000000000000000000000CB
:1015200000000000000000000000000000000000BB
:101530000000000000001800000000000000000093
:10154000000000000000000000000000000000009B
:10155000000000000000000000000000000000008B
:1015600000000C302000000000000000000000001F
:10157000000000000000000000000000000000006B
:10158000000000000000000000000000000000005B
:10159000000000000000000000000000000000004B
:1015A000000000000000000000000000000000003B
:1015B000000000000000000000C300000000000068
:1015C000000000000000000000000000000000001B
:1015D000000000000000000000000000000000000B
:1015E00000000000000000000000000000000000FB
:1015F00000000000000000000000000000000000EB
:101600000000000000000000000000000000000CCE
:10161000302000000000000000000000000000007A
:1016200000000000000000000000000000000000BA
:1016300000000000000000000000000000000000AA
:10164000000000000000000000000000000000009A
:10165000000000000000000000000000000000008A
:10166000000000000000C3000000000000000000B7
:10167000000000000000000000000000000000006A
:101680000000000000000000000000080000000052
:10169000200000000000000000000000000000002A
:1016A000000000000000000000000000000000003A
:1016B0000000000000000000000000000C302000CE
:1016C000000000000000000000000000000000001A
:1016D000000000000000000000000000000000000A
:1016E00000000000000000000000000000000000FA
:1016F00000000000000000000000A00007800000C3
:10170000000180000000000A0000000A5F400000A5
:10171000000000C300000000000000000000000006
:1017200000000000000000000000000000000000B9
:1017300000000000000000000000000000000000A9
:101740000000000000000000000000000000000099
:101750000801407800000000000000000000800048
:10176000002C0AF000000000000C302000000000F7
:101770000000000000000000000000000000000069
:101780000000000000000000000000000000000059
:101790000000000000000000000000000000000049
:1017A0000100000000000000000300000000000035
:1017B0000000000000001C0000000000000000000D
:1017C000C300000000000000000000000000000056
:1017D0000000000000000000000000000000000009
:1017E00000000000004000000000000000000000B9
:1017F00000000000000000000000000000000000E9
:1018000000000000000000000000000000200000B8
:101810000000000000000C3020000000000000006C
:1018200000000000000000000000000000000000B8
:1018300000000000000000000000000000000000A8
:101840000000000000000000000000000000000098
:10185000000000000000065D85540010000000003C
:1018600000000000000000000000000000C30000B5
:101870000000000000000000000000000000000068
:101880000000000000000000000000000000000058
:101890000000000000000000000000000000000048
:1018A000000000000000000000000000003830557B
:1018B00041828000000000000000000000000000E5
:1018C0000000000C302000000000000000000000BC
:1018D0000000000000000000000000000000000008
:1018E00000000000000000000000000000000000F8
:1018F00000000000000000000000000100000000E7
:1019000000000000178F548000000000000000005D
:1019100000680000000000000000C300000000009C
:1019200000000000000000000000000000000000B7
:1019300000000000000000000000000000000000A7
:101940000000000000000000000000000000000097
:10195000000000000000000010000370A0400040E4
:101960000000000000000000000000000000000077
:101970000C3020000000000000000000000000000B
:101980000000000000000000000000000000000057
:101990000000000000100000000000000000000037
:1019A0000000000000000000000000000000010036
:1019B0000000000000040000000000001000000013
:1019C00000000000000000C3000000000000000054
:1019D0000000000000000000000000000000000007
:1019E00000000000000000000000000000000000F7
:1019F00000000000000000000000000000000000E7
:101A000000000000000000000000000000000000D6
:101A1000000000000000000000000000000C30206A
:101A200000000000000000000000000000000000B6
:101A300000000000000000000000000000000000A6
:101A40000000000000000000000000000000000096
:101A50000000000000080000000000000006000078
:101A60000000000000000000000006000CA00100C3
:101A700000000000C30000000000000000000000A3
:101A80000000000000000000000000000000000056
:101A900000000000000000000080000000000000C6
:101AA0000000000000000000000000000000000036
:101AB0000000000000000000000000000000000026
:101AC000000015050000000000000C3020000000A0
:101AD0000000000000000000000000000000000006
:101AE00000000000000000000000000000000000F6
:101AF00000000000280000000000000000000000BE
:101B000000000000000000004080001780A40800D2
:101B10000000000000000000000EFC620000000059
:101B200000C30000000000000000000000000000F2
:101B300000000000000000000000000000000000A5
:101B40000000000000000000000001000000000094
:101B50000000000000000000000000000000000085
:101B60000000300A4080000000000000000000007B
:101B70000FC0000000000000000000000000000096
:101B80000000000000000000000000000000000055
:101B90000000000000000000000000000000000045
:101BA000000000005756C800048000DCA0000000C0
:101BB000018131408000000000000000000000DAD8
:101BC000D3C0000000000000000000000000000082
:101BD0000000000000000000000000000000000005
:101BE00000000000000000000000000000000000F5
:101BF00000000000000000020000F3619C000000F3
:101C000000030A00000000100C1402400000000055
:101C100000000000000D297C000000000000000012
:101C200000000000000000000000000000000000B4
:101C300000000000000000000000000000000000A4
:101C40000000000000000000000000000000000391
:101C5000889F568000000004FE0022000004E87007
:101C600004080010000000000008000AD70080CA25
:101C7000001C000000000000000000000000000048
:101C80000000000000000000000000000000000054
:101C90000000000000000000000000000000000044
:101CA000000000000000D9053928000000020F00E4
:101CB00010000000009000804000000000000000C4
:101CC000000109C0000480002000000000000000A6
:101CD0000000000000000000000000000000000004
:101CE00000000000000000000000000000000000F4
:101CF00000000000000000000000000000007F98CD
:101D00008080003C035E0000000400000000000032
:101D100000000000000000001800000001000000AA
:101D200000000000000000000000000000000000B3
:101D300000000000000000000000000000000000A3
:101D40000000000000000000000000000000000093
:101D50000000009007438C000000603C0A00000077
:101D60000000000000000000000000000000D000A3
:101D70000000000010000000000000000000000053
:101D80000000000000000000000000000000000053
:101D90000000000000000000000000000000000043
:101DA0000000000000000000000800861D00800008
:101DB0005C68F80022000001E00000000000000064
:101DC000000000000B9CB6CC0000000000000000EA
:101DD0000000000000000000000000000000000003
:101DE00000000000000000000000000000000000F3
:101DF00000000000000000000000000000000000E3
:101E0000F00102E0000008000D0D100000000000CD
:101E10000000000000000000000000190F743000F6
:101E200000080000000000000000000000000000AA
:101E300000000000000000000000000000000000A2
:101E40000000000000000000000000000000000092
:101E5000000000000000059C37388080001E33CA57
:101E6000200000000089B8140000000000000000FD
:101E700000000077A8004000000000000000000003
:101E80000000000000000000000000000000000052
:101E90000000000000000000000000000000000042
:101EA000000000000000000000000000405000831F
:101EB00088000100043EE00004040000F83C0040FB
:101EC0001000000000000000D0004280000100006F
:101ED0000000000000000000000000000000000002
:101EE00000000000000000000000000000000000F2
:101EF00000000000000000000000000000000000E2
:101F000000000401889FC640001004341A03020038
:101F100040000F6A80800100000000000000000FF8
:101F2000000000003000040000000000000000007D
:101F300000000000000000000000000000000000A1
:101F40000000000000000000000000000000000091
:101F50000000000000000000000091E92094000053
:101F60000367400030000007007C00001000000004
:101F7000000000000000D00000000000020000008F
:101F80000000000000000000000000000000000051
:101F90000000000000000000000000000000000041
:101FA0000000000000000000000000000000000031
:101FB0000500F3680000001E26EE0000000001C0CE
:101FC00000000000000000000000000000F783C0D7
:101FD00000000003F8A54000000000000000000021
:101FE00000000000000000000000000000000000F1
:101FF00000000000000000000000000000000000E1
:1020000000000000000000900135D0000000077FB4
:10201000A20000020F1000000000000000000000FD
:102020000000D00D417C040000002C0FA400000033
:1020300000000000000000000000000000000000A0
:102040000000000000000000000000000000000090
:102050000000000000000000000000000005809A61
:10206000204080000023DAFA00000081C000000058
:102070000404000000000000000000000004002034
:102080000000000000000000000000000000000050
:102090000000000000000000000000000000000040
:1020A0000000000000000000000000000000000030
:1020B0000000000070A74388000001C00F05000069
:1020C000000F1000000000A200000000000002004D
:1020D000E00000000002C00000000000000000005E
:1020E00000000000000000000000000000000000F0
:1020F00000000000000000000000000000000000E0
:10210000000000000000000002000000B6460000D1
:10211000000001CE40002000001BB56800800000D8
:102120000F8AF408205D003728000000000000003E
:10213000000000000000000000000000000000009F
:10214000000000000000000000000000000000008F
:10215000000000000000000000000000000000017E
:1021600000000136BC00000002FDE0000000090D87
:10217000DA068010000001F0055141025800C280CB
:10218000000000000000000000000000000000004F
:10219000000000000000000000000000000000003F
:1021A000000000000000000000000000000000002F
:1021B0000000000000028009803B2F008000200208
:1021C0004D200028008001228000A0000280000035
:1021D00000038000130280000000000000000000E7
:1021E00000000000000000000000000000000000EF
:1021F00000000000000000000000000000000000DF
:10220000000000000000000000000000200010039B
:1022100041900000014037A00002018100740000DD
:10222000080000400000000100000000280000003D
:10223000000000000000000000000000000000009E
:10224000000000000000000000000000000000008E
:10225000000000000000000000000000000000007E
:10226000000000000500D6960080002601CE400048
:102270000000000FE83C0800000000000000000023
:10228000003BBF488000000000000000000000008C
:10229000000000000000000000000000000000003E
:1022A000000000000000000000000000000000002E
:1022B0000000000000000000000000F80141740070
:1022C0000001C03DE000000000005823C0000000F5
:1022D000000000000000000F83FC20000000000050
:1022E00000000000000000000000000000000000EE
:1022F00000000000000000000000000000000000DE
:1023000000000000000000000000000000000000CD
:1023100000000FD3AF0080002605ECA0000004F9F8
:10232000807B8808040000000000000045000000D9
:10233000000000000000000000000000000000009D
:10234000000000000000000000000000000000008D
:10235000000000000000000000000000000000007D
:10236000000000000000000051ED4190000061C33A
:10237000D40F5000000180B4344000200000000061
:102380000000000800000000000000000000000045
:10239000000000000000000000000000000000003D
:1023A000000000000000000000000000000000002D
:1023B0000000000000000000000000000000038199
:1023C00076B458C0000074CF7F00000098A77075E5
:1023D0008C0000000000000000080A179FC00002E7
:1023E00000000000000000000000000000000000ED
:1023F00000000000000000000000000000000000DD
:1024000000000000000000000000000000000000CC
:10241000000000000008A0834584000947EEAFF0EB
:1024200000000700080758400000000000000000FE
:10243000710F73FC000000000000000000000000AD
:10244000000000000000000000000000000000008C
:10245000000000000000000000000000000000007C
:1024600000000000000000000000000901FEFFC0A5
:102470000000000208A00000309885F4B0000000C1
:10248000028000000003000876B880800000000091
:10249000000000000000000000000000000000003C
:1024A000000000000000000000000000000000002C
:1024B000000000000000000000000000000000001C
:1024C00000005887F3F80000000015050010000B0D
:1024D00010B28F00000000400000000002010B025B
:1024E00004000000000000000000000000000000E8
:1024F00000000000000000000000000000000000DC
:1025000000000000000000000000000000000000CB
:102510000000000000000000201AFFC000000014AE
:1025200039EE0102000080007014000000C00000BD
:10253000000040099C0000000000000000000000B6
:10254000000000000000000000000000000000008B
:10255000000000000000000000000000000000007B
:10256000000000000000000000000000000000006B
:102570009D7D00000002C36C000000028909340246
:102580008000000200000000040031000000000094
:10259000000000000000000000000000000000003B
:1025A000000000000000000000000000000000002B
:1025B000000000000000000000000000000000001B
:1025C0000000000100080B000000000014006A81F8
:1025D0000310000195B14000400000000000000021
:1025E0000001B380000000000000000000000000B7
:1025F00000000000000000000000000000000000DB
:1026000000000000000000000000000000000000CA
:10261000000000000000000000000000B0D000003A
:10262000000002E014050000000018001400400043
:102630000000000000000000CB7404000000000057
:10264000000000000000000000000000000000008A
:10265000000000000000000000000000000000007A
:10266000000000000000000000000000000000006A
:1026700000004508DFD78000801E025AA10000023A
:102680000195B494008000060000000000001A00CC
:10269000000000000E3800000000000000000000F4
:1026A000000000000000000000000000000000002A
:1026B000000000000000000000000000000000001A
:1026C0000000000000000000001907E7BC00000047
:1026D000003CEE300000500A37EFC000003400002C
:1026E00000000000000000000000002000000000CA
:1026F00000000000000000000000000000000000DA
:1027000000000000000000000000000000000000C9
:102710000000000000000000000000000000000BAE
:10272000808638808A002060183A0200000001305C
:102730000000A000000000000000001C86028000D5
:102740000000007E8000000000000000000000008B
:102750000000000000000000000000000000000079
:102760000000000000000000000000000000000069
:1027700000000000000018E5034400800242C4038A
:102780005000000500DC2800080080000000000068
:10279000007103001400000343158C0304000000C3
:1027A0000000000000000000000000000000000029
:1027B0000000000000000000000000000000000019
:1027C000000000000000000000000000000190294F
:1027D00040000000020118000000D80F680000004F
:1027E000000000000000100000722800010000003E
:1027F00000000000000000000000000000000000D9
:1028000000000000000000000000000000000000C8
:1028100000000000000000000000000000000000B8
:10282000000100008900000000040034D240800054
:102830000909F428000000140000000002800000D4
:102840004280000003400000000000000000000083
:102850000000000000000000000000000000000078
:102860000000000000000000000000000000000068
:102870000000000000000000000001BB0008800014
:102880002663787F0200808013711C080800628F25
:10289000AAF4040100009B0000800000000000007A
:1028A0000000000000000000000000000000000028
:1028B0000000000000000000000000000000000018
:1028C0000000000000000000000000000000000008
:1028D0007087C008000000401D0BA00010010A54C2
:1028E00036C000000242600A5100000003020000EE
:1028F00000000000000000000000000000000000D8
:1029000000000000000000000000000000000000C7
:1029100000000000000000000000000000000000B7
:102920000000000000000001D2090080000E30CE3F
:10293000FB02000001CF73E800000140000000002E
:102940000008003E368080000E00000000000000FD
:102950000000000000000000000000000000000077
:102960000000000000000000000000000000000067
:102970000000000000000000000000000000D7C2BE
:10298000E000008026030FB00000071EFC29400075
:102990000002000000000000F000C36800000020FA
:1029A0000000000000000000000000000000000027
:1029B0000000000000000000000000000000000017
:1029C0000000000000000000000000000000000007
:1029D0000000000580964BC000000038FA0520007A
:1029E0000001D7B0300800024036E0000000070ABE
:1029F000879400000000727E0801000000000000C3
:102A000000000000000000000000000000000000C6
:102A100000000000000000000000000000000000B6
:102A20000000000000000000000000A3603C010066
:102A30000002C300508800001FB82B0000002430A3
:102A4000FADF00000001034280400000003EC000A9
:102A50000000000000000000000000000000000076
:102A60000000000000000000000000000000000066
:102A70000000000000000000000000000000000056
:102A800000003FC80000005C00EE0102000001AD44
:102A90002280080001E224C0A0200300013F15406D
:102AA00040000000E880020000000000000000007C
:102AB0000000000000000000000000000000000016
:102AC0000000000000000000000000000000000006
:102AD00000000000000028000B340000000002434A
:102AE00000100000070814344000000200E0BD00A0
:102AF0000000708081546000000003080080000026
:102B000000000000000000000000000000000000C5
:102B100000000000000000000000000000000000B5
:102B2000000000000000000000000000000B819F7A
:102B3000D88004402473EC9551000000A72B440872
:102B400040000004EBC02000000A9F800000001C31
:102B50007C000000000000000000000000000000F9
:102B60000000000000000000000000000000000065
:102B70000000000000000000000000000000000055
:102B800000000000F0ADA908040A026425C9A408E9
:102B90000000000834400000000240640002800190
:102BA000037D18200000030000000000000000006A
:102BB0000000000000000000000000000000000015
:102BC0000000000000000000000000000000000005
:102BD00000000000000000000040000AB6400000B5
:102BE00040063A4AFA0004005189A2BC008002E281
:102BF000CDCA40002810081A828000000C38CFA4EB
:102C000000000000000000000000000000000000C4
:102C100000000000000000000000000000000000B4
:102C200000000000000000000000000000000004A0
:102C300000010B720082000000260F00004000809F
:102C4000BFD1C000002E23C8640001020105817CB1
:102C500000020363B5E74000000000000000000030
:102C60000000000000000000000000000000000064
:102C70000000000000000000000000000000000054
:102C800000000000000280000F1EA8080A003E0499
:102C90006A25420000819F62F408A022404680A07D
:102CA0000001001A5B3680800000024C50000000DA
:102CB0000000000000000000000000000000000014
:102CC0000000000000000000000000000000000004
:102CD0000000000000000000000000002000008054
:102CE000C280828000628407A50000010F701D0071
:102CF00008002631705F0000000007412800000036
:102D0000000E0000000000000000000000000000B5
:102D100000000000000000000000000000000000B3
:102D200000000000000000000000000000000000A3
:102D30000000000000001620008000043BE9200095
:102D4000008500A96800000008602EC00000000B8C
:102D5000803A94008040003B6803020000000000BD
:102D60000000000000000000000000000000000063
:102D70000000000000000000000000000000000053
:102D800000000000008000000000000000C200827F
:102D90000003E02D90800410001097408000000692
:102DA0000370A000000038BFC2F4000803C7370456
:102DB0000000000000000000000000000000000013
:102DC0000000000000000000000000000000000003
:102DD00000000000000000000000000000000000F3
:102DE0000000181E94080000002C7D210000000047
:102DF0001778B80800A14636E1802000038E7B08D2
:102E000040108000345E50200000000000000000F0
:102E100000000000000000000000000000000000B2
:102E200000000000000000000000000000000000A2
:102E300000000000000000000100C140000000028E
:102E4000A7E81000000D0A080B8000000301E02E27
:102E50000000000009361000040003400500800057
:102E60000000000000000000000000000000000062
:102E70000000000000000000000000000000000052
:102E80000000000000000000000000000010218091
:102E900000000000000002FCF702000651F7B684B3
:102EA00000000062A0A5302028081B00000000E000
:102EB0003C015E85020000000000000000000000F0
:102EC0000000000000000000000000000000000002
:102ED00000000000000000000000000000000000F2
:102EE000000000028000000000000000000D0FF054
:102EF00000005D89DB4800000C004340A300010096
:102F000070E00000000402E004080000000000007F
:102F100000000000000000000000000000000000B1
:102F200000000000000000000000000000000000A1
:102F30000000000000000000000000000100000090
:102F40000000263F41421900010003B16800000063
:102F50004735A8B02002878800000000001E02C884
:102F60001000000000000000000000000000000051
:102F70000000000000000000000000000000000051
:102F80000000000000000000000000000000000041
:102F9000003090A00000000003C23EB000040020FA
:102FA0000FB828000000004050E7000000000000BB
:102FB00000000000200DA000000000000000000044
:102FC0000000000000000000000000000000000001
:102FD00000000000000000000000000000000000F1
:102FE00000000000000000000008F7A154000014D9
:102FF0000259954182B871EFEA04080005E7848C14
:103000005020001818973000000000044AA1020068
:1030100000000000000000000000000000000000B0
:1030200000000000000000000000000000000000A0
:10303000000000000000000000000000000002107E
:10304000093F6925000C002E99A48C000080B80867
:10305000020000824010C5000002310DB04080081F
:103060000002350D1000000000000000000000000C
:103070000000000000000000000000000000000050
:103080000000000000000000000000000000000040
:10309000000000010000019F0004440000076F00D1
:1030A000000100D0B37A80004000001781D42400D2
:1030B0000780368CC000001C0000000000000000EB
:1030C0000000000000000000000000000000000000
:1030D00000000000000000000000000000000000F0
:1030E000000000000000C0000000000070DFC028E9
:1030F0000400024236F2000828079F0C2800000056
:103100000C00001D58040000097700000002600058
:1031100000000000000000000000000000000000AF
:10312000000000000000000000000000000000009F
:10313000000000000000000000000000000000008F
:103140000000000BF3AD4000000038FB0008010058
:10315000000B7C14008000007DD200000000000005
:10316000000000004E025C000000000000000000B3
:10317000000000000000000000000000000000004F
:10318000000000000000000000000000000000003F
:1031900000000000000000000000E3A7D4000000D1
:1031A000001FA4000008000073114000000025FB70
:1031B0009100000000C0000000000C23B40A0000D1
:1031C00000000000000000000000000000000000FF
:1031D00000000000000000000000000000000000EF
:1031E0000000000000000000000000000002801B42
:1031F0008AF319508000002BDB1008280098056323
:103200009589A000003DC4202000000000000000BF
:10321000001C735E4002000000000000000000007F
:10322000000000000000000000000000000000009E
:10323000000000000000000000000000000000008E
:10324000000000002002110F02970100800434D01A
:103250000002000B00383A9648000001E0E200004E
:1032600000000000000000000286002000000000B6
:10327000000000000000000000000000000000004E
:10328000000000000000000000000000000000003E
:103290000000000000000000000000202001B7280E
:1032A000000000BC79E85000000059E00000000078
:1032B00000004000000000058153B88000802039E4
:1032C000EAA0000000000000000000000000000074
:1032D00000000000000000000000000000000000EE
:1032E00000000000000000000000000000000000DE
:1032F00000010400E38000440817C6170FA0000077
:1033000000900000000000003400000000007090F9
:103310002B88000E00442C055080000000000000A7
:10332000000000000000000000000000000000009D
:10333000000000000000000000000000000000008D
:103340000000000000000000100501DF4000100038
:103350009400CAE22200020003F800000400C29DAB
:10336000B2000000000A00000000020E7B7C053263
:10337000000000000000000000000000000000004D
:10338000000000000000000000000000000000003D
:10339000000000000000000000000000000002002B
:1033A000089D244020000362810E20000000003CA4
:1033B000280000000002EE7A00000000000000007B
:1033C0000000067500100000000000000000000072
:1033D00000000000000000000000000000000000ED
:1033E00000000000000000000000000000000000DD
:1033F000000000000013881C52100080A020387AC2
:10340000A0000000180B0490800000021CA81020EF
:103410000007810000000000000000000000000024
:10342000000000000000000000000000000000009C
:10343000000000000000000000000000000000008C
:1034400000000000000000000000000090F100C13A
:1034500000000023C41F000090000000F3400000A3
:10346000000003D08B00000000F000000000C0024C
:1034700080000000000000000000000000000000CC
:10348000000000000000000000000000000000003C
:10349000000000000000000000000000000000002C
:1034A000000000018086810400000029FF00000068
:1034B00000801D650D800002666E870628000000F2
:1034C000B700C000001E0400000000000000000063
:1034D00000000000000000000000000000000000EC
:1034E00000000000000000000000000000000000DC
:1034F00000000000000000000000500F2C20000021
:10350000000435A020080003097238F00006247C6E
:10351000F0BA400000009FFD4C000A00034000008C
:10352000000000000000000000000000000000009B
:10353000000000000000000000000000000000008B
:10354000000000000000000000000000000000007B
:10355000018183200080201600CA2502010000009E
:1035600000000000000340000000018D807ABDC013
:1035700081AC00000000000000000000000000001E
:10358000000000000000000000000000000000003B
:10359000000000000000000000000000000000002B
:1035A0000000000000002010834100000000000225
:1035B0000250000000000000000000042400000091
:1035C0000030F08743E8000C00000000000000001D
:1035D00000000000000000000000000000000000EB
:1035E00000000000000000000000000000000000DB
:1035F0000000000000000000000000010000008644
:1036000034448000142FDB0000100018A0000000DC
:10361000400040000000000000005A3DC08000242F
:103620000258F01000000000000000000000000040
:10363000000000000000000000000000000000008A
:10364000000000000000000000000000000000007A
:1036500000000000008103880200002634D1000829
:10366000000D900000000000040000000000009029
:10367000D3C39C200003E0270F500000000000008F
:10368000000000000000000000000000000000003A
:103690000000000000000000000000000000010029
:1036A0005E528000000000000000080137A8000002
:1036B000000070000000000050E16BD40004000026
:1036C0003C850C0000001A8228000001400018F020
:1036D000404000000000000000000000000000006A
:1036E00000000000000000000000000000000000DA
:1036F0000000000000F801A4140000000000000019
:103700000070B042800400000400000000000000CF
:10371000003D4400A0000040054A00000001414077
:1037200000000800010F0C10000000000000000065
:103730000000000000000000000000000000000089
:1037400000000000000000000000000701DF1FC0B3
:103750008000000000028008181214000A00366879
:103760000000000000F193696808A002003C850C8D
:1037700000000D818719808A000078000000000099
:103780000000000000000000000000000000000039
:103790000000000000000000000000000000000029
:1037A000000008F140F82000000000002000300B6D
:1037B00040000082004000000000200F0D941280A5
:1037C00008001401400548000050A1426400880030
:1037D00000000000000000000000000000000000E9
:1037E00000000000000000000000000000000000D9
:1037F00000000000000000000000000000000000C9
:103800000000000000189F83408001046259AD0051
:10381000000000E9B90008400006F4850C0000082B
:10382000000000000C00000000000000000000008C
:103830000000000000000000000000000000000088
:103840000000000000000000000000000000000078
:1038500000000000000000000000000003802020A5
:1038600000000006E5A000000000BC00000C000005
:103870002060054800001000000000C000000000AB
:103880000000000000000000000000000000000038
:103890000000000000000000000000000000000028
:1038A0000000000000078000000000000000000091
:1038B0000000007FA940000000074A744280008198
:1038C000E9BB0C080002607C850C0050000000166B
:1038D0008000000000000000000000000000000068
:1038E00000000000000000000000000000000000D8
:1038F00000000000000000000000000000D00000F8
:103900000000000000000000000F83D4000000034E
:103910008D0F040000050054100000001421600504
:10392000400438700902940000000000000000000C
:103930000000000000000000000000000000000087
:103940000000000000000000000000000000000077
:1039500000000000000000000000000000000188DE
:103960003B0000000080021A274040050013EA9443
:10397000000000003E850C00000000968000000161
:10398000400200A548800000000000000000000088
:103990000000000000000000000000000000000027
:1039A0000000000000000000000000000000000017
:1039B00000000000000001C2800000000005A1B569
:1039C00010002D0ED03D40000000004005400000DA
:1039D000000183FC000008000C05AC0000000000A2
:1039E00000000000000000000000000000000000D7
:1039F00000000000000000000000000000000000C7
:103A00000000000001000000000018001CD2141C7F
:103A1000C000140019C00080005000000000000029
:103A20000036850C0000500000000000000000007F
:103A30000000000000000000000000000000000086
:103A40000000000000000000000000000000000076
:103A500000000000000000F0000000100000000066
:103A6000000050FFC2E100006000008C00002080D8
:103A70008800000000000001400540000200E00056
:103A800000000000400000000000000000000000F6
:103A90000000000000000000000000000000000026
:103AA0000000000000000000000000000000000016
:103AB0000000000000000003800087A800000080D4
:103AC00002780000800001E7E3C005000266368549
:103AD0000C00000008D60140000000380000000083
:103AE00000000000000000000000000000000000D6
:103AF00000000000000000000000000001000000C5
:103B000000000000000000000000000000000000B5
:103B10008301400000100005050080000009B8295D
:103B20004000000400600540000001093FE800007B
:103B30001004000000000000000000000000000071
:103B40000000000000000000000000000000000075
:103B5000000000000000000000000000168040008F
:103B60000000000100070ABE095084008402198089
:103B700000000104186040084002063E850C000069
:103B800020001E600004401C001EF04040000000A9
:103B90000000000000000000000000000000000025
:103BA0000000000000000000000000000000000015
:103BB00000010294000000000000000018F9816D6F
:103BC000A10000000494009000200E5408000000A2
:103BD000040160054000040009A00000000020006E
:103BE0000F0C800000110101010000000000000026
:103BF0000000000010000000000000400000000075
:103C0000000100000000000004000000000000109F
:103C10000000000000004000000000100000000054
:103C2000000040000000000001000000000000044F
:103C30000000000000001000004000000000000034
:103C40000000000000000000000002000000000072
:103C500000080000000000002000000000000080BC
:103C6000000000000002000000000000080000004A
:103C7000000200000000000008000000000000201A
:103C800000000000000080000000000002000000B2
:103C9000000000080000000000000000000000001C
:103CA0000000000000000000000000000000000014
:103CB00000000000000000000000000040000000C4
:103CC00000000000000000000000000000000000F4
:103CD00000000000000000000000000000000000E4
:103CE0000000000000004000000000000000000094
:103CF00000000000000000000000000000000000C4
:103D000000000000000000000000000000000000B3
:103D100000000000000000000000000000000000A3
:103D20000000000000000000000000000000000093
:103D30000000000000000000000000000000000083
:103D40000000000000000000000000000000000073
:103D50000000000000000000000000000000000063
:103D60000000000000000000000000000000000053
:103D70000000000000000000000000000000000043
:103D80000000000000000000000000000000000033
:103D9000000000800000090000000000000000009A
:103DA0000000000000000000000000000000000013
:103DB0000000000000000000000000000000000003
:103DC00000000000000000000000000000000000F3
:103DD00000000000000000000000000000000000E3
:103DE0000000000000000000000000000050000083
:103DF00000000000000000000000000000000000C3
:103E000000000000000000000000000000000000B2
:103E100000000000000000000000000000000000A2
:103E20000000000000000000000000000000000092
:103E30000000000000000000000000000000000082
:103E40000000000000000000000000000000000072
:103E50000000000000000000000000000000000062
:103E60000000000000000000000000000000000052
:103E70000000000000000000000000000000000042
:103E80000000000000000000000000000000000032
:103E90000000000000000000000000000000000022
:103EA0000000000000000000000000000000000012
:103EB0000000000000000000000000000000000002
:103EC00000000000000000050000000000000000ED
:103ED00000000000000000000000000000000000E2
:103EE00000000000000000000000000000000002D0
:103EF00000000000000000000000000000000000C2
:103F000000000000000000000000000000000000B1
:103F10000000000000000000000000000000080099
:103F20000000000000000000000000000000000091
:103F30000000000000000000000000000000000081
:103F40000000000000000000000000000000000071
:103F50000000000000000000000000000000000061
:103F60000000000000000000000000000000000051
:103F70000000000000000040000000000000000001
:103F80000000000000000000000000000000000031
:103F900000000000000000000000000D0000000014
:103FA0000000000000000000000000000000000011
:103FB0000000000000000000000000000000000001
:103FC000000000000000000000000000000C0000E5
:103FD00000000000000000000000000000000000E1
:103FE00000000000000000000000000000000000D1
:103FF0000000D800000000000000000000000000E9
:1040000000000000000000000000000000000000B0
:1040100000000000000000000000000000000000A0
:104020000000000000000000000000000000000090
:104030000000000000000000000000000000000080
:104040000000000000000000000000000000000070
:104050000000000000000000000000000000000060
:104060000000000000000000000000000000000050
:104070000000000000000000000000000000000040
:104080000000000000000000000000000000000030
:104090000000000000000000000000000000000020
:1040A0000000000000000000000000000000000010
:1040B0000000000000000000000000000000000000
:1040C00000000000000000000000000000000000F0
:1040D00000000000000000000000000000000000E0
:1040E00000000000000000000000000000000000D0
:1040F00000000000000000000000000000000000C0
:1041000000000000000000000000000000000000AF
:10411000000000000000000000000000000000009F
:10412000000000000000000000000000000000008F
:10413000000000000000000000000000000000007F
:10414000000000000000000000000000000000006F
:1041500000000020000C3000000000000000000003
:10416000000000000000000000000000000000004F
:10417000000000000000000000000000000000003F
:10418000000000000000000000000000000000002F
:10419000000000000000000000000000000000001F
:1041A000000000000000000000040000C302000046
:1041B00000000000000000000000000000000000FF
:1041C00000000000000000000000000000000000EF
:1041D00000000000000000000000000000000000DF
:1041E00000000000000000000000000000000000CF
:1041F00000000000000000000000000000000000BF
:1042000002000C3000000000000000000000004030
:104210005A20000000000000000000000000000024
:10422000000000000000000000000000000000008E
:10423000000000000000000000000000000000007E
:10424000000000000000000000000000000000006E
:10425000000000000000000000C302000000000099
:104260000000000000200A500000000000000000D4
:10427000000000000000000000000000000000003E
:10428000000000000400000000000000000000002A
:10429000000000000000000000000000000000001E
:1042A0000000000000000000000000000020000CE2
:1042B00030000000000000000000000000000000CE
:1042C00000000000000000000000000000000000EE
:1042D00000000001000000000000000000000000DD
:1042E00000000000000000000000000000000000CE
:1042F00000000000000000000000000000000000BE
:10430000000000040000C3020000000000000000E4
:10431000000000000000000000000000000000009D
:1043200000000000800000000000100000000000FD
:10433000000000000000000000000000000000007D
:10434000000000000000000000000000000000006D
:104350000000000000000000000000020C3000001F
:10436000000000000000000000000000000000004D
:10437000000000000000000000000000000000003D
:10438000000000000000000000000000000000002D
:10439000000000000000000000000000000000001D
:1043A000000000000000000000000000000000000D
:1043B0000001C0C302000000000000000000000077
:1043C00000000000000000000000000000000000ED
:1043D00000000000000000000000000000000000DD
:1043E00000000000000000000000000000000000CD
:1043F00000000000000000000000000000000000BD
:104400000000000000000000000C30000000000070
:104410000000040000000000000000000000000098
:10442000000000000000000000000000000000008C
:10443000000000000000000000000000000000007C
:10444000000000000000000000000000000000006C
:10445000000000000000000000000000000C01E06F
:10446000C302000000000000004000000000000047
:10447000000000000000000000000000000000003C
:10448000000000000000000000000000000000002C
:10449000000000000000000000000000000000001C
:1044A000000000000000000000000000000000000C
:1044B0000000000000000C300000000000000000C0
:1044C00000000000000000000000000000000000EC
:1044D00000000000000000000000000000000000DC
:1044E00000000000000000000000000000000000CC
:1044F00000000000000000000000000000000000BC
:10450000000000000000000000000000E0C3020006
:10451000000000000000000000000000000000009B
:10452000000000000000000000000000000000008B
:10453000000000000000000000000000000000007B
:10454000000000000000000000000000000000006B
:10455000000000000000000000000000000000015A
:104560000000000C3000000000000000000004000B
:10457000000000000000000000000000000000003B
:10458000000000000000000000000000000000002B
:10459000000000000000000000000000000000001B
:1045A000000000000000000000000000000000000B
:1045B00000000000000000000160C30200000000D5
:1045C00000000000000000000000000000000000EB
:1045D00000000000000000000000000000000000DB
:1045E00000000000000000000000000000000000CB
:1045F00000000000000000000000000000000000BB
:1046000000000000000000000000000000000000AA
:104610000C3000000000000000000000000000005E
:10462000000000000000000000000000000000008A
:10463000000000000040000000000000000000003A
:10464000000000000000000000000000000000006A
:10465000000000000000000000000000000000005A
:1046600000000000000000C3020000000000000085
:10467000000000000000000000000000000000003A
:10468000000000000000000000000000000000002A
:10469000000000000000000000000000000000001A
:1046A000000000000000000000000000000000000A
:1046B000000000000000000000000000000C3000BE
:1046C00000000000000000000000000000000000EA
:1046D00000000000000000000000000000000000DA
:1046E00000000000000000000000000000000000CA
:1046F00000000000000000000000000000000000BA
:1047000000000000000000000000000000000000A9
:104710000000000CC30200000000000000000000C8
:104720000000000000000000000000000000000089
:104730000000000000000000000000000000000079
:104740000000000000000000000000000000000069
:104750000000000000000000000000000000000059
:104760000000000000000002C0000C30000000004B
:104770000000000000000000000000000800000031
:104780000000000000000000000000000000000029
:104790000000000000000000000000000000000019
:1047A0000000000000000000000000000000000009
:1047B00000000000000000000000000000000000F9
:1047C00000C3020000000000000000000000000024
:1047D00000000100000000000000000000000000D8
:1047E00000000000000000000000000000000000C9
:1047F00000000000000000000000000000000000B9
:1048000000000000000000000000000000000000A8
:10481000000000000000000C30000020000000003C
:104820000000000000000000000000403C0000000C
:104830000000000000000000000000000000000078
:104840000000000000000000000000000000000068
:104850000000000000000000000000000000000058
:104860000000000000000000000000000000C30283
:104870000005000000000000000000000000000033
:10488000000303C80000000000000000000000005A
:104890000000000000000000000000000000000018
:1048A0000000000000000000000000000000000008
:1048B00000000000000000000000000000000000F8
:1048C0000002C0000C3000000000000000000000EA
:1048D00000000000000000C702940000000000007B
:1048E00000000000000000000000000000000000C8
:1048F00000000000000000000000000000000000B8
:1049000000000000000000000000000000000000A7
:104910000000000000000000000000C302000000D2
:104920000000000000000000000000000001001670
:1049300088000000000000000000000000000000EF
:104940000000000000000000000000000000000067
:104950000000000000000000000000000000000057
:104960000000000000000000000000000000000047
:10497000000C3000000000000000000000000000FB
:104980000000000000000000000000000000000027
:104990000000000000000000000000000000000017
:1049A0000000000000000000000000000000000007
:1049B00000000000000000000000000000000000F7
:1049C0000000000000000000C30200000000000022
:1049D00000000000000000000000000000000000D7
:1049E00000000000000000000000000000000000C7
:1049F00000000000000000000000000000000000B7
:104A000000000000000000000000000000000000A6
:104A100000000000000000000000010000000C3059
:104A20000000000000000000000000000000000086
:104A30000000000000000000000000000000000076
:104A40000000000000000000000000000000000066
:104A50000000000000000000000000000000000056
:104A60000000000000000000000000000000000046
:104A70000000000000C30200000000000000000071
:104A80000000000000000000000000000000000026
:104A90000000000000000000000000000000000016
:104AA0000000000000000000000000000000000006
:104AB00000000000000000000000000000000000F6
:104AC00000000000000000000000000C300010009A
:104AD00000000000000000000000000000000000D6
:104AE00000000000000000000000000000000000C6
:104AF00000000000000000000000000000000000B6
:104B000000000000000000000000000000000000A5
:104B10000000000000000000000000000000000095
:104B20000000C302020000000000000000000000BE
:104B30000000000000000000000000000000000075
:104B40000000000000000000000000000000000065
:104B50000000000000000000000000400000000015
:104B60000000000000000000000000000000000045
:104B700000000000000000000C30000000000000F9
:104B80000000000000000000000000000000000025
:104B90000000000000000000000000000000000015
:104BA0000000000000000000000000000000000005
:104BB00000000000000000000000000000000000F5
:104BC0000000000000000000000000000001C0C361
:104BD00002000000000000000000000000000000D3
:104BE00000000000000000000000000000000000C5
:104BF00000000000000000000000000000000000B5
:104C000000000000000000000000000000000000A4
:104C10000000000000000000000000000000000094
:104C200000000000000C3000000000000000000048
:104C30000000000000000000000000000000000074
:104C40000000000000000000000000000000000064
:104C50000000000000000000000000000000000054
:104C60000000000000000000000000000000000044
:104C7000000000000000000000000000C30200006F
:104C80000000000000000000000000000000000024
:104C90000000000000000000000000000000000014
:104CA00000000000000000000000000000200000E4
:104CB00000000000000000000000000000000000F4
:104CC00000000000000000000000000000000000E4
:104CD00000000C3000000000000000000000000098
:104CE00000000000000000000000000000000000C4
:104CF00000000000000000000000000000000000B4
:104D000000000000000000000000000000000000A3
:104D10000000000000000000000000000000000093
:104D2000000000000000000000C3020000000000BE
:104D30000000000000000000000000000000000073
:104D40000000000000000000000000000000000063
:104D50000000000000000000000000000000000053
:104D60000000000000000000000000000000000043
:104D70000000000000000000000000000000000C27
:104D800030000000000000000000000000000000F3
:104D90000000000000000000000000000000000013
:104DA0000000000000000000000000000000000003
:104DB00000000000000000000000000000000000F3
:104DC00000000000000000000000000000000000E3
:104DD000000000000000C30200000000000000000E
:104DE00000000000000000000000000000000000C3
:104DF00000000000000000000000000000000000B3
:104E000000000000000000000000000000000000A2
:104E10000000000000000000000000000000000092
:104E20000000000000000000000000000C30000046
:104E30000000000000000000000000000000000072
:104E40000000000000000000000000000000000062
:104E50000000000000000000000000000000000052
:104E60000000000000000000000000000000000042
:104E70000000000000000000000000000000000032
:104E8000000000C30200000000000000000000005D
:104E90000000000000000000000000000000000012
:104EA0000000000000000000000000000000000002
:104EB00000000000000000000000000000000000F2
:104EC00000000000000000000000000000000000E2
:104ED0000000000000010000000C30000000000095
:104EE00000000000000000000000000000000000C2
:104EF00000E00000000000000000000000000000D2
:104F000000000000000000000000000000000000A1
:104F10000000000000000000000000000000000091
:104F20000000000000000000000000000000000081
:104F3000C3020000000000000000000000000000AC
:104F40000000000000000000000000000000000061
:104F50000000000000000000000000000000000051
:104F60000000000000000000000000000000000041
:104F70000000000000000000000000000000000031
:104F80000000000000000C300000000000000000E5
:104F90000000000000000000000000000000000011
:104FA0000000000000000000000000000000000001
:104FB00000000000000000000000000000000000F1
:104FC00000000000000000000000000000000000E1
:104FD00000000000000000000010000000C30200FC
:104FE00000000000000000000000000000000000C1
:104FF00000000000000000000000000000000000B1
:1050000000000000000000000000000000000000A0
:105010000000000000000000000000000000000090
:105020000000000000000000000000000000000080
:105030000000000C30000000000000000000000034
:105040000000000000000000000000000000000060
:105050000000000000000000000000000000000050
:105060000000000000000000000000000000000040
:105070000000000000000000000000000000000030
:1050800000000000000000000000C302000000005B
:105090000000000000000000000000000000000010
:1050A0000000000000000000000000000000000000
:1050B00000000000000000000000000000000000F0
:1050C00000000000000000000000000000000000E0
:1050D00000000000000000000000000000000000D0
:1050E0000C30000000000000000000000000000084
:1050F00000000000000000000000000000000000B0
:10510000000000000000000000000000000000009F
:10511000000000000000000000000000000000008F
:10512000000000000000000000000000000000007F
:1051300000000000000000C30200000000000000AA
:10514000000000000000000000000000000000005F
:10515000000000000000000000000000000000004F
:10516000000000000000000000000000000000003F
:10517000000000000000000000000000000000002F
:10518000000000000000000000000000000C3000E3
:10519000000000000000000000000000000000000F
:1051A00000000000000000000000000000000000FF
:1051B00000000000000000000000000000000000EF
:1051C00000000000000000000000000000000000DF
:1051D00000000000000000000000000000000000CF
:1051E00000000000C30200000000000000000000FA
:1051F00000000000000000000000000000000000AF
:10520000000000000000000000000000000000009E
:10521000000000000000000000000000000000008E
:10522000000000000000000000000000000000007E
:10523000000000000000000000000C300000000032
:10524000000000001000000000000000000000004E
:10525000000000000000000000000000000000004E
:10526000000000000000000000000000002000001E
:10527000000000000000000000000000000000002E
:10528000000000000000000000000000000000001E
:1052900000C3020000000000000000000000000049
:1052A00000000000000000000000000000000000FE
:1052B00000000000000000000000000000000000EE
:1052C00000000000000000000000000000000000DE
:1052D00000000000000000000000000000000000CE
:1052E000000000000000000C30000300000000007F
:1052F00000000000000000000000000000000000AE
:10530000000000000000000000000000000000009D
:105310000000000000000000000042C0A0000000EB
:10532000000000000000000000000000000000007D
:105330000000000000000000000000000000C302A8
:10534000000000000000000000000000000000005D
:10535000000000000000000000000000100000003D
:10536000000000000000000000000000000000003D
:105370006220C500000000000000000000000000E6
:10538000000000000000000000000000000000001D
:10539000000000000C3000000000000000000000D1
:1053A00000000000000000000000000000000000FD
:1053B00000000000000000000000000000000000ED
:1053C000000000000000040358000100000000007D
:1053D00000000000000000000000000000000000CD
:1053E0000000000000000000000000C302000000F8
:1053F00000000000000000000000000000000000AD
:10540000000000000000000000000000000000009C
:1054100000000000000000000000000002002EF864
:10542000000800000C000000000000000000000068
:10543000000000000000000000000000000000006C
:10544000000C300000000000000000000000000020
:10545000000000000000000000000000000000004C
:10546000000000000000000000000000000000003C
:10547000000000004000000000000100C308200000
:10548000000000000000000000000000000000001C
:105490000000000000000000C30200000000000047
:1054A00000000000000000000000000000000000FC
:1054B00000000000000000000000000000000000EC
:1054C00000000000000000000000070000000000D5
:1054D000001C16B0808000000000000000000000EA
:1054E00000000000000000000000000000000C3080
:1054F00000000000000000000000000000000000AC
:10550000000000000000000000000000000000009B
:10551000000000000000000000000000000000008B
:10552000010000000000005001AF4C20000000000E
:10553000000000000000000000010000000000006A
:105540000000000000C30200000000000000000096
:10555000000000000000000000000000000000004B
:10556000000000000000000000000000000000003B
:10557000000000000000000000000000000800B271
:10558000F0C000000000000000000000000000006B
:1055900010000000000000000000000C30000000BF
:1055A00000000000000000000000000002000000F9
:1055B00000000000000000000000000000000000EB
:1055C000000000000000000000000000000C0000CF
:1055D00000000000B000000000000000000000001B
:1055E00000000000000000000000000000000000BB
:1055F0000000C302000000000000000000000000E6
:10560000000000100000000000000000000000008A
:105610000000000000000000000000000200000088
:105620000000000200000000000008000000000070
:10563000000000000000000000000000000000006A
:1056400000000000000000000C300000000000001E
:10565000000000000000000000000000000000004A
:10566000000000000000000000000000000000003A
:1056700000000000000000000000000000F0040036
:105680000000E0000000000000000000000000003A
:10569000000000000000000000000000000000C347
:1056A00002000000000000000000000000000000F8
:1056B00000000000000000000000000000000000EA
:1056C00000000000000000000000000000000000DA
:1056D0000000008F00040000000000000000000037
:1056E00000000000000000000000000000000000BA
:1056F00000000000000000000000000000000000AA
:105700000000000000000000000000000000000099
:105710000000000000000000000000000000000485
:105720000000000000000000002000000000100940
:1057300080150100000000000000000000000000D3
:105740000000000000000000000000000000000059
:105750000000000000000000000000000000000049
:105760000000000000000000000000000000000039
:105770000000000000900000000000000000001485
:105780000008010008005A1410000000000000008A
:105790000000000000000000000000000000000009
:1057A00000000000000000000000000000000000F9
:1057B00000000000000000000000000000000000E9
:1057C0000000000000000000004000001000000089
:1057D0000000000000000900000000110F8015000B
:1057E00000000000000000000000000000000000B9
:1057F00000000000000000000000000000000000A9
:105800000000000000000000000000000000000098
:105810000000000000000000000000000000000286
:10582000000042C00000000000010000001008005D
:1058300004099C5A143040000000000000000000E1
:105840000000000000000000000000000000000058
:105850000000000000000000000000000000000048
:105860000000000000000000000000000000000038
:105870000000000000000000000005000000000023
:1058800000000000000000000009001500000000FA
:105890000000000000000000000000000000000008
:1058A00000000000000000000000000000000000F8
:1058B00000000000000000000000000000000000E8
:1058C00000000000000000000000010000000000D7
:1058D0004000000000000100001400080004000067
:1058E0005A1430401000000000000040000000008A
:1058F00000010000000000000000000000000000A7
:105900000000000000000000000000000000000097
:105910000000000000000000000000000000000087
:10592000000000000000040900000000001000005A
:105930002000000040080F001500010000000000DA
:105940000004000000000000100000000000000043
:105950000000000000000000000000000000000047
:105960000000000000000000000000000000000037
:1059700000000000000000000000000200008000A5
:10598000000000000000060008000003807A1430C8
:1059900040000000000000000000000000000000C7
:1059A00000000000000000000000000000000000F7
:1059B00000000000000000000000000000000000E7
:1059C00000000000000000000000000000000000D7
:1059D000000000000900000000000004302000006A
:1059E0000000008980150000000000000000000099
:1059F00000000000000000000000000000000000A7
:105A00000000000000000000000000000000000096
:105A10000000000000000000000000000000000086
:105A200000000000000000000800008000000000EE
:105A300000000756000800000199521430000000D1
:105A40000000000000000000000000000000000056
:105A50000000000000000000000000000000000046
:105A60000000000000000000000000000000000036
:105A7000000000000000000000000C0000000040DA
:105A80000000003B389000000040200000010000B2
:105A90008F801500000000000000000000000000E2
:105AA00000000000000000000000000000000000F6
:105AB00000000000000000000000000000000000E6
:105AC00000000000000000000000000000000000D6
:105AD00000C00000000030000009EA85210000E756
