:100000000110030000000000002000007E520000EC
:100010000004002061130000DD120000DD1200006A
:1000200010B572B6102119480160194A82608161C9
:1000300018480C210160184A826081611748032129
:100040000160642181601649EE200860182000F0EC
:10005000EDFD7F221348520202601449124B0B60DF
:1000600042605A1C0A6082158260981C0860104920
:10007000042088620F484021816041214160422173
:100080000160012001F06CFA10BD00000000044086
:10009000300018000001044030001000000304404C
:1000A000000302400003014040FF008000000140C7
:1000B00000000340000101400000000000000000BB
:1000C0000000000000000000000000000000000030
:1000D0000000000000000000000000000000000020
:1000E0000000000000000000000000000000000010
:1000F0000000000000000000000000000000000000
:1001000000000000000000000000000000000000EF
:1001100000F002F800F040F80CA030C808382418AD
:100120002D18A246671EAB4654465D46AC4201D12F
:1001300000F032F87E460F3E0FCCB6460126334221
:1001400000D0FB1AA246AB4633431847B81700004D
:10015000E8170000103A02D378C878C1FAD85207DD
:1001600001D330C830C101D504680C60704700006D
:100170000023002400250026103A01D378C1FBD8C3
:10018000520700D330C100D50B6070471FB5C04681
:10019000C0461FBD10B510BD03488546FFF7F6FFEA
:1001A00000F0D5F800F0C5F80004002003B4FFF714
:1001B000F1FF03BC00F0C4F8801C800804D000BF2D
:1001C000401EFDD100BF00BF7047EFF3108072B634
:1001D000704780F310887047002203098B422CD3AC
:1001E000030A8B4211D300239C464EE003460B4387
:1001F0003CD4002243088B4231D303098B421CD3E9
:10020000030A8B4201D394463FE0C3098B4201D3DA
:10021000CB01C01A524183098B4201D38B01C01A12
:10022000524143098B4201D34B01C01A5241030989
:100230008B4201D30B01C01A5241C3088B4201D338
:10024000CB00C01A524183088B4201D38B00C01AE5
:10025000524143088B4201D34B00C01A5241411A0C
:1002600000D201465241104670475DE0CA0F00D0EF
:100270004942031000D34042534000229C460309E8
:100280008B422DD3030A8B4212D3FC22890112BA6E
:10029000030A8B420CD3890192118B4208D3890146
:1002A00092118B4204D389013AD0921100E089095E
:1002B000C3098B4201D3CB01C01A524183098B423F
:1002C00001D38B01C01A524143098B4201D34B0128
:1002D000C01A524103098B4201D30B01C01A52418B
:1002E000C3088B4201D3CB00C01A524183088B4212
:1002F00001D38B00C01A5241D9D243088B4201D39B
:100300004B00C01A5241411A00D201466346524185
:100310005B10104601D34042002B00D54942704784
:1003200063465B1000D3404201B50020C046C04682
:1003300002BD0446C046C0462046FFF737FF000016
:1003400001491820ABBEFEE726000200704701F00D
:1003500033FA01F05BFAFEE7FCB50022104C4100D5
:1003600093001B195D18521CAD88D2B25D52032A4E
:10037000F6D30C4D0B196A5A9A81002682006B46FF
:100380009E50304686003619765A9F58401CF61902
:10039000C0B29E500428F5D3B003000C6852FCBDD7
:1003A0003A010020B400002010B50949094B420071
:1003B000094C095C9B5AA35200230B3C2354204652
:1003C0000F3083520B382246405C0832505410BD27
:1003D000C0180000B4000020CE000020F8B505468B
:1003E000802400200F4616465055705D20437055FE
:1003F000284600F00EF9B84202D2705DA043705555
:100400006408F2D1F8BD0000F1B51F4900980C5CFA
:100410001E4960000E5A0C310F5A08461B38055D04
:10042000401F009900F0EAF80099184A4900121F8D
:100430000028505A09D0F11B88421BDA13480022C9
:100440001438009900F07AFA11E0F11988420ED3BD
:100450000E490B39085D401E0006000E085509D1F3
:100460000A4801221438009900F068FA02E00748AF
:100470000B38055505480099143800F0BFF80028DE
:1004800000D00120F8BD0000C0180000D6000020F8
:1004900010B50024204600F043F8641C022CF9D368
:1004A00010BD000010B5164A10681649C0B2087198
:1004B000154B0109987809010007000F0843F02146
:1004C00088439978090909010143116010480F49CF
:1004D000816010494160104908680F22120490435E
:1004E0000322520410430860072000F061FB0B490F
:1004F000072000F091FB0321072000F06DFB10BDE9
:1005000000FF0840A400002060F1FF0F000200017E
:10051000000008400008A001000002402906000079
:10052000F8B504461B480025025D801C005D97005D
:1005300081004300C018174AC6B208321648D35982
:10054000005D1A689C460F238B409A4363461A60ED
:10055000022801D0012800D00625FFF736FE034609
:100560000C481830C15908680722B2409043B54082
:1005700005430D601846FFF72CFE06482830C05989
:1005800002680449891C0B5D012199408A4302607D
:10059000F8BD0000BC180000B200002010B500F04B
:1005A000C1F900F07FF90021084600F05FF9002151
:1005B000084600F09BF9FF2000F066F9402000F0AB
:1005C000A3F904494868044A10434860072000F032
:1005D000F9FA10BD000008400010088010B504466C
:1005E000641CE4B2022C05D02146034800F006F852
:1005F0000028F5D0204610BDA7000020CA084B07F0
:100600005B0F01219940805CC9B2084000D00120F5
:10061000704770B5002506462C46304600F05AF962
:1006200000F060F80128FBD0304600F019F94519B8
:10063000641CF2D0A8B270BD70B5072000F0B8FA03
:10064000194901204861194C207800F053F8184DE1
:100650002878000604D528784008400028701EE05D
:100660002078FFF7BBFF20702078022803D2207883
:1006700000F062F813E028784008400028702878DD
:1006800040060CD50B4900200B4A0C4B0870C0B239
:10069000145C1C54401C0006000E0870F7D00720A4
:1006A00000F090FA70BD000000000840A600002095
:1006B000A500002000010020A9000020A7000020C4
:1006C00010B50020064A01461154401C0228FBD3F5
:1006D000FFF7E8FE002000F053F9FFF7D9FE10BD48
:1006E000B200002002484078C007C00F70470000E9
:1006F000A400002010B50C4CE1680C4B420099524C
:10070000FFF70EFF072000F053FA60680849084021
:100710000521490308436060A06806490840A060BD
:10072000072000F04FFA10BD00000840B400002080
:10073000FF1FDFFF00FF80FFFEB505464248405D1A
:10074000840042480059009000F0ECF800F0AAF84C
:100750003E4E0021083E705D401E80B200F086F8DB
:10076000B71E785D0021401E80B200F0BFF8FF2068
:1007700000F08AF8402000F0C7F8072000F018FACF
:100780003348406840210843795D735D0E03711A58
:100790002E4E80223459904309045C43A14200D27A
:1007A00010432B4C6060072000F00CFA072000F08B
:1007B000FFF9A0682749254A084024490E390C3A18
:1007C000525D495D120402431143A16066682248EC
:1007D000064022480643072000F0F4F91A48001F9B
:1007E000405D01901848801E405D4100471885001B
:1007F000FFF7EBFC8446019881001348001D405828
:1008000002680F23AB409A430423AB400E481343C6
:100810001430425815680720B840854315600A48CF
:10082000001D405803606046FFF7D3FCFFF7CDFC86
:10083000054666603320FFF7BFFC0098E06028465D
:10084000FFF7C7FCFEBD0000C0180000B800002084
:100850000000084000FF80FFFF1FDFFF2000200096
:1008600001494000085A7047B4000020054B1A683F
:1008700000025207520FC9061043090E08431860C0
:10088000704700000003014005490A68002AFCDBAC
:10089000000240300122D207104308607047000078
:1008A00000000140034801680029FCDB02490160A7
:1008B00070470000000001404000004003484068CD
:1008C000002802DA02490120087070470000084041
:1008D000C000002010B5044900224A7088708122AF
:1008E0004A70FFF729FF10BDA4000020054B5A688D
:1008F00000025207520FC9061043090E0843586000
:10090000704700000003014005490A68002AFCDB2B
:10091000000241300122D2071043086070470000F6
:1009200000000140034801680029FCDB0249016026
:1009300070470000000001404100004030B5CB0886
:100940004D076D0F0124AC40C908415CE4B2002A98
:1009500001D0214300E0A143C15430BD014A1154EC
:1009600070470000AC000020014A4000115270475F
:10097000D6000020014A115470470000AA00002050
:10098000034A81075068490D0143516070470000D8
:100990000000084010B5FFF791FF072000F008F9AC
:1009A0000748416881221203914341604168490030
:1009B00049084160FFF7B6FFFFF774FF10BD000064
:1009C00000000840F8B51E4C2078002803D1FFF73E
:1009D00077FE01202070FFF7E1FD1A4DA868032182
:1009E00009068843A860164F0024174E1437305D5F
:1009F000552180003858000C48436421FFF7ECFB78
:100A00000F4A0146921D2046FFF7E8FC641C022CA9
:100A1000EDD30B4A0020921D931C115C4C1C640802
:100A20001C5449081154401C0228F6D3A86801211F
:100A300009060843A8606868891008436860F8BD23
:100A4000A400002000000840C018000010B50720D6
:100A500000F0AEF8074841688122120391434160DB
:100A60004168490049084160FFF75CFFFFF71AFF42
:100A700010BD000000000840F8B504462B482C4982
:100A8000005D660042002A480C39805A00902948CF
:100A9000895B805B814207D8254D0023113D2B5592
:100AA000431A9DB2012718E00B1A9DB2204B002774
:100AB0001B1D9B5AAB4210D21D481138005D0C28FB
:100AC00006D32046FFF770FC19490020113902E0D7
:100AD00017491139401C08551BE0009B9D4206D95F
:100AE000134B1B1D9A5AAA4213D9002F11D1104A39
:100AF0000B02173A125D1A431018401A01020A0C31
:100B00000B490C398A530B39085509480021113813
:100B10000155074900980839854203D9002F01D0B3
:100B20008D53F8BD00208853F8BD0000C0180000A8
:100B3000DA000020B400002010B500242146064849
:100B4000FFF75CFD002802D02046FFF795FF641CEC
:100B5000022CF3D310BD0000A700002000B5FFF762
:100B60008BFF00BD10B5FF20FFF7CEFEFF20FFF783
:100B70008BFE03480078002801D0FFF70FFD10BD61
:100B8000C000002070B501260446074DF60303E0BF
:100B9000E868FFF711FBA41BB442F9D8A8686043CA
:100BA000FFF70AFB70BD00009400002000BE7047F4
:100BB000C106C90E01208840014908607047000045
:100BC00080E100E0C106C90E0120884001490860AB
:100BD0007047000000E100E070B505460E460329AD
:100BE00000D900BE092D00D300BEA807C40EA41D65
:100BF000FFF7EBFA0246A9080648890008180168C1
:100C00000323A3409943A6400E4306601046FFF716
:100C1000E0FA70BD00E400E001225207092800D389
:100C200000BE80008218106C1164704770B50446D5
:100C3000182805D0202C03D0302C01D000BE70BD68
:100C4000FFF7C3FA1D4D0646A868C008C000A8609B
:100C5000E8681B49000A00026118497B0843E86004
:100C60002869C008C0002861A8691549C009C001E9
:100C700020396118097D4906490E0843A8613220D0
:100C8000FFF79AFA182C15D90120E406400720181E
:100C9000A968400FC908C9000843A8603220FFF7BF
:100CA0008BFA012080072018A968400FC908C900E5
:100CB0000843A8603046FFF78CFA70BD000F034070
:100CC000C0F1FF0F02490148886370476588EDACA9
:100CD00000000340F8B59B480068002800D080471A
:100CE000994804889948056899480668FF200230A9
:100CF000984F05422ED09749403908684000400877
:100D0000086095480278DF231A40027002781023A9
:100D10001A4302708D4A40329368DB0617D48F4D18
:100D20002D78AC4203D0037808252B430370386A32
:100D300005235B0398433862844B0020803398601E
:100D40009060874A107008685A061043F6E00378EE
:100D50000225EAE7F00603D57D490020803188604E
:100D60000A20064213D079488030C0687D4B400786
:100D700047D518687A4B1978002916D0012907D071
:100D80000020FFF713FF71490420803108606EE0F6
:100D9000754B1988002931D00122FA62734A126812
:100DA0001055641C491E1980EDE771490988884275
:100DB00024D20122FA626F4904460988884201D28E
:100DC000081B00E0002080B267490828088001D293
:100DD0001A700AE00828386A0AD00121490308433A
:100DE000386208215948803081605C480470CAE745
:100DF00005214903084338620021F3E70220F86225
:100E0000C1E7386A800432D5B0070BD55548403861
:100E10008068396A0007000F052252039143396246
:100E2000012107E050490888083880B20880082866
:100E30000DD80021002807D04C4A1268494B1B6886
:100E40001355641C401EF9D1002903D00BE0082083
:100E50000121F1E7386A0121C903084338623B499F
:100E600000208031886039480C2180300160B00753
:100E700047D5E8062026002814DA344800218030BF
:100E80008160324840308160344A022012789442B6
:100E900000D00A20304A284013781843B04310701D
:100EA0002F48017068062AD52B480178314301701C
:100EB0002A480478786AC00611D52D482A49008846
:100EC000001B08802C484268012109040A43426043
:100ED00042688A4342601D491020403102E01B49AC
:100EE0000420803188601A4801228030026017484F
:100EF000224901608168102319438160FA62134816
:100F0000056013480068400719D518481A4B164A5F
:100F10004033194D0168FF271088002805D00E5D69
:100F20001E60641C401E108000E01F60A86800075F
:100F3000000F0828F0D10549102040310860024810
:100F40000480F8BDEC000020F8000020400F0640AF
:100F5000000E064040000640F0000020F200002095
:100F6000F10000204003064002010020FC000020A8
:100F7000F4000020F600002000020640FF0F0000F1
:100F800010B5044801688203114301600520FFF792
:100F900019FE10BD0000064010B50520FFF708FE41
:100FA0000548047801784909490101700520FFF7D7
:100FB00009FE204610BD0000F000002010B51848C2
:100FC0000024046016491748403108621748164942
:100FD00001604460164A02611648016044600520C1
:100FE000FFF7E6FD03210520FFF7F6FD1249052076
:100FF000FFF712FE11488460FF2010495230C031C3
:1010000088600E48803084600D4884600C48403809
:1010100084600C48447004700481847010BD00002A
:101020000000064000080040070100800003064061
:101030004000FE0000020640C50C0000800E064085
:10104000C00F0640F0000020002A03D0024BDA60F7
:101050009880D98070470000F000002010B5054C42
:101060002078002803D1FFF7A9FF01202070FFF7A7
:1010700087FF10BDE8000020034A91683823994398
:10108000C00001439160704700030440044A1168A6
:10109000FD23C0071940800F08431060704700000F
:1010A0000003044003498A68D208D20002438A60E0
:1010B0007047000000030440044A1168FE23C00783
:1010C0001940C00F0843106070470000000304403F
:1010D000F8B54F4F30213878EF2302460A4079782F
:1010E0004C4E0C461C40BD783379102A02D0202A81
:1010F00006D00CE0002B0AD10122F270EF2204E0AE
:10110000002B04D10022F270DF2210403870A006BC
:1011100005D5AA2D03D1DF2004400120B0713C4841
:10112000E209C0790BD0AA2D19D100238022737255
:101130001043F8714806400E7870BB700DE06206EF
:101140000DD5AA2D0BD1012240067272400EF87106
:10115000BF20014079700020B87000F00FF9082C12
:1011600011D0012C18D0042C2DD0402C45D0802C2F
:1011700042D1772D40D101203071F87940210843C8
:10118000F871002041E0AA2D36D108203072F8799C
:10119000C52108401021F2E7AA2D2DD1012030727F
:1011A00000F052F8F879C521084002210843F8718F
:1011B0000020B87032207872B87201460020FFF724
:1011C000D3FB322115E0AA2D16D10420307200F095
:1011D0003BF8F879C521084008210843F871002040
:1011E000B8701E207872B87201460020FFF7BCFB71
:1011F0001E210120FFF7B8FBF8BD462DFCD10020D1
:101200003071F979BF221140F971B870F8BD000052
:101210000401002068000020044A916807239B0411
:10122000994380040143916070470000000104402D
:10123000044A1168BF23C0071940400E08431060DC
:10124000704700000001044070B500F043F900F061
:10125000BDF80F4D0F4E002200215000335A8C0074
:101260006419491CC9B223520429F8D30A49521CF3
:101270000B520A49D2B20B52091F0B52091F0B52D3
:10128000091F0B52022AE7D3FFF756FC70BD00007E
:101290003A010020B4000020CE0000208800002089
:1012A00070B5FFF78FFB0F48407A01280ED10E4D25
:1012B0000024AE1C295D2046FFF75CFB315D204613
:1012C000FFF74CFB641CE4B2022CF3D33221002064
:1012D000FFF74AFB32210120FFF746FBFFF7B4FF7F
:1012E00070BD000068000020B8180000FEE7000094
:1012F000044A1168BF23C0071940400E084310601C
:101300007047000000000440044A1168FD23C00734
:101310001940800F0843106070470000000104402E
:1013200070B5114E0125F1783046104C40790129F5
:1013300001D101280DD001430AD10120FFF7D8FFC8
:101340000120FFF7E1FF7571E07940084000E0718E
:1013500070BD0020FFF7CCFF0020FFF7D5FF002075
:101360007071E0792843F2E7680000200401002052
:1013700010B5FFF7A7FCFEF7CBFE10BD70B5FFF769
:1013800065FB0120FFF7FEFBFFF71CFB0D48407AD1
:1013900001280ED10C4D0024AE1C295D2046FFF71C
:1013A000E9FA315D2046FFF7D9FA641CE4B2022C59
:1013B000F3D30024FFF748FF641CE4B20A2CF9D3EE
:1013C00070BD000068000020B8180000F8B5094F93
:1013D000094E00246500395D705BFEF7FDFE05498E
:1013E000891E095D641C4843E4B27053022CF1D39A
:1013F000F8BD0000B6180000B4000020F8B5314870
:10140000007A082853D000F065F8FFF7DFFF2E4E72
:1014100000256C002D49305B095B884201D9411AD7
:1014200000E0091A2A4A914204DD2648817A491CC3
:10143000817238E0234F18373A5B391D0A533B1F3E
:10144000195B3953185310331A8059809880184605
:1014500000F0A0F930532846FEF77EFF3A460832E6
:10146000105B315B88420BD9491C89B231538842E9
:1014700006D9491C89B23153884201D9491C3153DC
:1014800089B288420BD2491E89B23153884206D2B2
:10149000491E89B23153884201D2491E315311533A
:1014A0002846FFF75BFB6D1CEDB2022DB1D305485A
:1014B0008179012904D1807A012801D9FFF7C4FE7E
:1014C000F8BD000068000020B4000020CE0000201D
:1014D000DC05000010B500242046FFF7FBF9FFF7FC
:1014E00001F90028FBD1641CE4B2022CF4D310BD36
:1014F00010B5FFF751FD0020FFF79AFE0024FFF71B
:101500004BFD800606D40120FFF73CFB641CA4B20F
:101510000F2CF4D30024FFF73FFD800606D50120F1
:10152000FFF730FB641CA4B2032CF4D30120FFF7B7
:101530007FFE10BD10B500242046FEF765FF002891
:1015400000D001240120FEF75FFF002802D0022016
:10155000204301E0FD20204000F046F810BD0000CF
:10156000094A1168002802D09304194301E0490098
:1015700049081160054B996A2022002801D01143C7
:1015800000E0914399627047002002400000034050
:1015900010B5FFF7FFF90B20FFF7F4FAFFF7E2FAB7
:1015A0000120FFF7EFFA10BD024840684007C00F66
:1015B000704700000003044010B5FFF7F5FF084A2C
:1015C0000849012806D00020D071C879FB221040BC
:1015D000C87110BD0120D071C87904221043F7E70B
:1015E0006800002004010020F8B5414E0146307328
:1015F00070780024814200D0F472F07A0125401CFA
:10160000C2B2F2727170F379002B02D0012B03D0B9
:1016100007E0002A02D104E0042A02D9F472B5706E
:1016200002E0B07800284AD0B470314A3046314BDD
:10163000314E324F127801290AD0022923D00329D2
:101640003ED0C481048205464482012A44D04AE047
:10165000002A04D1DD70FFF74BFF254805702449AF
:101660000879012800D1CD70C889224A401C80B277
:10167000C8810C824C8220321075FF222D3290429C
:101680001DD9CC8117E0002A05D10220D870FFF7C0
:101690002FFF1748057016490879012800D1CD7031
:1016A000088AFF22401C80B20882CC812D324C82F5
:1016B000904204D90C823088388070887880F8BDD8
:1016C000418AFF22491C89B24182C4812D320482A1
:1016D0009142F4D94482EEE7D87808210843D870C3
:1016E000FFF706FF2C7028790128E8D1EC70F8BDCF
:1016F0006800002004010020B4000020CE0000207B
:10170000FEB572B600241D486500465B1C48005DAE
:10171000009001463046FEF75FFD1949891C095DBE
:101720000191484381B20802090A084315496F181C
:10173000F88315480099455B2846FEF74DFD019951
:10174000484380B20102000A0143F984AE4201D944
:10175000701B00E0002080B20102000A0143F98200
:1017600008480A490019095D41730949095D641C6B
:10177000E4B24174022CC6D362B6FEBDB4000020B0
:10178000B418000004010020CE000020AA000020B0
:10179000AC000020818842880088914207D38242B1
:1017A00001D3104670478842FCD3084670478142F7
:1017B000FBD29042F5D2704770B50F4C20684008BC
:1017C0004000206000200D4B0D4A01E0042802D2A9
:1017D0008100595800E00B498500401C51511928DF
:1017E000F4D3FEF71DFC08490020086020680121A1
:1017F0000843206070BD00000000104000000000A1
:1018000000000020DD120000640000200120FFF72E
:101810006FFD0120FFF778FD274D01266E71042032
:10182000FFF7FAFC0120FFF703FD244800240470B1
:101830004121417084700821C170032101714471FC
:10184000402181718221C171322141728172047201
:1018500044751B49C185024603213620FFF7F4FB7E
:10186000FFF7FCFB0220FFF707FC0220FFF71AFC42
:101870000120FFF70BFC0120FFF71EFC62B6FFF70B
:1018800021FA3220FFF77EF92C712E726C72FFF76D
:1018900007FDFFF7B3FDFFF74DFEFFF719FCA87931
:1018A000012801D1FFF72CFFFFF73AFDFFF770FE8B
:1018B000FFF782FEEDE70000680000200401002031
:1018C000080A0000030204030F0A100B01010302BF
:1018D000000100000000024000010240000202403E
:1018E00000030240080004400801044008020440CC
:1018F00008030440000004400001044000020440CA
:1019000000030440241900000000002064000000CF
:101910004401000088190000680000209C000000BD
:1019200044010000241A00000401002048000000C7
:101930006001000000000000000000000000000046
:101940000000000000000000000000000000000097
:101950000000000000000000000000000000000087
:101960000000000000000000000000000000000077
:101970000000000000000000000000000000000067
:101980000000000000000000000000000000000057
:101990000000000000000000000000000000000047
:1019A0000000000000000000000000000000000037
:1019B0000000000000000000000000000000000027
:1019C000000000000C000000001BB700E02E00002B
:1019D0000000701700000003000040404040040475
:1019E00002020000000000000000FF1F0000FF1FB7
:1019F00000000000000C0C010100000000000000CD
:101A000000000000000032003200190019000A0036
:101A10000A000200020000000000000000000000B8
:101A200000000000000000000000000000000000B6
:101A300000000000000000000000000000000000A6
:101A40000000000000000000000000000000000096
:101A50000000000000000000000000000000000086
:00000001FF
