:100000005555AAAA73180000000000000000000067
:10001000B58200000000000000000000E8A4855642
:100020000002100021080000A5020000BB02000031
:10003000D1020000E7020000FD0200000000000005
:100040000000000000000000000000004D2500003E
:10005000512500000000000013030000532500009C
:1000600055250000F7220000872500002F230000FF
:100070006D2500006F250000732500007725000026
:100080007B2500007D2500007F25000081250000E4
:10009000832500008925000000000000000000000A
:1000A0008B2500008D2500000000000000000000EE
:1000B000000000008F25000091250000452300006E
:1000C00093250000A125000025030000BB250000AA
:1000D000BD2500000000000000000000000000003E
:1000E0007318000000F002F800F068F80AA090E829
:1000F000000C82448344AAF10107DA4501D100F0E3
:100100005DF8AFF2090EBAE80F0013F0010F18BF47
:10011000FB1A43F001031847B85F0100E85F0100D4
:100120000A444FF0000C10F8013B13F0070408BF1D
:1001300010F8014B1D1108BF10F8015B641E05D0BB
:1001400010F8016B641E01F8016BF9D113F0080F70
:100150001EBF10F8014BAD1C0C1B09D16D1E58BF02
:1001600001F801CBFAD505E014F8016B01F8016B39
:100170006D1EF9D59142D6D370470000103A24BFC6
:1001800078C878C1FAD8520724BF30C830C144BFFC
:1001900004680C607047000000230024002500263E
:1001A000103A28BF78C1FBD8520728BF30C148BFDA
:1001B0000B6070471FB51FBD10B510BDDFF80CD028
:1001C000FFF7F8FF02F02CFB15F0B0FC0002100066
:1001D00003B4FFF7F1FF03BC15F0B0FC0A484FF081
:1001E000FF0101704FF0000080F311884FF0000014
:1001F00080F3098805484FF00201017062B6044897
:100200004FF080510160704722ED00E000021000C5
:1002100004ED00E002484FF080510160704700009B
:1002200004ED00E04FF0200080F31188EFF3098027
:1002300098B11248006812490968884217D0EFF354
:1002400009800E49096820E9F00F886000B50B4865
:10025000006800F0F2F85DF804EB084808490A6805
:10026000026000688168B1E8F00F81F309884EF000
:10027000040E4FF0000080F3118870470402100054
:1002800008021000EFF311804FF0200181F3118874
:10029000704700004FF0000080F3118870470000A5
:1002A00062B6704772B6704740BA7047C0BA7047BE
:1002B000401E0028FCDC704700BE704740BA704703
:1002C000C0BA70471EF0040F0CBFEFF30880EFF3C5
:1002D00009804FF0010102F06AB81EF0040F0CBF54
:1002E000EFF30880EFF309804FF0020102F05FB8EE
:1002F0001EF0040F0CBFEFF30880EFF309804FF0FE
:10030000030102F054B81EF0040F0CBFEFF3088095
:10031000EFF309804FF0040102F049B81EF0040F1A
:100320000CBFEFF30880EFF309804FF0050102F0F6
:100330003EB84FF0000000B503F057FB5DF804EB4A
:10034000FFF770BF1EF0040F0CBFEFF30880EFF350
:1003500009804FF0000102F02AB80000194910B5D9
:1003600001200870184900200860184908601849E1
:1003700008601849086000F0B9F900F04BF900F086
:1003800063F8002010BD10B5114800F02AF90F499C
:1003900008600D490968884207D00A480078022899
:1003A00003D1BDE81040FFF735BF10BD10B5FFF712
:1003B000EAFF044902200870FFF710FF4FF0FF30FA
:1003C00010BD00000002100004021000080210001E
:1003D0000C0210001002100070B50D460446C169F1
:1003E0008068CC2215F0D7FAE169A068084440384B
:1003F0004FF08071C163216A816300214163016311
:10040000C1628162C0E908514FF00B31C1614FF008
:100410000A3181614FF0093141614FF008310161CA
:100420004FF00731C1604FF0063181604FF0053168
:1004300041604FF00431016070BD82698168914272
:1004400001D802F098BA704710B54FF4B4714F4814
:1004500015F0CBFA002010BD70B5054600EBC501C4
:100460004A4800EB8104FFF70DFF0646207828B1CB
:100470003046FFF70FFF6FF0010070BD03202070C2
:1004800000206560206204F11C0000F083F8304613
:10049000FFF700FF002070BD2DE9F0410F463B49FA
:1004A000002500EBC00001EB80042E46FFF7EAFEBA
:1004B0008046206A3843206204F11C00074600F0A1
:1004C00090F80CE0216A026C114203D000F066F94A
:1004D000012600E06D1C2946384600F078F8002817
:1004E000F0D1012E01D1FFF74EFF4046FFF7D2FEBB
:1004F0000020BDE8F08170B50D46244900EBC00036
:1005000001EB8004FFF7BEFE216AA9432162FFF7D9
:10051000C1FE002070BD70B50C461C4900EBC00048
:1005200001EB800500202060FFF7ACFE296A216006
:10053000FFF7B0FE002070BD2DE9F0410D461349D4
:1005400000EBC0001E46904601EB8004FFF79AFEC8
:1005500007460F4800680564216A294203D104F167
:100560001C0100F02DF93846FFF794FEFFF78AFED4
:10057000216A29403160B8F1010F02D1216AA943F3
:100580002162FFF787FE0020B3E70000E8041000B7
:1005900004021000002101600846704730B50A6867
:1005A00012B10B46C46B09E000220860C0E90321C8
:1005B0000BE000BF02F10C03D26812B1D56BA5426B
:1005C000F8DC1A68C0E903211860002030BD00681B
:1005D000002201E0C068521C8A4201D00028F9D1F3
:1005E00070470068704702690AB1116831B96FF04D
:1005F0000400704701F10C02C96839B18142F9D198
:10060000C968116000210161084670476FF003005E
:100610007047000010B54FF4C871324815F0E5F985
:10062000002010BD2DE9F041884605462D4900EB1C
:100630008500174601EBC004FFF724FE064620782C
:1006400030B13046FFF726FE6FF00100BDE8F081C3
:1006500002202070E7611422414604F10800656021
:1006600015F022F90020206204F12400FFF792FF28
:100670003046FFF70FFE0020E8E770B5194900EBA0
:10068000800001EBC004FFF7FDFD0546D4E907013A
:10069000814205DB144804F12401006800F090F861
:1006A000206A401C20622846FFF7F4FD002070BD40
:1006B00070B50C4900EB800001EBC004FFF7E2FDD0
:1006C0000546206A08B1401E206204F12400FFF7AD
:1006D00088FF10B1606A00F011F82846FFF7DAFDD4
:1006E000002070BD500610000402100010B54FF439
:1006F0002A71404815F079F9002010BD10B5044664
:1007000090F8380002280BD02046FFF76CFF02203B
:1007100084F8380038492046FFF740FFFFF733FEE2
:10072000002010BD2DE9F05F8B460646314900EBF5
:1007300006109046DDE90AA911F820201D461AB1DD
:100740006FF00100BDE8F09F01EB8004FFF79AFD18
:10075000074601202070C4E90165C4E90585C4E9A4
:1007600007A91422594604F1240015F09DF8002031
:1007700084F8370084F838006169E0602061C4E9DA
:100780000F1020460C99FFF727FEA0602046FFF7C8
:10079000B5FF3846FFF77EFD0020D3E710B50446CD
:1007A00090F83800022809D02046FFF71CFF0220ED
:1007B00084F8380010492046FFF7F0FE002010BDF5
:1007C00070B5044690F838000D4602280BD120463B
:1007D000FFF709FF032084F8380029462046FFF779
:1007E000DDFEFFF7D0FD002070BD044800684068C2
:1007F00070470000E00710000C0210000402100017
:10080000F0B58446002004460C4F14E05CF82460E8
:100810000323DD0046FA05F280EA0260082500287D
:1008200002DA87EA400000E040006D1E002DF6DC91
:100830005B1EEED5641C8C42E8DBF0BD1B00008023
:100840001248804712480047FEE7FEE7FEE7FEE752
:10085000FEE7FEE7FEE7FEE7FEE7FEE7FEE7FEE770
:10086000FEE7FEE7FEE7FEE7FEE7FEE7FEE7FEE760
:10087000FEE7FEE7FEE7FEE7FEE7FEE7FEE7FEE750
:10088000FEE7FEE7FEE7FEE7FEE70000C90800001E
:10089000C5000000244800684FF00051002891F87E
:1008A000210000F01C000DD0042805D0082805D038
:1008B0000C2805D096200CE011200AE0252008E045
:1008C0004B2006E0042809D0082809D00C2809D0BC
:1008D0007020401E01F82C0F087070470C20F8E7BC
:1008E0001B20F6E73720F4E770470F490120086026
:1008F0000E49D3200870CDE70B49012008600B4951
:100900000B200870C6E7084801684FF0005090F8C7
:10091000210011B1D32804D001E0932801D0002098
:10092000704701207047000034040022210000209D
:1009300010B5042000F00DF9052000F00AF906209A
:1009400000F007F9072000F004F9082000F001F991
:10095000182000F0FEF8192000F0FBF81A2000F033
:10096000F8F88D4A002010608B4B403318608A499C
:10097000183908608849083108608849C871864C70
:10098000143C2060844C0C3420600872824C103C73
:100990002060814C1034206048727F4C0C3C2060F9
:1009A0007D4C1434206088727B4C083C20607A4C6B
:1009B00018342060C872784C283420608873241D55
:1009C0002060C873241D2060087401201060186026
:1009D00008700621042000F0D4F80621052000F05C
:1009E000D0F80621084600F0CCF80621072000F0D8
:1009F000C8F80621082000F0C4F80621182000F0ED
:100A0000C0F80621192000F0BCF804211A2000F0DB
:100A1000B8F8042000F0A9F8052000F0A6F8062098
:100A200000F0A3F8072000F0A0F8082000F09DF8DF
:100A3000182000F09AF8192000F097F81A2000F01A
:100A400094F8042000F079F8052000F076F80620EC
:100A500000F073F8072000F070F8082000F06DF83F
:100A6000182000F06AF8BDE810401A2000F065B8C0
:100A7000494A10B5283214680123D10664B1002414
:100A8000146081F8350091F83F0000BF91F83F40B5
:100A90008442FBD0136010BD81F83500FAE700EB0B
:100AA000C00101EB00106FF0030101EB800010B5F5
:100AB0003B493C4C0978B0FBF1F0401E80B2FF2866
:100AC0000CD9010A2170494200EB01206070FF201F
:100AD000FFF7CEFF2078401E207010BD002121704E
:100AE0006170BDE81040C0B2C2E72B4828300168F1
:100AF000002909D000210160C10691F83F0000BF24
:100B000091F83F208242FBD0704710B5254C2178E8
:100B1000607851EA000207D051B1FF20FFF7A8FF2B
:100B20002078401E207010BDBDE8104006F0AEBE1B
:100B3000FFF79EFF0020607010BD00F01F02012132
:100B4000914040094FF0E02202EB8000C0F8001114
:100B5000704700F01F020121914040094FF0E02250
:100B600002EB8000C0F88011704700F01F020121E5
:100B7000914040094FF0E02202EB8000C0F8801263
:100B800070474907090E002803DA00F00F00064AF3
:100B900000E0064A815470471C0500223300002003
:100BA000AD0210001402100014ED00E000E400E0BB
:100BB0004948012101600021016070474748012137
:100BC000016000210160704710B5002000F06BF853
:100BD000FFF7F4FFFFF7ECFF4149002008604149AF
:100BE000A0200870002000F06AF8BDE81040002046
:100BF00000F04DB83A4801211C3801600021016025
:100C0000704710B5002000F04EF83349012008600D
:100C1000002000F054F8BDE81040002000F037B884
:100C20002D4901201C39086070472F4800782E4953
:100C3000491C0978401A00F03F0070472B490278A0
:100C40000A7042784A7082788A70C278CA700279D3
:100C50000A7142794A7182798A71C079C871704784
:100C600023480068417882784FF00050437A03743B
:100C7000204B1B78437443891B0A83744389C374D4
:100C800001754275C1798175017AC175704700F0AF
:100C90001F020121914040094FF0E02202EB800049
:100CA000C0F80011704700F01F0201219140400977
:100CB0004FF0E02202EB8000C0F88011704700F096
:100CC0001F020121914040094FF0E02202EB800019
:100CD000C0F88012704700005C840022A00000224F
:100CE0007C04002200E400E0200400200002002038
:100CF00028021000A102100010B5092000F02BF806
:100D00000A2000F028F8092000F031F80A2000F04D
:100D10002EF80521092000F036F805210A2000F000
:100D200032F81E487F2141707C22827001710021BF
:100D300000F848191A49096891F8C810CA0709D07B
:100D40008A0707D510F84A2FC1F382030121994081
:100D50008A43027010BD00F01F020121914040093A
:100D60004FF0E02202EB8000C0F88011704700F0E5
:100D70001F020121914040094FF0E02202EB800068
:100D8000C0F8801270474907090E002803DA00F006
:100D90000F00044A00E0044A8154704748000020D4
:100DA0002802100014ED00E000E400E0704710B5E8
:100DB000044602462A21002000F06CF9221D2B2156
:100DC000002000F067F904F108022C21002000F057
:100DD00061F904F10C020F21032000F05BF9206897
:100DE000000E032825D304F114022D21002000F069
:100DF00051F904F110022E21002000F04BF904F10A
:100E00001C022F21002000F045F904F118023021C6
:100E1000002000F03FF904F124023121002000F00D
:100E200039F904F120023221BDE81040002000F021
:100E300031B910BD10B5C44C07206070002020707F
:100E400044F2C000608000BF00BF00BF00BF4CF292
:100E5000C000608000BF00BF00BF00BF4CF2E000D8
:100E600060800A20FFF724FA44F2E000608000BFAF
:100E700000BF00BF00BF4FF48040608010BDF0B5E0
:100E800000252E464FF00054E02717E0883401F08B
:100E90003F0160702170678000BF00BF00BF00BFCE
:100EA000D4F808C043F825C06680883C00BF6D1C9C
:100EB000521E491C3F2901D9401CC0B2002AE5DC62
:100EC000F0BD2DE9F047A04D0026AD1C04462E8054
:100ED000DFF878920121C9F880104FF4C058A5F8C6
:100EE000008000BF00BF00BF00BF00BF00BF4FF4C5
:100EF00080572F803C20FFF7DBF92E80FFF79AFF09
:100F000000F0DEF85C2000F0EDF823460122082115
:100F10000020FFF7B4FF231D012209210020FFF765
:100F2000AEFF04F1080301220A210020FFF7A7FF0A
:100F300004F10C0301220B210020FFF7A0FF04F1B4
:100F4000100301220C210020FFF799FF04F1140384
:100F500001220D210020FFF792FF00F0B1F8FFF70A
:100F600069FF2F8000BF00BF00BF00BF00BF00BFF0
:100F700000BF00BF00BF00BF00BF00BFA5F80080DA
:100F800000BF00BF00BF00BF00BF00BF4FF4406004
:100F90002880C9F88060BDE8F087F0B54FF0000CFC
:100FA000059C0CB14FF0800CC5B200264FF00057E5
:100FB000664C27E087F889504FEAC05EBEF1000F0B
:100FC00001F03F0E4EEA0C0E01DA4EF0400E87F8AB
:100FD00088E053F826E0C7F88CE04FF0010EC4F823
:100FE000B0E04FF0000EC4F8B0E0491CC9B240298F
:100FF00002D36D1CEDB20021D4F8C0E0BEF1000FA9
:10100000FAD1761C9642D5DBF0BD4FF0005282F843
:101010008900002309B1802002E0C00503D54020EB
:1010200082F8880001E082F8883048480121C0F841
:10103000AC10C0F8AC3000BFD0F8C0100029FBD114
:101040007047F8B50C4605464FF4F476002130465B
:10105000FFF7DBFF0020014600902B46224630467A
:10106000FFF79BFFF8BDF8B50C4605464FF4F87640
:1010700000213046FFF7C9FF00214FF4FC70FFF755
:10108000C4FF0020014600902B4622463046FFF761
:1010900084FFF8BD2C4B587041F0800003F888099C
:1010A0002A480021B4300160012140F8B41900BF82
:1010B000D0F8C0100029FBD1D3F890001060704721
:1010C00010B5214C4FF48040A41C20800420FFF771
:1010D000EFF80020208000BF00BF00BF00BF00BFAE
:1010E00000BF10BD70B5184C2126A41C268000BF7F
:1010F00000BF00BF00BF00BF00BF40F0210525803A
:1011000000BF00BF00BF00BF00BF00BF44F221010D
:10111000084320800420FFF7CBF8258000BF00BFE4
:1011200000BF00BF00BF00BF268000BF00BF00BFE0
:1011300000BF00BF00BF0020208000BF00BF00BF75
:1011400000BF00BF00BF70BD88000020001000225B
:10115000F8B5FF4C002635462670E6700120A660E3
:1011600000F046FC0C2000F043FC032000F040FCA3
:10117000172000F03DFC012000F046FC0C2000F0A0
:1011800043FC032000F040FC172000F03DFC00F081
:1011900084FC6A460221EF4801F0A6F8EE499DF86A
:1011A0000000EE4A08709DF801101170542800D01C
:1011B000042600F06CFE0521012000F031FC052121
:1011C0000C2000F02DFC0621032000F029FC062154
:1011D000172000F025FC012000F0FEFB032000F0AA
:1011E000FBFB172000F0F8FBA57065703046F8BDDA
:1011F00038B50D46009014460421684601F0F3FC12
:10120000D7498978C90602D5032D00D1401C009921
:10121000216584F84E0038BD2DE9F041D04C0546DB
:10122000D04E002084F8460030682246294690F8C7
:1012300045076075E06AFFF7DBFF206BA065E520DE
:101240004FF0E90C062D08D0072D06D0012D42D015
:10125000022D40D0082D7CD0A9E0316891F8A8215A
:1012600022F006036288970601D543F0040301F5D6
:10127000D57184F84D300B8824F8343F4B88638057
:101280000B7923714B796371CB88E3800B892381C0
:101290008B7AA372CB7AE3720B7BA373A1F5D57122
:1012A000A4F13404D20503D491F8932784F84420A0
:1012B00091F8B71104F8451F617841F0040161709D
:1012C000A949C1F30E01A4F80310453C062D50D0E6
:1012D000072D51D06BE0326892F81B1421F0060301
:1012E00061888F0601D543F0040384F84D30B2F8CD
:1012F0001C3424F8343FB2F81E34638092F8203452
:10130000237192F82134637192F8223492F8B1710A
:10131000C90543EA0723E38092F8243492F8B371B5
:1013200043EA0723238192F82634A37292F82734E4
:10133000E37292F82834A373A4F1340403D492F82E
:101340002B1484F8441092F8291404F8451F61788E
:1013500000E014E041F0040161708349F831C1F309
:101360000E01A4F80310453C012D02D0022D03D03C
:101370001DE084F84A001AE084F84AC017E031689A
:10138000A27891F85817920621F0060101D541F094
:10139000040184F84D1014F8461F41F00401217037
:1013A0007149F839C1F30E0161802071463CA07883
:1013B00080070028306890F8660701DA20F0030003
:1013C00084F84B00607D20F0040060756048457033
:1013D000BDE8F041624800F04DBE62485C4A0068DA
:1013E000127900F2073100F2FB2031F812205C493B
:1013F0004A830278CA7542780A7680788877002016
:101400000875887570472DE9F041554C0646002057
:1014100084F84600534DE12084F84A002868534B75
:101420004B4F90F845176175042E02D0032E1ED045
:1014300040E0FFF7D2FF28683A79017D51434C4ADA
:1014400002EB4101C1F30E01A4F8481090F85317C4
:101450001A7801F0F00102F00F021143E17790F8E1
:10146000550784F821003E4A314601201EE0427DA6
:10147000B7F808C0017D521C02FB0CF251433D4AF3
:1014800002EB4101C1F30E01A4F8481090F8531784
:101490001A7801F0F00102F00F021143E17790F8A1
:1014A000550784F821002E4A3146E068FFF7A0FE78
:1014B0002069A06560884107617D02D521F00401A3
:1014C00005E02A6892F8452702F00402114361758D
:1014D00094F84A10800721F0020184F84A1000288D
:1014E000286890F8660701DA20F0030084F84B00C2
:1014F0007E70BDE8F0411A4800F029BD032814D0E1
:10150000052812D0042810D00A280DD00B280BD0A3
:10151000092809D0082807D0062805D0072803D0B5
:10152000012801D0022801D176E66CE7704730B57A
:1015300004460B480122064D00888BB0062C1DD0B6
:10154000072C1BD0012C23D0022C21D0082C13E017
:101550001802100004100020A0021000A1021000C8
:10156000880A100028021000F89F0120F6FF0100F1
:10157000009E01200080012007D022E0E9780629A2
:101580001FD007291DD080071BD08DF800200CE04C
:10159000E978012915D0022913D010F0060F01D1E6
:1015A00040070ED002208DF80000684601F071FC63
:1015B000684600F04BFB684600F001FB684600F00F
:1015C000FBFDEC700BB030BDF8B5FB4D07460129B3
:1015D00001D1002068716C79F84E641C08E000BFEE
:1015E00056F82420694638469047012804D0641CE8
:1015F0000C2CF5D90020F8BD6C719DF80000F8BDE9
:1016000070B5018800292BD001466022EC4814F007
:1016100090F9FFF7EAF8E84C0025C4E9025025717B
:10162000607800281CD10121E548FFF7CDFF0600B6
:1016300016D0E44901200870E348006890F81011C2
:1016400049070ED590F8430780070AD400F008FE3A
:101650000220A07000F008FE192000F03CFE667029
:1016600070BD25703046FFF762FF3046BDE8704020
:1016700044E700207047C268120006D00088800549
:1016800003D5042008700120704700207047C2680D
:10169000120006D00078C00703D003200870012094
:1016A000704700207047426A120006D00078000799
:1016B00003D5052008700120704700207047C26ADA
:1016C000120008D0026B32B10078800603D50820E2
:1016D00008700120704700207047C26A120006D0CF
:1016E0000078C00603D5092008700120704700204B
:1016F0007047C26A120006D00078800703D50A201E
:1017000008700120704700207047026B32B10078EA
:10171000400703D50B200870012070470020704758
:10172000C26A120007D0026B2AB10088C00402D539
:1017300001200870704700207047C26A120008D06C
:10174000026B32B10088800403D5022008700120AA
:10175000704700207047C26A120008D0026B32B195
:101760000088400503D5062008700120704700203E
:101770007047C26A120008D0026B32B100880005BF
:1017800003D5072008700120704700207047002013
:1017900008700120704700B589B001208DF8000065
:1017A00000F04EF98948019000F5F850039000F5DB
:1017B0003A700490824881686846884709B000BD45
:1017C0007D4910B54A780120042A10D10B795B1CA1
:1017D000DCB27D4B0C711B6893F8063303F00F03EA
:1017E0005B1C9C4204D21046FFF788FE002010BD0F
:1017F00000220A7110BD70B56F4C01206178032979
:1018000022D1A1686E4D491CA16095F85C209142DF
:101810001BDAE8682A4620F001000321FFF7E8FC04
:10182000694822890168487D097D401C5043401C5D
:101830004843664901EB4000C0F30E00A5F848009C
:10184000284600F0F2FB002070BD0021A16070BDB1
:1018500070B55D4909684B7D097D5B1C4B43584958
:101860000C460A7894F85C40D2071FD0012C1DD991
:10187000498849051AD50020544A14E0012109E09D
:1018800001FB030632F8105032F81660491C35444B
:1018900022F810508C42F3DC32F9101091FBF4F175
:1018A00022F81010401C9842E8D370BD047770BD38
:1018B00070B588B0FFF784FF00280ED0FFF79BFFBC
:1018C00000280AD000213E48FFF77EFE040006D023
:1018D000FFF72DFE2046FFF711FE08B070BD364D14
:1018E000384800246C703A490470A4200873364EBE
:1018F000306890F81001400702D5AC7000F09EFCF3
:101900002878012826D08DF8004001208DF81C0091
:101910006846FFF79DFF2A4C2E4D2088400507D5CD
:101920003068407D420005EB4001284613F0BCFFC3
:101930002648019000F5F050029000F58070039069
:1019400000F53A70CDE90405F8380690A1686846BC
:101950008847C2E703208DF80000D6E770B51A4823
:10196000184E154C00684FF0000590F8101149070B
:101970000AD590F84307800706D4A078012808D03C
:1019800002280FD0032803D1A570FFF704FF35709C
:1019900070BD0220A07000F067FCBDE870403220EE
:1019A00000F099BC0320A0706078FFF7C0FD60785C
:1019B000BDE87040A2E5000018021000285B01009D
:1019C000880A1000AB0210002802100000800120DD
:1019D00000100020F89F012000F01F02012191401B
:1019E00040094FF0E02202EB8000C0F80011704780
:1019F00000F01F020121914040094FF0E02202EB6C
:101A00008000C0F88011704700F01F020121914052
:101A100040094FF0E02202EB8000C0F880127047CE
:101A20004907090E002803DA00F00F00024A00E01F
:101A3000024A81547047000014ED00E000E400E029
:101A4000FE4800220260FD481C380260FC4802612A
:101A50000121016182608160026001600260F949D8
:101A6000A0F574700B68002BFCD1F7490B7B43F099
:101A700020030B730B7B23F040030B730B7B23F0D2
:101A800080030B730B7B23F020030B73C0F8D82368
:101A9000C0F8E023ED480270704730B5E8480024F4
:101AA00074300460E64880300460E548C460012179
:101AB000C160C460046001600460E54D20202870AE
:101AC0006870E149593D0873A4200873DD48183057
:101AD00001680029FCD1FFF7B3FFDE48046085F8F8
:101AE000344030BDF0B518260022D64DD6484FF40C
:101AF000F8315C270C46002303EB000E11F803C0FD
:101B00005B1C8EF860C00C2BF6DB2B68002BFCD125
:101B10008276C77604F10C0103EB000E11F803C0C6
:101B20005B1C8EF860C00C2BF6DB29680029FCD109
:101B3000511C8176C776921C04F13001B2EB460F3E
:101B4000D8DBF0BD2DE9F0479246089E5B1EC6F13A
:101B500008010022BC4C01F0FF0C1546002189460B
:101B60009A420BDA00EB0208875C98F8018027FAAA
:101B700006F708FA0CF847EA080703E007D1875C84
:101B800027FA06F701EB040888F8607003E001EB20
:101B9000040888F8609001F1010102F101020C29AA
:101BA000DEDBA8490F68002FFCD10AEB0501A17606
:101BB0005C21E1766D1C022DD0DBBDE8F08738B5E5
:101BC000002504460095006A112330222946FFF7BC
:101BD000B9FF0095182335220021606AFFF7B2FF94
:101BE00038BD00B58BB000208DF80000684601F0CC
:101BF00050F96846FFF7E3FF0BB000BD2DE9F04751
:101C00000024DFF8408290498246254626464FF060
:101C10005C0900209C4206DA00EB010C1AF8047003
:101C20008CF8607002E0471887F86060641C401C04
:101C30000C28EFDBD8F800000028FBD1501988767B
:101C400081F81B906D1C032DE3DBB6E710B504464D
:101C50004069182332220021FFF7D0FFA06920231A
:101C60003722BDE810400021C8E700B58BB0002046
:101C70008DF80000684601F00CF96846FFF7E6FFB2
:101C8000BAE7F0B50024704D05E0165D6719641CD5
:101C900087F8606064B29C42F7DB6A4A1468002CE3
:101CA000FCD1A976184340F01000E876F0BD70B57D
:101CB0000023654C05E0CD5C1E195B1C86F8605066
:101CC0005BB29342F7DB5F490B68002BFCD1A07637
:101CD00042F01000E07670BD30B55F4C0722022064
:101CE000216801F24271FFF7E2FF2168022201F24E
:101CF0004A710920FFF7DBFF2168062201F24D71CE
:101D00000B20FFF7D4FF20685449554D90F8530736
:101D1000097800F0F00001F00F010843287001225B
:101D200029461120FFF7C3FF2168032201F25771F2
:101D30001620FFF7BCFF49480122401E007800F042
:101D40000F01206890F85A0761F31F102870294688
:101D50001920FFF7ACFF2168012201F25B711A2004
:101D6000FFF7A5FF2168042201F25C711B20FFF739
:101D70009EFF3A480222C01C294600782870374846
:101D8000401C007868701F20FFF791FF2168022235
:101D900001F5EC612120FFF78AFF30480222001D87
:101DA0002946007828702D48801C0078687027200C
:101DB000FFF77DFF2168012201F263712A20FFF7FE
:101DC00076FF2168072201F266713D20FFF76FFF61
:101DD0002068022290F86E17297090F86F076870DB
:101DE00029464420FFF763FF2168022201F5EE61D6
:101DF0004620FFF75CFF2168082201F2727148203B
:101E0000FFF755FF2168082201F27A715020FFF791
:101E10004EFF2168052201F284715820FFF747FF29
:101E200022680B4DAD1F92F88F072870012302F234
:101E30008A72FA210020FFF724FF13E01C0C002215
:101E4000D0030022040B0022001000201902100011
:101E5000590000204005002228021000F6FF010072
:101E6000E80A10002268012302F28C720E21C020C1
:101E7000FFF707FF2268012302F28D721421C020B0
:101E8000FFF7FFFE332068740B20A87430BD10B537
:101E9000FFF722FFFFF7E9FEFFF7A3FEBDE81040C2
:101EA00020E638B50546FC4C006D00906073010AD1
:101EB000A173010CE173000E2074042269462B20EB
:101EC000FFF7F5FE012205F14E012F20FFF7EFFE8F
:101ED00095F84E00A074A86D0090E074010A217579
:101EE000010C6175000EA075042269463520FFF7CC
:101EF000DEFE0098800F84F84000E8490122087057
:101F00003920FFF7D4FE38BD00EBC00101EB001013
:101F10006FF0030101EB800010B5E149E14A097857
:101F2000146890FBF1F0401EC1B2012358075CB168
:101F30000024146080F8341090F83F1090F83F406F
:101F40008C42FBD0136010BD80F83410FAE77CB5EA
:101F5000044600208DF804002046FFF7A2FFD24877
:101F6000B4F848100180217D00F8011C94F84A1053
:101F70004173C94EA07D86F83600CC4D286890F894
:101F800042078DF800006188890503D520F0120012
:101F90008DF80000012269460220FFF788FE042226
:101FA00004F115010520FFF782FE2968022201F2E3
:101FB0004A710920FFF77BFE022204F11A010C206E
:101FC000FFF775FE022204F11C010E20FFF76FFEE1
:101FD000052204F11E011020FFF769FE286890F821
:101FE0000907C0070AD0012201A94420FFF75FFEBC
:101FF000022204F140013F20FFF759FE012204F1C3
:102000004B013D20FFF753FE012204F14C01442017
:10201000FFF74DFEA64801680129FCD194F84A005B
:1020200030732320FFF770FF7CBD38B504469A4D0E
:10203000006D00906873010AA973010CE973000E2A
:102040002874042269462B20FFF731FE012204F197
:102050004E012F20FFF72BFE4834A079A874924838
:1020600021880180A1784173A07828732320FFF78D
:102070004BFF38BD7EB50446FFF713FF8A48B4F81E
:102080004810018094F8431000F8011C94F84A109D
:102090004173864D286890F842078DF800006188EA
:1020A000890503D520F012008DF800000122694651
:1020B0000220FFF7FCFD012204F115010520FFF7C6
:1020C000F6FD94F84600744EC00708D0286800F268
:1020D000957190F8950786F83600012206E094F88D
:1020E000440086F83600012204F144010620FFF77F
:1020F000DEFD012204F142010720FFF7D8FD012295
:1021000004F145010820FFF7D2FD2968022201F2FF
:102110004A710920FFF7CBFD286890F80907C0072E
:1021200007D000208DF80800012202A94420FFF703
:10213000BEFD012204F14D011720FFF7B8FD94F810
:102140004A00400701D5042000E002208DF8040079
:10215000012201A91820FFF7AAFD022204F134018F
:102160001B20FFF7A4FD022204F136011D20FFF71A
:102170009EFD012204F138012120FFF798FD012284
:1021800004F139012220FFF792FD012204F13F0101
:102190002A20FFF78CFD012204F14B013D20FFF7BF
:1021A00086FD434801680129FCD194F84A00307348
:1021B0002320FFF7A9FE7EBD30B50446C069374D28
:1021C0000122007800F00F013848006890F85A07A3
:1021D00061F31F10287029461920FFF768FDE06899
:1021E00002222946007828706068007868701F20F5
:1021F000FFF75DFD20692946022200782870A0685B
:1022000000786870BDE83040272050E527490A680B
:1022100092F84D270270096891F8551701737047BD
:1022200010B50446014601220B20FFF740FD04F1E2
:102230000C010122BDE81040132038E5164908B50D
:1022400004200873194801226946006890F8430782
:1022500020F008008DF800000320FFF728FD08BDDE
:102260000D4920200873704718B5124C01226946A9
:10227000207840F0F0008DF800001046FFF717FDC1
:102280000549C020087320788DF8000001226946B6
:102290001046FFF70CFD18BD00100020E80A1000E2
:1022A000AD0210004005002254000020280210005A
:1022B000000B0022590210002F480168002909D0A4
:1022C000002101604FF0005191F83F0091F83F204C
:1022D0008242FBD070472849002240390A60274AD1
:1022E000107001200860704770B5254C2368002BE2
:1022F000FCD11D4603E0C6185B1C86F880508B425B
:10230000F9D32368002BFCD102E0C45CD4545B1CDD
:102310008B42FAD370BD10B501F082FBFFF7CCFF02
:102320001848007878B11648183801680029FCD19F
:102330001548C078400602D5144901200870BDE850
:102340001040FFF7B5BA12490020087010BD10B553
:1023500001F066FB0849002040390860BDE81040E4
:10236000FFF7FCBA10B501F05BFBFFF7A5FFBDE876
:102370001040FFF7F3BA0000400500222D000020B6
:102380001C0B00221902100000100020180210007F
:10239000AB0210007048006890F8F007C00605D541
:1023A000ED214EF6ED52084605F07BFBFEE70546B3
:1023B0000E46012005F037FB694C6848C4E9000669
:1023C0002868A0606868E060A8682061E8686061CB
:1023D0002869A0616869E061A8692062614EE869C6
:1023E000606230685F4FA062103F386807F10408F0
:1023F000E062D8F8000008F104092063D9F8000071
:1024000006F1040A6063DAF80000DFF858B1A0634F
:10241000ABF1340BDBF80000E063381F0068206488
:10242000FEF7E3F96064504800210068A0640F20C3
:102430002A6805F010FB01210F206A6805F00BFBEC
:1024400002210F20AA6805F006FB03210F20EA688D
:1024500005F001FB0C210F202A6905F0FCFA0E2182
:102460000F206A6905F0F7FA0F210846AA6905F0FE
:10247000F2FA20210F20EA6905F0EDFA32682121F5
:102480000F2005F0E8FA3A6822210F2005F0E3FA60
:10249000D8F8002023210F2005F0DDFAD9F800201C
:1024A00024210F2005F0D7FADAF8002025210F208B
:1024B00005F0D1FADBF8002026210F2005F0CBFA39
:1024C000381F026827210F2005F0C5FAFEF78DF9A5
:1024D000024630210F2005F0BEFAFFF75BFF01280E
:1024E00007D002280FD0032805D0042805D00421E6
:1024F0000AE0012108E0032106E00021032005F0A5
:1025000092FAFFF747FF0221032005F08CBA10B5BD
:1025100004460146042005F086FA012C01D1FFF79C
:1025200039FF10BD0146082005F07DBA014606209E
:1025300005F079BA10B504460146072005F073FA94
:10254000012C03D0022C01D0032C01D1FFF722FF74
:1025500010BD0320EEE7000028021000AF0550FA7E
:102560005C00012038ED00E06002100001F058BA74
:10257000704770471A4810B5016821F004010160E6
:1025800001F04EFABDE8104011F030BF704701F085
:1025900047BA01F045BA01F043BA70477047704737
:1025A000704701F03DBA70477047704770477047F9
:1025B000704710B501F034FABDE81040FEF7A5BA37
:1025C00010B501F02DFA07480078012801D101F07B
:1025D00096FE05490020086010BD70477047000056
:1025E00010ED00E0AA0210004805002210B55C21A1
:1025F0009D4813F0D8F99C489C499D4A01808280EF
:102600009C4941809C4BC3809C4C04819C4C4483DE
:102610009C4C84839C4CC4839C4C04849C4C44847C
:102620009C4C84849C4CC4841A309C4CC48183840C
:10263000018442849A49C1849A499C4B0968B1F843
:1026400079200285B1F85F214285B1F88D2082851D
:10265000B1F8D620C2850022028642868286924A3E
:102660005B1E1288C2864A7D02870A7D42878F4A96
:102670001B78127842EA0322C28791F84C20A0F816
:102680004020874891F84E274280B1F85C17C180FE
:10269000018110BD8548113001788548552901D048
:1026A000192102E0814913310978017070472DE941
:1026B000F047FF2228217F4813F06DF97D48FEF78F
:1026C00076FB7C480E2401254268072645F2AA5174
:1026D0008A4202D082688A423CD180460068D8F89B
:1026E0000820070E89464A4506D1032F01D1C0F3C1
:1026F0000135C0F3032602E00120FFF717FFD8F8E9
:102700000410494504D198F8000000F01F0402E0CD
:102710000220FFF70BFF032F22D1D8F814304946CF
:10272000654A40468B4201D1036900E0634B136068
:10273000C369634A8B4201D1836900E0614B136036
:10274000436A614A4B4502D1D8F8200000E05F4857
:10275000106005E00120FFF7E9FE0220FFF7E6FE2A
:1027600005F0030040EA061020F00C014D48006817
:1027700090F84107C0F3C00241EAC201C0F38000F3
:1027800041EA800152480170524880F860100121EE
:1027900081761121C1765048017864F304010170FB
:1027A000BDE8F08770B5FEF7A0F8FEF70DFA3D4DD5
:1027B00028680078A52802D00120FFF7A8FE4FF076
:1027C00008500124C0F898432868444A817C01F0ED
:1027D00001011160807C111DC0F340000860FEF70C
:1027E000E5FAFEF7A5F8FEF7B3FC042801D1FFF7E0
:1027F00076FEFEF735FAFEF77FFA3648802180F83C
:102800006010042181761121C176FFF750FFFFF798
:1028100041FF32486C38046030480C38046070BDA9
:1028200010B54FF0005141F673004881FFF7BAFF31
:10283000FFF7DCFE2A495F2008602A490020086073
:102840002A482949016001F508602949086029489A
:1028500000F058FEFDF726FD00F04EF8FDF720FDD4
:10286000FDF7A4FD012010BD000001200080012023
:1028700000DB012080D3012060A20120009F012005
:10288000100801204C0801200C09012048090120F2
:10289000E8040120240501206C040120A804012083
:1028A0000C25100028021000C8021000E1FF0100F2
:1028B000AD021000B0261000B802100040A5AE0214
:1028C000BC02100000879303C002100000366E01A6
:1028D000590210000010002020000020880400226F
:1028E000080901209C021000F41210006802100078
:1028F0006C021000F42310007FB5FDF72FFD274D6B
:10290000002400BF05EB441000F11002017F4CCA07
:10291000CDE90261CDE900230FC8FDF703FF10B137
:102920000220FFF707FE641C082CEBDB1C4D002483
:1029300004EB440005EB8001091D55F8200006C991
:10294000FDF770FE10B10220FFF7F4FD641C072CA8
:10295000EEDB134D0024543505EBC400416855F8F7
:102960003400FDF779FD10B10220FFF7E3FD641C90
:10297000072CF1DB7FBD4068FFF7EBBD38B50C4697
:102980000546012A01D1FDF787FD69462846FDF776
:10299000C2FD00992142F8D138BD00005C5B010006
:1029A0005C5C0100F0B500245F1E26E02546661C35
:1029B00008E000BF30F915C030F916E0F44500DB3F
:1029C0003546761C9E42F5DB30F8146030F815C0B1
:1029D00020F814C020F8156031F8146031F815C0E3
:1029E00021F814C021F8156032F8146032F815C0CF
:1029F00022F814C022F81560641CBC42D6DBF0BD7E
:102A000010B500240388012A06D05BB15B1E1904AF
:102A1000090C018006D007E05B1C9AB202808A4252
:102A200002D90480012010BD002010BD01EB8010F0
:102A3000801001EB41014900182291FBF2F300EBF9
:102A4000400000F5F83002FB1311006820F07F40D1
:102A5000C84000F03F0070472DE9F04F87B00746AF
:102A60000020009001900290039004900590069041
:102A7000FD480125FB4E804628E002241EE0087D2B
:102A800004FB005036F91000B84216DD032304AAF7
:102A900002A96846FFF786FFD8F80000BDF90010CC
:102AA000007D04FB005036F91000814205DAADF8D4
:102AB0000000ADF80850ADF81040641CD8F80010C4
:102AC00040464A7D521EA242D9DC6D1C0168097D38
:102AD000491EA942D1DC00240DF1080BB246C146C3
:102AE0005FF0000504A83BF914C030F91430D9F8A0
:102AF0000000017D504603FB01C63AF91660BE4254
:102B000035DDDA4E76571E4406FB01C2731C03FB0B
:102B100001C130F812203AF811006146101A0FFA7C
:102B200080F8701EFFF782FF069061463046FFF77F
:102B30007DFF01460698401A002807D0D9F800000A
:102B40000EDAB0F8651441450FDB1CE0D9F800003F
:102B5000B0F861144A42424515DAB0F8651402E053
:102B6000B0F86104414241450DDD012006906D1C25
:102B7000EDB2022DB6D3641CE4B2032CB0D3069898
:102B800007B0BDE8F08F0020FAE7F0B50546002059
:102B90004FEA254C4FEA2146BCEB060400D56442BF
:102BA0009C421FDA4FEA2247BCEB070400D564427F
:102BB0009C4217DAF41B00D564429C4212DA2DB213
:102BC0000CB2291B00D5494299420BDA12B2A91A5C
:102BD00000D54942994205DAA11A00D549429942E5
:102BE00000DA0120F0BD70B5034600200246A04C7B
:102BF00009E09D5C521C05F00F0604EB1515A65D5F
:102C00002D78304428448A42F3DB70BD884200D3DB
:102C100008467047884200D808467047884200D36B
:102C20000846904200D310467047F0B50025059F36
:102C300014E000240EE000BF05FB03F600EB860C59
:102C400001EB86065CF824C09CFBF7FC46F824C028
:102C5000641C64B29C42EFDB6D1C6DB29542E8DBF4
:102C6000F0BDF0B50025059F14E000240EE000BF84
:102C700005FB03F600EB860C01EB86065CF824C02E
:102C80000CFB07FC46F824C0641C64B29C42EFDBDA
:102C90006D1C6DB29542E8DBF0BDF0B50025059FD7
:102CA00017E0002411E000BF05FB07F600EB860CDF
:102CB00001EB860E5CF824C05EF824E002EB860689
:102CC000F44446F824C0641C64B2BC42ECDB6D1CC6
:102CD0006DB29D42E5DBF0BDF0B50025059F17E024
:102CE000002411E005FB07F600EB860C01EB860ED5
:102CF0005CF824C05EF824E002EB8606ACEB0E0C18
:102D000046F824C0641C64B2BC42EBDB6D1C6DB29F
:102D10009D42E5DBF0BD2DE9F04F814609A88A46CA
:102D2000B0E822400020DDF834B08A4221D028E704
:102D300000241BE0002116E000FB02FC01FB05F86B
:102D400000FB0BF609EB8C0C0EEB860603EB8808F8
:102D50005CF821C056F8247058F82480491C0CFBFC
:102D6000087746F824709142E6DB641CAC42E1DB54
:102D7000401C5045DCDB04E73B480068017B427B9C
:102D800041EA0221827BC07B41EA024141EA0060C4
:102D900040007047344800680179427941EA0221D5
:102DA0008279C07941EA024141EA0060704700B58A
:102DB000FFF7E2FF4008400000BDF8B50E460446AC
:102DC000FFF7F5FF0090FFF7D7FF0546042168469F
:102DD000FFF709FF04EB4007002400992046234633
:102DE0004FF0010C0CFA03F20A4207D02A4204D039
:102DF00037F8102026F81420641C401C5B1C1E2B86
:102E0000F0DBF8BDC6E7FCB50E460746FFF7CFFF7F
:102E10000190FFF7BFFF0090FFF7BCFF05460421BC
:102E200001A8FFF7E0FE044604216846FFF7DBFE39
:102E300000EB440007EB40070020009904460346DE
:102E40004FF0010C0CFA03F20A4207D02A4204D0D8
:102E500037F8142026F81020401C641C5B1C202B23
:102E6000F0DBFCBDF80A100028021000D0021000B0
:102E7000E85C010000B5FFF77FFF40F0010000BDF6
:102E800088E7FE4A520102EB810101F10851086016
:102E900070470178012918D0022915D1F8494160FD
:102EA000491C8160F7494161F6492C318161F4493F
:102EB000891CC160491C0161491FC161F1496C3124
:102EC0000162F0498D3141627047ED49103941602E
:102ED000491C8160EB49BD314161EA49E9318161B9
:102EE000E7490E39C160491C0161491FC161E649CA
:102EF0000162E5492131E6E7F0B5074605988842C9
:102F000001DD1846F0BDB84201DA1046F0BD9E1A48
:102F1000C01B4643CD1B00D10125DC4C96FBF5F0D0
:102F20002468104400B294F8F1470E2CEED1A44668
:102F3000D74CA4F800C04FEA264CA4F802C0A680E3
:102F40002E14E68025816781A181E281238260823F
:102F5000F0BD01EB8010801010B501EB410149007C
:102F6000182391FBF3F403FB141300EB400000F56E
:102F7000F8303F2401689C40A1439A400A43027004
:102F8000110A4170110C817010BD2DE9F04F8B4674
:102F900082460026FFF76EFF8146FFF7FBFE0746DD
:102FA0004FF0180C00254FF0010800BF08FA05F19A
:102FB00011EA090F13D0002408FA04F038420AD0AD
:102FC000BBF1010F10D01AF8062021462846FFF762
:102FD000C0FF761CB6B2641CA4B2202CECD36D1CCE
:102FE000ADB26545E2DBCCE521462846FFF71EFD84
:102FF0000AF80600EDE7A249153908807047A04895
:103000001538B0F9000070472DE9FF4F00278646BC
:1030100081B04FF0FF093E46BC46481C52D0501CC0
:1030200050D0881E012800DC0120C4B2974801F16D
:10303000020805682B7D981E404501DD881C00E0D4
:10304000981E00F0FF0B901E012800DC0120C0B28A
:103050000090687D02F10208851E454501DD901C47
:1030600000E0801E00F0FF0A18E0009D12E000BFA3
:1030700005FB034080B21EF8000084441FFA8CFC5C
:10308000B84200D90746814500D98146761C6D1C9F
:10309000F6B2EDB25545EBD9641CE4B25C45E4D917
:1030A00053430EEB0100185CBCEB000101D5C1F1EC
:1030B0000001A6F1010691FBF6F1411A00D5494243
:1030C00004980170A7EB0900C0B205B059E530B50E
:1030D0006E4A03466A4814681538B4F8B52694F861
:1030E0004647B0F9000004F00F04641C02FB04051D
:1030F00062439D4207DAA2EB60029A1A92B292FBF7
:10310000F0F0084409E0141A9C4208DD02EB60026A
:10311000D21A92B292FBF0F0081AC0B230BD084643
:1031200030BD2DE9FC4F8B4682460026DFF864C196
:10313000564CDFF86491DFF8648117E001250FE059
:10314000007D002205FB00618FB2391A38F91700A3
:1031500019F80110FFF7BBFF6D1C0CF80700EDB26A
:103160002068417DA942EBD2761CF6B22068007D32
:10317000B042E3D820684FFA8AF24FFA8BF1007D13
:103180006B46604416460D46FFF73EFF074601AB0F
:10319000324629464048FFF737FF0146206890F83D
:1031A000542407EB9210884207D39DF800009DF845
:1031B000041000EB9210884202D20120BDE8FC8F7F
:1031C0000020FBE7304A533222F810107047F0B568
:1031D0002E49074600200E68022396F815E015E0F8
:1031E000347D0122A11E0EE003FB0425ADB205F1E2
:1031F000010C1FFA8CFC7D5D17F80CC0654501D1F0
:10320000401C80B2521C9142EEDC5B1C9E45E7DC08
:10321000F0BD2DE9F14F4FF00008FFF72BFE4FEA0C
:10322000500CFFF7B7FD074600264FF0010A00BF1C
:103230000AFA06F1394234D000980025DFF84CB084
:103240002C4600EB060900BF0AFA04F010EA0C0F46
:1032500011D031462046FFF7E9FBDBF80010621C75
:10326000097D5143A84201F8090003D108F1010189
:103270001FFA81F80546641C182C11E0080901208A
:10328000F7FF010040F8010069F901002802100071
:1032900000DB0120A0AD0120E0A90120F80A100008
:1032A000D2DB761C202EC3DB4046BDE8F88F30B55C
:1032B000F74A0021F74B05E032F8114020F81140A1
:1032C000491C89B21C68257D647D65438D42F3D815
:1032D00030BD30B5EE4A0021EE4B05E030F811402C
:1032E00022F81140491C89B21C68257D647D654324
:1032F0008D42F3D830BD2DE9F04381460026FF27EB
:10330000481C38D0501C36D0881E012800DC012013
:10331000C4B2901E022800DC022000F0FF0CDD4841
:1033200001F102080068057DAB1E434501DD891CE3
:1033300000E0A91E01F0FF08417D931C481E984241
:1033400001DD911C00E0491EC9B212E063460CE0A9
:1033500003FB054080B219F80000B04200D90646D0
:10336000874200D907465B1CDBB28B42F0D9641C54
:10337000E4B24445EAD9F01BC0B2BDE8F0832DE9C0
:10338000F84F4FF0FF3B0024C348CDF800B0FFF7E3
:1033900040FFC04EDFF800933068007D00EB400135
:1033A00009EB8100817B027C11444908C1734846C6
:1033B000FFF70DFF05460027DFF8E0A2B04622E048
:1033C000012619E0007DB64A06FB00711FFA81FC58
:1033D000ACEB000032F91C30AD4A80B219F80C1089
:1033E00032F9100000285DD082B21846FFF76FFE58
:1033F000761C0AF80C00F6B2D8F80000417DB14204
:10340000E0D27F1CFFB2D8F80030197DB942D7D87E
:10341000197D01EB41020AEB82018A7B0E7C32446A
:103420004FEA5202CA734FF000021E7D1BE00121D9
:103430005F7D14E001FB062080B21AF8008019F8C5
:103440000000B8EB000000D5404240B2A04204DDCD
:10345000044648B24FFA82FB0090491CC9B28F4221
:10346000E8D2521CD2B29642E1D88C48FFF7AFFEA8
:10347000884C216891F881142944814212D3A842D2
:1034800012D359468548009AFFF735FF054659463D
:103490008148009AFFF72FFF2168401B91F88214A2
:1034A000884201DD012000E70020FEE6821002EBE9
:1034B00042020A4400EB40004000182190FBF1F367
:1034C00001FB1301106820F07F40C84000F03F006E
:1034D0007047831003EB430310B51A4400EB400020
:1034E0004000182390FBF3F403FB14033F241068FF
:1034F0009C40A043994001431170080A5070080C89
:10350000907010BD2DE9F14F82B04FF0000B782183
:10351000029812F06AFAFFF7ADFC4FEA5008FFF785
:1035200039FCDC46814666464FF0010A0AFA06F18C
:1035300011EA090F25D000240AFA0CF001272546CC
:10354000CDF800000AFA05F010EA080F14D0314651
:103550002846FFF76BFAA04208D00299009A51F86A
:1035600027101143029A42F8271003E00BF10101E2
:103570001FFA81FB04467F1C6D1C182DE2DB0CF149
:10358000010C761C202ED1DB5846BDE8FE8F2DE9BC
:10359000F04F83463F4800242246D0F800A0012186
:1035A0009AF81450A5F1010621E003200123DFF869
:1035B000F4E003FA01F99AF8157015E05EF820C0FE
:1035C0001CEA090F0FD0A0F1010300FB051C03FB4F
:1035D00005183BF91CC03BF91830BCEB030300D5C0
:1035E0005B421C44521C401C8742E7DC491C8E4253
:1035F000DBDC02B9012294FBF2F0F4E42DE9FF4F89
:1036000085B0002103910291019100912149012B84
:103610000C6894F8725205F00F0700D10027667D00
:1036200094F87532C7F1100BB34200D21E46002346
:10363000049301238EE000BF4FF00009C846032425
:103640001FE0184951F824C0012199401CEA010FDC
:1036500004FB053130F911C0A4F1010101FB053172
:1036600030F91110ACEB010106D0002900DA494213
:10367000DDF818C0A1EB0C01002900DA49428944A9
:10368000641CB442DDDB31469EF815A02CE000003E
:10369000BCF9010028021000E0A90120A0AD012022
:1036A000F80A1000F4231000F74C54F821C001244C
:1036B0009C401CEA040F01FB053430F914C0A1F151
:1036C000010404FB053430F91440ACEB040406D0CB
:1036D000002C00DA6442DDF818C0A4EB0C04002CC6
:1036E00000DA6442A044491C8A45DDDC04990129C2
:1036F00010D10199B1EB090101D5C1F10001039C81
:10370000214403910099B1EB080100D54942029C84
:1037100021440291CDE900899EF87612994216D192
:103720001168039D79430BFB0511CC1701EB147154
:10373000091111609168029D79430BFB0511CC17AB
:1037400001EB147109119160002103910291012193
:103750005B1C0491CD49D1F800E09EF81450691E1D
:1037600099423FF769AF5068039978430BFB01001A
:10377000C11700EB117000115060D068029B7843B4
:103780000BFB0300C11700EB11700011D06009B0F2
:1037900029E430B5044600200222A1F101010AE02B
:1037A00004EB420534F9123035F9025C5B1B00D59D
:1037B0005B421844521C8A42F2DB30BD70B5B34AFA
:1037C000002001461268B24C537D0BE034F91150D1
:1037D000B2F84F64B54203DBB2F85164B54200DD84
:1037E0000120491C8B42F1DC70BD70B5A74C00254F
:1037F0002068417DA64808F0E5FF06462068017D67
:10380000A44808F0DFFF2168B1F84D14814201DBC4
:10381000B14200DA0125284670BD2DE9F14F9B49E0
:10382000002318460C6894F84814267DC1F3C001A3
:10383000B4F858B4B4F85AA4A6EB010925E0657DA4
:103840000322DFF844E2DFF85082A5F1010518E019
:103850005EF822C0012707FA01F71CEA070F0ED114
:1038600002FB061738F917C0A2F1010707FB06177C
:1038700038F91770BCEB070700D57F423B44521C58
:10388000D2B29542E4DC491CC9B28945D7DC009923
:103890009B450B6002D2534500D2012005E57CB563
:1038A0000D460446FFF783FA0090FFF773FA019084
:1038B00000980421400800906846FFF794F90646F6
:1038C000042101A8FFF78FF93044820021462846E1
:1038D00011F0EAFF7CBD0B466C4909684A7D097D01
:1038E000521C4A4301465200184611F0DDBF70B524
:1038F0000446602112F079F80020644B208060803B
:10390000196891F8941701F0010140EA41116180B2
:10391000A060FFF7AFFAE060FFF73CFA5F4D20616F
:1039200068886083186800F24670C27A817A02F073
:103930003F0241EA0221A1834178E17590F84910E4
:1039400021750178A17581782176017BA177544991
:10395000407B097800F0F00001F00F010843E077A8
:10396000FFF725FAE062FFF715FA2063E888A086E2
:103970006087186890F8901784F8421090F89217B2
:1039800084F8431090F8931784F8441090F8911736
:1039900084F84510B0F85E17E186A18790F86017AB
:1039A00084F8381090F8611784F8391090F862178D
:1039B00084F83E1090F8631784F83F1090F866176B
:1039C00084F84B1090F84810C9070AD090F84900C5
:1039D00000F00F0084F85C00608840F48060608034
:1039E00070BD012084F85C0070BD10B50446FCF782
:1039F00059FC012C0BD12548006890F81001800774
:103A000005D5FCF780FF38B1FCF776FF04E0FCF742
:103A10007AFF08B9FCF769FFBDE81040FCF740BC2D
:103A20000020E2E7194B10B51A68947F640704D5AB
:103A3000D28A0468A2EB040202601A68947FA40789
:103A400003D5128B0C68121B0A600268002A00DA88
:103A5000002202601C68E48AA24200DD2246026065
:103A60000A68002A00DA00220A601C68248BA2423D
:103A700000DD22460A601B689B7FDB0702D00368DB
:103A80000B60026010BD0000F4231000280210003B
:103A9000100801204C08012080D301200C251000C3
:103AA000F6FF0100F0B500252C46059E0AE000BF98
:103AB00031F9147030F914C0A7EB0C07974200DD00
:103AC0006D1C641C9C42F3D3B54201D30120F0BDB0
:103AD0000020F0BD2DE9F04FC54CC64D9B46246833
:103AE000DDE909E72D78002394F89061012D01D0DC
:103AF00000242FE00121DFF80093DFF800A394F801
:103B000015C015E0002010E0257D01FB050539F901
:103B100015703AF9155005EB0208474503DAA5EB95
:103B20000B05AF4200DC5B1C401CB042ECD9491CC9
:103B30008C45E7DA10E000BF31F9146030F9145019
:103B400006EB020C654503DAA6EB0B06B54200DC7A
:103B50005B1C641CBC42EFDB734501D901204CE5C2
:103B600000204AE52DE9F04F8A46DDE90997012555
:103B700047F6F8714E429346AC46002417E000BF6A
:103B800030F814803AF81420A2EB080212B29142E5
:103B900000DD1146964200DA1646002A02DA4FF09E
:103BA000000502E001DD4FF0000C04F10104BC420D
:103BB000E6DB55EA0C0206D0012D01D02DB108E05C
:103BC000BCF1010F05D1002112E0BCF1010F00D1C1
:103BD0003146002905DD03EB0902B1EB420FF2DCAF
:103BE00006E005DA03EB09025242B1EB420FEADBD1
:103BF00000252C462A4610E030F812603AF812C030
:103C00000E44ACEB060636B29E4205DAC9F1000C52
:103C1000664501DD3544641C521CBA42ECDB95FB61
:103C2000F4F20A44002105E030F8113013442BF877
:103C30001130491CB942F7DBDFE4F0B5064600203D
:103C400004460546521C059F0AE000BF36F911C024
:103C50009C4504DDA44502DD64460D460120491C57
:103C60009142F3DB3D60F0BD70B5614B1B685C7D3C
:103C70001B7D641C5C43002308E000BF32F8135036
:103C800030F81360AD1B21F813505B1CA342F5DB29
:103C900070BD5B49012008604FF47071594811F004
:103CA00082BE2DE9F041064615460F46302801D167
:103CB000FFF7EFFF524C20682844401CB0F5707F9E
:103CC00001D2206801E0012020604E4908700E54A6
:103CD0002DB10844401C2A46394611F0E5FD206804
:103CE0002844401C2060BDE8F08170B54048006861
:103CF00090F80513CA0744491CD090F8062302F037
:103D00000F02531C0A2B01D90A2200E0521C00F2B8
:103D1000073500234C8804E035F81360B4420CD01A
:103D20005B1C9342F8DBB0F84E274A80B0F81923A9
:103D30000A8002E0B0F84E274A80B0F85C07C880DD
:103D4000088170BD30B504460020034606E000BF80
:103D500034F913508D4200DD401C5B1C9342F7DBAD
:103D600030BD30B504460020034605E034F9135059
:103D70008D4200DA401C5B1C9342F7DB30BD30B54E
:103D80001B4B044600201B68024693F8463703F09D
:103D90000F03072B02D947F6FF730DE05B1CC3EB43
:103DA00003331BB208E000BF34F912509D4200D02B
:103DB0000DB9401C80B2521C8A42F5DB30BD13485D
:103DC00013490078087070470949096891F84C1048
:103DD00031B10E4A9621521C1170A521521C11704E
:103DE000012804D10A4809490078401C087070472E
:103DF0002802100057021000F80A100060A20120EB
:103E00002C021000AC0001200C251000DFFF010087
:103E10005D02100010B501462022FE4811F089FD18
:103E2000BDE810404FF400610120FCF735BB70B5D0
:103E30009AB006460D4614466846FFF758FDE0075F
:103E400002D00120ADF80000600608D5F24900203C
:103E50000870BDF8000040F48060ADF80000200656
:103E600005D5BDF8000040F48050ADF800006007B3
:103E700005D5BDF8000040F00600ADF80000ADF833
:103E80001A60ADF83A50ADF83450AFF27700E14D1A
:103E900003244FF4006602906846FDF7B1FB18ABAF
:103EA000002231460120FCF747FB31460120FCF798
:103EB00022FB2878002804D0FEF711FB641E002C9A
:103EC000EADC1AB070BD2DE9F041D44A0024214645
:103ED0001268254610F4D17F04D092F86D120425A3
:103EE0004FEA111110F0050F05D092F86C3245F031
:103EF00001054FEA1314C00604D592F86C0245F090
:103F0000020504098C4200DA0C46641C002D0AD01C
:103F10000026C34F05E0F98878882A46FFF787FF17
:103F2000761CA642F7DBBDE8F0812DE9F35FDFF8F0
:103F3000EC828B46D8F80000457D017D90F86C023C
:103F40006D1C00F00F074D437F1C4FF48851B5489E
:103F500011F04BFD0026B34CDFF8C492DFF8B4A299
:103F600019E000BFB9F8061001220098FFF75FFFC3
:103F7000AD49DAF8040002F0B7FEAB49002007E0D3
:103F800054F8202031F910301A4444F82020401C05
:103F9000A842F5DB761CBE42E4DBD8F8000090F8BE
:103FA0006C0200F00F01491C002006E054F82020AC
:103FB00092FBF1F22BF81020401CA842F6DBBDE882
:103FC000FC9F2DE9FC47FEF7F2FE0090FEF71AFF7A
:103FD000019004216846FEF706FE0446042101A86C
:103FE000FEF701FE8D4E204444003068A10090F899
:103FF0006D0200F00F077F1C8A4811F0F6FC0025C7
:10400000DFF810A2DFF81C92B04622E0844840227C
:10401000C1884088FFF70BFFD8F80010DAF8146069
:1040200091F89417C90705D032463046DAF81010D7
:1040300002F0C5FB0020494608E000BF51F82020EF
:1040400036F910301A4441F82020401CA042F5DB1C
:104050006D1CBD42DADBD8F80000724E454690F880
:104060006D024B4600F00F00401C002107E000BF2E
:1040700053F8212092FBF0F226F81120491CA142AE
:10408000F6DB6A493046FEF798FE69493046FEF78E
:10409000BAFE286890F86912890711D5654C00218D
:1040A0002160417D6148FFF774FB2168084420606E
:1040B0002868017D5E48FFF76CFB2168084420609A
:1040C000BDE8FC872DE9FC47FEF771FE0090FEF786
:1040D00099FE019004216846FEF785FD04460421FF
:1040E00001A8FEF780FD4D4E204444003068A10039
:1040F00090F86D0200F00F077F1C4A4811F075FC24
:104100000025DFF810A1DFF81C81B14621E044480A
:104110008022C1884088FFF78AFED9F80010DAF8BB
:10412000186091F89417C90705D032463046DAF87E
:10413000101002F044FB0020414607E051F8202017
:1041400036F910301A4441F82020401CA042F5DB1B
:104150006D1CBD42DBDBD9F80000324D434690F8C0
:104160006D0200F00F00401C002106E053F82120F2
:1041700092FBF0F225F81120491CA142F6DB2E49F2
:104180002846FEF71AFE2D492846FEF73CFE2C492C
:104190000120087094E770B504460020FCF76DFA22
:1041A0000320FCF76AFA1D4D286890F86912C907C8
:1041B00001D124F4006490F8B811C90701D124F0AA
:1041C000620490F80513490701D424F0040490F820
:1041D000CE1009B924F0100490F81A04C00701D1D8
:1041E00024F4805417490020401C8842FCD3200549
:1041F00002D52046FFF767FEE0074FD00848124976
:104200004088FFF792FE286890F86902800727D55A
:104210000D481BE038441000410210002802100035
:104220000C251000F4121000F80A10006C04012094
:10423000A8040120DC03100048B4012084B401204C
:104240006402100020A1070060A20120FFF79FF97F
:104250003C4901233C4A086001463C48FFF7CEF93F
:10426000286890F84814CA0718D08A0713D490F821
:10427000CC2052070FD490F8692412060BD490F882
:104280007024120607D40A0605D4490603D490F810
:104290005704C00702D0204601F0BFFF600501D5DA
:1042A000FFF78FFEE00401D5FFF70CFF284901203E
:1042B000087003F0E2FA0020FCF7FAF9BDE870405C
:1042C0000320FCF7F5B92DE9F04122480124224EE4
:1042D00004700025356021496006C1F8FC01C867FB
:1042E0001F4F052038724FF44870FBF7E1FF1A4862
:1042F00044380560FF2139703460046013E61649C4
:10430000002030B444390860154908310A79134B4C
:104310004FF00074FC331C60C2F1FB020978D2B28A
:10432000491CB2FBF1F10F4A11700A4A10700D4A94
:104330005520921E10700C480170211330BC0120D2
:10434000FCF7D9B87C0210006C24100060A2012098
:1043500040021000AA0210004805002284E000E09C
:104360002E000020F4FF0100AD021000F0B5F84966
:1043700000204D68F7490A68537D117D5B1C01FBE5
:1043800003F41CE035F91130002B02DC40F0200072
:1043900014E040F6FF76B34202DB40F010000DE07F
:1043A000B2F8B576B2F8446007EB060C9C4505DA26
:1043B000BF1B9F4202DD0EB140F04000491C8C4201
:1043C000E0DCF0BD10B501462022E14811F0B1FA61
:1043D0008021BDE810400120FCF75EB830B599B0EF
:1043E00004466846FFF783FA012C07D10120ADF897
:1043F000000000208DF816008DF81400BDF80200B2
:10440000AFF23F0140F48670D14D0291ADF8020049
:1044100003246846FDF7F4F818AB00228021012040
:10442000FCF78AF880210120FCF765F8287800283D
:1044300004D0FEF754F8641E002CEADC19B030BD3D
:104440002DE9FF5F00200090FEF714FD0446FEF703
:1044500017FD07464FEA540B4FF4F061BE4811F0C8
:10446000A2FABB484FF018098021203011F0BDFAA4
:10447000002002900120FFF7B1FFB548D0F804A05A
:10448000B4480068047D01200025039091E00120DC
:1044900000FA05F111EA0B0F6FD00026012000FA97
:1044A00006F818EA070F77D0A948203050F8250001
:1044B00010EA080F6FD131462846FEF7B7FA01908F
:1044C000A4483AF914100368B3F8B526914256DCB3
:1044D000DFF884C23CF914C0BCEB0200A1EB02027D
:1044E00000D54042002A00DA524290421FDC019877
:1044F0003146401EC0B2024601902846FEF729FD13
:10450000954830F914103AF91400081A01D5C0F191
:104510000000009A104400908E48006890F84627EA
:10452000007D02F00F0201FB021109B214E08A4A79
:10453000BCEB010000D54042DDF800C060440090B3
:1045400022F8141093F846173AF9140001F00F01FD
:1045500000FB010001B2187D201A80B2FEF732FE86
:104560007E49019821F814007948203050F8251030
:1045700041EA080140F825100DE019E00CE001982F
:104580003146401CC2B22846FEF7E3FC72483AF8B6
:10459000141020F81410641C761C202EFFF67EAF39
:1045A0006B48203050F82500B84201D0002003901D
:1045B0006D1C4D45FFF66BAF039838B9FDF792FAC5
:1045C0000298401C02904028FFF654AF61484FF01B
:1045D000010A00250068067D1DE0012000FA05F2B1
:1045E00012EA0B0F16D000240120A04038420ED052
:1045F0005A48214610F81600804602462846FEF723
:10460000A8FCB8F13F0F01D34FF0000A761C641CE0
:10461000202CE9DB6D1C4D45DFDBBAF1000F02D128
:104620000320FDF77FFFFDF75DFA0120FFF7D6FEBF
:10463000FFF79CFE044647480168087D4A7D91F8D3
:1046400046175043009A01F00F01B2FBF0F001FB56
:10465000000000B2FEF7CFFC04B02046BDE8F09F9A
:104660002DE9F05F3B4A116891F81007C4073C48F8
:10467000037803F0F00514D0057000264B7D0C7D07
:10468000DFF8CCA05B1CB046914604FB03F78346E1
:104690000120FFF7A3FE2046DAF80420D9F8001025
:1046A0000DE091F8BF1601F00F0129430170D5E725
:1046B00032F91030B1F8B3C66345CFDB401C8742F6
:1046C000F6DC0F2E0AD2761CF6B245EA060108F196
:1046D00001088BF80010B8F1100FD9DBBDE8F05FCE
:1046E0000220FDF71FBF70B501244FF404614FF4A1
:1046F000F83011F07AF9FDF7F5F9FFF7B1FFFFF7A0
:104700009FFE44EA0065134C15482268401D01785D
:1047100092F8FB2701F0F00102F00F021143017043
:104720001048FEF7EFFE206890F8A001C00702D005
:10473000012000F06CFC206890F81A04C00702D039
:10474000022000F064FC2846BDE8704003F06BBA1C
:10475000584410002802100080D3012000DB012003
:10476000F6FF0100F42310002DE9F04F0020FF4D6B
:1047700004460246FE49D5F814906E680B68012184
:1047800040F6FF7B01FA02F737421BD039F914A03B
:10479000BAF1000F02DC40F0200012E0DA4502DB43
:1047A00040F010000DE0B3F8B7E6B3F8C2760EEBB8
:1047B0000708D04503DBAEEB070CD44501DD40F024
:1047C0004000641C521C202ADCD30024AF68D5F8BA
:1047D0001860224601FA02F53D421AD036F914500B
:1047E000002D02DC40F0200012E05D4502DB40F0CD
:1047F00010000DE0B3F8C486B3F8BBC6C146E04470
:10480000A84503DBACEB090CAC4501DD40F04000F2
:10481000641C521C202ADDD3BDE8F08F10B5014680
:104820002022D44811F085F88021BDE810400120F5
:10483000FBF732BE30B599B004466846FFF757F82B
:104840002078012802D0022807D102E04FF48060CE
:1048500001E04FF48050ADF8000000208DF84400D6
:104860008DF84300C148416849000B9180680C9065
:10487000BDF80200AFF25B0140F48670BD4D0291BD
:10488000ADF8020003246846FCF7BAFE18AB00221C
:1048900080210120FBF750FE80210120FBF72BFE39
:1048A0002878002804D0FDF71AFE641E002CEADCEC
:1048B00019B030BD2DE9F84F0446006A212111F0EE
:1048C00072F83021606A11F06EF82046FDF774FC32
:1048D0002046FDF774F90420DFF89082DFF890A2FB
:1048E00003254FF0000900902046FFF7A3FFE807DB
:1048F0002CD04FF0000B5F465E460120D8F8041024
:10490000B04008421AD03046216AFEF7CFFDD8F8F1
:10491000141031F91720DAF80010B1F8C6168A42DF
:104920000BDA00994FF0010B0844C1B23F2900D9BE
:104930003F213046226AFEF7CCFD7F1C761C202EDC
:10494000DBD3BBF1000F01D125F00105A8072CD561
:104950004FF0000B5F465E460120D8F80810B040CB
:1049600008421AD03046616AFEF7A0FDD8F8181048
:1049700031F91720DAF80010B1F8C8168A420BDABC
:1049800000994FF0010B0844C1B23F2900D93F21E3
:104990003046626AFEF79DFD7F1C761C202EDBD31D
:1049A000BBF1000F01D125F0020555B12046FDF7FE
:1049B00003FC2046FDF703F909F10109B9F1640F81
:1049C00092DB03254FF000092046FFF733FFE8078D
:1049D00029D04FF0000B5F465E460120D8F8041046
:1049E000B040084217D03046216AFEF75FFDD8F884
:1049F000141031F91720DAF80010B1F8C6168A42FF
:104A000008DD38B1401EC1B24FF0010B3046226ABA
:104A1000FEF75FFD7F1C761C202EDED3BBF1000F5E
:104A200001D125F00105A80729D54FF0000B5F46FD
:104A30005E460120D8F80810B040084217D0304632
:104A4000616AFEF733FDD8F8181031F91720DAF84B
:104A50000010B1F8C8168A4208DD38B1401EC1B254
:104A60004FF0010B3046626AFEF733FD7F1C761C67
:104A7000202EDED3BBF1000F01D125F00205002D61
:104A80000AD02046FDF798FB2046FDF798F809F17B
:104A90000109B9F1640F97DBBDE8F88F2DE9F0410A
:104AA00006460020F16908702121306A10F07BFF72
:104AB0003021706A10F077FF3046FDF780F83046FD
:104AC000FDF77AFB294D00273046FFF7B3FED5E905
:104AD00004320024204605E032F91010A14200DD26
:104AE0000C46401C9842F7DB0020EB68AA6905E001
:104AF00032F91010A14200DD0C46401C9842F7DB51
:104B0000002C0BDCF06901780F2904D8491C0170D6
:104B10003046FDF751FB7F1C202FD5DB40F6FE70A1
:104B2000844208DDF1690878401E08703046BDE80F
:104B3000F041FDF741BBBDE8F0812DE9F04341684C
:104B40000A4DD0F814C091F800808168D5F804703F
:104B500091F8009000210A460C46012303FA04F65E
:104B60003E420BD01CF804608E4205E0D4021000D7
:104B700028021000F844100000D93146641C202C93
:104B8000ECD38669D5F808C0002400BF03FA04F707
:104B900017EA0C0F03D0375D974200D93A46641CE0
:104BA000202CF3D3C36801EB0804FF2619700369B6
:104BB0001A7002EB09039C420DD21B1B1944FF29FA
:104BC0001BD9C1680E70296841F080012960006915
:104BD0000270BDE8F083A3420FD2E31A1A44FF2A01
:104BE00002D803691A7005E0026916702A6842F05B
:104BF00080022A60C0680170EBE7C3681970E6E7BD
:104C00002DE9F041044600214569F748F74B0122A0
:104C10004FEA010C476802FA01F63E420AD01F68CB
:104C20006E5C97F8CB76BE4202D9F61B6E5401E05B
:104C300005F801C0491C2029ECD3D4F818500021F4
:104C4000876802FA01F63E420AD01F686E5C97F848
:104C5000CB76BE4202D9F61B6E5401E005F801C0C6
:104C6000491C2029ECD32046FFF767FF2046BDE80A
:104C7000F041FCF7EBBF2DE9F14F2C210098D0E972
:104C80000565304610F08FFE4021284610F08BFE5F
:104C90000098FFF752FF0098FDF78EFA0098FCF796
:104CA000D5FF03244FF0040A00270098FFF7C2FD48
:104CB000A00750D0CC494FF0000C8946D1F814B071
:104CC000624660465FF00101D9F8048001FA00F302
:104CD00013EA080F10D0C54B3BF912801B68B3F8DC
:104CE000B936984507DA335C4FF0010C5344FF2B7B
:104CF00000DDFF233354521C401C2028E4D3BCF1B8
:104D0000000F01D124F001040023CE46D9F81890F9
:104D1000DFF8D8C21A4618468B4600BFDEF8088076
:104D20000BFA00F111EA080F0FD0DCF8008039F916
:104D30001210B8F8BD86414506DA295C01235144BA
:104D4000FF2900DDFF212954521C401C2028E5D3F7
:104D50000BB924F002045CB10098FFF7EEFE009856
:104D6000FDF72AFA0098FCF771FF7F1C642F9CDB8B
:104D7000032400270098FFF75DFDE00725D09A4A3D
:104D80000023DFF868B2D2F814C0194618469146DD
:104D90004FF0010AD9F804800AFA00F212EA080F6B
:104DA0000DD0DBF800203CF91180B2F8B92690450F
:104DB00004DD325C12B10123521E3254491C401CE6
:104DC0002028E7D30BB924F00104A00725D5864A93
:104DD0000023DFF818B2D2F818C0194618469146D9
:104DE0004FF0010AD9F808800AFA00F212EA080F17
:104DF0000DD0DBF800203CF91180B2F8BD269045BB
:104E000004DD2A5C12B10123521E2A54491C401CA5
:104E10002028E7D30BB924F00204002C0BD0009813
:104E2000FFF78BFE0098FDF7C7F90098FCF70EFF1F
:104E30007F1C642F9EDB2FE670B46C4B00210C4668
:104E40001E6896F8102792070BD5426896F8CA6636
:104E500001211578B54203D9A5EB0605157000E0D0
:104E600014701D6895F8102752070BD5826895F8C5
:104E7000CA5641F002011378AB4202D95B1B137092
:104E800000E01470002901D070BC56E670BC704779
:104E90002DE9F047554E0446002530682F4690F81E
:104EA0001017890703D560680125077008E021788D
:104EB000012901D0022903D1616890F8C006087069
:104EC000306890F81017490704D5A06845F002052E
:104ED000077008E02178012901D0022903D1A168D7
:104EE00090F8C1060870002D70D02C21606910F078
:104EF0005AFD4021A06910F056FDE069212107709C
:104F0000206A10F050FD3021606A10F04CFDE1681D
:104F1000FF200870216908702046FCF797FE2046A4
:104F2000FCF74DFE2046FDF747F94FF01009DFF87A
:104F3000B880CA4600272046FFF77CFCE80727D048
:104F4000D8E904C30020014606E000BF33F9112070
:104F5000824200DD1046491C6145F7DB3168B1F83B
:104F6000B726824206DA61684FF001090878401ED0
:104F700008700DE0B1F8CC16814207DB6168087853
:104F80004844FF2800DDFF20087001E025F00105FE
:104F9000A8072FD500200146D8F80CC0D8F8183043
:104FA00006E000BF33F91120824200DD1046491CA3
:104FB0006145F7DB3168B1F8BB26824207DAA068A9
:104FC0004FF0010A0178491E017013E01DE0B1F8AD
:104FD000CC1681420CDBA16808785044FF2800DD24
:104FE000FF20087006E00000D40210002802100024
:104FF00025F00205002D08D02046FFF79EFD204633
:10500000FDF7DAF87F1C202F95DBBDE8F087F0B5BF
:10501000404D8BB0012129708DF800006846FDF7E6
:1050200038FF3D4C00262660FDF7C1FE6060FDF7AD
:10503000E9FEA0606068042140086060201DFDF763
:10504000D2FD2061042104F10800FDF7CCFDE060F1
:105050006846FFF7EFFB9DF800103048012902D0A9
:10506000022905D101E0406900E080696061A0612A
:10507000D4E9040101EB40016161E16801EB40000A
:10508000A16901EB4000A0616846FFF701FF684697
:10509000FFF7D2FE224F386890F81007800605D53A
:1050A0006846FFF7E8FD6846FFF7AAFD386890F804
:1050B0001007000702D56846FFF7F0FC386890F843
:1050C0001007C00602D56846FFF7F4FB6846FDF7F7
:1050D00073F86846FFF7AEFBFFF746FB2168014314
:1050E000216010483A68037892F8FB2763F30302C3
:1050F00002709DF80000012802D0022807D102E0CA
:1051000041F00E0001E041F0020002F08CFD2E7033
:105110000BB0F0BD5B021000D4021000F844100088
:1051200028021000FBFF010010B501462022A34811
:1051300010F0FFFB8021BDE810400120FBF7ACB967
:10514000F0B59F4D06460C4628684FF0FF3199B0E8
:1051500090F8C30200F00F00401C8140CF43684626
:10516000FEF7C5FB0120ADF80000ADF8024028684D
:1051700000F2FB2001788DF8171044F00501ADF81E
:1051800002100397ADF81A60AFF263010291417803
:105190008DF818108078894D8DF81E00032468461C
:1051A000FCF72EFA18AB002280210120FBF7C4F98E
:1051B00080210120FBF79FF92878002804D0FDF713
:1051C0008EF9641E002CEADC19B0F0BD2DE9FC5FFD
:1051D000DFF8ECB14FF0000AD146DBF8000056468C
:1051E00000F2FF20017890F80180807801904FF064
:1051F0000850D0F88C0100B9012600208CB2009034
:1052000038E000BFDBF8000090F8020300EB8000FC
:105210004700002524E020460099FFF791FF6748EA
:10522000406809F016FD0146DBF8000090F8FA220C
:1052300012F00F0000D1012012094A43B2FBF0F036
:105240001FFA80F9012E09D1BAF5707F06D25D4AA6
:105250000AF1010022F81A901FFA80FA6D1CADB213
:10526000BD42D8D94A462146302002F01FFD0198A0
:10527000204484B24445C5DDBDE8FC9F2DE9FF5FB5
:105280004FF6FF764FF0000A93460F4680463446AD
:105290005546DFF82C911BE038F815005146FFF712
:1052A0004FFF4648406809F0D4FCD9F8001091F847
:1052B000FA2212F00F0100D1012112094243B2FB80
:1052C000F1F080B2A04202D238F8156004466D1C9D
:1052D000BD42E1DBABF8006003980480BDE8FF9FAE
:1052E0002DE9F041364E05468846306888B090F882
:1052F000062302F00F01C2F30214491C641C0A29A0
:1053000000DD0A21022C00DD022400F2073006AB8A
:1053100005AAFFF7B3FF326892F8050300061CD513
:10532000BDF814600121ADF8006002F5477200205D
:105330004FF4803C6F4607E013563344634502D276
:1053400027F81130491C401CA042F5DB002904DD80
:1053500006AB05AA3846FFF791FFBDF81400288078
:10536000BDF81810A8F8001008B0BDE8F0817CB5B1
:105370000020FBF782F9144C01A968466588FFF705
:10538000AFFF0F480068B0F81913BDF80400814260
:1053900001D9218000E02080BDF80000608000205D
:1053A000FBF786F909490120087009490870BDF822
:1053B00000202946092002F05CFC7CBD1845100045
:1053C0002802100000DB01200C2510004002100014
:1053D000A302100010B5FDF7CFFC4008400010BD3F
:1053E0007CB54FF4F83040F6FB7110F0DCFAFCF7B6
:1053F00073FCFCF73AFCFCF775FBFF4C00202070B7
:1054000020636063A063E06320646064A064E06480
:1054100020656065A065E0656060E06120626062B3
:10542000A062E062FFF7D6FF0090FDF7B3FC0190A9
:1054300004216846FDF7D7FB0546042101A8FDF7C6
:10544000D2FB014600EB4500C4E90305C4E9055160
:105450007CBD2DE9F041174604460D46002609E0C3
:10546000E00703D03146384602F03BFB761C6D085E
:105470004FEA340454EA0500F2D1BDE8F08130B5BA
:10548000034600204FF0FF325FF0010505FA00F4FB
:105490000C4202D0521C9A4203D0401C2028F5D363
:1054A000002030BD70B50E46012505FA06F2D24C3B
:1054B00012286DD2DFE800F06C485109126C6C1BA9
:1054C000242D363F5A5E626C6C6B3046216EFFF7BE
:1054D000D6FF8540606B0543656359E03046616ED9
:1054E000FFF7CDFF8540E06C0543E56450E03046B2
:1054F000216EFFF7C4FF8540A06B0543A56347E01D
:105500003046216EFFF7BBFF8540E06B0543E56346
:105510003EE03046616EFFF7B2FF8540606D0543A7
:10552000656535E03046216EFFF7A9FF8540206CA8
:10553000054325642CE03046616EFFF7A0FF8540EF
:10554000A06D0543A56523E03046216EFFF797FF68
:105550008540206B054325631AE03046616EFFF7F6
:105560008EFF8540A06C0543A56411E0606C02438A
:1055700062640DE0E06D0243E26509E03046616E71
:10558000FFF77DFF8540206D0543256500E0257010
:105590006068401C606070BD10B5014620229748CD
:1055A00010F0C7F98021BDE810400120FAF774BF60
:1055B0002DE9F047894605464FF0FF34FDF7EAFB39
:1055C0008D4F00231946BE684FF0010C0CFA01F212
:1055D000024200D0641CAC4206D1B9F1010F0AD0DE
:1055E00020EA02030E462021491C2029EED318464A
:1055F000BE60BDE8F0871346F4E72DE9F047894621
:1056000005464FF0FF34FFF7E5FE7B4F02460020D2
:10561000BB6801464FF0010C0CFA01F6164200D0AF
:10562000641CAC4206D1B9F1010F08D022EA060091
:105630000B461E21491C1E29EED9BB60D9E7304616
:10564000F6E72DE9F0419EB0054688466846FEF72C
:105650004EF918A8FCF7DAFDFFF7BCFE664E4008CD
:105660003066FDF797FB0024654F7066012D30D042
:10567000FFF7B0FE0B90FDF78DFB0C902020ADF8EE
:1056800000003968022D01F55A7188788DF84200C2
:10569000C8788DF8450008788DF8380048788DF87E
:1056A0003E008888ADF834000889ADF83A00C88813
:1056B000ADF836004889A1F55A71ADF83C0053D0D9
:1056C000032D2CD0042D2FD0052D36D0062D3DD006
:1056D0004AE00120ADF800000C20ADF81A001F20B0
:1056E0008DF8180040208DF8170095208DF81E00C9
:1056F0008DF81F403C20ADF81C0003984008306630
:1057000004987066386890F84D078DF86C4040F04A
:1057100003008DF8600018A8FCF782FD24E0FDF777
:1057200039FB01210C9003E0FDF734FB00210C90C4
:105730004046FFF762FF0B9016E0FFF74BFE0B9021
:1057400001214046FFF734FF0C900DE001F261317A
:1057500088788DF84200C8788DF8450008788DF873
:10576000380048788DF83E00BDF802008DF81440EE
:1057700020F030008DF8164040F008008DF84440CD
:105780008DF84340ADF80200AFF2F3101B4D032437
:1057900002906846FBF734FF1CAB002280210120F9
:1057A000FAF7CAFE80210120FAF7A5FE287828B171
:1057B0000020641E002CECDC1EB05EE60120FBE73E
:1057C0002DE9FC5F00210120FFF73BFF00B30B48F0
:1057D0004768FDF74FFB0190FDF752FB0090042155
:1057E00001A8FDF700FA064604216846FDF7FBF91B
:1057F00084460020054605E0F00210003845100000
:1058000028021000DFF8F0B4DFF8F0A4009059E0AF
:1058100000211120FFF746FEBDE8FC9F4FF0000875
:10582000C1465C462846DBF86410FFF728FE0146B7
:1058300001208840616D084243D1012432E000BF5D
:1058400004FB0C52DAF8000037F9121090F86703E5
:10585000B1EB001F25DA08F10108B9F1000F00D102
:10586000A146711E8C421CD1B8F1010F19D1ACF1C7
:1058700001018D4204D1611E0120FFF713FE0EE0ED
:1058800007EB4201B1F90220B2EB001F05DB35B195
:1058900031F9021CB1EB001F01DA002000E0022008
:1058A0008046641CB442CBDBA6EB0901414508D815
:1058B00029460220FFF7F6FD01200099A840084381
:1058C00000906D1C6545A9DB01253AE04FF000080A
:1058D00044462CE0DBF84C30DBF8542000201A431F
:1058E00011D0D9462046DBF86410FFF7C8FD014609
:1058F00001208840D9F85410084203D1D9F84C103F
:10590000084000D0012005FB0C4137F91120DAF8DE
:10591000001091F86713B2EB011F07DA30B90120CC
:105920000099A040084201D108F10108641C6445B7
:10593000D0DBB8F1000F03D0691E0120FFF7B2FDE4
:105940006D1CB542C2DB67E72DE9F041EA4C00204F
:105950000546EB4FDFF8A483E0611FE029460520F0
:10596000FFF76FFEF0B161690120FE6800EB410CAA
:1059700036F91C10D8F8000090F87703B1EB001F3F
:1059800003D929460E20FFF78DFD36F91C00E16989
:10599000884202DD36F91C00E0616D1CA069854279
:1059A000DCD36AE5BDE8F041002111207AE52DE95C
:1059B000F04100210620FFF744FE28B1D048002521
:1059C000CE4ECD4CC76813E0BDE8F0410021112058
:1059D00068E520693168284437F9100091F86513AB
:1059E000B0EB011F03DD29460A20FFF75BFD6D1CAC
:1059F00060698542EDDB00250EE0E06831682844EF
:105A000037F9100091F86613B0EB011F03DD29464A
:105A10000B20FFF747FD6D1CA0698542EDDB2CE5EF
:105A20002DE9F041B44C0020064660623EE031466C
:105A30000420FFF706FE18B1B1480025C76831E021
:105A4000BDE8F041002111202CE500BFFDF7A2F9CF
:105A500001462846FFF713FD014601208840E16C0E
:105A600008421ED1A549E0682844096807EB4000B8
:105A700030F9040C91F87813B0EB011F07D93146C7
:105A80000820FFF70FFD29460920FFF70BFDE0680E
:105A9000616A284407EB400030F9040C884200DDBD
:105AA00060626D1CA0698542D0D3761C6069864215
:105AB000BDD3E2E42DE9F0418F4C00200546904F24
:105AC000DFF8388220621BE029460320FFF7B9FD8A
:105AD000D0B1FE68B6F90210D8F8000090F876034D
