:100000005555AAAA001400000000000000000000DE
:1000100069820000000000000000000010C181148F
:100020000002100005080000890200009F02000085
:10003000B5020000CB020000E10200000000000059
:10004000000000000000000000000000052C00007F
:10005000092C000000000000F70200000B2C00003B
:100060000D2C0000BB290000872C0000F3290000A4
:10007000272C0000292C00002D2C00003B2C000018
:100080004D2C00004F2C0000512C00006F2C000064
:10009000712C0000892C000000000000000000000E
:1000A0008B2C00008D2C00000000000000000000E0
:1000B000000000008F2C0000912C0000072A000097
:1000C000932C0000A12C000009030000B92C0000B3
:1000D000BB2C000000000000000000000000000039
:1000E0000014000000F002F800F05AF80AA090E8AE
:1000F000000C82448344AAF10107DA4501D100F0E3
:100100004FF8AFF2090EBAE80F0013F0010F18BF55
:10011000FB1A43F001031847D4390100F4390100F8
:100120000A444FF0000C10F8013B13F0070408BF1D
:1001300010F8014B1D1108BF10F8015B641E05D0BB
:1001400010F8016B641E01F8016BF9D113F0080F70
:100150001EBF10F8014BAD1C0C1B09D16D1E58BF02
:1001600001F801CBFAD505E014F8016B01F8016B39
:100170006D1EF9D59142D6D37047000000230024AC
:1001800000250026103A28BF78C1FBD8520728BFA7
:1001900030C148BF0B6070471FB51FBD10B510BD03
:1001A000DFF80CD0FFF7F8FF02F0ACFE13F002FA14
:1001B0000002100003B4FFF7F1FF03BC13F002FAD2
:1001C0000A484FF0FF0101704FF0000080F31188E2
:1001D0004FF0000080F3098805484FF002010170DC
:1001E00062B604484FF080510160704722ED00E094
:1001F0000002100004ED00E002484FF08051016061
:100200007047000004ED00E04FF0200080F31188FB
:10021000EFF3098098B112480068124909688842D2
:1002200017D0EFF309800E49096820E9F00F8860C4
:1002300000B50B48006800F0F2F85DF804EB0848E0
:1002400008490A68026000688168B1E8F00F81F32C
:1002500009884EF0040E4FF0000080F311887047BB
:100260000402100008021000EFF311804FF020018B
:1002700081F31188704700004FF0000080F311886F
:100280007047000062B6704772B6704740BA704758
:10029000C0BA7047401E0028FCDC704700BE7047A3
:1002A00040BA7047C0BA70471EF0040F0CBFEFF39E
:1002B0000880EFF309804FF0010102F008BC1EF046
:1002C000040F0CBFEFF30880EFF309804FF0020139
:1002D00002F0FDBB1EF0040F0CBFEFF30880EFF33C
:1002E00009804FF0030102F0F2BB1EF0040F0CBFB7
:1002F000EFF30880EFF309804FF0040102F0E7BB51
:100300001EF0040F0CBFEFF30880EFF309804FF0ED
:10031000050102F0DCBB4FF0000000B503F051FB1B
:100320005DF804EBFFF770BF1EF0040F0CBFEFF396
:100330000880EFF309804FF0000102F0C8BB000015
:10034000194910B5012008701849002008601849A3
:100350000860184908601849086000F0B9F900F011
:100360004BF900F063F8002010BD10B5114800F003
:100370002AF90F4908600D490968884207D00A48E0
:100380000078022803D1BDE81040FFF735BF10BD4B
:1003900010B5FFF7EAFF044902200870FFF710FFCD
:1003A0004FF0FF3010BD00000002100004021000EA
:1003B000080210000C0210001002100070B50D466B
:1003C0000446C1698068CC2212F0F7FFE169A06899
:1003D000084440384FF08071C163216A8163002175
:1003E00041630163C1628162C0E908514FF00B3182
:1003F000C1614FF00A3181614FF0093141614FF025
:10040000083101614FF00731C1604FF00631816062
:100410004FF0053141604FF00431016070BD8269D9
:100420008168914201D802F01EBE704710B54FF4AA
:10043000B4714F4812F0EBFF002010BD70B50546B7
:1004400000EBC5014A4800EB8104FFF70DFF0646AB
:10045000207828B13046FFF70FFF6FF0010070BD24
:100460000320207000206560206204F11C0000F071
:1004700083F83046FFF700FF002070BD2DE9F04102
:100480000F463B49002500EBC00001EB80042E46DF
:10049000FFF7EAFE8046206A3843206204F11C0020
:1004A000074600F090F80CE0216A026C114203D07C
:1004B00000F066F9012600E06D1C2946384600F080
:1004C00078F80028F0D1012E01D1FFF74EFF404609
:1004D000FFF7D2FE0020BDE8F08170B50D4624493B
:1004E00000EBC00001EB8004FFF7BEFE216AA943C8
:1004F0002162FFF7C1FE002070BD70B50C461C499B
:1005000000EBC00001EB800500202060FFF7ACFE8F
:10051000296A2160FFF7B0FE002070BD2DE9F0418F
:100520000D46134900EBC0001E46904601EB8004C7
:10053000FFF79AFE07460F4800680564216A2942C2
:1005400003D104F11C0100F02DF93846FFF794FEA9
:10055000FFF78AFE216A29403160B8F1010F02D10C
:10056000216AA9432162FFF787FE0020B3E700005C
:10057000F4041000040210000021016008467047D6
:1005800030B50A6812B10B46C46B09E0002208605E
:10059000C0E903210BE000BF02F10C03D26812B1E5
:1005A000D56BA542F8DC1A68C0E903211860002069
:1005B00030BD0068002201E0C068521C8A4201D0B0
:1005C0000028F9D170470068704702690AB11168C4
:1005D00031B96FF00400704701F10C02C96839B1FC
:1005E0008142F9D1C9681160002101610846704754
:1005F0006FF003007047000010B54FF4C871324827
:1006000012F005FF002010BD2DE9F0418846054697
:100610002D4900EB8500174601EBC004FFF724FECF
:100620000646207830B13046FFF726FE6FF0010015
:10063000BDE8F08102202070E7611422414604F1F8
:100640000800656012F074FE0020206204F12400AE
:10065000FFF792FF3046FFF70FFE0020E8E770B586
:10066000194900EB800001EBC004FFF7FDFD0546D2
:10067000D4E90701814205DB144804F12401006834
:1006800000F090F8206A401C20622846FFF7F4FD35
:10069000002070BD70B50C4900EB800001EBC00478
:1006A000FFF7E2FD0546206A08B1401E206204F112
:1006B0002400FFF788FF10B1606A00F011F82846A7
:1006C000FFF7DAFD002070BD5C0610000402100088
:1006D00010B54FF42A71404812F099FE002010BD69
:1006E00010B5044690F8380002280BD02046FFF7DA
:1006F0006CFF022084F8380038492046FFF740FF9D
:10070000FFF733FE002010BD2DE9F05F8B46064653
:10071000314900EB06109046DDE90AA911F82020C6
:100720001D461AB16FF00100BDE8F09F01EB800497
:10073000FFF79AFD074601202070C4E90165C4E96E
:100740000585C4E907A91422594604F1240012F0D2
:10075000EFFD002084F8370084F838006169E0601C
:100760002061C4E90F1020460C99FFF727FEA06016
:100770002046FFF7B5FF3846FFF77EFD0020D3E7A0
:1007800010B5044690F83800022809D02046FFF73B
:100790001CFF022084F8380010492046FFF7F0FEC5
:1007A000002010BD70B5044690F838000D460228B0
:1007B0000BD12046FFF709FF032084F838002946B3
:1007C0002046FFF7DDFEFFF7D0FD002070BD044896
:1007D0000068406870470000EC0710000C02100031
:1007E00004021000F0B58446002004460C4F14E0CB
:1007F0005CF824600323DD0046FA05F280EA02601B
:100800000825002802DA87EA400000E040006D1E5B
:10081000002DF6DC5B1EEED5641C8C42E8DBF0BDDF
:100820001B0000801248804712480047FEE7FEE7A1
:10083000FEE7FEE7FEE7FEE7FEE7FEE7FEE7FEE790
:10084000FEE7FEE7FEE7FEE7FEE7FEE7FEE7FEE780
:10085000FEE7FEE7FEE7FEE7FEE7FEE7FEE7FEE770
:10086000FEE7FEE7FEE7FEE7FEE7FEE7FEE7000045
:10087000AD080000C50000001E4800684FF00051A0
:10088000002891F8210000F01C000DD0042805D0AC
:10089000082805D00C2805D096200CE011200AE08D
:1008A000252008E04B2006E0042809D0082809D0BC
:1008B0000C2809D07020401E01F82C0F08707047DA
:1008C0000C20F8E71B20F6E73720F4E770470A49C9
:1008D00093200870D0E708490B200870CCE7054842
:1008E000006818B904480078932801D000207047A8
:1008F00001207047340400222100002070B504203C
:1009000000F0B5F9052000F0B2F9062000F0AFF9CB
:10091000072000F0ACF9082000F0A9F9182000F039
:10092000A6F9192000F0A3F91A2000F0A0F9E14976
:1009300000200860DF4A40321060DE4B183B186030
:10094000DC4B08331860DC4CE071DA4B143B186068
:10095000D84B0C3318602072D64B103B1860D54B27
:10096000103318606072D34B0C3B1860D14B1433BA
:100970001860A072CF4B083B1860CE4B183318603C
:10098000E072CC4B28331860A0731E1D3060E073FA
:10099000331D1860207401250D6015602570062137
:1009A000042000F07CF90621052000F078F90621EA
:1009B000084600F074F90621072000F070F90621BE
:1009C000082000F06CF90621182000F068F90621D3
:1009D000192000F064F904211A2000F060F90420C5
:1009E00000F051F9052000F04EF9062000F04BF917
:1009F000072000F048F9082000F045F9182000F021
:100A000042F9192000F03FF91A2000F03CF90420C7
:100A100000F021F9052000F01EF9062000F01BF976
:100A2000072000F018F9082000F015F9182000F050
:100A300012F91A2000F00FF9FF20E070356070BD48
:100A400000EB80009B494000002218390A609A4A56
:100A5000521F107001200860704796490020183915
:100A60000860704700EB8000924940000022143972
:100A70000A60914A121F10700120086070478D496A
:100A8000002014390860704700EB8000894940005D
:100A9000002210390A60884AD21E107001200860B6
:100AA00070478449002010390860704700EB8000CF
:100AB0008049400000220C390A607F4A921E107063
:100AC0000120086070477B4900200C39086070479E
:100AD00000EB800077494000002208390A60764A1E
:100AE000521E1070012008607047724900200839BA
:100AF000086070477149097848430A21B0FBF1F159
:100B00006F48491E80F86010572181761121C17607
:100B1000042280F860205B228276C17670476848A4
:100B2000002180F860105B2181761121C176704729
:100B3000604A10B5283214680123D10664B100243C
:100B4000146081F8350091F8420000BF91F84240EE
:100B50008442FBD0136010BD81F83500FAE700EB4A
:100B6000C00101EB00106FF0030101EB800010B534
:100B70005449554C0978B0FBF1F0401E80B2FF2873
:100B80000CD9010A2170494200EB01206070FF205E
:100B9000FFF7CEFF2078401E207010BD002121708D
:100BA0006170BDE81040C0B2C2E742482830016819
:100BB000002909D000210160C10691F8420000BF60
:100BC00091F842208242FBD0704710B53E4C21780C
:100BD000607851EA000207D051B1FF20FFF7A8FF6B
:100BE0002078401E207010BDBDE8104009F09CBF69
:100BF000FFF79EFF0020607010BD2E4A10B5303206
:100C000014680123590794B10024146081F8370057
:100C100091F8420091F842408442FBD0136091F871
:100C2000420000BF91F842208242FBD010BD81F803
:100C30003700F3E71F483030016800290AD000214F
:100C400001604FF0005191F8420000BF91F842203E
:100C50008242FBD0704700F01F0201219140400901
:100C60004FF0E02202EB8000C0F80011704700F066
:100C70001F020121914040094FF0E02202EB800069
:100C8000C0F88011704700F01F0201219140400917
:100C90004FF0E02202EB8000C0F880127047490755
:100CA000090E002803DA00F00F00084A00E0084AA5
:100CB000815470471C050022330000209802100068
:100CC00000100020970210001402100014ED00E044
:100CD00000E400E049480121016000210160704703
:100CE00047480121016000210160704710B50020D4
:100CF00000F06BF8FFF7F4FFFFF7ECFF414900202D
:100D000008604149A0200870002000F06AF8BDE8A2
:100D10001040002000F04DB83A4801211C38016015
:100D200000210160704710B5002000F04EF83349F3
:100D300001200860002000F054F8BDE810400020B9
:100D400000F037B82D4901201C39086070472F4842
:100D500000782E49491C0978401A00F03F0070477E
:100D60002B4902780A7042784A7082788A70C27879
:100D7000CA7002790A7142794A7182798A71C0799E
:100D8000C871704723480068417882784FF000505E
:100D9000437A0374204B1B78437443891B0A837482
:100DA0004389C37401754275C1798175017AC17532
:100DB000704700F01F020121914040094FF0E022EE
:100DC00002EB8000C0F80011704700F01F02012103
:100DD000914040094FF0E02202EB8000C0F8801102
:100DE000704700F01F020121914040094FF0E022BE
:100DF00002EB8000C0F88012704700005C84002283
:100E0000A00000227C04002200E400E02004002076
:100E100000020020380210008C02100010B50920DA
:100E200000F054F80A2000F051F8092000F05AF8B8
:100E30000A2000F057F80521092000F05FF805218D
:100E40000A2000F05BF833487F2141707C228270D9
:100E50000171002100F848192F490A684FF001017B
:100E600092F8C830DC070AD09C0708D590F84A40B1
:100E7000C3F3820301FA03F39C4380F84A4092F8DB
:100E80001131DC0721D0C3F34203012B03D0234BE4
:100E90004FF480641C604830837802F21112147899
:100EA000C4F3420401FA04F4A34383700379147871
:100EB000C4F3420401FA04F4234303710378127863
:100EC000C2F3420291400B43037010BD00F01F02B9
:100ED0000121914040094FF0E02202EB8000C0F870
:100EE0008011704700F01F020121914040094FF02E
:100EF000E02202EB8000C0F8801270474907090E1B
:100F0000002803DA00F00F00054A00E0054A81548A
:100F100070470000480000203802100000E100E0A7
:100F200014ED00E000E400E0704710B5044602460E
:100F30002A21002000F060F9221D2B21002000F062
:100F40005BF904F108022C21002000F055F920681B
:100F5000000E032825D104F110022D21002000F0FD
:100F60004BF904F10C022E21002000F045F904F1A8
:100F700018022F21002000F03FF904F11402302163
:100F8000002000F039F904F120023121002000F0A6
:100F900033F904F11C023221BDE81040002000F0BA
:100FA0002BB910BD10B5BE4C07206070002020701A
:100FB00044F2C000608000BF00BF00BF4CF2C00020
:100FC000608000BF00BF00BF4CF2E00060800920DD
:100FD000FFF760F944F2E000608000BF00BF00BF8F
:100FE0004FF48040608010BDF0B500252E464FF0D4
:100FF0000054E02717E000BF883401F03F01607023
:101000002170678000BF00BF00BFD4F808C043F85C
:1010100025C06680883C00BF6D1C521E491C3F29BC
:1010200001D9401CC0B2002AE6DCF0BD2DE9F04732
:101030009B4D0026AD1C04462E80DFF868920121EE
:10104000C9F880104FF4C058A5F8008000BF00BF59
:1010500000BF00BF00BF4FF480572F803520FFF73F
:1010600019F92E80FFF79EFF00F0DCF85C2000F0FD
:10107000EAF82346012208210020FFF7B5FF231DCF
:10108000012209210020FFF7AFFF04F1080301222C
:101090000A210020FFF7A8FF04F10C0301220B2115
:1010A0000020FFF7A1FF04F1100301220C21002012
:1010B000FFF79AFF04F1140301220D210020FFF72E
:1010C00093FF00F0AFF8FFF76DFF2F8000BF00BF68
:1010D00000BF00BF00BF00BF00BF00BF00BF00BF18
:1010E000A5F8008000BF00BF00BF00BF00BF4FF4E5
:1010F00040602880C9F88060BDE8F087F0B54FF007
:10110000000C059C0CB14FF0800CC5B200264FF0CE
:101110000057644C28E000BF87F889504FEAC05E52
:10112000BEF1000F01F03F0E4EEA0C0E01DA4EF058
:10113000400E87F888E053F826E0C7F88CE04FF0BF
:10114000010EC4F8B0E04FF0000EC4F8B0E0491C46
:10115000C9B2402902D36D1CEDB20021D4F8C0E021
:10116000BEF1000FFAD1761C9642D5DBF0BD4FF0F0
:10117000005282F88900002309B1802002E0C005F6
:1011800003D5402082F8880001E082F88830454885
:101190000121C0F8AC10C0F8AC3000BFD0F8C010CE
:1011A0000029FBD17047F8B50C4605464FF4F4769C
:1011B00000213046FFF7DBFF0020014600902B4660
:1011C00022463046FFF79AFFF8BDF8B50C460546B3
:1011D0004FF4F87600213046FFF7C9FF00214FF4A5
:1011E000FC70FFF7C4FF0020014600902B4622460A
:1011F0003046FFF783FFF8BD294B587041F080005F
:1012000003F8880927480021B4300160012140F823
:10121000B41900BFD0F8C0100029FBD1D3F890005A
:101220001060704710B51E4C4FF48040A41C208005
:101230000420FFF72FF80020208000BF00BF00BF70
:1012400000BF00BF10BD70B5154C2126A41C268020
:1012500000BF00BF00BF00BF00BF40F021052580D8
:1012600000BF00BF00BF00BF00BF44F22101084320
:1012700020800420FFF70EF8258000BF00BF00BFCC
:1012800000BF00BF268000BF00BF00BF00BF00BF7F
:101290000020208000BF00BF00BF00BF00BF70BDA6
:1012A0008800002000100022F8B5FF4C00263546CB
:1012B0002670E660266166610120A66100F02EFFBF
:1012C0000C2000F02BFF032000F028FF172000F077
:1012D00025FF012000F02EFF0C2000F02BFF032043
:1012E00000F028FF172000F025FF01F0E0F86A4623
:1012F0000221EE4801F05AFBED499DF8010008700B
:101300009DF80000532800D004260521012000F09C
:101310001DFF05210C2000F019FF0621032000F01D
:1013200015FF0621172000F011FF012000F0EAFE52
:10133000032000F0E7FE172000F0E4FEA5706570C2
:10134000E5703046F8BD70B5D74B1889C0F3800101
:10135000C0F34016C0F300247140C0F3C0226140C6
:10136000C0F3803551406940400840EAC1301881DF
:1013700070BD38B50D46009014460421684601F052
:10138000D5FECC498978C90602D5062D00D1401C6E
:101390000099E16484F8480038BD506570472DE934
:1013A000F047C54D0646C34C286890F83404C00782
:1013B00018D0608840F080006080FFF7C4FF296883
:1013C00000F00700084490F8350484F83500FFF772
:1013D000BAFF2968C0F30210084490F83504800071
:1013E00084F834004FF0000A84F841A028684FF0D8
:1013F00002084FF0E90990F845176174AF49042ECF
:10140000C1F30E0706D0032E1FD0022E41D0052EA9
:101410005CD082E0A74A3146A06AFFF7AAFFE06AE3
:101420006065A4F84270A07880060028286890F8CB
:10143000590703DA20F0060040F0040084F8460063
:1014400084F8478084F8449067E09A4A3146A06A5D
:10145000FFF78FFFE06A606596480421283001F0AD
:1014600065FE964901EB8000C0F30E00A4F842002F
:10147000A07880060028286890F8590703DA20F041
:10148000060040F0040084F8460084F84780ED2010
:1014900019E0884A3146A06AFFF76BFFE06A606591
:1014A000A4F84270A07880060028286890F85907B0
:1014B00003DA20F0060040F0040084F8460004201F
:1014C00084F84700E52084F8440026E0A1788906E6
:1014D00023D500F2C930283401782174C178A17471
:1014E0004178A1758078E07501206076714A3146B7
:1014F0002068FFF73EFF7148F830C0F30E006083AC
:10150000286890F8590720F0060040F00200A07704
:1015100084F81F8084F81C90283C286890F80A17EB
:10152000C907A1784FEA81711CD000291CDB90F813
:101530000907C0070CD00021012002F080FB14F83D
:10154000450F20F00300801C207024F80FAC14E03D
:101550000121084602F073FB14F8450F40F0030028
:1015600020700AE0002904DA90F86C0720F00300EC
:1015700001E090F86C0784F845004B484670BDE8E0
:10158000F0474C4801F09EB84B484A49006890F833
:1015900000224A7790F80122CA744A88D20504D4FE
:1015A00090F8022202F00F028A7400F203200278FF
:1015B00002F03F020A75B0F801200A83C2788A76E9
:1015C0003F4A0079127800F0F00040EA1210C87625
:1015D00070472DE9F047374C0546002084F841005C
:1015E000DFF8D490E12084F84400D9F80020344B8F
:1015F0002D4E92F84507607492F80A075FEAC078AA
:101600002046B0F802C0C77C0CF0FF014CF001008E
:1016100004D05FEA8C7C01D4012D08D0DFF8A480CF
:10162000072D0BD0062D5ED0082D79D030E0377114
:1016300071710A21E1746080224812E03771717182
:101640006080507D117D471C94F858C007FB01F065
:10165000BCF1010F03D901FB0CF101FB07F008EB12
:101660004000C0F30E00A4F8420092F85307197826
:1016700000F0F00001F00F010843E07692F8550702
:1016800060770C4A29460120FFF773FEE068606529
:101690006188C80705D094F8440040F0020084F83F
:1016A0004400D9F800000FE01802100004100020D8
:1016B0008C021000940A100038021000009E0120D5
:1016C000F6FF01000080012090F80A274FEA81719F
:1016D000D20747D0002947DB062D2FD0082D2DD06B
:1016E000012D34D049E0517D378B107D491C794361
:1016F000484308EB4000C0F30E00A4F8420092F803
:101700005307197800F0F00001F00F010843E0766C
:1017100092F855076077F84A2946A068B4E7FFE7D2
:10172000F648C0F30E00A4F84200FFF72DFFF24A7E
:101730002946206AFFF71DFE606AA8E73634E17B80
:1017400021F00301E173B0F86E07208015E000215D
:10175000012002F074FA14F8450F20F00300801CF9
:1017600020700AE0002904DA90F86C0720F00300EA
:1017700001E090F86C0784F845007570BDE8F0470B
:10178000DD4800F033BF06280ED008280CD0012811
:101790000AD0072808D0042805D0032803D005283C
:1017A00001D0022801D1FAE513E770472DE9F84F7F
:1017B000D34D8246012901D10020A871AC79DFF810
:1017C000489304F10104CF4EDFF82C83A9F12807D8
:1017D00013E0306890F80A07C00706D098F80200B6
:1017E000800702D459F8242001E057F824206946E4
:1017F00050469047012805D0641C092CE9D90020E7
:10180000BDE8F88FAC719DF80000F9E72DE9F041D3
:101810000546008800283AD05C222946B64802F0E6
:1018200002F8FEF7D4FFB64C0027B64EC4E90670A6
:10183000306890F80A07C0070AD0A878800707D454
:10184000AD49088810F0760F02D040F08000088083
:10185000607800281BD10121A748FFF7A7FF0500EA
:1018600015D0AA4901200870306890F81011490776
:101870000FD590F8430780070BD401F05FF80220E2
:10188000A07001F05FF8192001F075F86570BDE8EF
:10189000F08127702846BDE8F04174E700207047CA
:1018A0008268120006D00088C00503D507200870A2
:1018B00001207047002070478268120006D000782F
:1018C000C00703D006200870012070470020704731
:1018D000026A120006D00078000703D508200870BD
:1018E00001207047002070478268120005D0007800
:1018F000000602D501200870704700207047826AF8
:10190000120008D0C26A32B10078800603D50220E6
:1019100008700120704700207047826A120006D0CC
:101920000078C00603D5052008700120704700200C
:101930007047826A120006D00078800703D5042021
:1019400008700120704700207047C26A32B10078E9
:10195000400703D50320087001207047002070471E
:1019600000200870012070472DE9F04162480421F1
:10197000283001F0DBFB04465F4804212C3001F0E5
:10198000D5FB5F4F0546DFF870817878604E0428FC
:1019900001D002280CD198F80200800602D5A200DE
:1019A0005B4902E0620006EB44015A4801F03BFF4C
:1019B0007878032801D0022811D198F80200800617
:1019C00003D5AA0006EB840104E005EB44006A009D
:1019D00006EB4001BDE8F0414F4801F024BF56E757
:1019E00030B587B001208DF800004648424D444C88
:1019F000006890F80A07C0070AD0A878800707D4C3
:101A00006078012804D102208DF8000009F095F8D3
:101A100000F01AFD414801903D4802903748E178B6
:101A200000EB410003900020E070344878380490C7
:101A300069686846884707B030BDF0B5314B47F656
:101A4000FF7201291B6803D01B7D354C00211EE06D
:101A5000334C5B7D3C3CF9E70D18EDB2314FEE188D
:101A6000F6B237F815E007F1800C37F816703CF83D
:101A700015503CF81660AEEB0505BE1B35442DB283
:101A800024F81150954200DA2A46491CC9B29942FD
:101A9000E2D3002007E000BF34F81010891A24F8C0
:101AA0001010401CC0B29842F6D3F0BD2DE9F84F9B
:101AB000144C0120009020680026154D90F8001766
:101AC000B346C90747D00C4991F83C7007B90127C4
:101AD0000949DFF82C8091F83B1091FBF7F10FFAE0
:101AE00081FA98F80110042902D003291CD024E0BF
:101AF000407D46003DE00000940A1000709F0120E8
:101B00001802100038021000D835010095021000AC
:101B1000009E0120C8A6012040A7012000800120CE
:101B200090A5012054A40120007D04214600FE4818
:101B300001F0FCFAFD4901EB800598F8010002284C
:101B40000AD005280FD0042813D0032811D002286A
:101B50000FD005280DD0D2E12068F44D417D007DE5
:101B60000844460005E02068F04D3A2690F801A7A9
:101B7000F835D8F80C105145EDDC81B94FF4F87107
:101B8000EB4811F044FC98F80100042807D12068C4
:101B9000407D420005EB4001284601F044FEE54946
:101BA0000020DFF89483D1F80CE04978DFF88093C7
:101BB0002EE000BF59F8203035F910C004296344E5
:101BC00049F8203001D0032921D1BEF1000F08D1FE
:101BD000D94B0022803B23F8102047F6FF7228F8EB
:101BE0001020DFF854C335F91020ACF1800C3CF91B
:101BF00010309A4200DC1A462CF8102035F91020DB
:101C000038F910309A4200DB1A4628F81020401CA0
:101C1000B042CFDBC74A0EF101005045D0607CDBFB
:101C20000023DFF818A39046D360042906D00329C7
:101C300058D0022972D0052971D060E1012100201D
:101C4000FFF7FBFEDFF8E0B2ABF1280B9BF83D009D
:101C500058B12068407D4100B54801F091FFC8F8B7
:101C600010007821B64811F0B0FB0020D8F81030F1
:101C700035E000BF39F820207A43A2EB030212B20C
:101C800025F810209046226892F848C45FEA8C7CC0
:101C900020D59BF83DC0BCF1000F12D0B2F955C45D
:101CA000E04502DDA8EB0C0207E0B2F959249045AB
:101CB00002DAA8EB020200E00022DFF884C22CF86E
:101CC00010209F4A35F810C032F81020ACEB020209
:101CD00025F8102059F820204AF82020401CB04256
:101CE000C8DB0CE100210846FFF7A7FEDFF838B299
:101CF000ABF1280B9BF83D0058B12068007D4100F6
:101D00008B4801F03DFFC8F8140080218D4811F088
:101D10005CFB0020D8F8143037E0EBE038E0D8E086
:101D200039F820207A43A2EB030212B225F81020E2
:101D30009046226892F848C45FEA8C7C20D59BF8D4
:101D40003DC0BCF1000F12D0B2F957C4E04502DD2E
:101D5000A8EB0C0207E0B2F95B24904502DAA8EB8D
:101D6000020200E00022DFF8DCC12CF81020754AE6
:101D700035F810C032F81020ACEB020225F8102024
:101D800059F820104AF82010401CB042C8DBB6E0D9
:101D90006548283890F83D00C8B12068407D410072
:101DA000634801F0EDFEC8F810002068017D427D17
:101DB000490009EBC20001F0E3FEC8F814007821E5
:101DC0005F4811F002FB80215E4811F0FEFA00200E
:101DD00037E000BF39F82010B8F810307943A1EB94
:101DE000030109B225F81010236893F848C45FEA8C
:101DF0008C7C21D5DFF830C1ACF1280C9CF83DC0BB
:101E0000BCF1000F10D0B3F955C4614502DDA1EB60
:101E10000C0106E0B3F95934994201DAC91A00E01D
:101E20000021474B23F81010454935F8103031F8A0
:101E30001010591A25F8101059F820204AF82020BF
:101E4000401C2168497DB0EB410FC3DB2068407D19
:101E50004FEA40003AE000BF39F82010B8F81430DB
:101E60007943A1EB030109B225F81010236893F818
:101E700048C45FEA8C7C22D5DFF8ACC0ACF1280CFA
:101E80009CF83DC0BCF1000F10D0B3F957C46145B8
:101E900002DDA1EB0C0106E0B3F95B34994201DAF3
:101EA000C91A00E00021274B23F81B10254B35F8F9
:101EB00010C033F81B10ACEB010125F8101059F8D5
:101EC00020204AF820200BF1010B401CB042C3DB5C
:101ED00015E0002049461C4A09E000BF31F82030D7
:101EE00025F8103051F8203042F82030401CB04224
:101EF000F4DB04E00846FFF746FC00200090009861
:101F00007EE40C4910B54A780120062A1FD18B695E
:101F1000054C5B1C283C8B6194F85840A34217DAAF
:101F20001046FFF730FC11E0BC0A1000009E0120B3
:101F3000849F012018021000D4A4012074A1012064
:101F400040AF0120B8AF012064A30120002010BDE4
:101F500000228A6110BD70B5824909684B7D097DF8
:101F60005B1C4B43804991F85840012C1ED949888D
:101F700049051BD500207D4A15E001210AE000BF7C
:101F800001FB030632F8105032F81660491C354444
:101F900022F810508C42F3DC32F9101091FBF4F16E
:101FA00022F81010401C9842E7D370BD047570BD34
:101FB000F0B587B0FFF7D8FCFFF7A3FF002821D0CA
:101FC000694DA878400603D4FFF770FD002819D0AA
:101FD000644F674C386890F80A07C0070BD0A878A0
:101FE000800708D46078012805D12079E8746079E9
:101FF000688008F0A2FD00215B48FFF7D7FB18B10D
:10200000FFF7C1FB07B0F0BD5A48002666700670A6
:10201000386890F80A07C00706D0A878800703D46C
:102020000021084601F00BFE5349A42008733868CC
:1020300090F81001400702D5A67000F06DFC2078E2
:10204000012819D08DF8006001208DF81400684631
:10205000FFF781FF4548019000F5F0500290E178CC
:1020600000F5B87000EB41000390E670434804901F
:10207000696868468847C5E703208DF80000E3E7F4
:1020800070B538483B4D4FF00004016891F81001DD
:10209000420737480AD591F84317890706D4817853
:1020A000012908D002290FD0032903D18470FFF73A
:1020B00097FC2C7070BD0221817000F043FCBDE8DC
:1020C0007040322000F057BC032181704078BDE899
:1020D0007040FFF758BB70B500252E4629460120F9
:1020E00001F0ADFD5FF0000400F0C1FC18B1304418
:1020F0006D1C86B2ADB2641CA4B2082CF4D3B6FB3E
:10210000F5F070BD00F01F020121914040094FF031
:10211000E02202EB8000C0F80011704700F01F02BF
:102120000121914040094FF0E02202EB8000C0F80D
:102130008011704700F01F020121914040094FF0CB
:10214000E02202EB8000C0F8801270474907090EB8
:10215000002803DA00F00F00094A00E0094A815420
:102160007047000038021000940A1000008001201F
:10217000180210009502100000100020F89E0120A7
:1021800014ED00E000E400E0F94801680029FCD10A
:102190007047F0B527260022F54DF6484FF4F83188
:1021A0005C270C465FF0000303EB000E11F803C040
:1021B0005B1C8EF860C00C2BF6DB2B68002BFCD16F
:1021C0008276C77604F10C0103EB000E11F803C010
:1021D0005B1C8EF860C00C2BF6DB29680029FCD153
:1021E000511C8176C776921C04F13001B2EB460F88
:1021F000D7DBF0BD2DE9F0479246089E5B1EC6F185
:1022000008010022DB4C01F0FF0C15460021894635
:102210009A420BDA00EB0208875C98F8018027FAF3
:1022200006F708FA0CF847EA080703E007D1875CCD
:1022300027FA06F701EB040888F8607003E001EB69
:10224000040888F8609001F1010102F101020C29F3
:10225000DEDBC7490F68002FFCD10AEB0501A17630
:102260005C21E1766D1C022DD0DBBDE8F08718B54E
:10227000002411235C222146BF480094FFF7BAFFD7
:10228000BD4818236222002121300094FFF7B2FFDD
:1022900018BD2DE9F0470024DFF8D482B549824605
:1022A000254626464FF05C0900209C4206DA00EBEA
:1022B000010C1AF804708CF8607002E0471887F877
:1022C0006060641C401C0C28EFDB00BFD8F80000E5
:1022D0000028FBD15019887681F81B906D1C032DC6
:1022E000E2DBC2E7A44800B516235E2200216C3869
:1022F000FFF7CFFFA04820236422002140385DF87B
:1023000004EBC6E770B500239A4C05E0CD5C1E19BE
:102310005B1C86F860505BB29342F7DB94490B6814
:10232000002BFCD1A07642F01000E07670BD30B5F5
:10233000924C07220220216801F24271FFF7E2FF6E
:102340002168022201F24A710920FFF7DBFF2168B0
:10235000062201F24D710B20FFF7D4FF2068884957
:10236000884D90F85307097800F0F00001F00F0154
:1023700008432870012229461120FFF7C3FF216876
:10238000072201F254711220FFF7BCFF7C480122A2
:10239000401E007800F00F01206890F85B0761F3A1
:1023A0001F10287029461920FFF7ACFF216804226E
:1023B00001F25C711A20FFF7A5FF71480222C01CD0
:1023C0002946007828706E48401C007868701E20EE
:1023D000FFF798FF2168062201F262712020FFF7C3
:1023E00091FF67480222001D294600782870644842
:1023F000801C007868702620FFF784FF2168022285
:1024000001F26A712820FFF77DFF2168072201F29F
:102410006C713C20FFF776FF21680A2201F5F56117
:102420004320FFF76FFF21680A2201F2B2714D20AD
:10243000FFF768FF206890F8C017534801703321F8
:1024400041740B21817430BD5048002202604F4816
:102450001C3802604E480261012101618260816086
:102460000260016002604249A0F574700B68002BA5
:10247000FCD140490B7B43F020030B730B7B23F013
:1024800040030B730B7B23F080030B730B7B23F058
:1024900020030B73C0F8D823C0F8E0233D48027036
:1024A00070473348183001680029FCD1704730B5B7
:1024B0003748002474300460354880300460344864
:1024C000C4600121C160C4600460016004602E4DDD
:1024D0002020AD1D287068702649593D0873A4203E
:1024E00008732348183001680029FCD1FFF7ACFFBE
:1024F000FFF71DFFFFF7F6FEFFF7B9FEFFF749FEF6
:102500002548046085F8344030BD38B50546194C7F
:10251000C06C00906073010AA173010CE173000E9E
:102520002074042269462A20FFF7ECFE012205F1FF
:1025300048012E20FFF7E6FE95F84800A074686D6C
:102540000090E074010A2175010C6175000EA07500
:10255000042269463420FFF7D5FE0098800F84F8E6
:1025600040000849012208703820FFF7CBFE38BD33
:10257000040B002200100020ACF80100380210000B
:10258000F6FF0100F00A1000530000201C0C00228E
:10259000D0030022190210004005002200EBC00108
:1025A00001EB00106FF0030101EB800010B5F7495B
:1025B000F74A0978146890FBF1F0401EC1B201237C
:1025C00058075CB10024146080F8341090F8421071
:1025D00090F842408C42FBD0136010BD80F834105C
:1025E000FAE7EC4801680129FCD170477CB5044644
:1025F00000208DF804002046FFF787FFE648B4F876
:1026000042100180217C00F8011C94F844104173B1
:10261000E24EA07C86F83600E14D286890F842072B
:102620008DF800006188890503D520F012008DF82F
:102630000000012269460220FFF764FE042204F133
:1026400011010520FFF75EFE2968022201F24A719E
:102650000920FFF757FE022204F116010C20FFF7B4
:1026600051FE022204F118010E20FFF74BFE2868EC
:10267000052204F11A0190F8540720771020FFF783
:1026800041FE286890F80907C0070AD0012201A975
:102690004320FFF737FE022204F136013E20FFF708
:1026A00031FE012204F145013C20FFF72BFEB94821
:1026B00001680129FCD194F8440030732320FFF70E
:1026C0006DFF7CBD7EB50446FFF71FFFB248B4F82E
:1026D0004210018094F8391000F8011C94F844105D
:1026E0004173AF4D286890F842078DF8000061886B
:1026F000890503D520F012008DF8000001226946FB
:102700000220FFF7FFFD286890F80A17C90730D0AC
:10271000628891072DD4B0F80D17ADF80410B0F809
:102720007007ADF80800120609D594F8352010445A
:10273000ADF8080094F834000844ADF80400022213
:1027400002A94020FFF7DEFD022201A90920FFF7C0
:10275000D9FD296891F80907C0071DD0012201F5AC
:10276000F5614320FFF7CEFD022204F136013E2041
:1027700010E090F80907C00707D000208DF804008A
:10278000012201A94320FFF7BDFD2968022201F2C1
:102790004A710920FFF7B6FD022204F130011A2028
:1027A000FFF7B0FD022204F132012220FFF7AAFD5B
:1027B000012204F138010720FFF7A4FD012204F1F2
:1027C0003E010820FFF79EFD012204F13F01202079
:1027D000FFF798FD012204F140012820FFF792FD48
:1027E000012204F146011720FFF78CFD012204F1BC
:1027F00047011820FFF786FD28686A49012290F8F2
:10280000540720F0F00008701220FFF77BFD94F8C9
:102810004100624EC00708D0286800F2C67190F8E7
:10282000C60786F83600012206E094F83A0086F8DA
:102830003600012204F13A010620FFF763FD012270
:1028400004F145013C20FFF75DFD2868012269463F
:1028500090F8430740F008008DF800000320FFF7D0
:1028600051FD4C4801680129FCD194F844003073B3
:102870002320FFF793FE7EBD49494B4B0A6892F82F
:102880004D2702700A68B2F85027428009681B7809
:1028900001F2547103F00F0311F8012C02F0F00261
:1028A0001A4302714A89C2804A8A0281CA7B8272B3
:1028B000CA7DC27249780173704710B5044601465B
:1028C00001220B20FFF71EFD0222A11C0E20FFF7A4
:1028D00019FD0122211D1120FFF714FD0222A11D67
:1028E0001C20FFF70FFD022204F108012420FFF74E
:1028F00009FD012204F10A012120FFF703FD012255
:1029000004F10B012920FFF7FDFC04F10C01012269
:10291000BDE810401320F5E4204908B504200873F1
:102920001F4801226946006890F8430720F008001C
:102930008DF800000320FFF7E5FC08BD17492020B3
:10294000087370471549C02008737047104900206C
:102950004039086070470E48016800290AD00021FC
:1029600001604FF0005191F8420000BF91F8422001
:102970008242FBD070470649002240390A60064A6D
:10298000273A10700120086070470000970210007D
:1029900040050022000B00225400002000100020FF
:1029A00038021000F00A1000F6FF010070B5414C2B
:1029B0002368002BFCD11D4603E0C6185B1C86F87B
:1029C00080508B42F9D32368002BFCD102E0C45C19
:1029D000D4545B1C8B42FAD370BD10B501F00CF8D7
:1029E000FFF7B9FF3448007878B1324818380168E9
:1029F0000029FCD13148C078400602D53049012079
:102A00000870BDE81040FFF7D3BA2E4900200870C7
:102A100010BD10B500F0F0FF2B4900200860BDE8A4
:102A20001040FFF72DBB10B500F0E6FFFFF793FF56
:102A3000BDE81040FFF724BB204B10B59876DA763E
:102A40001C4818380468002CFCD1012083F8E000F1
:102A500018480468002CFCD1002005E0C41894F844
:102A600060400C54401C40B29042F7DB10BD08B5EA
:102A700043F6FF70ADF80000022269463E20FFF7E2
:102A800041FC0220ADF80000012269463C20FFF71E
:102A900039FC0A49E02008734FF41670FDF7FAFB81
:102AA000022269466D20FFF7C7FFFFF735FFBDF82B
:102AB000000008BD1C0B00221902100000100020AD
:102AC000180210009502100000050022FEE70446DF
:102AD000012008F062F900210F20226808F075F942
:102AE00001210F20626808F070F902210F20A2680E
:102AF00008F06BF903210F20E26808F066F90C2159
:102B00000F20226908F061F90E210F20626908F098
:102B10005CF90F210846A26908F057F920210F201F
:102B2000E26908F052F93E48026821210F2008F0BE
:102B30004CF93B481038026822210F2008F045F973
:102B400037480C38026823210F2008F03EF934483A
:102B50000838026824210F2008F037F93048001D9A
:102B6000026825210F2008F030F92D48343802681A
:102B700026210F2008F029F9294814380268272156
:102B80000F2008F022F9FDF722FE024630210F2027
:102B900008F01BF9ED214EF6ED52084608F043F916
:102BA000FEE710B5012807D002280ED0032805D073
:102BB000042805D0042109E0012107E0032105E0F4
:102BC0000021032008F0E9F8FEE70221BDE81040EB
:102BD000032008F0E2B810B504460146042008F0CE
:102BE000DCF8012C00D1FEE710BD0146082008F0FA
:102BF000D4B80146062008F0D0B810B50446014606
:102C0000072008F0CAF8012C04D0022C03D0032CB2
:102C100002D1FEE7FEE7FEE710BD0320EDE700006E
:102C200038ED00E000F0E8BE704770472B4810B563
:102C3000016821F00401016000F0DEFEBDE81040F3
:102C400010F0A6BA7047704700F0D6BE10B500F07D
:102C5000D3FEBDE8104008F013BB10B500F0CCFE69
:102C6000BDE810404FF0005001F07EB8704770474B
:102C700010B500F0C1FE1A480078012803D0BDE865
:102C8000104007F06DBFBDE8104001F0BABD7047BD
:102C900010B500F0B1FEBDE810404FF0805001F0DB
:102CA00063B8704770477047704770477047704708
:102CB000704710B500F0A0FEBDE81040FDF785BFDD
:102CC00010B500F099FE06480078012803D1BDE850
:102CD000104001F072BD10BD7047704710ED00E06C
:102CE0009402100010B55621984810F06EFB9748DA
:102CF0009749984A0180828097494180974BC380C9
:102D0000974C0481974C4481974C8481974CC481A3
:102D1000974C0482974C4482974C8482974CC4828F
:102D2000974C0483974C4486974C8486974CC48672
:102D3000974C0487C387418782879649A0F8401043
:102D400095490968B1F86220A0F84220B1F8C6217F
:102D5000A0F84420B1F8A120A0F84620B1F8F02155
:102D6000A0F84820B1F85421A0F84A20B1F8522127
:102D7000A0F84C208748B1F84E274280B1F85C2774
:102D8000C280B1F86417018110BD844813228549BF
:102D900003788348552B02D0027019200CE07E4B3B
:102DA0001B6893F81131DB0702D07C4A521C127861
:102DB00002707A48801C0078087070472DE9F04155
:102DC0008AB0FF222421684610F0F7FA6846FEF721
:102DD000ACF801990E240126072545F2AA5081423C
:102DE00002D00299814237D1009980460F0E029994
:102DF000414508D1032F02D10098C0F30136009855
:102E0000C0F3032502E00120FFF7F3FE01994145DD
:102E100003D1009800F01F0402E00220FFF7E9FE52
:102E2000032F1FD1049A40465F49824201D1039A81
:102E300000E05E4A0A60069A5D49824201D1059A25
:102E400000E05C4A0A60089A5B49424501D1079854
:102E500000E05A48086005E00120FFF7CAFE0220A2
:102E6000FFF7C7FE564906F0030040EA051081F857
:102E70006000012088761120C8765248017864F3FA
:102E8000040101700AB0BDE8F08170B5FDF71FFDC7
:102E9000FDF72CFF404C20680078A52802D00120C7
:102EA000FFF799FE4FF008500125C0F898532068AD
:102EB000454A90F8271101F00101116090F82701AF
:102EC000111DC0F340000860FEF72EF8FDF716FD57
:102ED000FEF7EAF9042801D1FFF763FEFDF752FF80
:102EE000FDF79CFF3648802180F860100421817630
:102EF0001121C176FFF762FFFFF747FF32480C3818
:102F0000056070BD10B54FF000514FF4A0504881DE
:102F1000FFF7BBFFFFF7E6FE2C493F2008602C4976
:102F2000002008602C482B49016001F508602B49FE
:102F300008602B4800F006FBFDF7A6F900F052F8F8
:102F4000FDF7A0F9FDF724FA012010BD00000120D3
:102F500000800120D8DD012058D601205600012034
:102F6000009E0120462E0120822E0120F02E0120FD
:102F70002C2F0120603401209C340120E229012003
:102F80001E2A01203A2E012080CE01208CCE012065
:102F9000D62901209824100038021000F2FF010009
:102FA00098021000970210009C02100040A5AE028B
:102FB000A002100000879303A402100000366E01E7
:102FC000001000202000002088040022C42E0120D0
:102FD0008802100080121000680210006C021000BD
:102FE000802310007FB5FDF7ABF9204D002400BF12
:102FF00005EB441000F11002017F4CCACDE90261DB
:10300000CDE900230FC8FDF77FFB10B10220FFF7C9
:10301000F4FD641C072CEBDB144D002415F1E005D6
:1030200004EB440005EB8001091D55F8200006C99A
:10303000FDF7EAFA10B10220FFF7DFFD641C082C4F
:10304000EEDB0B4D002400BF05EBC400416855F8D2
:103050003400FDF7F3F910B10220FFF7CEFD641C38
:10306000062CF1DB7FBD4068FFF7D7BD00360100BD
:10307000403701002DE9F0479246012547F6F872E6
:1030800056429946AC460024089F16E030F81430AA
:1030900031F81480A8EB03031BB29A4200DD1A46F4
:1030A0009E4200DA1E46002B02DA4FF0000502E0D5
:1030B00001DD4FF0000C04F10104BC42E6DB55EAEF
:1030C0000C0306D0012D01D02DB108E0BCF1010F99
:1030D00005D1002203E0BCF1010F00D132460025EA
:1030E0002C462B4611E000BF30F8136031F813C0B6
:1030F0001644ACEB060636B24E4505DAC9F1000CB3
:10310000664501DD3544641C5B1CBB42ECDB95FB72
:10311000F4F10A44002105E030F8113013442AF894
:103120001130491CB942F7DBBDE8F08770B50346A2
:1031300000200246FE4C09E09D5C521C05F00F0683
:1031400004EB1515A65D2D78304428448A42F3DB44
:1031500070BD884200D308467047884200D80846B0
:103160007047884200D30846904200D3104670470B
:103170002DE9F047D0F810C00568046A85FB0C12F1
:10318000A1FB041242694368914683FB0262826993
:10319000E246A6FB02677618D0E9021781FB07C852
:1031A000C069ACFB00C81CEB060682FB0A2CA2FB24
:1031B000011280FB0902A0FB0502401884FB0712E4
:1031C000A1FB03120818301A4FEAE071ACE72DE9B1
:1031D000F04389B00446006800906068019020695F
:1031E00002906068039020690490A06905902069AE
:1031F0000690A0690790E06908900D466846FFF7C1
:10320000B7FF8046A0680190E0680490606907906D
:1032100089466846FFF7ACFF064660680190A068E3
:10322000029020690490E0680590A06907906069A9
:1032300008900F466846FFF79BFFC5E90401C5E902
:103240000267C5E9008909B0BDE8F0832DE9FF4FA9
:103250004FF0000A89B09B465746D146D0465646A5
:10326000554654462021684610F0D1F80B9810E0DE
:103270000999824431F9102000FB00F102FB01663C
:103280008844414302FB009901FB004417440D446C
:10329000401C5845ECDD0B99ABEB0100401CCDE91F
:1032A000000ACDE90654CDE90486CDE902796846E5
:1032B0000A99FFF78CFF0DB0BDE8F08F9D480068BC
:1032C000017B427B41EA0221827BC07B41EA0241D1
:1032D00041EA0060400070479648006801794279F1
:1032E00041EA02218279C07941EA024141EA006063
:1032F000704700B5FFF7E2FF4008400000BDF8B599
:103300000E460446FFF7F5FF0090FFF7D7FF05468E
:1033100004216846FFF70AFF04EB400700240099E8
:10332000204623464FF0010C0CFA03F20A4207D064
:103330002A4204D037F8102026F81420641C401CC0
:103340005B1C1E2BF0DBF8BDC6E7FCB50E4607463E
:10335000FFF7CFFF0190FFF7BFFF0090FFF7BCFF23
:103360000546042101A8FFF7E1FE04460421684652
:10337000FFF7DCFE00EB440007EB4007002000995C
:10338000044603464FF0010C0CFA03F20A4207D040
:103390002A4204D037F8142026F81020401C641C60
:1033A0005B1C202BF0DBFCBD70B562490020096876
:1033B00001F5F57491F8E8518DB191F8E6214FF0DF
:1033C0000103D2070DD0002203FA02F6354203D0E2
:1033D000A65C03FA06F10843521C062AF4DB4000FF
:1033E00070BD91F8E91103FA01F0F8E770B55149A1
:1033F0000020096801F5F57491F8E851002D09D015
:1034000091F8E6214FF00103D20704D091F8E911B9
:1034100003FA01F070BD03FA02F6354203D0A65C50
:1034200003FA06F10843521C062AF4DB70BD70B59E
:103430000022404C012303FA02F6256895F8E85172
:10344000354203D030F8125021F81250521C062A8F
:10345000F1DB70BD00B5FFF731FF40F0010000BDAA
:103460003AE7354A520102EB810101F10851086047
:10347000704701EB8010801001EB410149001822D8
:1034800091FBF2F300EB400000F5F83002FB131162
:10349000006820F07F40C84000F03F00704701EB1B
:1034A0008010801010B501EB41014900182391FBF9
:1034B000F3F403FB141300EB400000F5F8303F2455
:1034C00001689C40A1439A400A430270110A41706E
:1034D000110C817010BD821002EB4202114400EB0E
:1034E00040004000182290FBF2F301F5F83102FB96
:1034F0001302086820F07F40D04000F03F00704782
:10350000831003EB43031A4410B500EB4000400066
:10351000182390FBF3F403FB140302F5F8323F2465
:1035200010689C40A043994001431170080A05E0CF
:103530007037010038021000C42E01205070080CB2
:10354000907010BD2DE9F14F782100980FF05FFFCA
:10355000FFF780FF4FEA5008FFF7BEFE4FF0000C68
:10356000814666464FF0010A0AFA06F111EA090F90
:103570001ED00024012725460AFA0CFB0AFA05F0A2
:1035800010EA080F0FD031462846FFF772FFA0421D
:1035900007D00099009A51F8271041EA0B0142F830
:1035A000271004467F1C6D1C272DE7DB0CF1010C56
:1035B000761C202ED8DBBDE8F88F2DE9F04F83462E
:1035C000F84800242246D0F800A001219AF81450AF
:1035D000A5F1010621E003200123DFF8CCE303FA83
:1035E00001F99AF8157015E05EF820C01CEA090F81
:1035F0000FD0A0F1010300FB051C03FB05183BF9EC
:103600001CC03BF91830BCEB030300D55B421C44E3
:10361000521C401C8742E7DC491C8E42DBDC02B9AD
:10362000012294FBF2F047E62DE9FF4F85B000211F
:103630000391029101910091DA49012B0C6894F8F1
:10364000775005F00F0700D10027667D94F87A3097
:10365000C7F1100BB34200D21E460023049301238E
:1036600081E000BF4FF00009C84603241FE0CE49A7
:1036700051F824C0012199401CEA010F04FB0531D7
:1036800030F911C0A4F1010101FB053130F911102D
:10369000ACEB010106D0002900DA4942DDF818C080
:1036A000A1EB0C01002900DA49428944641CB442B0
:1036B000DDDB31469EF815A01FE0BB4C54F821C05D
:1036C00001249C401CEA040F01FB053430F914C0AE
:1036D000A1F1010404FB053430F91440ACEB0404FF
:1036E00006D0002C00DA6442DDF818C0A4EB0C040C
:1036F000002C00DA6442A044491C8A45DDDC0499B0
:10370000012910D10199B1EB090101D5C1F10001E5
:10371000039C214403910099B1EB080100D5494273
:10372000029C21440291CDE900899EF87B109942C8
:1037300016D11168039D79430BFB0511CC1701EBE2
:103740001471091111609168029D79430BFB0511F9
:10375000CC1701EB147109119160002103910291C2
:1037600001215B1C04918F49D1F800E09EF81450B0
:10377000691E99423FF776AF5068039978430BFB77
:103780000100C11700EB117000115060D068029B5E
:1037900078430BFB0300C11700EB11700011D060E0
:1037A00009B089E52DE9F04F7E49002318460C68E1
:1037B00094F84814257DC1F3C001B4F865B4B4F899
:1037C00067A4A5EB010924E00322DFF8DCE1DFF8C0
:1037D000DC81667D19E000BF5EF822C0012707FA90
:1037E00001F71CEA070F0ED102FB051738F917C0C5
:1037F000A2F1010707FB051738F91770BCEB0707A3
:1038000000D57F423B44521CD2B29642E4D8491CB8
:10381000C9B28945D8DC66499B450B6002D2534545
:1038200000D2012048E503E011F8013B00F8013B1C
:10383000521EF9D270477CB50D460446FFF759FD7C
:103840000090FFF749FD0190009804214008009086
:103850006846FFF76BFC0646042101A8FFF766FCEB
:103860003044820021462846FFF7DDFF7CBD0B4631
:103870004C4909684A7D097D521C4A430146520061
:103880001846D0E72DE9F04104465C210FF0BFFD5A
:103890000025444E25806580306890F8C50700F00B
:1038A000010045EA40106080316891F84517C90968
:1038B00040EA011060806560FFF7CCFDA060FFF773
:1038C0000BFD3C4FE0607888E082306800F2467083
:1038D000C27A817A02F03F0241EA022121834178D3
:1038E000E17490F87A1021740178A17481782175BF
:1038F000017BA1763049407B097800F0F00001F0AF
:103900000F010843E076FFF74FFD2062FFF76EFDE1
:103910006062FFF7EEFCA062FFF7DEFCE062F88871
:1039200020866086306800F24E7090F8731084F83C
:10393000381090F8751084F8391090F8761084F8E3
:103940003A1010F84C1C84F83B10012184F83C100C
:1039500084F83D5090F8742084F83E20027D84F86D
:103960003F20027F84F84020027AA277827F84F889
:10397000452084F8355084F83450028CE28610F8E3
:10398000562CA0F24E70D20718D090F8F90600F02D
:103990000F0084F85800608840F480606080BDE8C3
:1039A000F08100003802100080231000000B10008E
:1039B0007402100098241000F6FF010084F85810DB
:1039C000EDE710B50446FCF75FFC012C0BD1F9487C
:1039D000006890F81001800705D5FCF780FF38B12A
:1039E000FCF779FF04E0FCF77AFF08B9FCF76FFFFA
:1039F000BDE81040FCF746BC0020E2E7ED4B10B5F7
:103A00001A68947E640704D5D28A0468A2EB040283
:103A100002601A68947EA40703D5128B0C68121BEF
:103A20000A600268002A00DA002202601C68E48A48
:103A3000A24200DD224602600A68002A00DA002263
:103A40000A601C68248BA24200DD22460A601B68C3
:103A50009B7EDB0702D003680B60026010BDF0B5EF
:103A6000D44E00252C4636680FE000BF31F91470A3
:103A700030F914C0A7EB0C07974205DD777D6D1C6C
:103A80007F1EA74200D16D1C641C9C42EEDB012D01
:103A900001D90120F0BD0020F0BD2DE9F04F924684
:103AA000DDE909B7012547F6F87256429946AC465A
:103AB000002416E030F8143031F81480A8EB03032A
:103AC0001BB29A4200DD1A469E4200DA1E46002BC7
:103AD00002DA4FF0000502E001DD4FF0000C04F1C6
:103AE0000104BC42E6DB55EA0C0306D0012D01D0EF
:103AF0002DB108E0BCF1010F05D1002203E0BCF1BB
:103B0000010F00D1324600252C462B4611E000BFA4
:103B100030F8136031F813C01644ACEB060636B229
:103B20004E4505DACBF1000C664501DD3544641CD9
:103B30005B1CBB42ECDB95FBF4F10A44002105E081
:103B400030F8113013442AF81130491CB942F7DB20
:103B500069E5F0B50646002004460546521C059F5F
:103B60000AE000BF36F911C09C4504DDA44502DD22
:103B700064460D460120491C9142F3DB3D60F0BDD7
:103B800030B50268002513460AE000BF50F8254012
:103B9000944201DD224602E09C4200DA23466D1C7D
:103BA0008D42F3DBD01800EBD070401030BD70B503
:103BB000804B1B685C7D1B7D641C5C4308E000BF80
:103BC00032F8135030F81360AD1B21F813505B1C12
:103BD000A342F5DB70BD7849012008608102774877
:103BE0000FF0F3BB2DE9F041064615460F4630288D
:103BF00001D1FFF7F0FF704C20682844401CB0F55D
:103C0000806F01D2206801E0012020606B490870BC
:103C10000E542DB10844401C2A463946FFF703FED6
:103C200020682844401C2060B9E665480021012234
:103C3000017042708170704761480078704730B5FC
:103C40005C4A126892F80A27D3070BD0D5065D4A62
:103C50004FF000034FF0010407D5151F286001291C
:103C600001D1136030BD146030BD564D083D286051
:103C70000129F8D0F5E72DE9F84F4E4C00264FF01A
:103C80000057206890F80A07450997F8510000D1BD
:103C900001250720FCF7E3FCFCF799FDDFF8208104
:103CA000C8F8040020684FF0010490F80A07C00625
:103CB00003D5062087F8510001E087F85140002124
:103CC0000120FFF7BCFF4FF41670FCF7E3FA4FF04A
:103CD000E02A4FF480594FF0000BCAF880924FF061
:103CE00040514446D8F80400FCF7F7FBDFF8D880D1
:103CF000012088F80000E8B2FCF7D8FECAF800916D
:103D00006B4600224FF040516068FCF707FC4FF013
:103D100040516068FCF7E1FB0098C00000D5012627
:103D20002078B04202D1607801280CD197F8510078
:103D3000A6B140EA0522DD20616807F046F800BF21
:103D400084F801B0267000210846FFF778FF88F854
:103D500000B00720FCF79EFC20782CE440EA052107
:103D6000092007F01AF8EBE710B5044617484FF49E
:103D700080510160FCF7A7FE114821464068BDE86C
:103D80001040FCF77BBB70B50A48006890F8D01073
:103D9000CA070F492CD090F8D12002F00F02531C13
:103DA0000A2B01D90A2200E0521C00F1D2040023A0
:103DB0004D8814E0380210003C021000D625012086
:103DC000B4021000280A00229502100080E100E0F1
:103DD0009824100034F81360B5420CD05B1C934259
:103DE000F8DBB0F84E274A80B0F8E8200A8002E0FD
:103DF000B0F84E274A8090F88023D2071FD090F861
:103E0000812302F00F035A1C0A2A01D90A2300E079
:103E10005B1C00F282350024CA8804E035F8146087
:103E2000B2420BD0641C9C42F8DBB0F85C27CA801D
:103E3000B0F864270A81B0F8AC03888070BDB0F890
:103E40005C27CA80B0F86407088170BD10B50146D0
:103E50001822FB48FFF7E7FCBDE810404FF4006173
:103E60000120FCF70BBB2DE9F04198B080460D46D0
:103E700014466846FFF706FDE0074FF0010701D042
:103E8000ADF80070A00705D5BDF8000040F00800AF
:103E9000ADF80000600733D5EA4E306890F80A07A5
:103EA000C0070DD0FFF7E7FE0621012805D0BDF8B9
:103EB000020040F00200ADF80200ADF8001005E08D
:103EC000BDF8000040F00600ADF80000A00711D1D9
:103ED000BDF8000040F00100ADF80000306800F2CD
:103EE000211041788DF8131001788DF81A10807820
:103EF0008DF81E00D4480088800501D58DF83D70EE
:103F0000ADF83250ADF81680ADF83050AFF2C300C6
:103F1000CB4E03244FF4006501906846FDF776FC14
:103F200017AB002229460120FCF7F8FA29460120A8
:103F3000FCF7D3FA3078002804D0FEF732FE641E76
:103F4000002CEADC18B0BDE8F0812DE9F041BD4A53
:103F5000002421461268254610F4D17F04D092F83F
:103F6000221004254FEA111110F0050F05D092F828
:103F7000213045F001054FEA1314C00604D592F82C
:103F8000210045F0020504098C4200DA0C46641C4D
:103F9000002DD8D00026AD4F05E0F98878882A4654
:103FA000FFF761FF761CA642F7DBCCE72DE9F35F54
:103FB000DFF890828B46D8F80000457D017D90F8AF
:103FC00021006D1C00F00F074D437F1C4FF48851FA
:103FD0009F480FF01CFA00269D4CDFF87092DFF826
:103FE00060A218E0B9F8061001220098FFF73BFF25
:103FF0009849DAF8040005F0A4FF9649002007E08C
:1040000054F8202031F910301A4444F82020401C84
:10401000A842F5DB761CBE42E4DBD8F8000090F83D
:10402000210000F00F01491C002006E054F8202078
:1040300092FBF1F22BF81020401CA842F6DBBDE801
:10404000FC9F2DE9F34F7F4D87B08B4628681821E0
:1040500090F8210000F00F077F1C68460FF0D7F999
:1040600000266C46DFF8E491DFF8D4A1DFF8E881A0
:1040700019E000BFB9F8061002220798FFF7F3FE17
:104080007549DAF80C00FFF7D2F900204FEA080171
:1040900054F8202031F910301A4444F82020401CF4
:1040A0000628F5DB761CBE42E4DB286890F8210088
:1040B00000F00F01491C002001222B6802FA00F6D3
:1040C00093F8E831334205D054F8203093FBF1F3F4
:1040D0002BF81030401C0628EFDB09B0BDE8F08F4C
:1040E0002DE9F74F574D84B09146286830F83B1FB3
:1040F000039140880290FFF7FCF80090FFF724F945
:10410000019004216846FFF711F88046042101A8B8
:10411000FFF70CF8404446002868B10090F82200F0
:1041200000F00F04641C4A480FF071F9296891F8F7
:10413000F002C20706D0800704D491F8F1020444CB
:1041400005F0AAFB0027DFF808B1AA462FE03F4898
:10415000042205994088FFF786FEDAF800103848F7
:1041600091F8C5178568C90704D001692A46284611
:1041700005F03EFCDAF8000090F8F002C10707D025
:10418000800705D43549284605F0A2FB70B1334DB0
:104190000020594608E000BF51F8202035F91030C2
:1041A0001A4441F82020401CB042F5DB7F1CA74296
:1041B000CDDBDAF80010264C504691F8221001F0C1
:1041C0000F0303F101034FF000011CE05BF8212015
:1041D000056892FBF3F295F8F0725FEAC77C08D0AD
:1041E000BF0706D595F8F1727F1C5743B5F8F22248
:1041F000BA1AB1EB480F01DA039D00E0029D2A4490
:1042000024F81120491CB142E0DB049810F0220F81
:1042100009D02046D9F80010FFF771F82046D9F8E8
:104220000410FFF792F807B058E72DE9F0479A46D7
:10423000044B894600210125094E1C682DE0000031
:10424000C43F1000380210004802100098241000EB
:1042500080121000000B10003A2E0120D0A5012082
:10426000562B012032F8113030F81170DB1B1FB2D1
:1042700000230AE0C3EB031C06EB8C0C5B1C3CF830
:1042800011801BB2B8442CF8118094F880C305EB60
:104290009C1C9C45EEDC491C09B2637D8B42E1DC31
:1042A0000020FE4A19E000BF3AF8103039F810102B
:1042B000591A0BB2002108E002EB8116491C36F8AE
:1042C000107009B21F4426F8107094F8806305EB53
:1042D00096168E42F0DC401C00B2217D8142E3DC68
:1042E000BDE8F08770B5EE4DEE4E00242868C4EBB3
:1042F000041100EB440006EBC111B0F8EF00FFF72A
:1043000055FE641C042CF1DB70BD2DE9FE4F002529
:104310008246E34C2F46DFF89083DFF88093012636
:1043200012E000BF00EB4500C5EB0512B0F8B21378
:1043300008EB8200009009EB8510CDE901076A4681
:104340005046FFF7CDFE6D1C206890F8801306EBF9
:104350009111A942E6DC90F85011C90710D090F8ED
:10436000911109060CD5407DCF494200CF48FFF797
:104370005AFA2068C949007D4200CD48FFF753FA38
:10438000BDE8FE8FFEB5C64ACA4900241268012363
:1043900000F4907592F88063C98803EB961306E0E9
:1043A00002EB4406B6F8B263B14202D0641CA342E9
:1043B000F6DCA34219DDC5B192F85001C00703D164
:1043C00092F8B001C0070FD0B749C4EB041001EB5D
:1043D00080013C22B848FFF726FAB048402200EBA3
:1043E0008411B648FFF71FFAFEBD00220292B24ABE
:1043F0000092B24A01926A46FFF772FEFEBD70B5A6
:1044000004460020FCF72BF90320FCF728F9A44D03
:10441000286890F82010490701D424F4006490F82B
:104420005011C90705D190F8B011C90701D124F086
:10443000620490F88013490701D424F4B07490F812
:10444000D010490701D424F0040490F8E81109B908
:1044500024F0100490F8040308B924F4C074600632
:104460000AD53C2294499648FFF7DDF9944840224A
:1044700092493C30FFF7D7F992490020401C88420E
:10448000FCD3200502D52046FFF75FFD600701D56C
:10449000FFF728FF14F4907F02D02046FFF735FF86
:1044A000844EE0071BD070888749FFF77FFD28689E
:1044B00090F8200000070AD58348FFF77EF883496B
:1044C0000123834A086001467F48FFF7ADF828685A
:1044D00090F84804C00702D0204602F035FCE00600
:1044E00003D570887B49FFF7ACFD14F0820F0AD02A
:1044F0002046FFF747FF286890F84804800702D558
:10450000204602F0C9FC600606D56D496B4B6A4A2D
:104510003C316B48FFF789FE6F49012008706F49F5
:10452000087006F0F7FA0020FCF7B4F8BDE8704018
:104530000320FCF7AFB8F0B459490022594C0B687E
:10454000B3F8EF10814214D2B3F8F510814201D8CC
:1045500003220EE05FF0010103EB4105B5F8EF50D7
:10456000A84201D10A4602E00DD2A1F101028A421D
:104570000DD1C2EB021004EBC011F0BC4FF4F0629D
:104580005148FFF750B9491C0429E5DBF1E703EB7B
:1045900041034D4D33F8ED2FC1EB01115B88801ABB
:1045A00000029A1A90FBF2F300204FF4707604EBAD
:1045B000C11100BF01EB4002A2F5F06231F91040D9
:1045C000B2F90020A41A5C4302EB242225F8102043
:1045D000401CB042EEDBF0BC70472DE9F0413049A1
:1045E0000025314A09682D4EB1F8B23383421AD200
:1045F00091F880339C0901EB4407B7F8B273874206
:104600000AD9012404EB931313E000BF01EB440724
:10461000B7F8B273B84201D1254602E008D2A4F13E
:104620000105A5421CD191F85001C00708D103E053
:10463000641CA342EADCF6E791F8B001C00770D031
:10464000C5EB051002EB80013C221B48FFF7EBF89D
:1046500006EB8511BDE8F04140221848FFF7E3B8AA
:1046600001EB4405B5F8B033B5F8B253C01A0002F7
:10467000EB1A90FBF3F391F85001C00703D191F8C6
:10468000B001C0074DD00C4DC4EB0411002002EB6B
:10469000810100BF01EB400222E00000822C0120DA
:1046A00038021000D6070120562B0120462C01208D
:1046B000822D012098241000E22901201E2A0120C9
:1046C000483F100020A10700560001207002100092
:1046D000F8231000D62901204E021000820210009B
:1046E00032F93C2C31F91070BF1A5F4302EB2722DC
:1046F00025F81020401C1E28CCDB6A4D002006EB5C
:10470000841100BF01EB400231F9104032F9402C16
:10471000A41A5C4302EB242225F81020401C202818
:10472000F0DB10E42DE9F0415F4801245F4E047096
:1047300000253560192000F0A8F8192000F08DF848
:104740005B4F052038724FF41670FBF7A3FD5748F6
:1047500044380560FF2139703460046025E470B589
:104760005148544C01250570207F40F0040020770B
:104770005148006890F81101C00705D00A2000F0E8
:1047800084F80A2000F069F8002184F860105B22A8
:10479000A2761120E07684F860505723A376E07665
:1047A000424B443B1960424EFF213170042184F892
:1047B0006010A276E0761D6070BD70B53B480024A5
:1047C000443804603A4D08352E79192000F051F82C
:1047D000C6F1FB002978C0B2491CB0FBF1F03749A3
:1047E0000870314804703448006890F81101C0071F
:1047F00002D0BDE87040B2E730495520891E0870EC
:1048000070BD10B52B4C207F40F0040020772A4863
:10481000006890F81101C00702D00A2000F029F8C2
:1048200023490A7B214B0020443B186084F8600038
:104830005B23A3761123E3760978891A89B24FF4B2
:10484000FA42B2FBF1F11D4A0909521E11705521BD
:10485000521E11701449087010BD00F01F02012192
:10486000914040094FF0E02202EB8000C0F80011B7
:10487000704700F01F020121914040094FF0E022F3
:1048800002EB8000C0F88011704700F01F02012188
:10489000914040094FF0E02202EB8000C0F8801206
:1048A000704700001E2A01209402100048050022D3
:1048B0002E0000200010002038021000F4FF01003C
:1048C00010B501461822FE48FEF7ADFF8021BDE875
:1048D00010400120FBF7D2BD30B599B004466846C0
:1048E000FEF7D0FF00210120012C02D0022C03D0C2
:1048F00009E0ADF8000002E00822ADF800208DF8D4
:1049000012108DF81010BDF80210AFF24B0241F4F6
:10491000A671ADF80210EB490192096891F8F816FA
:10492000C90701D08DF85800E54D03246846FCF70F
:104930006DFF17AB002280210120FBF7EFFD8021E6
:104940000120FBF7CAFD2878002804D0FEF729F9DA
:10495000641E002CEADC19B030BD2DE9FC5F4FF07D
:10496000000BFEF721FD0446FEF740FDD649074641
:104970000020086048608860D4494FEA54098046A6
:104980000860486088604FF0010A0220FFF7A4FF2A
:10499000CB4800242646C068CDF800000AFA06F08D
:1049A00010EA090F38D000250AFA05F1394230D053
:1049B000C4490AFA04F0096891F8E811014228D0C4
:1049C00029463046FEF755FDBE49BF4A096832F90F
:1049D0001430B1F80AC2B3EB0C01009B33F9143068
:1049E000A3EB0C0C00D54942BCF1000F01DACCF16D
:1049F000000C614504DBB54922F8143021F814009D
:104A00003F2805D2401CC2B229463046FEF747FD7A
:104A1000641C6D1C202DC7DB761C272EBEDBFDF72A
:104A2000B8FB08F10108B8F1400FAEDB012000909F
:104A30000220FFF751FFD0460026DFF888A2354656
:104A400008FA05F010EA090F1ED0002408FA04F154
:104A5000394216D0DAF8001008FA06F091F8E81199
:104A600001420ED09948214610F8160001900246E6
:104A70002846FEF714FD01983F2801D3002000903E
:104A8000761C641C202CE1DB6D1C272DD8DB0098E4
:104A900010B90520FEF7A9F8FDF77BFB0220FFF710
:104AA0001BFF87488A49C068FEF7C1FCDAF800405E
:104AB000874D002094F8E831424600BF02FA00F129
:104AC0000B421CD035F91010002902DC4BF002001B
:104AD00005E040F6FF76B14203DB4BF00100834670
:104AE00010E0B4F80A72B4F8BE6107EB060C8C450E
:104AF00005DABF1B8F4202DD0EB14BF0040B401CE8
:104B00000628DBDB5846BDE8FC9F2DE9F05F6D49C8
:104B10000A6892F8300105066E48037803F00F0426
:104B200007D492F83E1121F00F0121430170BDE836
:104B3000F09F0025DFF888A1834604702E460127E8
:104B400089460220FFF7C8FE6149DAF80C00FEF73B
:104B50006EFCD9F800205E4B002092F8E81100BFEF
:104B600007FA00FC11EA0C0F05D033F910C0B2F8B7
:104B70000882C445DBDB401C0628F1DB0F2D08D280
:104B80006D1CEDB244EA0510761C8BF80000102E67
:104B9000D7DBBDE8F05F0420FEF727B8F0B5484941
:104BA00000204D6847490A68537D117D5B1C01FB5D
:104BB00003F41CE035F91130002B02DC40F020003A
:104BC00014E040F6FF76B34202DB40F010000DE047
:104BD000B2F83471B2F8BE6107EB060C9C4505DAF9
:104BE000BF1B9F4202DD0EB140F04000491C8C42C9
:104BF000E0DCF0BD024618215FF0010000FA01F38D
:104C0000134201D1491EF9D5491C88401043704711
:104C10002DE9FE4FFEF71EFC0446FEF721FC294D50
:104C20000746286890F84507000603D52046FFF799
:104C3000E1FF04464FEA540B4FF4F06126480EF0B2
:104C4000C4FB1F484FF02709802118300EF0DFFB0E
:104C5000002001900120FFF73FFE1948D0F804A082
:104C600018480068057D0120002402906CE00120B6
:104C700000FA04F111EA0B0F65D00026012000FABA
:104C800006F818EA070F54D00D48183050F82400E1
:104C900010EA080F4CD131462046FEF7EAFB00909F
:104CA00008483AF915100068B0F83401814233DC45
:104CB000094B33F91520121AA1EB00000FD50DE0B6
:104CC000DC3F10003802100080CE01208CCE012085
:104CD0003A2E0120F6FF010058D60120524200284A
:104CE00000DA4042824209DC00983146401EC0B2E0
:104CF000024600902046FEF7D2FB01E023F8151093
:104D00008949009821F81500884850F8241041EA94
:104D1000080140F824100BE000983146401CC2B254
:104D20002046FEF7BCFB82483AF8151020F8151013
:104D30006D1C761C202EA1DB7C4850F82400B84264
:104D400001D000200290641C4C4590DB029838B9D9
:104D5000FDF71FFA0198401C01904028FFF67AAF3A
:104D600074484FF0010A00250068067D1DE001220D
:104D700002FA05F010EA0B0F16D000240120A04023
:104D800038420ED06848214610F816008046024688
:104D90002846FEF784FBB8F13F0F01D34FF0000A1D
:104DA000761C641C202CE9DB6D1C4D45DFDBBAF161
:104DB000000F02D10320FDF718FFFDF7EAF90120EB
:104DC000FFF78AFDBDE8FE4FE8E62DE9F05F594A9E
:104DD000116891F83001C4075748037803F0F005D3
:104DE00016D0057000264B7D0C7DDFF840A15B1CC2
:104DF000B046AAF1180A914604FB03F78346012046
:104E0000FFF76AFD2046DAF80420D9F800100EE01A
:104E100091F83E1101F00F012943017087E600BFB0
:104E200032F91030B1F832C16345F7DB401C8742DC
:104E3000F6DC0F2E0AD2761CF6B245EA060108F11E
:104E400001088BF80010B8F1100FD8DBBDE8F05F57
:104E50000220FDF7CABE70B501244FF404614FF47F
:104E6000F8300EF0D4FAFDF794F9FFF7AEFFFFF734
:104E7000CFFE304D44EA0064286890F8E80128B17C
:104E8000FFF743FEFFF769FD44EA00442A482A6819
:104E9000401D017892F8FB2701F0F00102F00F02AB
:104EA000114301702548FEF74DFB2046BDE87040D8
:104EB00006F07BB82DE9F047FEF776FA8146FEF75B
:104EC00095FA074600264FF0010808FA06F0454615
:104ED00010EA090F0CD0002405FA04F0384204D07F
:104EE000002221463046FEF7DAFA641C202CF3DB60
:104EF000761C272EE9DBBDE8F08710B5D124FFF73B
:104F0000D9FFFDF746F90B48006890F8E80128B191
:104F1000FFF7FBFDFFF721FD44EA00442046BDE812
:104F2000104006F042B80000D8DD0120F43F100028
:104F300058D6012038021000F6FF0100802310002F
:104F40002DE9F04F0020FF4D04460246012140F6B6
:104F5000FF7BFD4BD5F814906E681B6801FA02F7D1
:104F600037421CD039F914A0BAF1000F02DC40F02E
:104F7000200013E0DA4502DB40F010000EE0B3F849
:104F800036C1B3F84171E6460CEB0708D04503DBA8
:104F9000AEEB070CD44501DD40F04000641C521C10
:104FA000202ADBD30024AF69AE68224601FA02F55D
:104FB00035421AD037F91450002D02DC40F02000A1
:104FC00012E05D4502DB40F010000DE0B3F83A81DD
:104FD000B3F8439108EB090CAC4503DBA8EB090CD3
:104FE000AC4501DD40F04000641C521C202ADDD39A
:104FF000BDE8F08F10B501461822D448FEF713FC27
:105000008021BDE810400120FBF738BA30B599B0D7
:105010006846FEF737FCCC48006890F80917890706
:1050200007D5B0F85C17B0F86427ADF83010ADF8CC
:10503000322090F80A074FF00604C00709D0FEF7A7
:105040001AFE012805D0BDF8020040F00200ADF8BC
:10505000020000208DF83A008DF83900B948ADF80B
:105060000040416849000A9180680B90BDF8020039
:10507000AFF27F0140F4A670B44D0191ADF802008B
:1050800003246846FCF7C2FB17AB002280210120F5
:10509000FBF744FA80210120FBF71FFA287800284B
:1050A00004D0FDF77EFD641E002CEADC19B030BD93
:1050B0002DE9F84F2121A6480EF0A9F9A448302186
:1050C00021300EF082F9FDF732F9FDF7D0F8042017
:1050D00003254FF000084FF001099A4CDFF868A251
:1050E000CDF80000FFF792FFE8072BD04FF0000B40
:1050F0005F465E46616809FA06F008421AD040F63B
:10510000AC013046FEF7E7F9616931F91720DAF8AA
:105110000010B1F845118A420BDA3F2809D20099F4
:105120004FF0010B0844C1B240F6AC023046FEF726
:10513000E7F97F1C761C202EDCD3BBF1000F01D1D8
:1051400025F00105A8072BD54FF0000B5F465E4602
:10515000A16809FA06F008421AD040F6CD0130469F
:10516000FEF7B9F9A16931F91720DAF80010B1F8A2
:1051700047118A420BDA3F2809D200994FF0010B00
:105180000844C1B240F6CD023046FEF7B9F97F1CA3
:10519000761C202EDCD3BBF1000F01D125F00205D7
:1051A00045B1FDF7C4F8FDF762F808F10108B8F160
:1051B000640F97DB03254FF0000800BFFFF726FFC1
:1051C000E80729D04FF0000B5F465E46616809FA98
:1051D00006F0084218D040F6AC013046FEF77BF9E5
:1051E000616931F91720DAF80010B1F845118A42E7
:1051F00009DD40B1401EC1B24FF0010B40F6AC02D8
:105200003046FEF77DF97F1C761C202EDED3BBF1E5
:10521000000F01D125F00105A80729D54FF0000B9B
:105220005F465E46A16809FA06F0084218D040F6CB
:10523000CD013046FEF74FF9A16931F91720DAF8B0
:105240000010B1F847118A4209DD40B1401EC1B2D9
:105250004FF0010B40F6CD023046FEF751F97F1CAE
:10526000761C202EDED3BBF1000F01D125F0020504
:10527000002D08D0FDF75BF8FCF7F9FF08F10108F5
:10528000B8F1640F9ADBBDE8F88F2DE9F041314D9C
:105290000020212128702E480EF0B9F82C4830212A
:1052A00021300EF092F8FCF7E2FFFDF740F8254EB2
:1052B000002700BFFFF7AAFED6E9043200242046EB
:1052C00006E000BF32F91010A14200DD0C46401C80
:1052D0009842F7DB0020F368B26905E032F910105C
:1052E000A14200DD0C46401C9842F7DB002C09DC93
:1052F00028780F2803D8401C2870FDF718F87F1C69
:10530000202FD7DB40F6FE70844206DD2878401E51
:105310002870BDE8F041FDF70AB8BDE8F0812DE93D
:10532000F05F084E00240A4FD6F804306C3F254643
:105330002146012000FA01F21A420ED07A5CA24204
:105340000BD909E0BC0210003802100074401000B4
:10535000ACF80100F5FF01001446491C2029E9D3EF
:10536000FD4FD6F80820002100FA01F3134203D0C4
:105370007B5CAB4200D91D46491C2029F4D3DFF8E1
:10538000DCA3F74F0AF1010B8AF800408BF80050BC
:10539000386890F80A07C10705D0800703D5FEF7E3
:1053A0004BFC012811D0ED48EC49801E491E0078C5
:1053B000097820442944FF2288427AD2081A2044DE
:1053C000FF2877D88AF8000099E0E548006800F2E5
:1053D00059700279C17802F03F0201EB022682790E
:1053E000417902F03F0201EB0228027BC17A02F010
:1053F0003F0201EB0227827B417B007802F03F02F3
:1054000001EB022940060FD5D448801E017806EB37
:10541000080004EB40000844D049491E0A7807EB15
:10542000090105EB410110E006EB0800400000EB2C
:105430004401CA48801E0078084407EB090149006E
:1054400001EB4502C549491E09781144FDF785FE67
:10545000C349096801F20B72B1F80B37834201D2DC
:10546000A1F80B0791F80A07400720D591F85907D2
:10547000400620D570004342C8F1000091F80B1798
:1054800003EB40000144B548801E0078091A8AF8F1
:10549000001078004142C9F1000001EB4000117892
:1054A0000144AE48401E0078081A8BF80000BDE8A1
:1054B000F09F27E01DE0A948B1F80B17801E037884
:1054C00006EB08001844404201EB4000C0F34701DE
:1054D000A2488AF80010401E017807EB0900084432
:1054E0001188404201EB4000C0F347018BF80010E7
:1054F000DDE78AF80020306840F0800030608BF8EB
:105500000050D4E781420FD2401A2844FF2802D825
:105510008BF8000005E08BF80020306840F0800038
:1055200030608AF80040C2E78AF80040E7E72DE9DA
:10553000F041894C00202C3C8A4B894A01210546C8
:105540005F6801FA00F63E4209D01768265C97F8BA
:105550004A71BE4202D9F61B265400E02554401C75
:105560002028EDD37C4C00209F6801FA00F63E42D3
:1055700009D01768265C97F84A71BE4202D9F61B1B
:10558000265400E02554401C2028EDD3FFF7C7FE29
:10559000BDE8F041FCF7A6BE2DE9F84F6E486E4D10
:1055A0002C3806462C210DF032FF402128460DF004
:1055B0002EFFFFF7B4FEFCF7BAFEFCF793FE0420C3
:1055C000032400274FF00109DFF898A1DFF890B11C
:1055D000CDF80000FFF71AFDE00728D04FF0000CCF
:1055E000624660464FEA0A0309FA00F1D3F80480E4
:1055F00011EA080F13D0596931F91280DBF8001055
:10560000B1F83811884509DA315CDDF800804FF0D7
:10561000010C4144FF2900DDFF213154521C401C84
:105620002028E1D3BCF1000F01D124F00104A00730
:1056300027D54FF0000C62466046534609FA00F148
:10564000D3F8088011EA080F13D0996931F9128054
:10565000DBF80010B1F83C11884509DA295CDDF867
:1056600000804FF0010C4144FF2900DDFF21295447
:10567000521C401C2028E1D3BCF1000F01D124F0C2
:10568000020444B1FFF74BFEFCF751FEFCF72AFE83
:105690007F1C642F9EDB03245FF00007FFF7B6FC3E
:1056A000E00724D04FF0000E714670465246DC46AB
:1056B000D2F8048009FA00F313EA080F0FD05369F7
:1056C000DCF8008033F91130B8F83881434505DD46
:1056D000335C1BB15B1E4FF0010E3354491C401C60
:1056E0002028E5D3BEF1000F01D124F00104A0076A
:1056F00025D54FF0000E7146704652464FEA0B0C0E
:10570000D2F8088009FA00F313EA080F0FD0936962
:10571000DCF8008033F91130B8F83C81434505DDF1
:105720002B5C1BB15B1E4FF0010E2B54491C401C1F
:105730002028E5D3BEF1000F01D124F00204002C93
:1057400008D0FFF7ECFDFCF7F2FDFCF7CBFD7F1C6A
:10575000642FA3DB97E500006CF80100F9FF01005E
:1057600038021000BC021000B34930B409680020B0
:10577000034691F8302192070BD5B04A91F8494180
:1057800001201578A54203D9A5EB0404147000E0AC
:10579000137091F8302152070CD5A84A91F849119D
:1057A000521C40F0020014788C4202D9611A117028
:1057B00000E01370002801D030BCB0E530BC704769
:1057C0002DE9F0479C4900249C4D0868274690F835
:1057D0003021920702D501242F7002E090F83F217A
:1057E0002A70894690F83011954E490703D544F048
:1057F0000204377002E090F840013070002C75D040
:105800002C2190480DF003FE8E4840212C300DF0E5
:10581000FEFD8A482121801E07708A486C300DF0F9
:10582000F6FD884830218D300DF0CFFD8449FF20F2
:10583000891C0870491E0870FCF754FDFCF717FD21
:10584000FCF775FDDFF800824FF0100A002700BF5B
:10585000FFF7DCFBE00723D0D8E9043C0020014639
:1058600006E000BF3CF91120824200DD1046491CD1
:105870009942F7DBD9F80010B1F83621824202DAFA
:105880002878401E08E0B1F84B11814206DB2878E9
:105890005044FF2800DDFF20287001E024F00104BF
:1058A000A00726D500200146D8F80CC0D8F818303B
:1058B00006E000BF33F91120824200DD1046491C8A
:1058C0006145F7DBD9F80010B1F83A21824202DADB
:1058D0003078401E08E0B1F84B11814207DB307888
:1058E0005044FF2800DDFF20307002E00AE024F081
:1058F0000204002C06D0FFF712FDFCF718FD7F1CF8
:10590000202FA5DBBDE8F08770B54F4C002020604C
:10591000FDF7EFFC6060FDF717FDA06060680421F3
:1059200040086060201DFDF701FC2061042104F1A6
:105930000800FDF7FBFBE060FFF768FB434E2169C1
:10594000B06800EB41026261E26802EB410100EBEA
:105950004100A061FFF734FFFFF706FF364D2868CE
:1059600090F83001800603D5FFF716FEFFF7DFFD44
:10597000286890F83001000701D5FFF786FC2868F9
:1059800090F83001C00601D5FFF792FBFCF7CFFC81
:10599000FFF73CFBB068216900EB41026261E268FD
:1059A00002EB410100EB4100A061FFF7C9FA216859
:1059B0000143234821602A68C01C037892F8FB2722
:1059C00063F303020270BDE8704041F0020005F08D
:1059D000ECBA2DE9F041184C206890F809078007CF
:1059E00029D5FEF748F9012825D12068A04600F204
:1059F0005C7004888178C07800F03F0001EB0025DE
:105A00000F48401C0778801E0678FCF764FBD8F826
:105A10000010B1F8AC3791F80827B1F80B17234400
:105A2000414391FBF2F02B4433443B440849C01AF4
:105A30002044C880088170E438021000F7FF01009C
:105A4000F8FF010040F80100BC0210007440100093
:105A50009824100010B501461822A848FDF7E3FE6F
:105A60008021BDE810400120FAF708BDF0B5A44D33
:105A700006460C4628684FF0FF3199B090F8B10007
:105A800000F00F00401C8140CF436846FDF7FAFE4E
:105A90000120ADF80000ADF80240286810F8F91FA9
:105AA0008DF8131044F00501ADF802100297ADF81F
:105AB0001660AFF25F01019141788DF81410807883
:105AC0008E4D8DF81A0003246846FBF79FFE17AB36
:105AD000002280210120FAF721FD80210120FAF720
