:100000005555AAAA291200000000000000000000B7
:1000100025830000000000000000000055DA50A514
:1000200000011000E1070000890200009F020000AB
:10003000B5020000CB020000E10200000000000059
:100040000000000000000000000000005923000034
:100050005D23000000000000F70200005F230000A5
:10006000612300008F210000DD230000C721000074
:1000700079230000892300008D2300009B230000CA
:10008000B7230000B9230000BB230000D9230000E0
:10009000DB230000DF230000000000000000000060
:1000A000E1230000E3230000000000000000000046
:1000B00000000000E5230000E7230000DD21000030
:1000C000E9230000F7230000090300000F240000CB
:1000D00011240000000000000000000000000000EB
:1000E0002912000000F002F800F05AF80AA090E887
:1000F000000C82448344AAF10107DA4501D100F0E3
:100100004FF8AFF2090EBAE80F0013F0010F18BF55
:10011000FB1A43F00103184794100100B4100100CA
:100120000A444FF0000C10F8013B13F0070408BF1D
:1001300010F8014B1D1108BF10F8015B641E05D0BB
:1001400010F8016B641E01F8016BF9D113F0080F70
:100150001EBF10F8014BAD1C0C1B09D16D1E58BF02
:1001600001F801CBFAD505E014F8016B01F8016B39
:100170006D1EF9D59142D6D37047000000230024AC
:1001800000250026103A28BF78C1FBD8520728BFA7
:1001900030C148BF0B6070471FB51FBD10B510BD03
:1001A000DFF80CD0FFF7F8FF02F057FA10F0D2FD9D
:1001B0000001100003B4FFF7F1FF03BC10F0D2FD03
:1001C0000A484FF0FF0101704FF0000080F31188E2
:1001D0004FF0000080F3098805484FF002010170DC
:1001E00062B604484FF080510160704722ED00E094
:1001F0000001100004ED00E002484FF08051016062
:100200007047000004ED00E04FF0200080F31188FB
:10021000EFF3098098B112480068124909688842D2
:1002200017D0EFF309800E49096820E9F00F8860C4
:1002300000B50B48006800F0F2F85DF804EB0848E0
:1002400008490A68026000688168B1E8F00F81F32C
:1002500009884EF0040E4FF0000080F311887047BB
:100260000401100008011000EFF311804FF020018D
:1002700081F31188704700004FF0000080F311886F
:100280007047000062B6704772B6704740BA704758
:10029000C0BA7047401E0028FCDC704700BE7047A3
:1002A00040BA7047C0BA70471EF0040F0CBFEFF39E
:1002B0000880EFF309804FF0010101F0BDBF1EF08F
:1002C000040F0CBFEFF30880EFF309804FF0020139
:1002D00001F0B2BF1EF0040F0CBFEFF30880EFF384
:1002E00009804FF0030101F0A7BF1EF0040F0CBFFF
:1002F000EFF30880EFF309804FF0040101F09CBF99
:100300001EF0040F0CBFEFF30880EFF309804FF0ED
:10031000050101F091BF4FF0000000B502F03BFE77
:100320005DF804EBFFF770BF1EF0040F0CBFEFF396
:100330000880EFF309804FF0000101F07DBF00005D
:10034000194910B5012008701849002008601849A3
:100350000860184908601849086000F0A7F900F023
:1003600039F900F063F8002010BD10B5114800F015
:1003700018F90F4908600D490968884207D00A48F2
:100380000078022803D1BDE81040FFF735BF10BD4B
:1003900010B5FFF7EAFF044902200870FFF710FFCD
:1003A0004FF0FF3010BD00000001100004011000EC
:1003B000080110000C0110001001100070B50D466E
:1003C0000446C1698068CC2210F0C7FBE169A068CF
:1003D000084440384FF08071C163216A8163002175
:1003E00041630163C1628162C0E908514FF00B3182
:1003F000C1614FF00A3181614FF0093141614FF025
:10040000083101614FF00731C1604FF00631816062
:100410004FF0053141604FF00431016070BD8269D9
:100420008168914201D802F0BEB9704710B54FF40F
:10043000B471464810F0BBFB002010BD70B50546F6
:1004400000EBC501414800EB8104FFF70DFF0646B4
:10045000207828B13046FFF70FFF6FF0010070BD24
:100460000320207000206560206204F11C0000F071
:1004700071F83046FFF700FF002070BD2DE9F04114
:100480000F463249002500EBC00001EB80042E46E8
:10049000FFF7EAFE8046206A3843206204F11C0020
:1004A000074600F07EF80CE0216A026C114203D08E
:1004B00000F054F9012600E06D1C2946384600F092
:1004C00066F80028F0D1012E01D1FFF74EFF40461B
:1004D000FFF7D2FE0020BDE8F08170B50D461B4944
:1004E00000EBC00001EB8004FFF7BEFE216AA943C8
:1004F0002162FFF7C1FE002070BD2DE9F0410D46DD
:10050000124900EBC0001E46904601EB8004FFF745
:10051000ABFE07460E4800680564216A294203D1F4
:1005200004F11C0100F02CF93846FFF7A5FEFFF797
:100530009BFE216A29403160B8F1010F02D1216A86
:10054000A9432162FFF798FE0020C4E79C03100036
:1005500004011000002101600846704730B50A68A8
:1005600012B10B46C46B09E000220860C0E9032108
:100570000BE000BF02F10C03D26812B1D56BA542AB
:10058000F8DC1A68C0E903211860002030BD00685B
:10059000002201E0C068521C8A4201D00028F9D133
:1005A00070470068704702690AB1116831B96FF08D
:1005B0000400704701F10C02C96839B18142F9D1D8
:1005C000C968116000210161084670476FF003009F
:1005D0007047000010B54FF4C871324810F0E7FAC8
:1005E000002010BD2DE9F041884605462D4900EB5D
:1005F0008500174601EBC004FFF736FE064620785B
:1006000030B13046FFF738FE6FF00100BDE8F081F1
:1006100002202070E7611422414604F10800656061
:1006200010F056FA0020206204F12400FFF792FF38
:100630003046FFF721FE0020E8E770B5194900EBCE
:10064000800001EBC004FFF70FFE0546D4E9070167
:10065000814205DB144804F12401006800F090F8A1
:10066000206A401C20622846FFF706FE002070BD6D
:1006700070B50C4900EB800001EBC004FFF7F4FDFE
:100680000546206A08B1401E206204F12400FFF7ED
:1006900088FF10B1606A00F011F82846FFF7ECFD02
:1006A000002070BD040510000401100010B54FF4C7
:1006B0002A71404810F07BFA002010BD10B50446A6
:1006C00090F8380002280BD02046FFF76CFF02207C
:1006D00084F8380038492046FFF740FFFFF745FE11
:1006E000002010BD2DE9F05F8B460646314900EB36
:1006F00006109046DDE90AA911F820201D461AB11E
:100700006FF00100BDE8F09F01EB8004FFF7ACFD46
:10071000074601202070C4E90165C4E90585C4E9E4
:1007200007A91422594604F1240010F0D1F9002041
:1007300084F8370084F838006169E0602061C4E91A
:100740000F1020460C99FFF739FEA0602046FFF7F6
:10075000B5FF3846FFF790FD0020D3E710B50446FB
:1007600090F83800022809D02046FFF71CFF02202D
:1007700084F8380010492046FFF7F0FE002010BD35
:1007800070B5044690F838000D4602280BD120467B
:10079000FFF709FF032084F8380029462046FFF7B9
:1007A000DDFEFFF7E2FD002070BD044800684068F0
:1007B00070470000940610000C01100004011000A6
:1007C000F0B58446002004460C4F14E05CF8246029
:1007D0000323DD0046FA05F280EA026008250028BE
:1007E00002DA87EA400000E040006D1E002DF6DCD2
:1007F0005B1EEED5641C8C42E8DBF0BD1B00008064
:100800001248804712480047FEE7FEE7FEE7FEE792
:10081000FEE7FEE7FEE7FEE7FEE7FEE7FEE7FEE7B0
:10082000FEE7FEE7FEE7FEE7FEE7FEE7FEE7FEE7A0
:10083000FEE7FEE7FEE7FEE7FEE7FEE7FEE7FEE790
:10084000FEE7FEE7FEE7FEE7FEE70000890800009E
:10085000C50000001E4800684FF00051002891F8C4
:10086000210000F01C000DD0042805D0082805D078
:100870000C2805D096200CE011200AE0252008E085
:100880004B2006E0042809D0082809D00C2809D0FC
:100890007020401E01F82C0F087070470C20F8E7FC
:1008A0001B20F6E73720F4E770470A4993200870C9
:1008B000D0E708490B200870CCE70548006818B954
:1008C00004480078932801D0002070470120704729
:1008D000340400222100002070B5042000F045F906
:1008E000052000F042F9062000F03FF9072000F053
:1008F0003CF9082000F039F9182000F036F91920E9
:1009000000F033F91A2000F030F9A94900200860FE
:10091000A74A40321060A64B183B1860A44B08331E
:100920001860A44CE071A24B143B1860A04B0C3330
:10093000186020729E4B103B18609D4B103318605E
:1009400060729B4B0C3B1860994B14331860A0727B
:10095000974B083B1860964B18331860E072944B25
:1009600028331860A0731E1D3060E073331D1860BB
:10097000207401250D60156025700621042000F00B
:100980000CF90621052000F008F90621084600F0C0
:1009900004F90621072000F000F90621082000F0E4
:1009A000FCF80621182000F0F8F80621192000F0C4
:1009B000F4F804211A2000F0F0F8042000F0E1F827
:1009C000052000F0DEF8062000F0DBF8072000F03C
:1009D000D8F8082000F0D5F8182000F0D2F8192037
:1009E00000F0CFF81A2000F0CCF8042000F0B1F8A5
:1009F000052000F0AEF8062000F0ABF8072000F06C
:100A0000A8F8082000F0A5F8182000F0A2F81A2095
:100A100000F09FF8FF20E070356070BD00EB8000B3
:100A200063494000002218390A60624A521F107060
:100A30000120086070475E4900201839086070473F
:100A400000EB80005A494000002210390A60594AE0
:100A5000D21E1070012008607047554900201039DF
:100A60000860704700EB80005149400000220C39BB
:100A70000A60504A921E10700120086070474C496D
:100A800000200C3908607047494A10B528321468B4
:100A90000123D10664B10024146081F8350091F877
:100AA000420000BF91F842408442FBD0136010BD69
:100AB00081F83500FAE700EBC00101EB00106FF0A0
:100AC000030101EB800010B53B493C4C0978B0FBB9
:100AD000F1F0401E80B2FF280CD9010A2170494272
:100AE00000EB01206070FF20FFF7CEFF2078401E52
:100AF000207010BD002121706170BDE81040C0B2AF
:100B0000C2E72B4828300168002909D00021016084
:100B1000C10691F8420000BF91F842208242FBD00A
:100B2000704710B5254C2178607851EA000207D053
:100B300051B1FF20FFF7A8FF2078401E207010BDA4
:100B4000BDE8104008F0CABCFFF79EFF00206070AF
:100B500010BD00F01F020121914040094FF0E0223A
:100B600002EB8000C0F80011704700F01F02012165
:100B7000914040094FF0E02202EB8000C0F8801164
:100B8000704700F01F020121914040094FF0E02220
:100B900002EB8000C0F8801270474907090E002858
:100BA00003DA00F00F00064A00E0064A815470475D
:100BB0001C050022330000208301100014011000E6
:100BC00014ED00E000E400E059480121016000213B
:100BD00001607047574801210160002101607047A2
:100BE00010B5002000F08BF8534800220260FFF798
:100BF000F1FFFFF7E9FF514802605149A02008705A
:100C0000002000F088F8BDE81040002000F06BB82C
:100C10004A4801211C38016000210160704710B56D
:100C20000446002000F06BF843484149046001206D
:100C30000860002000F06FF8BDE81040002000F0D0
:100C400052B830B53C4889B00468002C11D020213E
:100C500068460FF0ACFF3B4800783A4B00216A46EB
:100C60005B1C02E0CD5C5554491C8142FADB114605
:100C7000A04709B030BD2E4901201C3908607047DB
:100C80003048203000782F4921310978401A00F08F
:100C90003F0070472C4902780A7042784A70827887
:100CA0008A70C278CA7002790A7142794A7182796F
:100CB0008A71C079C8717047244800684178827889
:100CC0004FF00050437A0374214B1B7843744389DF
:100CD0001B0A83744389C37401754275C179817598
:100CE000017AC175704700F01F020121914040094F
:100CF0004FF0E02202EB8000C0F80011704700F0D6
:100D00001F020121914040094FF0E02202EB8000D8
:100D1000C0F88011704700F01F0201219140400986
:100D20004FF0E02202EB8000C0F880127047000014
:100D30005C840022A0000022180110007C04002224
:100D400000E400E000040020000200202801100060
:100D50007801100010B5092000F053F80A2000F0C7
:100D600050F8092000F059F80A2000F056F8052143
:100D7000092000F05EF805210A2000F05AF83248F8
:100D80007F21417081700171002100F848192F49BD
:100D90000A684FF0010192F8C830DC070AD09C07BE
:100DA00008D590F84A40C3F3820301FA03F39C4349
:100DB00080F84A4092F81E31DC0721D0C3F3420389
:100DC000012B03D0224B4FF480641C6048308378A1
:100DD00002F58F721478C4F3420401FA04F4A343B9
:100DE000837003791478C4F3420401FA04F42343B2
:100DF000037103781278C2F3420291400B430370EF
:100E000010BD00F01F020121914040094FF0E02287
:100E100002EB8000C0F88011704700F01F02012132
:100E2000914040094FF0E02202EB8000C0F88012B0
:100E300070474907090E002803DA00F00F00054A41
:100E400000E0054A81547047480000202801100046
:100E500000E100E014ED00E000E400E07047D44859
:100E60004FF48051018000BF00BF00BF00BF00BF32
:100E700000BF00BF00BF00BF00BF4FF4C0510180E2
:100E800000BF00BF00BF00BF00BF4FF44061018042
:100E9000704710B5C64C0720A41E6070002020705B
:100EA00044F2C000608000BF00BF00BF4CF2C00031
:100EB000608000BF00BF00BF4CF2E00060800920EE
:100EC000FFF7E8F944F2E000608000BF00BF00BF18
:100ED0004FF48040608010BDF0B500252E464FF0E5
:100EE0000054E02717E000BF883401F03F01607034
:100EF0002170678000BF00BF00BFD4F808C043F86E
:100F000025C06680883C00BF6D1C521E491C3F29CD
:100F100001D9401CC0B2002AE6DCF0BD70B5A44C7B
:100F20002126268000BF00BF00BF00BF00BF40F0E9
:100F30002105258000BF00BF00BF00BF00BF44F2F5
:100F40002101084320800420FFF7A4F9258000BF79
:100F500000BF00BF00BF00BF268000BF00BF00BFB2
:100F600000BF00BF0020208000BF00BF00BF00BF47
:100F700000BF70BD70B504468D48002505808D4EBC
:100F80000120306000F000F9FFF783FF00F0ECF87B
:100F90005C20FFF7C3FF2346012202210720FFF751
:100FA0009BFF231D012203210620FFF795FF04F17B
:100FB0000803012204210520FFF78EFF04F10C0332
:100FC000012203210720FFF787FF04F1100301220C
:100FD00004210720FFF780FF00F0C6F8FFF759FF54
:100FE000FFF73DFF356070BD70B5044670480025C1
:100FF0000580704E0120306000F0C6F8FFF749FF11
:1010000000F0B2F85C20FFF789FF23460122082197
:101010000020FFF761FF231D012209210020FFF7B7
:101020005BFF04F1080301220A210020FFF754FFAF
:1010300004F10C0301220B210020FFF74DFF04F106
:10104000100301220C210020FFF746FF04F11403D6
:1010500001220D210020FFF73FFF00F085F8FFF788
:1010600018FFFFF7FCFE356070BDF0B54FF0000CC7
:10107000059C0CB14FF0800C4E4C0026C5B24FF0D1
:101080000057803C28E000BF87F889504FEAC05ED7
:10109000BEF1000F01F03F0E4EEA0C0E01DA4EF0E9
:1010A000400E87F888E053F826E0C7F88CE04FF050
:1010B000010EC4F8B0E04FF0000EC4F8B0E0491CD7
:1010C000C9B2402902D36D1CEDB20021D4F8C0E0B2
:1010D000BEF1000FFAD1761C9642D5DBF0BD4FF081
:1010E000005282F88900002309B1802002E0C00587
:1010F00003D5402082F8880001E082F888302D482E
:1011000001218038C0F8AC10C0F8AC30D0F8C01065
:101110000029FBD17047F8B50C4605464FF4F4762C
:1011200000213046FFF7DBFF0020014600902B46F0
:1011300022463046FFF799FFF8BDF8B50C46054644
:101140004FF4F87600213046FFF7C9FF00214FF435
:10115000FC70FFF7C4FF0020014600902B4622469A
:101160003046FFF782FFF8BD10B5114C4FF48040B8
:1011700020800420FFF78EF80020208000BF00BFF1
:1011800000BF00BF00BF10BD10B5094C4FF4C050E8
:10119000208000BF00BF00BF00BF00BF4FF48050E1
:1011A00020803520FFF776F80020208010BD000059
:1011B0008A00002080100022F8B5FB4C002635463E
:1011C00026700120A66000F050FC0C2000F04DFCC1
:1011D000032000F04AFC172000F047FC012000F03B
:1011E00050FC0C2000F04DFC032000F04AFC1720BE
:1011F00000F047FC00F0D7FD6A460221EB4800F002
:10120000BEFFEB499DF8010008709DF800005328CF
:1012100000D003260521012000F03FFC05210C2011
:1012200000F03BFC0621032000F037FC06211720CC
:1012300000F033FC012000F00CFC032000F009FC5E
:10124000172000F006FCA5706570E5703046F8BD0B
:1012500038B50D46009014460421684601F0AAFAFC
:10126000D4498978C90602D5062D00D1401C0099C1
:10127000A16484F8440038BD2DE9F047CD4C064602
:10128000CD4D002084F83C0029684FF002084FF053
:10129000E90991F845076074C8484FF0010AC0F3A6
:1012A0000E072046042E806A06D0032E1DD0022E83
:1012B0003DD0052E56D07CE0BE4A3146FFF7C8FF30
:1012C000E06A2065E787A07880060028286890F803
:1012D000590703DA20F0060040F0040084F84200C9
:1012E00084F8438084F8409063E0B24A3146FFF7C7
:1012F000AFFFE06A2065AF480421283001F05AFAB8
:10130000AE4901EB8000C0F30E00E087A0788006B4
:101310000028286890F8590703DA20F0060040F00A
:10132000040084F8420084F84380ED2017E0A14ACD
:101330003146FFF78DFFE06A2065E787A0788006D9
:101340000028286890F8590703DA20F0060040F0DA
:10135000040084F84200042084F84300E52084F867
:10136000400026E0A278920623D501F2C9310A781E
:1013700004F8342FCA78A2704A7862718978A17112
:1013800084F808A08B4A3146FFF762FF8B48F8309B
:10139000C0F30E006081286890F8590720F006001D
:1013A00040F00200A07384F80F8084F80C90A4F140
:1013B0003404286890F80A17C90708D08049C1F892
:1013C00000A014F8410F40F00300207008E0A1785D
:1013D00090F86C07890701D520F0030084F84100DC
:1013E00071484670BDE8F047724800F0BEBD7248D3
:1013F0007049006890F800224A7790F80122CA7478
:101400004A88D20504D490F8022202F00F028A74AE
:1014100000F20320027802F03F020A75B0F80120C2
:101420000A83C2788A76674A0079127800F0F00061
:1014300040EA1210C87670472DE9F0415D4C054630
:101440004FF000085C4E84F83C80E12084F84000B6
:1014500030685C4B544F90F84517617490F80A1748
:10146000CA075949C1F30E0101D0012D04D0062D40
:101470001ED0072D30D03CE0E27C3A7162887A7150
:101480004FF00A0C84F813C042F001026280E18739
:1014900090F853171A7801F0F00102F00F0211438F
:1014A000E17690F855076077424A294601200FE01F
:1014B000E18790F853171A7801F0F00102F00F025B
:1014C0001143E17690F8550760773A4A2946A068BB
:1014D000FFF7BEFEE0680BE03C48C0F30E00E0877B
:1014E000FFF785FF334A2946206AFFF7B1FE606A9D
:1014F00020656188C80705D094F8400040F00200DC
:1015000084F84000306890F80A27D20716D0062DDC
:1015100004D0072D02D0012D05D017E014F8410F9B
:1015200020F0030008E02649C1F8008014F8410FBC
:1015300020F0030000F10200207007E090F86C0733
:10154000890701D520F0030084F841007D70BDE8D3
:10155000F041184800F0C3BC06280CD007280AD078
:10156000012808D0042805D0032803D0052801D07D
:10157000022801D180E65FE770472DE9F8430A4D64
:101580008146012901D10020A871AC79104F641C5B
:10159000094EA7F1240825E0306890F80A07C00733
:1015A00018D057F8242017E01C0110000410002068
:1015B000780110003C0910002801100080870120EC
:1015C000280A0022F6FF010000800120F088012097
:1015D000740D010058F824206946484690470128B8
:1015E00005D0641C082CD7D90020BDE8F883AC7165
:1015F0009DF80000F9E770B50188002935D0014653
:101600005422FE4801F014FCFD4D286890F80A07AA
:10161000C0070AD0F948018811F0760F05D082780A
:10162000920702D441F080010180F64E70780028C4
:101630001BD10121F148FFF7A0FF040015D0F249AA
:1016400001200870286890F8181149070ED590F805
:10165000430780070AD400F070FD0220B07000F04C
:1016600070FD192000F081FD747070BD0020307095
:101670002046BDE870406FE7002070478268120086
:1016800006D00078C00703D00620087001207047FC
:1016900000207047026A120006D00078000703D5C8
:1016A00007200870012070470020704782681200F0
:1016B00005D00078000602D5012008707047002090
:1016C0007047826A120008D0C26A32B10078800680
:1016D00003D5022008700120704700207047826AFD
:1016E000120006D00078C00603D50520087001203E
:1016F000704700207047826A120006D00078800789
:1017000003D5042008700120704700207047C26A8A
:1017100032B10078400703D50320087001207047DC
:101720000020704700200870012070472DE9F0412B
:10173000B2480421283001F03DF80446AF480421A6
:101740002C3001F037F8AF4F0546DFF8B0827878DB
:10175000AE4E04280CD198F80200800602D5A200F3
:10176000314602E0620006EB4401A94801F060FB4B
:101770007878032811D198F80200800603D5AA00D2
:1017800006EB840104E005EB44006A0006EB40012F
:10179000BDE8F0419F4801F04BBBBDE8F08100B5CA
:1017A00085B000F0D3FA01208DF800009A4801902E
:1017B0009648029000F5B8719248C27801EB420158
:1017C00003910021C1709148F83004908B48416822
:1017D0006846884705B000BD2DE9F05FDFF820922C
:1017E0008A4D0024D9F800004FF0010A90F8001744
:1017F000C9072CD0814991F8386006B9012691F8C3
:101800003710DFF8008291FBF6F10FB298F8011063
:10181000042902D0032903D00BE0407D440021E0DD
:10182000764840240421283000F0C4FF774901EBBA
:10183000800598F8010002280AD005280BD004285A
:1018400010D003280ED002280CD005280AD063E05F
:101850007A246E4D06E0D9F800006C4D3A2490F8D9
:101860000177F8354046D8F80880B84554DC8346FF
:10187000B8F1000F04D14FF4F87168480FF097F9F0
:101880000021664808E000BF50F8212035F91130EA
:101890001A4440F82120491CA142F5DB08F101015E
:1018A0005A46CBF80810B94230DB002191605178DC
:1018B000042903D0032901D0022914D1D9F800103A
:1018C000DFF85CC1D1F8043700210AE030F821705C
:1018D0007743FF1A25F8117050F821704CF82170E9
:1018E000491CA142F2DB9BF80110052914D100210B
:1018F0004C4A08E030F8213025F8113050F82130FA
:1019000042F82130491CA142F4DB05E09BF80100BC
:10191000FFF722FE4FF0000A5046BDE8F09FF0B5F9
:1019200085B0FFF703FF354EB078400603D4FFF7CC
:1019300053FF002816D0324F324C386890F80A070F
:10194000C00708D06078012805D12079F07460794B
:10195000708007F000FE00212848FFF70EFE18B146
:10196000FFF7FAFD05B0F0BD27480025657005704A
:10197000386890F80A17C90701D02B490D602B4A27
:10198000A421117390F81801400702D5A57000F04A
:10199000D0FB2078012813D08DF800501E4801900C
:1019A0001A480290E17800F5B87000EB410003900E
:1019B0001A48E5708C380490716868468847D1E70A
:1019C00002208DF80000E9E770B50D480E4D4FF08C
:1019D0000004016891F8180142070A480AD591F8F5
:1019E0004317890706D48178012923D002292AD0F8
:1019F00003291ED18470FFF7D2FE19E03C091000C4
:101A0000280110001C0110008101100080870120B6
:101A1000CC8E0120448F0120008001200489012008
:101A2000F48A0120E48C0120280A00220010002002
:101A30002C7070BD0221817000F083FBBDE8704006
:101A4000322000F092BB032181704078BDE87040E5
:101A500082E500F01F020121914040094FF0E02291
:101A600002EB8000C0F80011704700F01F02012156
:101A7000914040094FF0E02202EB8000C0F8801155
:101A8000704700F01F020121914040094FF0E02211
:101A900002EB8000C0F8801270474907090E002849
:101AA00003DA00F00F00024A00E0024A8154704756
:101AB00014ED00E000E400E0F0B527260022FA4D26
:101AC000FA484FF4F8315C270C46002303EB000E74
:101AD00011F803C05B1C8EF860C00C2BF6DB2B6882
:101AE000002BFCD18276C77604F10C0103EB000ECB
:101AF00011F803C05B1C8EF860C00C2BF6DB296864
:101B00000029FCD1511C8176C776921C04F130016A
:101B1000B242D9DBF0BD2DE9F0479246089E5B1E2C
:101B2000C6F108010022E14C01F0FF0C154600212E
:101B300089469A420BDA00EB0208875C98F801802C
:101B400027FA06F708FA0CF847EA080703E007D176
:101B5000875C27FA06F701EB040888F8607003E059
:101B600001EB040888F8609001F1010102F1010223
:101B70000C29DEDBCC490F68002FFCD10AEB0501F4
:101B8000A1765C21E1766D1C022DD0DBBDE8F087EB
:101B900018B5002411235C222146C5480094FFF7A4
:101BA000BAFFC34818236222002121300094FFF7B6
:101BB000B2FF18BD2DE9F0470024DFF8EC82BB49E5
:101BC0008246254626464FF05C0900209C4206DAF4
:101BD00000EB010C1AF804708CF8607002E04718F2
:101BE00087F86060641C401C0C28EFDBD8F800000C
:101BF0000028FBD15019887681F81B906D1C032DAD
:101C0000E3DBC3E7AA4800B516235E2200216C3847
:101C1000FFF7D0FFA64820236422002140385DF85A
:101C200004EBC7E770B50023A04C05E0CD5C1E199E
:101C30005B1C86F860505BB29342F7DB9A490B68F5
:101C4000002BFCD1A07642F01000E07670BD30B5DC
:101C5000984C07220220216801F24271FFF7E2FF4F
:101C60002168022201F24A710920FFF7DBFF216897
:101C7000062201F24D710B20FFF7D4FF20688E4938
:101C80008E4D90F85307097800F0F00001F00F0135
:101C900008432870012229461120FFF7C3FF21685D
:101CA000072201F254711220FFF7BCFF8248012283
:101CB000401E007800F00F01206890F85B0761F388
:101CC0001F10287029461920FFF7ACFF2168042255
:101CD00001F25C711A20FFF7A5FF77480222C01CB1
:101CE0002946007828707448401C007868701E20CF
:101CF000FFF798FF2168062201F262712020FFF7AA
:101D000091FF6D480222001D2946007828706A481C
:101D1000801C007868702620FFF784FF216802226B
:101D200001F26A712820FFF77DFF2168072201F286
:101D30006C713C20FFF776FF206890F8C017604870
:101D40000170332141740B21817430BD5D48002244
:101D500002605C481C3802605B480261012101613D
:101D6000826081600260016002604F49A0F574707A
:101D70000B68002BFCD14D490B7B43F020030B7308
:101D80000B7B23F040030B730B7B23F080030B735F
:101D90000B7B23F020030B73C0F8D823C0F8E0239B
:101DA0004A480270704730B54748002474300460D8
:101DB0004548803004604448C4600121C160C4606B
:101DC0000460016004603E4D2020AD1D28706870E5
:101DD0003649593D0873A420087333481830016808
:101DE0000029FCD1FFF7B2FFFFF731FFFFF70AFF31
:101DF000FFF7CEFEFFF760FE3548046085F83440FB
:101E000030BD38B50546294C806C00906073010ADE
:101E1000A173010CE173000E2074042269462A208C
:101E2000FFF700FF012205F144012E20FFF7FAFE23
:101E300095F84400A074286D0090E074010A2175A3
:101E4000010C6175000EA075042269463420FFF76D
:101E5000E9FE0098800F84F84000184901220870BC
:101E60003820FFF7DFFE38BD00EBC00101EB0010AA
:101E70006FF0030101EB800010B51649144A097890
:101E8000146890FBF1F0401EC1B2012358071CB347
:101E90000024146080F8341090F8421090F842400A
:101EA0008C42FBD0136010BD040B002200100020F8
:101EB000ACF8010028011000F6FF010090091000A5
:101EC000530000201C0C0022D00300221D01100032
:101ED000400500228301100080F83410E2E770B55D
:101EE0000446FFF78EFFCA48E18F0180217C00F88D
:101EF000011C94F840104173C64DA07C85F8360053
:101F0000042204F111010520FFF78CFEC24E0222CB
:101F10000920316801F24A71FFF784FE022204F1C0
:101F200016010C20FFF77EFE022204F118010E209C
:101F3000FFF778FE3068052204F11A0190F8540783
:101F400020771020FFF76EFE012204F141013C20B2
:101F5000FFF768FEB14801680129FCD194F8400000
:101F60002873BDE8704023207EE77CB50446FFF768
:101F700048FFA748E18F018094F8351000F8011C54
:101F800094F840104173A44D296891F80A07C007DE
:101F900015D0B1F80D67B1F870078DF80400000A8C
:101FA0008DF80500022201A94020FFF73BFE300A10
:101FB0008DF800608DF801000222694602E00222DD
:101FC00001F24A710920FFF72DFE022204F13001CF
:101FD0001A20FFF727FE022204F132012220FFF728
:101FE00021FE012204F134010720FFF71BFE01222C
:101FF00004F139010820FFF715FE012204F13A012E
:102000002020FFF70FFE012204F13B012820FFF7FB
:1020100009FE012204F142011720FFF703FE01220D
:1020200004F143011820FFF7FDFD28687C490122D7
:1020300090F8540720F0F00008701220FFF7F2FD2E
:1020400094F83C00734EC00708D0286800F2C671AF
:1020500090F8C60786F83600012206E094F83600AC
:1020600086F83600012204F136010620FFF7DAFD7A
:10207000012204F141013C20FFF7D4FD67480168CB
:102080000129FCD194F840003073BDE87C40232046
:10209000EAE66149634B0A6892F84D2702700A68C4
:1020A000B2F85027428009681B7801F2547103F09E
:1020B0000F0311F8012C02F0F0021A4302714A8951
:1020C000C2804A8A0281CA7B8272CA7DC272497802
:1020D0000173704710B50446014601220B20FFF73B
:1020E000A1FD0222A11C0E20FFF79CFD0122211D53
:1020F0001120FFF797FD0222A11D1C20FFF792FD82
:10210000022204F108012420FFF78CFD012204F1D2
:102110000A012120FFF786FD012204F10B0129208D
:10212000FFF780FD04F10C010122BDE810401320EF
:1021300078E5384904200873704736492020087331
:1021400070473449C0200873704737480168002938
:102150000AD0002101604FF0005191F8420000BF09
:1021600091F842208242FBD070472F49002240392B
:102170000A60274A273A107001200860704770B53E
:10218000264C1C342368002BFCD11D4603E0C618E6
:102190005B1C86F880508B42F9D32368002BFCD15E
:1021A00002E0C45CD4545B1C8B42FAD370BD10B502
:1021B00000F00CFFFFF7C9FF1C48007878B1174802
:1021C000001D01680029FCD11248C078400602D5E4
:1021D000174901200870BDE81040FFF7A0BB154962
:1021E000002008705FE610B500F0F0FE0E490020F8
:1021F00040390860BDE81040FFF7E6BB10B500F0BD
:10220000E5FEFFF7A2FFBDE81040FFF7DDBB0000D1
:10221000540000200010002028011000000B0022B4
:1022200090091000F6FF0100400500221D0110007A
:102230001C011000810110000446012007F08FFAF4
:1022400000210F20226807F09FFA01210F20626809
:1022500007F09AFA02210F20A26807F095FA0321ED
:102260000F20E26807F090FA0C210F20226907F096
:102270008BFA0E210F20626907F086FA0F210846BB
:10228000A26907F081FA20210F20E26907F07CFAA9
:102290003848026821210F2007F076FA35481038B7
:1022A000026822210F2007F06FFA32480C380268CA
:1022B00023210F2007F068FA2E48083802682421ED
:1022C0000F2007F061FA2B48001D026825210F201E
:1022D00007F05AFA27483438026826210F2007F001
:1022E00053FA24481438026827210F2007F04CFACB
:1022F000FEF75BFA024630210F2007F045FAFEE7B1
:1023000010B5012805D0022805D0032809D00321E3
:1023100002E0012100E00221BDE81040032007F0A7
:102320001EBA0021032007F01AFAFEE710B5044692
:102330000146042007F013FA012C00D1FEE710BD7E
:102340000146082007F00BBA0146062007F007BA3D
:1023500010B504460146072007F001FA24B1012C0C
:1023600003D0022C02D1FEE7FEE7FEE710BD0220FB
:10237000EEE7000038ED00E000F028BE704770473F
:102380002C4810B5016821F00401016000F01EFE28
:10239000BDE81040FEF755BC10B50DF0EBFBBDE8F5
:1023A000104000200CF03FBF00F010BE10B500F050
:1023B0000DFEBDE8104007F037BC10B500F006FE7A
:1023C0001D48006890F82901800703D5BDE810403A
:1023D00007F0B6B810BD7047704710B500F0F6FDB5
:1023E00016480078012803D0BDE8104007F0B8B8BF
:1023F000BDE8104001F088BB7047704770477047D8
:10240000704770477047704710B500F0DFFDBDE8BA
:102410001040FEF786BB10B500F0D8FD07480078E5
:10242000012803D1BDE8104001F04BBB10BD70473F
:102430007047000010ED00E028011000800110003E
:1024400010B5422196480EF090FB95489549964A62
:102450000180828095494180954BC380954C0481D1
:10246000954C4481954C8481954CC481954C048253
:10247000954C4482954C8482954CC482954C04833F
:10248000954C4486954C8486954CC486954C04871F
:10249000C387418782879449A0F840109348016818
:1024A000914801F24E710A884280CA89C280C98A65
:1024B000018110BD8E4813228F4903788D48552B1A
:1024C00002D0027019200CE0884B1B6893F81E3173
:1024D000DB0702D0864A521C127802708448801CA6
:1024E000007808707047F0B585B0FF221421684667
:1024F0000EF033FB6846FEF73DFD03980E250127DD
:10250000072645F2AA54A04202D00498A0423AD12C
:10251000DDE90001884206D00299884203D0019883
:10252000884208D100900498A0420FD10098000E74
:10253000012804D006E00020FFF706FF0FE0009816
:10254000C0F301370098C0F3032602E00120FFF733
:10255000FBFE0398A04214D1009800F007056749DC
:1025600007F0030040EA061081F860000120887639
:102570001120C8766248017865F30401017005B046
:10258000F0BD0220D8E70120FFF7DEFEF9E770B5C5
:10259000FEF78BF9FEF724FB544D28680078A52838
:1025A00002D00120FFF7C2FE28684FF000064FF06E
:1025B000010490F829118A074FF0085104D5C1F899
:1025C0009863C1F8804301E0C1F8984390F828115E
:1025D0004C4A01F00101116090F82811121DC1F35D
:1025E0004001116048490C60091F0C60091F0C6014
:1025F00090F8C800C1070BD0810709D5C0F382004D
:10260000012805D13E483130017821F007010170E1
:10261000FEF724FCFEF760F9FEF7CEFD032801D19A
:10262000FFF76EFEFEF748FBFEF794FB3348802170
:1026300080F86010042181761121C176FFF753FFE5
:10264000FFF738FF286890F8290181072F4801D546
:10265000046000E00660046070BD41F2292010B5FE
:1026600041074881FFF793FFFFF7EAFE28495F2003
:10267000086028490020086028482749016001F5C2
:10268000086027490860274800F0A2FAFDF7FCFD22
:1026900000F04AF8FDF7F6FDFDF77AFE012010BDC7
:1026A000000001200080012018A70120989F012030
:1026B0004200012080870120322E01206E2E012051
:1026C000B42E0120F02E0120A0340120DC340120A2
:1026D000CE2901200A2A0120262E0120C0970120A0
:1026E000CC970120C22901203423100028011000BA
:1026F000F2FF01008401100083011000001000208F
:102700002000002088040022280A00227C040022E5
:10271000B02E01207401100020111000540110008F
:1027200058011000202210007FB5FDF709FE1F4D53
:10273000002400BF05EB441000F11002017F4CCAD9
:10274000CDE90261CDE900230FC8FDF7CBFF10B141
:102750000120FFF7FDFD641C082CEBDB144D002469
:1027600004EB440005EB8001091D55F8200006C963
:10277000FDF738FF10B10120FFF7EAFD641C072CBC
:10278000EEDB0B4D0024543505EBC400416855F8D1
:102790003400FDF753FE10B10120FFF7D9FD641C92
:1027A000072CF1DB7FBD4068FFF7E1BD980D01000C
:1027B000980E010070B5034600200246FE4C09E069
:1027C0009D5C521C05F00F0604EB1515A65D2D78D7
:1027D000304428448A42F3DB70BD884200D3084667
:1027E0007047884200D808467047884200D30846A0
:1027F000904200D3104670472DE9F047D0F810C042
:102800000568046A85FB0C12A1FB04124269436847
:10281000914683FB02628269E246A6FB0267761854
:10282000D0E9021781FB07C8C069ACFB00C81CEBEC
:10283000060682FB0A2CA2FB011280FB0902A0FB08
:102840000502401884FB0712A1FB03120818301A76
:102850004FEAE071BDE8F0872DE9F04389B0044606
:1028600000680090606801902069029060680390A1
:1028700020690490A069059020690690A0690790DE
:10288000E06908900D466846FFF7B6FF8046A068ED
:102890000190E06804906069079089466846FFF7F8
:1028A000ABFF064660680190A06802902069049022
:1028B000E0680590A0690790606908900F46684637
:1028C000FFF79AFFC5E90401C5E90267C5E9008978
:1028D00009B0BDE8F0832DE9FF4F4FF0000A89B041
:1028E0009B465746D146D04656465546544620212B
:1028F00068460EF05CF90B9810E00999824431F9B2
:10290000102000FB00F102FB01668844414302FBFA
:10291000009901FB004417440D44401C5845ECDD70
:102920000B99ABEB0100401CCDE9000ACDE9065440
:10293000CDE90486CDE9027968460A99FFF78CFF54
:102940000DB0BDE8F08F9D480068017B427B41EAF5
:102950000221827BC07B41EA024141EA00604000E3
:102960007047964800680179427941EA02218279EC
:10297000C07941EA024141EA0060704700B5FFF7C3
:10298000E2FF4008400000BDF8B50E460446FFF7E0
:10299000F5FF0090FFF7D7FF054604216846FFF7D3
:1029A00009FF04EB40070024DDF800102046234611
:1029B0004FF0010C0CFA03F20A4207D02A4204D06D
:1029C00037F8102026F81420641C401C5B1C1E2BBA
:1029D000F0DBF8BDC5E7FCB50E460746FFF7CEFFB6
:1029E0000190FFF7BEFF0090FFF7BBFF05460421F3
:1029F00001A8FFF7DFFE044604216846FFF7DAFE70
:102A000000EB440007EB4007002000990446034612
:102A10004FF0010C0CFA03F20A4207D02A4204D00C
:102A200037F8142026F81020401C641C5B1C202B57
:102A3000F0DBFCBD70B561490020096801F5F57453
:102A400091F8E8518DB191F8E6214FF00103D207DA
:102A50000DD0002203FA02F6354203D0A65C03FA39
:102A600006F10843521C062AF4DB400070BD91F8C1
:102A7000E91103FA01F0F8E770B550490020096840
:102A800001F5F57491F8E851002D09D091F8E6218F
:102A90004FF00103D20704D091F8E91103FA01F0D5
:102AA00070BD03FA02F6354203D0A65C03FA06F1C4
:102AB0000843521C062AF4DB70BD70B500223F4C5F
:102AC000012303FA02F6256895F8E851354203D050
:102AD00030F8125021F81250521C062AF1DB70BD5A
:102AE00000B5FFF730FF40F0010000BD39E7344A80
:102AF000520102EB810101F108510860704701EBBE
:102B00008010801001EB41014900182291FBF2F383
:102B100000EB400000F5F83002FB1311006820F0D4
:102B20007F40C84000F03F00704701EB80108010EC
:102B300010B501EB41014900182391FBF3F403FBAD
:102B4000141300EB400000F5F8303F2401689C406E
:102B5000A1439A400A430270110A4170110C81701E
:102B600010BD821002EB4202114400EB4000400015
:102B7000182290FBF2F301F5F83102FB130208680A
:102B800020F07F40D04000F03F007047831003EBFF
:102B900043031A4410B500EB40004000182390FB9B
:102BA000F3F403FB140302F5F8323F2410689C4051
:102BB000A0439940014305E0240F010028011000C3
:102BC000B02E01201170080A5070080C907010BDD2
:102BD0002DE9F14F782100980DF0E9FFFFF780FF14
:102BE0004FEA5008FFF7BDFE4FF0000C81466646E5
:102BF0004FF0010A0AFA06F111EA090F1ED000246B
:102C0000012725460AFA0CFB0AFA05F010EA080F1C
:102C10000FD031462846FFF772FFA04207D0009937
:102C2000009A51F8271041EA0B0142F82710044698
:102C30007F1C6D1C272DE7DB0CF1010C761C202E70
:102C4000D8DBBDE8F88F2DE9F04F8346F948002422
:102C50002246D0F800A001219AF81450A5F10106EF
:102C600021E003200123DFF8D0E303FA01F99AF809
:102C7000157015E05EF820C01CEA090F0FD0A0F116
:102C8000010300FB051C03FB05183BF91CC03BF9C5
:102C90001830BCEB030300D55B421C44521C401CA3
:102CA0008742E7DC491C8E42DBDC02B9012294FB3F
:102CB000F2F046E62DE9FF4F85B000210391029125
:102CC00001910091DB49012B0C6894F8775005F0D5
:102CD0000F0700D10027667D94F87A30C7F1100BFA
:102CE000B34200D21E4600230493012381E000BFBB
:102CF0004FF00009C84603241FE0CF4951F824C013
:102D0000012199401CEA010F04FB053130F911C083
:102D1000A4F1010101FB053130F91110ACEB010107
:102D200006D0002900DA4942DDF818C0A1EB0C01F9
:102D3000002900DA49428944641CB442DDDB314693
:102D40009EF815A01FE0BC4C54F821C001249C4003
:102D50001CEA040F01FB053430F914C0A1F1010491
:102D600004FB053430F91440ACEB040406D0002C0D
:102D700000DA6442DDF818C0A4EB0C04002C00DA81
:102D80006442A044491C8A45DDDC0499012910D124
:102D90000199B1EB090101D5C1F10001039C214466
:102DA00003910099B1EB080100D54942029C2144EE
:102DB0000291CDE900899EF87B10994216D11168E5
:102DC000039D79430BFB0511CC1701EB147109111D
:102DD00011609168029D79430BFB0511CC1701EB43
:102DE00014710911916000210391029101215B1C72
:102DF00004919049D1F800E09EF81450691E994260
:102E00003FF776AF5068039978430BFB0100C11779
:102E100000EB117000115060D068029B78430BFBEF
:102E20000300C11700EB11700011D06009B088E5F4
:102E300004E000BF11F8013B00F8013B521EF9D23B
:102E400070477CB50D460446FFF798FD0090FFF7EC
:102E500088FD019000980421400800906846FFF723
:102E6000A9FC0646042101A8FFF7A4FC3044820017
:102E700021462846FFF7DCFF7CBD0B466D490968FB
:102E80004A7D097D521C4A43014652001846CFE74D
:102E900070B5044654210DF08AFE0020654D208057
:102EA0006080296891F8C51701F0010140EA4111DD
:102EB00061802A6892F84527D20941EA02116180AF
:102EC0006060FFF70DFEA060FFF74BFD5B4EE0601A
:102ED0007088E082286800F24670C27A817A02F037
:102EE0003F0241EA022121834178E17490F87A108F
:102EF00021740178A17481782175017BA1765049F4
:102F0000407B097800F0F00001F00F010843E07603
:102F1000FFF790FD2062FFF7AFFD6062FFF72EFD27
:102F2000A062FFF71EFDE062F088208660862868B8
:102F300000F2C170017884F83410817884F835107B
:102F4000C17884F8361010F8BF1C84F837100121BE
:102F500084F83810417884F8391010F85F1C84F830
:102F60003A1010F8571C84F83B1010F86B1CA1772E
:102F700010F8550C84F8410070BD3F21B0FBF1F111
:102F80003F314908B0FBF1F211444908B0FBF1F0C0
:102F900008444008704710B50446FDF775F9012C48
:102FA0000BD12448006890F81801800705D5FDF77B
:102FB00084FC38B1FDF77DFC04E0FDF77EFC08B928
:102FC000FDF773FCBDE81040FDF75CB90020E2E7B7
:102FD000184B10B51A68947E640704D5D28A046829
:102FE000A2EB040202601A68947EA40703D5128B38
:102FF0000C68121B0A600268002A00DA00220260D4
:103000001C68E48AA24200DD224602600A68002AA7
:1030100000DA00220A601C68248BA24200DD2246EE
:103020000A601B689B7EDB0702D003680B600260AE
:1030300010BD0000280110002022100034231000D1
:10304000F6FF0100F0B500252C4608E031F91460C8
:1030500030F91470F61B964200DD6D1C641C9C4216
:10306000F4DB022D01D90120F0BD0020F0BD2DE9D7
:10307000F04F9246DDE909B7012547F6F87256424E
:103080009946AC46002416E030F8143031F814802C
:10309000A8EB03031BB29A4200DD1A469E4200DAF7
:1030A0001E46002B02DA4FF0000502E001DD4FF072
:1030B000000C04F10104BC42E6DB55EA0C0306D027
:1030C000012D01D02DB108E0BCF1010F05D1002286
:1030D00003E0BCF1010F00D1324600252C462B46FF
:1030E00011E000BF30F8136031F813C01644ACEBA8
:1030F000060636B24E4505DACBF1000C664501DD19
:103100003544641C5B1CBB42ECDB95FBF4F10A44C8
:10311000002105E030F8113013442AF81130491C21
:10312000B942F7DB0DE4F0B506460020044605463B
:10313000521C059F0AE000BF36F911C09C4504DD12
:10314000A44502DD64460D460120491C9142F3DB93
:103150003D60F0BD70B51F4B1B685C7D1B7D641C22
:103160005C43002308E000BF32F8135030F81360CE
:10317000AD1B21F813505B1CA342F5DB70BD164953
:1031800001200860810215480DF0EFBC2DE9F041E7
:10319000064615460F46302801D1FFF7F0FF0E4CCA
:1031A00020682844401CB0F5806F01D2206801E0FF
:1031B00001202060094908700E542DB10844401CBC
:1031C0002A463946FFF734FE20682844401C206018
:1031D000BDE8F081280110002C011000C22501205B
:1031E00010B501461422F948FFF722FEBDE8104051
:1031F0004FF400610120FDF741B970B596B0064665
:103200000D4614466846FFF743FEE00702D0012052
:10321000ADF80000A00705D5BDF8000040F008009B
:10322000ADF80000600721D5E948026892F80A0766
:10323000C007BDF8000002D040F0060001E040F0F9
:103240002000ADF80000A00710D1BDF8000002F288
:10325000211240F00100ADF8000050788DF8130005
:1032600010788DF81A0090788DF81E00ADF8325065
:10327000ADF81660ADF83050AFF29B00D34D03248B
:103280004FF4006601906846FEF7B5F915AB0022D1
:1032900031460120FDF731F931460120FDF71DF9D6
:1032A0002878002804D0FFF72BF8641E002CEADCF5
:1032B00016B070BD2DE9F041C5490126002409680A
:1032C00010F4D17F91F82110C1F3011106FA01F633
:1032D00000D0042410F0050F01D044F00104C00612
:1032E00001D544F00204002C0AD00025B94F05E0B6
:1032F000F98878882246FFF780FF6D1CB542F7DB1E
:10330000BDE8F0812DE9F35FB1488B4601260068E6
:10331000447D017D90F82100641C4C4300F00707B8
:10332000BE404FF48851AC480DF041FC0025DFF859
:10333000A882DFF8A092DFF894A21AE0B9F806108C
:1033400001220098FFF759FFA449DAF8040005F0BC
:103350009CFBA24A0020414608E000BF51F8203003
:1033600032F910C0634441F82030401CA042F5DB24
:103370006D1CB542E2DB0020414605E051F82020FB
:103380003A412BF81020401CA042F7DBBDE8FC9F1F
:103390002DE9F34FDFF8389287B00124D9F8000007
:1033A000182190F8210000F0070704FA07F6684694
:1033B0000DF0FDFB0025DFF81CB2DFF824A2E84683
:1033C00019E000BFBBF8061002220798FFF715FFAF
:1033D0007E488349C068FFF770FB00205246414693
:1033E00032F910C051F82030634441F82030401CBD
:1033F0000628F5DB6D1CB542E4DB00204946434658
:103400000A6804FA00F592F8E8212A4205D053F838
:103410002020089D3A4125F81020401C0628EFDBAB
:1034200009B0BDE8F08F2DE9F74F694D84B09246A1
:10343000286830F83B1F039140880290FFF79EFAFE
:103440000090FFF7C7FA019004216846FFF7B2F930
:103450008146042101A8FFF7ADF9484444002868DB
:10346000012690F8210000F00707BE40A1005A484D
:103470000DF09DFB0025DFF860B122E055480422E5
:1034800005994088FFF7B9FE514950480968D0F8BE
:10349000088091F8C517C90704D001694246404623
:1034A00005F098F90020594608E000BF51F8203097
:1034B00038F910201A4441F82020401CA042F5DBC6
:1034C0006D1CB542DADB444D00215A460DE000BFC9
:1034D00052F821003841B1EB490F01DA039B00E0BB
:1034E000029B184425F81100491CA142F0DB049806
:1034F00010F0220F09D02846DAF80010FFF744FA3E
:103500002846DAF80410FFF766FA07B089E72DE9D4
:10351000F0479A462E4B894600210125314E1C6802
:103520001BE000BF32F8113030F81170DB1B1FB206
:1035300000230AE0C3EB031C06EB8C0C5B1C3CF87D
:1035400011801BB2B8442CF8118094F880C305EBAD
:103550009C1C9C45EEDC491C09B2637D8B42E1DC7E
:103560000020214A19E000BF3AF8103039F8101055
:10357000591A0BB2002108E002EB8116491C36F8FB
:10358000107009B21F4426F8107094F8806305EBA0
:1035900096168E42F0DC401C00B2217D8142E3DCB5
:1035A000BDE8F08770B50A4D104E00242868C4EBC2
:1035B000041100EB440006EBC111B0F8EF00FFF777
:1035C000A1FE641C042CF1DB70BD0000303E100035
:1035D000280110003423100020111000A009100051
:1035E000262E0120422B01206E2C0120C207012033
:1035F0002DE9FE4F00258246FE4C2F46DFF8F8836A
:10360000DFF8F893012611E000EB4500C5EB051249
:10361000B0F8B21308EB8200009009EB8510CDE9F9
:1036200001076A465046FFF7FEFE6D1C206890F8C1
:10363000801306EB9111A942E6DC90F85011C907FE
:1036400010D090F8911109060CD5407DEA4942004E
:10365000EB48FFF7EDFB2068E849007D4200E948B0
:10366000FFF7E6FBBDE8FE8FFEB5E24AE64900241F
:103670001268012300F4907592F88063C98803EB07
:10368000961306E002EB4406B6F8B263B14202D0EC
:10369000641CA342F6DCA34219DDC5B192F85001C7
:1036A000C00703D192F8B001C0070FD0D249C4EBD4
:1036B000041001EB80013C22D448FFF7B9FBCF484E
:1036C000402200EB8411D248FFF7B2FBFEBD00227E
:1036D0000292CE4A0092CE4A01926A46FFF7A3FEBA
:1036E000FEBD70B504460020FCF7A7FF0320FCF7E1
:1036F000A4FFC04D286890F82010490701D424F495
:10370000006490F85011C90705D190F8B011C907AD
:1037100001D124F0620490F88013490701D424F405
:10372000B07490F8D010490701D424F0040490F844
:10373000E81109B924F0100490F8041309B924F42D
:10374000C07490F82002C00701D124F40074600610
:103750000AD53C22AD49AF48FFF76AFBAD4840228D
:10376000AB493C30FFF764FBAB490020401C88426A
:10377000FCD3200502D52046FFF79CFD600701D54C
:10378000FFF710FF14F4907F02D02046FFF730FFC0
:103790009D4EE0071BD07088A049FFF7B3FD286855
:1037A00090F8200000070AD59C48FFF74CFA9C4986
:1037B00001239C4A086001469848FFF77BFA286875
:1037C00090F84904C00702D0204602F0F5F9E0065F
:1037D00003D570889449FFF7DBFD14F0820F0AD0FF
:1037E0002046FFF741FF286890F84904800702D57A
:1037F000204602F0A5FA600606D58649844B834A26
:103800003C318448FFF783FE8849012008708849CD
:10381000087005F05AFE0020FCF72AFFBDE8704052
:103820000320FCF725BFF0B472490022814C0B68DD
:10383000B3F8EF10814214D2B3F8F510814201D8E9
:1038400003220EE05FF0010103EB4105B5F8EF50F4
:10385000A84201D10A4602E00DD2A1F101028A423A
:103860000DD1C2EB021004EBC011F0BC4FF4F062BA
:103870006A48FFF7DDBA491C0429E5DBF1E703EBF1
:103880004103664D33F8ED2FC1EB01115B88801ABF
:1038900000029A1A90FBF2F300204FF4707604EBCA
:1038A000C11100BF01EB4002A2F5F06231F91040F6
:1038B000B2F90020A41A5C4302EB242225F8102060
:1038C000401CB042EEDBF0BC70472DE9F0414949A5
:1038D0000025494A0968494EB1F8B23383421AD2E9
:1038E00091F880339C0901EB4407B7F8B273874223
:1038F0000AD9012404EB931313E000BF01EB440742
:10390000B7F8B273B84201D1254602E008D2A4F15B
:103910000105A5421CD191F85001C00708D103E070
:10392000641CA342EADCF6E791F8B001C0074CD072
:10393000C5EB051002EB80013C223448FFF778FA12
:1039400006EB8511BDE8F04140223148FFF770BA1F
:1039500001EB4405B5F8B033B5F8B253C01A000214
:10396000EB1A90FBF3F391F85001C00703D191F8E3
:10397000B001C00729D0254DC4EB0411002002EB93
:10398000810100BF01EB400231F9107032F93C2C8B
:10399000BF1A5F4302EB272225F81020401C1E2887
:1039A000F0DB1B4D002006EB841100BF01EB400251
:1039B00031F9104032F9402CA41A5C4302EB242266
:1039C00025F81020401C2028F0DB99E42DE9F04177
:1039D00019480124194E047000253560192000F0A3
:1039E000DFF8192000F0C4F8154F052038724FF4A5
:1039F000167027E028011000422B01206E2C0120B8
:103A0000322C01206E2D012034231000CE290120FC
:103A10000A2A0120B43D100020A107004200012025
:103A20005C01100098221000C22901203E01100004
:103A300067011000C2070120800110004805002224
:103A40002E000020FCF726FC5B480560FF21397042
:103A50003460046054E470B55848594C012606702F
:103A6000207F40F00400207756484FF000050068A2
:103A700090F81E01C1070DD0C0F34200012809D102
:103A800051480560001F05600A2000F089F80A20EF
:103A900000F06EF884F860505B21A1761120E0768A
:103AA00084F860605722A276E076434A1560474D5D
:103AB000FF232B70042384F86030A176E076166033
:103AC00082E570B53C4800240460404D08352E79ED
:103AD000192000F059F8C6F1FB002978C0B2491C42
:103AE000B0FBF1F03A49087034480470354800687A
:103AF00090F81E01C00702D0BDE87040ABE7344922
:103B00005520891E08705FE510B52D4C207F40F0D0
:103B1000040020772B48006890F81E01C1070BD0E5
:103B2000C0F34200012807D10A2000F02DF82649F1
:103B300001200860091F086024490A7B1E4B0020F1
:103B4000186084F860005B23A3761123E37609787C
:103B5000891A89B24FF4FA42B2FBF1F11C4A090901
:103B6000521E11705521521E11701449087010BD5B
:103B700000F01F020121914040094FF0E02202EBCA
:103B80008000C0F80011704700F01F020121914031
:103B900040094FF0E02202EB8000C0F8801170472E
:103BA00000F01F020121914040094FF0E02202EB9A
:103BB0008000C0F8801270470405002280011000C8
:103BC0000010002028011000240A00222E000020EE
:103BD000F4FF010010B501461422FE48FFF728F952
:103BE0008021BDE810400120FCF748BC30B597B0FB
:103BF00004466846FFF74CF90021012C02D0022C44
:103C000002D008E0012000E008208DF81210ADF885
:103C100000008DF81010BDF80200AFF2470140F42B
:103C2000A670EC4D0191ADF8020003246846FDF743
:103C3000E2FC15AB002280210120FCF75EFC802114
:103C40000120FCF74AFC2878002804D0FEF758FB36
:103C5000641E002CEADC17B030BD2DE9FC5F4FF08C
:103C6000000BFEF7E7FE0446FEF706FFDA490746BB
:103C70000020086048608860D8494FEA54098046AF
:103C80000860486088604FF0010A0220FFF7AEFF2D
:103C9000D04800242646C068CDF800000AFA06F095
:103CA00010EA090F38D000250AFA05F1394230D060
:103CB000CB490AFA04F0096891F8E811014228D0CA
:103CC00029463046FEF71BFFC549C34A096832F949
:103CD0001430B1F80AC2B3EB0C01009B33F9143075
:103CE000A3EB0C0C00D54942BCF1000F01DACCF17A
:103CF000000C614504DBB94922F8143021F81400A6
:103D00003F2805D2401CC2B229463046FEF70DFFBF
:103D1000641C6D1C202DC7DB761C272EBEDBFDF737
:103D2000CBFE08F10108B8F1400FAEDB0120009096
:103D30000220FFF75BFFD0460026DFF8A4A235463D
:103D400008FA05F010EA090F1ED0002408FA04F161
:103D5000394216D0DAF8001008FA06F091F8E811A6
:103D600001420ED09D48214610F8160001900246EF
:103D70002846FEF7DAFE01983F2801D30020009084
:103D8000761C641C202CE1DB6D1C272DD8DB0098F1
:103D900010B90520FEF7D4FAFDF78EFE0220FFF7DA
:103DA00025FF8C488F49C068FEF787FEDAF800408F
:103DB0008C4D002094F8E831424600BF02FA00F131
:103DC0000B421CD035F91010002902DC4BF0020028
:103DD00005E040F6FF76B14203DB4BF0010083467D
:103DE00010E0B4F80A72B4F8BE6107EB060C8C451B
:103DF00005DABF1B8F4202DD0EB14BF0040B401CF5
:103E00000628DBDB5846BDE8FC9F2DE9F05F7449CE
:103E10000A6892F8300105067348037803F00F042E
:103E200007D492F83E1121F00F0121430170BDE843
:103E3000F09F0025DFF89CA1834604702E460127E1
:103E400089460220FFF7D2FE6649DAF80C00FEF739
:103E500034FED9F80020634B002092F8E81100BF2F
:103E600007FA00FC11EA0C0F05D033F910C0B2F8C4
:103E70000882C445DBDB401C0628F1DB0F2D08D28D
:103E80006D1CEDB244EA0510761C8BF80000102E74
:103E9000D7DBBDE8F05F0420FEF752BA2DE9F04110
:103EA00000240120FFF7A2FE4A4845684C480168FB
:103EB0004A7D087D521C00FB02F61CE035F91020FB
:103EC000002A02DC44F0200414E040F6FF739A421A
:103ED00002DB44F010040DE0B1F83471B1F8BE31EA
:103EE00007EB030C944505DAFF1A974202DD0BB18C
:103EF00044F04004401C8642E0DC2046BDE8F081EE
:103F0000024618215FF0010000FA01F3134201D1CB
:103F1000491EF9D5491C8840104370472DE9F05FD0
:103F2000FEF7DEFD0546FEF7E1FD2D4C0746206855
:103F300090F84507000603D52846FFF7E1FF054640
:103F40004FEA55094FF4F06128480CF00EFE4FF08F
:103F500027084FF0000A0120FFF748FE1D48002601
:103F6000D0F804B01E480068047D45E0012000FA46
:103F700006F111EA090F3ED000250120A840384281
:103F800025D029463046FEF7BAFD1549DFF85CC05A
:103F900009683CF91430B1F83421991A3BF914300E
:103FA000A3EB020200D54942002A00DA52429142B4
:103FB00004DB0F492CF8143021F814003F2805D2F7
:103FC000401CC2B229463046FEF7AFFD641C6D1C92
:103FD000202D0FE0443E1000C0970120CC97012017
:103FE00028011000262E0120F6FF0100989F0120D5
:103FF00018A70120C1DB761C4645B7DBFDF75CFD49
:104000000AF1010ABAF1400FA5DB53484FF0010B4A
:1040100000250068067D012101FA05F010EA090F6C
:1040200016D000240120A04038420ED04B48214633
:1040300010F81600824602462846FEF776FDBAF1D1
:104040003F0F01D34FF0000B761C641C202CE9DBE2
:104050006D1C4545DFDBBBF1000F02D10320FEF7ED
:104060006FF9FDF729FD0120FFF7C0FDBDE8F05F06
:1040700014E72DE9F05F384A116891F83001C40760
:104080003748037803F0F00514D0057000264B7D07
:104090000C7DDFF8D0A05B1CB046914604FB03F713
:1040A00083460120FFF7A2FD2046DAF80420D9F864
:1040B00000100EE091F83E1101F00F01294301704C
:1040C000B5E600BF32F91030B1F832C16345F7DB15
:1040D000401C8742F6DC0F2E0AD2761CF6B245EA67
:1040E000060108F101088BF80010B8F1100FD8DBB9
:1040F000BDE8F05F0220FEF723B970B501244FF44C
:1041000004614FF4F8300CF052FDFDF7D5FCFFF7D9
:10411000B0FFFFF703FF104D44EA0064286890F8F1
:10412000E80128B1FFF771FEFFF797FD44EA00446C
:104130000B482A68401D017892F8FB2701F0F00136
:1041400002F00F02114301700748FEF741FD2046BF
:10415000BDE8704005F0DABB2801100018A7012067
:10416000F6FF0100443E1000202210002DE9F04F20
:104170000020FF4D04460246012140F6FF7BFD4B27
:10418000D5F814906E681B6801FA02F737421CD00C
:1041900039F914A0BAF1000F02DC40F0200013E05E
:1041A000DA4502DB40F010000EE0B3F836C1B3F898
:1041B0004171E6460CEB0708D04503DBAEEB070C7C
:1041C000D44501DD40F04000641C521C202ADBD3A2
:1041D0000024AF69AE68224601FA02F535421AD0D2
:1041E00037F91450002D02DC40F0200012E05D454C
:1041F00002DB40F010000DE0B3F83A81B3F84391D0
:1042000008EB090CAC4503DBA8EB090CAC4501DD60
:1042100040F04000641C521C202ADDD3BDE8F08F22
:1042200010B501461422D448FEF702FE8021BDE8F5
:1042300010400120FCF722B930B597B06846FEF770
:1042400027FECC48006890F80A07C00701D0062076
:1042500000E02020ADF8000000208DF836008DF839
:104260003500C348416849000A9180680B90BDF849
:104270000200AFF2530140F4A670BF4D0191ADF8BA
:10428000020003246846FDF7B6F915AB0022802131
:104290000120FCF732F980210120FCF71EF9287873
:1042A000002804D0FEF72CF8641E002CEADC17B0BE
:1042B00030BD2DE9F84F2121B0480CF078FCAF4813
:1042C000302121300CF051FCFDF7C1FCFDF760FC02
:1042D000042003254FF000084FF00109A44CDFF83B
:1042E00094A20090FFF7A8FFE8072BD04FF0000B37
:1042F0005F465E46616809FA06F008421AD040F649
:10430000AC013046FEF72DFC616931F91720DAF86F
:104310000010B1F845118A420BDA3F2809D2009902
:104320004FF0010B0844C1B240F6AC023046FEF734
:104330002DFC7F1C761C202EDCD3BBF1000F01D19D
:1043400025F00105A8072BD54FF0000B5F465E4610
:10435000A16809FA06F008421AD040F6CD013046AD
:10436000FEF7FFFBA16931F91720DAF80010B1F868
:1043700047118A420BDA3F2809D200994FF0010B0E
:104380000844C1B240F6CD023046FEF7FFFB7F1C69
:10439000761C202EDCD3BBF1000F01D125F00205E5
:1043A00045B1FDF754FCFDF7F3FB08F10108B8F146
:1043B000640F97DB03254FF0000800BFFFF73CFFB9
:1043C000E80729D04FF0000B5F465E46616809FAA6
:1043D00006F0084218D040F6AC013046FEF7C1FBAB
:1043E000616931F91720DAF80010B1F845118A42F5
:1043F00009DD40B1401EC1B24FF0010B40F6AC02E6
:104400003046FEF7C3FB7F1C761C202EDED3BBF1AB
:10441000000F01D125F00105A80729D54FF0000BA9
:104420005F465E46A16809FA06F0084218D040F6D9
:10443000CD013046FEF795FBA16931F91720DAF876
:104440000010B1F847118A4209DD40B1401EC1B2E7
:104450004FF0010B40F6CD023046FEF797FB7F1C74
:10446000761C202EDED3BBF1000F01D125F0020512
:10447000002D08D0FDF7EBFBFDF78AFB08F10108E2
:10448000B8F1640F9ADBBDE8F88F2DE9F0413C4D9F
:1044900000202121287039480CF089FB3748302151
:1044A00021300CF062FBFDF773FBFDF7D0FB304EC3
:1044B000002700BFFFF7C0FED6E9043200242046E3
:1044C00006E000BF32F91010A14200DD0C46401C8E
:1044D0009842F7DB0020F368B26905E032F910106A
:1044E000A14200DD0C46401C9842F7DB002C09DCA1
:1044F00028780F2803D8401C2870FDF7A8FB7F1CE4
:10450000202FD7DB40F6FE70844206DD2878401E5F
:104510002870BDE8F041FDF79ABBBDE8F0812DE9B8
:10452000F05F134C0020154FD4F804606C3F014637
:104530000346012202FA03F5354203D0FD5C8542B1
:1045400000D928465B1C202BF4D30C4DD4F808600E
:10455000403D002302FA03F7374203D0EF5C8F425D
:1045600000D939465B1C202BF4D3DFF8148009E016
:104570008801100028011000583E1000ACF801001E
:10458000F5FF010008F1040808F10109F94D88F868
:10459000000089F800102A68A8F1020AA8F1010BAE
:1045A00092F80A37DE077CD09B077FD502F259725A
:1045B0001479D37804F03F0403EB042495795379FC
:1045C00005F03F0503EB0525167BD37A06F03F0681
:1045D00003EB0626977B537B127807F03F0703EB2C
:1045E000072752060BD5631900EB43009AF8002009
:1045F000F31910449BF8002001EB43010CE0621911
:10460000520002EB40029AF800001044F2195200E6
:1046100002EB41029BF800101144FEF7E2F8D54985
:10462000096801F20B72B1F80B37834201D2A1F88D
:104630000B0791F80A07400736D591F8590740064D
:1046400017D5600040426B4291F80B1700EB430016
:1046500001449AF80000081A88F8000070004042EF
:10466000794200EB4100117801449BF80000081AE0
:1046700039E09AF8000063191844B1F80B1740426A
:1046800001EB4000C0F3470188F800109BF80000E0
:10469000F11908441188404201EB4000C0F3470182
:1046A00000E003E089F80010BDE8F09FB24D9AF8F1
:1046B00000209BF800302D6802440B44FF2645F093
:1046C00080059A4209D2991A0844FF2802D888F82E
:1046D0000000E9E788F800600AE09342E4D2D01ACB
:1046E0000844FF2802D889F80000DDE789F8006057
:1046F0002560D9E72DE9F0410020A04C9E4B9D4A52
:10470000012105465F6801FA00F63E4209D01768AC
:10471000265C97F84A71BE4202D9F61B265400E087
:104720002554401C2028EDD3944C2C345FF000001D
:104730009F6801FA00F63E4209D01768265C97F898
:104740004A71BE4202D9F61B265400E02554401C93
:104750002028EDD3FFF7E3FEBDE8F041FDF752BAA4
:104760002DE9F84F8548854D06462C352C210CF057
:104770001EFA402128460CF01AFAFFF7D0FEFDF78A
:1047800066FAFDF73FFA0420032400274FF00109E1
:10479000DFF8E4A1DFF8DCB1CDF80000FFF74CFD55
:1047A000E00728D04FF0000C624660464FEA0A034B
:1047B00009FA00F1D3F8048011EA080F13D05969FF
:1047C00031F91280DBF80010B1F83811884509DAA8
:1047D000315CDDF800804FF0010C4144FF2900DD21
:1047E000FF213154521C401C2028E1D3BCF1000FA2
:1047F00001D124F00104A00727D54FF0000C624638
:104800006046534609FA00F1D3F8088011EA080F10
:1048100013D0996931F91280DBF80010B1F83C111E
:10482000884509DA295CDDF800804FF0010C41442D
:10483000FF2900DDFF212954521C401C2028E1D310
:10484000BCF1000F01D124F0020444B1FFF767FE70
:10485000FDF7FDF9FDF7D6F97F1C642F9EDB0324DD
:104860005FF00007FFF7E8FCE00724D04FF0000EF0
:10487000714670465246DC46D2F8048009FA00F3CD
:1048800013EA080F0FD05369DCF8008033F91130B8
:10489000B8F83881434505DD335C1BB15B1E4FF032
:1048A000010E3354491C401C2028E5D3BEF1000FF3
:1048B00001D124F00104A00725D54FF0000E714668
:1048C000704652464FEA0B0CD2F8088009FA00F302
:1048D00013EA080F0FD09369DCF8008033F9113028
:1048E000B8F83C81434505DD2B5C1BB15B1E4FF0E6
:1048F000010E2B54491C401C2028E5D3BEF1000FAB
:1049000001D124F00204002C08D0FFF708FEFDF7C7
:104910009EF9FDF777F97F1C642FA3DBB3E51549FA
:1049200030B409680020034691F8302192070BD576
:10493000134A91F8494101201578A54203D9A5EB06
:104940000404147000E0137091F8302152070CD564
:104950000B4A91F84911521C40F0020014788C4225
:1049600002D9611A117000E0137000280AD030BC1F
:10497000D5E50000280110008801100040F8010072
:10498000F7FF010030BC70472DE9F0478349002450
:10499000834D0868274690F83021920702D50124FC
:1049A0002F7002E090F83F212A70894690F830116C
:1049B0007C4E490703D544F00204377002E090F8BA
:1049C00040013070002C75D02C2177480CF0EFF8A6
:1049D000754840212C300CF0EAF871482121801EE6
:1049E000077071486C300CF0E2F86F4830218D3060
:1049F0000CF0BBF86B49FF20891C0870491E087039
:104A0000FDF700F9FDF7C4F8FDF721F9DFF89C8107
:104A10004FF0100A002700BFFFF70EFCE00723D07D
:104A2000D8E9043C0020014606E000BF3CF9112013
:104A3000824200DD1046491C9942F7DBD9F800108C
:104A4000B1F83621824202DA2878401E08E0B1F837
:104A50004B11814206DB28785044FF2800DDFF20FF
:104A6000287001E024F00104A00726D500200146AB
:104A7000D8F80CC0D8F8183006E000BF33F9112080
:104A8000824200DD1046491C6145F7DBD9F8001071
:104A9000B1F83A21824202DA3078401E08E0B1F8DB
:104AA0004B11814207DB30785044FF2800DDFF20A6
:104AB000307002E00AE024F00204002C06D0FFF778
:104AC0002EFDFDF7C4F87F1C202FA5DBBDE8F08785
:104AD00070B5364C00202060FDF750FF6060FDF798
:104AE00079FFA0606068042140086060201DFDF728
:104AF00061FE2061042104F10800FDF75BFEE06027
:104B0000FFF79AFB2A4E2169B06800EB410262610F
:104B1000E26802EB410100EB4100A061FFF734FFC6
:104B2000FFF7FDFE1D4D286890F83001800603D583
:104B3000FFF716FEFFF7DEFD286890F8300100074A
:104B400001D5FFF7A2FC286890F83001C00601D516
:104B5000FFF7AFFBFDF77BF8FFF76EFBB06821694D
:104B600000EB41026261E26802EB410100EB4100AF
:104B7000A061FFF7FBFA216801430A4821602A6817
:104B8000C01C037892F8FB2763F303020270BDE8B0
:104B9000704041F0020004F0B9BE0000280110008E
:104BA000F7FF0100F8FF010040F801008801100044
:104BB000583E100010B5014614229348FEF738F90C
:104BC0008021BDE810400120FBF758BCF0B58F4DA7
:104BD00006460C4628684FF0FF3197B090F8B100B8
:104BE00000F00F00401C8140CF436846FEF750F9AB
:104BF0000120ADF80000ADF80240286810F8F91F58
:104C00008DF8131044F00501ADF802100297ADF8CD
:104C10001660AFF25F01019141788DF81410807831
:104C2000794D8DF81A0003246846FCF7E4FC15ABB7
:104C3000002280210120FBF760FC80210120FBF78E
:104C40004CFC2878002804D0FDF75AFB641E002C89
:104C5000EADC17B0F0BD2DE9F0476C4D4FF00009CC
:104C6000DFF8A481286800F57070047846788778AA
:104C70001AE049462046FFF7A9FFD8F8040008F0DB
:104C800081F90146286890F8F82012F00F0000D151
:104C9000012012094A43B2FBF0F082B221463020D3
:104CA00004F077FEE01984B2B442E2DDBDE8F0879B
:104CB0002DE9FF5F4FF6FF764FF0000A93460F464F
:104CC000804634465546DFF844911BE038F815001D
:104CD0005146FFF77BFF4C48406808F053F9D9F87C
:104CE000001091F8F82012F00F0100D101211209F3
:104CF0004243B2FBF1F080B2A04202D238F8156014
:104D000004466D1CBD42E1DBABF8006003980480F3
:104D1000BDE8FF9F2DE9F0413C4E054688463068CE
:104D200088B090F8D12002F00F01C2F30214491CA0
:104D3000641C0A2900DD0A21022C00DD0224D23085
:104D400006AB05AAFFF7B4FF326892F8D0008007DF
:104D50001BD5BDF814600121E632ADF800600020DB
:104D60004FF4803C6F4607E013563344634502D24C
:104D700027F81130491C401CA042F5DB002904DD56
:104D800006AB05AA3846FFF793FFBDF8140028804C
:104D9000BDF81810A8F8001008B0BDE8F0817CB587
:104DA0000020FBF74AFC1A4C01A968466588FFF70A
:104DB000B1FF164E3068B0F8E810BDF8040081422B
:104DC00001D9218000E02080BDF800006080002033
:104DD000FBF74EFCBDF80000854207D0306890F824
:104DE000D000400702D56088FEF71DFD094901206B
:104DF00008700949087009490870BDF80020294663
:104E0000092004F0A9FD7CBD6C3E100028011000B3
:104E1000342310003E011000670110007A011000D9
:104E20002DE9F0410178CE4C01B1217001461422E8
:104E3000CC48FDF7FDFFCC48016891F8C527D307A2
:104E4000C84A01D0136900E093684A7D6168C74D84
:104E50004A43002106E000BF33F811605718491C8F
:104E600025F817600668767D8E42F5DC6268521C74
:104E700062600168497D01FB02F6002207E08F189D
:104E800006EB020C33F8177025F81C70521C0768EB
:104E90007F7D9742F3DC61680123491C61600068F3
:104EA00090F8B12003EB121291421DDA90F80A2714
:104EB000D20713D090F8BA0389B200F00F00B1FB0B
:104EC000F0F200FB1211A74854380029418802D0A3
:104ED00041F0020101E021F002014180BDE8F04112
:104EE000A0485438FCF787BBBDE8F0418021012081
:104EF000FBF7C4BA2DE9FF4FDFF868B24FF6FF7435
:104F0000002581B08A46A046ABF1540BA946944EC9
:104F10005CE094485438FDF7BBFF934A116891F860
:104F2000C507C00701D0102300E00223ABF8003012
:104F3000019830F81530ABF83030BBF8023043F050
:104F40000403ABF80230AFF2271301F2C931CBF8FA
:104F500004300A788BF83420CA788BF836204A78E7
:104F60008BF8392089788BF83A100327C6F804901B
:104F70007C4886F800905438FCF73DFB6B460022D5
:104F800080210120FBF7B9FA80210120FBF7A5FA67
:104F9000307820B1FDF7B4F97F1E002FE8DC7348AC
:104FA00002F021FE7049096891F8C82312F00F0140
:104FB00000D101211209424390B2B0FBF1F0A042AE
:104FC00003D20199044631F815806D1C5545A0DBCC
:104FD0000399A1F800800498048005B0BDE8F08F23
:104FE0002DE9F041604D0646884628688CB000F2F5
:104FF000823C00F2963790F8810300F00F01C0F375
:105000000214491C641C0A2900DD0A21022C00DD5F
:1050100002240AAB09AA6046FFF76CFF286890F8E3
:10502000800380071AD5BDF824300121ADF8003087
:1050300000204FF4803C6D4607E03A561A44624522
:1050400002D225F81120491C401CA042F5DB0129A1
:1050500004DD0AAB09AA2846FFF74CFFBDF824007F
:105060003080BDF82810A8F800100CB0BDE8F08121
:105070007CB50020FBF7E1FA3D4C01A96846E588C4
:10508000FFF7AEFF38480168BDF80400B1F8AC2363
:10509000824201D9A28000E0A080BDF80000E0803B
:1050A0002081854205D091F88013490701D5FEF78C
:1050B0000CFC3049012008702F4908700020FBF7D4
:1050C000D7FABDF8002029460A2004F045FC7CBD33
:1050D0002DE9F843244DDFF88C802868A8F15408A6
:1050E00000F2C33004884688077934E01D485438FC
:1050F000FDF7CEFE286890F8C507C00701D0102143
:1051000000E00221A8F80010A8F83040B8F802101A
:1051100041F00401A8F80210AFF2FB21C8F8041016
:105120000F49002048600F485438FCF764FA6B467A
:10513000002280210120FBF7E0F980210120FBF70C
:10514000CCF90A4802F04FFD02462146312004F016
:1051500020FCE01984B2B442C8DDBDE8F883000049
:10516000A4011000D43E100028011000C48F0120BB
:10517000342310003E011000670110002DE9F041BA
:10518000174604460D46002609E0E00703D03146E5
:10519000384604F019FB761C6D084FEA340454EAD3
:1051A0000500F2D1BDE8F08130B5034600204FF094
:1051B000FF32012505FA00F40C4202D0521C9A423B
:1051C00003D0401C2028F5D3002030BDF0B50E469A
:1051D000F94C07460125D4E9151005FA06F20F2F00
:1051E00065D2DFE807F064434B0810646419212995
:1051F000323A54585C003046FFF7D6FF8540A06A2B
:105200000543A56253E001463046FFF7CDFF8540D8
:10521000206C054325644AE03046FFF7C5FF854012
:10522000E06A0543E56242E03046FFF7BDFF854096
:10523000206B054325633AE001463046FFF7B4FF93
:105240008540A06C0543A56431E03046FFF7ACFF14
:105250008540606B0543656329E001463046FFF7F2
:10526000A3FF8540E06C0543E56420E03046FFF78E
:105270009BFF8540606A0543656218E00146304641
:10528000FFF792FF8540E06B0543E5630FE0A06BFD
:105290000243A2630BE0206D0243226507E0014652
:1052A0003046FFF781FF8540606C054365642068E8
:1052B000401C2060F0BD10B501461422BF48FDF728
:1052C000B7FD8021BDE810400120FBF7D7B810B52D
:1052D000FDF747FB0446FDF7CFFB204310BD10B59B
:1052E000FDF731FB4408FDF7A5FB44EA5000400000
:1052F00010BD2DE9F047894605464FF0FF34FFF712
:10530000E6FFAD4F024600207B6801464FF0010CDE
:105310000CFA01F6164200D0641CAC4206D1B9F179
:10532000010F09D022EA06000B462021491C202942
:10533000EED37B60BDE8F0873046F5E72DE9F04716
:10534000894605464FF0FF34FFF7C9FF9A4F0246E2
:105350000020D7F8043001464FF0010C0CFA01F69A
:10536000164200D0641CAC4206D1B9F1010F08D03E
:1053700022EA06000B461E21491C1E29EED97B603D
:10538000D8E73046F6E72DE9F34F9BB00446684670
:10539000FDF77EFD15A8FCF77CFEFFF7A0FF864E0B
:1053A00040087065FFF793FF854D4FF00C084FF0F4
:1053B0001F094FF0400A4FF0950BB065012C0DD03E
:1053C0002027022C23D0032C27D0042C2AD0052CF4
:1053D00031D0062C4FD0082C65D073E0FDF780FB50
:1053E0000290FDF783FB03900120ADF800008DF8DB
:1053F0001AB03C20ADF818000298ADF816808DF870
:1054000014908DF813A040087065039859E0FFF7D9
:1054100066FF0A90FFF75BFF14E0FFF758FF0121DA
:105420000B9003E0FFF753FF00210B901C98FFF750
:1054300085FF0A9007E0FFF752FF0A9001211C98B0
:10544000FFF757FF0B90ADF80070286800F55A7011
:1054500081788DF83410C1788DF8391001788DF885
:105460003A1041788DF83B108188ADF830100089F2
:10547000ADF8320026E0FFF732FF0A90FFF727FF72
:105480000B90ADF80070286800F2613081788DF8DB
:105490003410C1788DF8391001788DF83A104078C1
:1054A0008DF83B000EE00820ADF80000ADF8168046
:1054B0008DF814908DF813A08DF81AB008987065C7
:1054C0000998B0650020BDF802108DF8360021F073
:1054D00030018DF8100041F04A018DF835008DF84B
:1054E0001200ADF80210AFF2312103260191012C18
:1054F00013D0092C24D00A2C22D000BF8DF85E00D6
:105500008DF860008DF85F00022C10D0032C0ED0B7
:10551000042C0CD0052C0AD012E0296891F84D1704
:105520008DF8580041F003018DF85410E6E7286823
:10553000B0F86E13ADF85A10B0F87203ADF85C0015
:1055400015A8FCF7C7FD1D4C6846FCF754F819ABCD
:10555000002280210120FAF7D0FF80210120FAF7F4
:10556000BCFF2078002804D0FCF7CAFE761E002E6F
:10557000EADC1DB0BDE8F08F2DE9FC5F00210120C1
:10558000FFF701FF0D484768FDF7AAFA0190FDF704
:10559000ADFA0090042101A8FDF70CF9064604219C
:1055A0006846FDF707F9844600200546DFF808B095
:1055B000DFF80CA0009059E0AC011000E83E1000AC
:1055C000280110004FF00008C1465C462846DBF871
:1055D0005810FFF7E9FD014601208840A16C084200
:1055E00043D1012432E000BF04FB0C51DAF8000083
:1055F00037F9112090F86703B2EB001F25DA08F1A4
:105600000108B9F1000F00D1A146721E94421CD1CD
:10561000B8F1010F19D1ACF10102954204D1611E1C
:105620000120FFF7D3FD0EE007EB4101B1F90220A5
:10563000B2EB001F05DB35B131F9021CB1EB001FE5
:1056400001DA002000E002208046641CB442CBDB7B
:10565000A6EB0901414508D829460220FFF7B6FD0F
:1056600001200099A840084300906D1C6545A9DB06
:1056700001253AE04FF0000844462CE0DBF84030CA
:10568000DBF8482000201A4311D0D9462046DBF829
:105690005810FFF789FD014601208840D9F84810CD
:1056A000084203D1D9F84010084000D0012005FB82
:1056B0000C4137F91120DAF8001091F86713B2EBBA
:1056C000011F07DA30B901200099A040084201D13A
:1056D00008F10108641C6445D0DBB8F1000F03D069
:1056E000691E0120FFF772FD6D1CB542C2DBBDE8EB
:1056F000FC9F2DE9F041FF4C00200546FE4FDFF8EE
:10570000FC83A0611EE029460520FFF73CFE2169CD
:105710000120BE6800EB410C36F91C10D8F80000DF
:1057200090F87703B1EB001F03D929460E20FFF74D
:105730004DFD36F91C00A169884202DD36F91C00D6
:10574000A0616D1C60698542DDD32BE52DE9F04732
:105750000026374631460820FFF715FEE648E74D9C
:105760000021D0F80CC02868012400F5F57990F8E4
:10577000E82100BF04FA01F31A4208D03CF91130C5
:1057800090F87D83B3EB081F00DA761C7F1C491C60
:105790000629EFDBBE420BD190F8E611C90790F85D
:1057A000E91101D00D2000E00C20BDE8F0470DE527
:1057B000002E1CD00026286804FA06F290F8E811A2
:1057C000114211D03CF9161090F87D23B1EB021F65
:1057D0000ADA90F8E60119F80610C00701D00C208B
:1057E00000E00D20FFF7F2FC761C062EE3DBA1E5BE
:1057F0002DE9F04100210620FFF7C5FDBE48002538
:10580000BE4EBC4C87680EE0E0683168284437F92A
:10581000100091F86513B0EB011F03DD29460A2043
:10582000FFF7D4FC6D1C20698542EDDB00250EE0FE
:10583000A0683168284437F9100091F86613B0EB7E
:10584000011F03DD29460B20FFF7C0FC6D1C6069BA
:105850008542EDDBA6E42DE9F041A64C002006468A
:10586000206237E031460420FFF78DFDA248002575
:1058700087682BE0FFF72BFD01462846FFF794FCD5
:10588000014601208840216C08421ED19B49A06836
:105890002844096807EB400030F9040C91F87813AC
:1058A000B0EB011F07D931460820FFF78FFC2946CE
:1058B0000920FFF78BFCA068216A284407EB400011
:1058C00030F9040C884200DD20626D1C606985425D
:1058D000D0D3761C20698642C4D363E42DE9F0411D
:1058E000844C00200546844FDFF81082E0611AE006
:1058F00029460320FFF747FDBE68B6F90210D8F825
:10590000000090F87603B1EB001F03D92946072069
:10591000FFF75CFCB6F90200E169884202DDB6F9E6
:105920000200E0616D1C20698542E1D33AE42DE973
:10593000F04100210220FFF726FD6F486F4D6D4CAE
:105940008768286890F86003000713D500260EE0EA
:10595000E0682968304437F9100091F87413B0EB0F
:10596000011F03D931460320FFF730FC761C206964
:105970008642EDDB286890F86003C00613D5002648
:105980000EE0A0682968304437F9100091F87513CB
:10599000B0EB011F03D931460420FFF717FC761C3A
:1059A00060698642EDDBD0E62DE9FC410020FAF784
:1059B00044FE4FF4F83040F6FD010BF0D6F8FCF74A
:1059C00046F9FCF71FF9FCF777F84A4C00202060F5
:1059D000FFF785FC0090FFF77AFC019004216846F0
:1059E000FCF7E8FE0546042101A8FCF7E3FE0146AA
:1059F00000EB4500C4E90205C4E904513F4D2868A5
:105A000090F86003010701D4C00601D5FFF78FFFAE
:105A1000286890F86003800601D5FFF75FFF2868CB
:105A200090F86003000601D5FFF715FF286890F88D
:105A30006003C00701D0FFF7DBFE286890F8601311
:105A4000490704D590F8E80108B1FFF77FFE286800
:105A500090F86003400601D5FFF74BFE286890F8E8
:105A60006003800701D5FFF787FD2068002862D01A
:105A7000D4E90A359D43E562606AD4E90F1798437B
:105A8000A8436062666CB943B143E163A26B216DC8
:105A90009A43AA43256BB943AA43A263A26CB143BC
:105AA0009143AB43A362216501220021FFF766FB0E
:105AB00002220021E06BFFF761FB03220021A06AB4
:105AC000FFF75CFB04220021206CFFF757FB072245
:105AD0000021E06AFFF752FB08220021206BFFF74C
