:1000000000060020F10000007100000073000000F5
:1000100000000000000000000000000000000000E0
:10002000000000000000000000000000750000005B
:100030000000000000000000770000000000000049
:10004000850400008B040000910400009704000068
:100050009D040000A3040000A9040000AF040000F8
:10006000B5040000BB040000C1040000C704000088
:10007000FEE7FEE7FEE7FEE7FEE70000A3480021FB
:1000800001724172704710B5A04B72B61A7A5C7A51
:10009000511C0907090F8C4201D1012006E09B4C3D
:1000A0009200403C121990601972002062B610BD97
:1000B000964E403E34464034217A607A814201D1E6
:1000C00030BFF9E7810089198D68002D0BD0401CE5
:1000D0000007000F6072A8470028EDD02846FFF700
:1000E000D2FF0028E8D0FFF7C9FFE5E700207047FE
:1000F00008B5884986480860874905200882062097
:10010000888086485A2101808115818009210181DA
:1001100083498181082181835821018202258582BA
:100120003B21090201837F49082088808D807D481A
:100130000021403881807C490180532109020182DD
:100140007A480088E9010843784908807849922074
:10015000088020200880764A2032138A0C24A3438A
:1001600008332B4313820126968200220A807149AC
:100170008881704A8021203A918190836D4908805E
:100180006D4881B26D4800F019F96E4830226C4913
:10019000009000F00CF96C48068081210180142148
:1001A00081800F210181212202806848068003227C
:1001B0000280664A2032158141220283644A82808D
:1001C000028182810282634FB4223A804F4A3C32DC
:1001D0003A810724BC805F4A203A158111220280AF
:1001E00030465D4E30806802B08031803581318389
:1001F0000420B08241205949C00008604549803937
:100200000860574D00F04AFA0006000E6873F9D0F6
:1002100081203080002131804B4804814D482038B6
:1002200002899207FCD50C463980022101810922FE
:100230000121002000F0A6F84003010C0098C187BE
:1002400048480121018081220280464E95232036B4
:100250003380FF23838203231B02038284803F4E6B
:10026000212030602B4F803F386028486B7B40381E
:10027000012B1CD0022B1CD03B4A42602C4A60321E
:10028000938A374840380370138A4370128B827008
:10029000C17018223549001D00F089F8FFF7EEFE05
:1002A00000F093F8324830603860FFF701FF314AC0
:1002B000E3E7314B43601D482038018002802F4A1C
:1002C000828005220281532282814D2202800022F7
:1002D000D24302828482D1E70C4800B540380168DD
:1002E000491C01604068FFF7CEFE16484038007890
:1002F000400708D505482030817DC07D814202D06D
:100300001F48FFF7C0FE002000BD00004001002094
:10031000FF0F000080E100E0005C00400030004082
:10032000051D000040340040012A00002038004034
:1003300000580040206C00405802002000000020BF
:10034000C8130000C0000020003C004000440040F2
:1003500039390000206000400050004080E200E099
:100360004000002000640040ED000000F813000091
:1003700042080000FB0E0000E30B0000ED0200004D
:100380001B04000070B50023194D0AE044006419F5
:100390004034A48F260B964207D12405240DE31880
:1003A00040180828F2D3184670BD124870BD821854
:1003B00001E008C908C09042FBD3704741180022F1
:1003C00000E004C08842FCD370470B480121018043
:1003D000094A05214032118000220282064920315B
:1003E0000A82064A8A8113220A8007210181704706
:1003F00000010020FFFF000000540040E703000060
:100400001C498A7D0B469200603BD218D064887DDF
:10041000401C4007400F8875704730B516488188EA
:10042000890625D4154980220A800A82114AD47D82
:100430001546A300603D5B194C330B8304238B826C
:1004400001230B818D881D438D80641C6107490F3A
:10045000D1750521517558218183FF218182084979
:100460000182302181800F210180818819438180A0
:10047000002030BD600100200064004000600040AA
:10048000C60300007A48006C00477948406C00477A
:100490007748806C00477648C06C00477448006D10
:1004A00000477348406D00477148806D00477048B1
:1004B000C06D00476E48006E00476D48406E0047B3
:1004C0006B48806E00476A48C06E0047F8B56948BF
:1004D000028981880A400281D1070027022300296E
:1004E00015D0818849084900818007820780624DC4
:1004F0006C7D6249052C07D08E88042426438E80AB
:100500000E8AA6430E826C758C881C438C809107E2
:100510000AD5818899438180564820300780564803
:100520006038806FFFF7AFFDF8BDF0B55348828AA1
:10053000018A0A40FF218182C62114460C404E499F
:10054000702360395B5ACD6E02266031002C22D0B8
:10055000C42422400024002A05D0828832438280AD
:1005600006224A7507E04A7D042A03D1027BEB1874
:10057000203BDA774C7501210180032109020182B9
:10058000FC21818384803B4804800482818849085F
:1005900049008180F0BD384CD707203C648E002F85
:1005A00003D0220A02734E75F0BDD206FCD54A7DF7
:1005B000022A12D021218180FF21C33101822D48DE
:1005C000802101809021018205839B1E838201216D
:1005D000018182880A438280F0BD0473032048753C
:1005E000F0BD10B5264C2089800702D52548FFF7BD
:1005F0004AFD0720208110BD23490F200883704742
:1006000010B522498B891C488030027A044652007A
:10061000E03C1219C0329380027A521C1207120F6A
:1006200002720F20088310BD19488188C90701D0C4
:1006300010218180704717498888000717D588885E
:100640000822104388800020888012494039888021
:10065000114981220A800880074940310872C87216
:10066000C87308466038817AC17207218172704769
:100670008000002000600040600100200064004015
:1006800000540040D9020000004C004000500040DF
:1006900040300040403400400038004010B5234C4A
:1006A0002088400601D5032010BD214A117A507AD6
:1006B000814239D041001346E03BC918401CC0318B
:1006C00000078988000F507210462038828D521C16
:1006D00092B28285022A04D0042A11D88184C1846E
:1006E00022E02089134A401C504300F00BFB80B2EB
:1006F0001149BE28888711D8C008401E208113E008
:10070000838C8B4201D2818403E0C38C8B4200D95D
:10071000C184818CC08C081A0A2801DD022010BD1A
:10072000282A01D9012010BD002010BD003C004046
:10073000E001002070170000C00000200822012105
:1007400001E009184008521EFBD2C807C00F7047CD
:10075000F0B5624C0027204626468C3080363D4658
:100760008446A034607A00280ED1A07A317B88427A
:1007700006D20121B940401C0D43A072BF1C34E0D9
:100780000020A07201206072C1B2207A814218D28A
:10079000A07A002819D0092806D26246895C401E3A
:1007A000C140C807C00F10E0092805D0FF22012072
:1007B000A272491C617208E06046085CFFF7BEFF48
:1007C00003E0607D01214840A175617D0122514017
:1007D0004840607540000843B8400543A07ABF1CFC
:1007E000401CA072A07D012801D0102FBAD37F1E1B
:1007F00027757586F0BD0246002002E01378584048
:10080000521C491EFAD2704730B505463448922131
:1008100001802021018032482030018A302211439A
:1008200001822E48691C8D30FFF7E5FF2B492B4CC8
:10083000491980318873A034ED1C2572207BE07249
:1008400000206072A07260750220A075FFF780FF23
:1008500024480122028005218180234802808122D0
:100860000280224A82800181891F81816D2101805D
:1008700021462039498E0182217D8182FFF768FF60
:1008800030BD10B5184C302222831948407B022815
:1008900010D012480021A030837D002B10D00246DA
:1008A000203A528E2282027DA282012B06D0FFF7CF
:1008B0004FFF10BD00F01EF8A08010BD817510BD67
:1008C00021800172807B042804D205482030038AED
:1008D000934303820248018010BD00000001002004
:1008E00000580040003C004000380040DB0500009C
:1008F0004000002010B5134913484A7A0B2A09D347
:10090000104A1249A03A116011490A8810239A43EB
:100910000A8010BD8B7A5B1CDCB20E4B8C72012CF2
:1009200009D00A2C09D207491439515C0122A41EAE
:10093000A2401142EDD1184610BD00238B72521C0B
:100940004A7210BDA0010020DF2E0000EC0F000055
:1009500000380040E9030000D44900200880D54851
:10096000D34A8280D44B03818281D44A0282B4224A
:100970000A80D34A0A8107228A80CC490222203980
:100980000A818B8813438B8011210180704770B5D9
:10099000CB483C38807A032855D1CA4C00222078B5
:1009A000C94BC007002825D1C5491625C4319888F0
:1009B0004D5F401900D50020898A4143C815C049C0
:1009C0002431072801DD072001E0002804D08D7BB9
:1009D000854203DA401E03E08A7305E0854201DDAB
:1009E000887301E007281DD0887BB8498000401833
:1009F00040882086B348258E2030447D1B882E1BDE
:100A0000B3499E4215DD1823C356002B17DB0A118C
:100A1000002B09D0462B0ADD5922D24302763C2214
:100A200042760CE00620DBE7417E491C0176114648
:100A300005E02C199C42027601D2A6494276A64ACC
:100A40009180807D908170BD10B5022211460020FA
:100A5000FFF798FC80039C4C000C208001220421AD
:100A60001046FFF78FFCC003000CA0800422082171
:100A70000320FFF787FCE080032208210720FFF70F
:100A800081FC214640398887FFF766FFFFF77FFF2B
:100A9000002010BD10B58C4C0B2120880907401890
:100AA000FFF7AEFCA088052149074018FFF7A8FC16
:100AB00020464038808F0D2109074018FFF7A0FC21
:100AC00010BD70B58548407BAA2829D07F4A0C3AD2
:100AD000834B0120188000211981794C08467C3C09
:100AE0002618155C80363573155C1D711D886D06E2
:100AF000FCD4401C0928F3D31889714A030A121D3B
:100B00005375907510462030417281727248704959
:100B1000818030210183018810221143018070BD42
:100B20006E4A0C32D4E7F0B56E4885B0808A6649CB
:100B30001822403908706549634824392438FFF782
:100B400036FC62485F492C3802680A6340685C4D95
:100B5000486365487C3DA8676448018A0722120300
:100B6000914382148918018200247D27FF01A60089
:100B7000F219118A002905D07019FF304130018126
:100B8000518A21E018206043C0190390408C00284E
:100B900020D00399498E00291CD0411A544800F0F6
:100BA000C7F881B27019FF304130009001811920DF
:100BB000C00400F0A7F8064603984E49408E000393
:100BC00000F0A0F8311A0098641C4181042CCED3A7
:100BD00005B0F0BD7019FF3047494130018128212F
:100BE000F2E7F8B5364D01263C3D2C46403CAF7A45
:100BF0002146A031344A487B3B0000F0D7FB040378
:100C0000111A4154820704D4022210434873FFF79B
:100C10008AFF20681E2846D9FFF753FFAE7242E0D4
:100C200001212068090388423DD9FFF795FE022083
:100C300012E0430712D5FB22104048732B488680F0
:100C40002E48828920239A438281828904231A4371
:100C50008281002088730320A87224E0194B128837
:100C60001B8E9A4207D3264A938B334393830522E4
:100C70001043487317E0114817492538888012E05F
:100C80001048182120304156002901D0491C017616
:100C9000C17D491CC9B2C175FA2904D30021C175AF
:100CA0009088FFF7F7FE0020F8BD000020600040AC
:100CB0001211000000440040120400001203000062
:100CC0007C01002080000020400000203C14000037
:100CD000DF2E00006F17000000380040E03F0000EA
:100CE0000070004060580040490A00000034004095
:100CF000009E33013408000048830000206C00404F
:100D00000030004030B50B4601460020202201246F
:100D100009E00D46D5409D4205D31D469540491B2F
:100D20002546954040191546521E002DF1DC30BD78
:100D300070B500242546002801DA0124404200292C
:100D400001DA01254942FFF7DDFFAC4200D0404205
:100D5000002C00D0494270BD1E49002008801F4869
:100D60001D4A82801E4B038182811E4A0282B42268
:100D70000A801D4A0A8107228A80164902222039E8
:100D80000A818B8813438B8011210180704710B535
:100D9000022211460020FFF7F5FA8003134C000CE5
:100DA0002080012204211046FFF7ECFAC003000C5A
:100DB000A080042208210320FFF7E4FAE080032248
:100DC00008210720FFF7DEFA2146403988870020F6
:100DD00010BD00002060004032310000004400409F
:100DE00032040000321300007C010020400000208B
:100DF000F0B56D48018800250F076C490824CA7BAF
:100E00001346521CD6B2684A4032002F15DA938836
:100E10001B0701D5948032E0CE730A2E15D3CD7313
:100E200001887F221201914301800188A143018042
:100E300001880122520211431DE097883F071CD50B
:100E400094800B2B02D20B20C873F0BDCE730C2EF6
:100E5000FBD9CD7301887F221201114301805449CF
:100E600001835149012220318A828A80FF220A832C
:100E70000A81018821430180F0BD0A2B01D3CD7383
:100E8000F0BDCE730A2EFBD348496039CB7A8B7202
:100E900040390B688031CB638B630188F023994321
:100EA00001800121818002209080F0BD3F4800B583
:100EB00040492038C1604121490201610520FFF706
:100EC000A3FC00BD394800B53B492038C1603B490F
:100ED0000161042101750720FFF796FC00BD33482E
:100EE00000B5FF210D312038818135490988090974
:100EF00081730120FFF788FC00BDF8B53148808878
:100F0000314F800703D43148B867FFF725FF274DDD
:100F1000287A002845D1E87A00280ED0401E000625
:100F2000000EE8723DD0297B491E884239D100214C
:100F3000284620300186818533E0234C4034A07A56
:100F400026464036030000F031FA08050E12161A44
:100F500024272A2C3868262823D3082028733220F7
:100F60003064012013E0FFF7BAFF02200FE0FFF723
:100F7000A9FF03200BE0FFF799FF042007E000F032
:100F800027F83868F063B0631E2028730520A0722C
:100F900007E000F0ABF904E000F07CF801E0FFF7B7
:100FA00027FF0020F8BD000000340040A001002011
:100FB000ABF000000C510A000C711000420102035A
:100FC0004000002000600040000100208F0D000064
:100FD000F0B5E64885B0808AE54C1822207020469E
:100FE000E4491C30FFF7E3F9E3487D22C18F204636
:100FF000D2002030914201D20F2100E037218177C9
:10100000F8212187FF21C176D9480C214030817217
:10101000D949DA48403900247D27D94D0886FF0197
:10102000A600F1190A8A002A05D07019FF30413054
:101030000281498A21E0204618214843C0190390C3
:10104000418C00291FD0408E00281CD0091ACD48A1
:10105000FFF76EFE81B27019FF30413000900181C0
:101060001920C004FFF74EFE06460398C649408E7D
:101070000003FFF747FE311A0098641C4181042CDD
:10108000CED305B0F0BD7019FF30C04941300181A9
:101090002821F2E700B5BA4801688030826B036C02
:1010A0008A1A9A420ADB8163832189008181014681
:1010B0002031097C81730120FFF7A6FB00BDF8B544
:1010C000AB4E0B214036308809074018FFF798F9DE
:1010D000B088052149074018FFF792F9A4480D216F
:1010E000808F09074018FFF78BF9A54CA034617B6E
:1010F0002546C807203D00286FD02146A031162282
:10110000B0888A5E801800D50020898A41430F1478
:101110000321384689070843FFF772F9964840389B
:101120000078C0077DD1C82F01DA01200BE0FF2035
:10113000C330874201DA022005E09548874201DA90
:10114000032000E0052093490A8A07231B039A43E2
:10115000000302430A82864820300090C82F04DA38
:101160008888800701D5012007E0FF2019308742D9
:1011700005DD8888800702D40320888049E0864AFC
:10118000F8119315072801DD072001E0002805D09C
:10119000A77B874205DA471EA77308E00020A073EB
:1011A0001CE0874201DDA07301E0072804D000287D
:1011B00014D001281BD001E00620A07310889843AA
:1011C00010807648038B4214934303830098807FFA
:1011D00037280FD0674818300EE043E010881843D6
:1011E00010806E48028B43141A430283EEE7108886
:1011F0001843E5E75F4834300A88F0239A43A37B1D
:101200009B00C75A3A430A80181842885A48403807
:101210000286A07B072252078988801809010843AB
:1012200000E012E0FFF7ECF80098807F81005B4857
:101230001C310182018B1F2212029143B27A1207E4
:10124000D20CFF320132114301834B484038018EEA
:101250003088081AC001FFF76BFD40B2411D0A2912
:1012600013D814E0454B328837203A339A420CD9D0
:101270004A48828B01231A43828305200143404858
:10128000617300682838A863F8BD32210AE0617BE9
:10129000C90708D0424A517F002902D0491E517720
:1012A00001E096212964C3218900A981A87300283F
:1012B00001D0012060740120FFF7A6FAF8BD2E4985
:1012C00000B52039887C401EC0B2887408280CD232
:1012D00006280AD800208874294832498030818144
:1012E000B42181730120FFF78FFA00BD70B52C493E
:1012F00000226039487B4307002B0FDAFB2318409C
:101300004873244B01209880274883892024A343D5
:10131000838183890424234383818A73164B203B72
:10132000987C002802D0FFF7CAFF70BD1448134D07
:1013300001688030C46B60350C1BAC4203DBC163B9
:1013400048209874EFE7836B046CCB1AA342ECDB64
:101350008163134820300271FFF7B1FE1049487FC6
:101360000028E2D0401E487770BD00006058004061
:101370000000002058140000C00000207C05000080
:1013800000010020009E3301340800004883000063
:1013900026020000003400402038004000300040A9
:1013A000000200200C040000206C004030B47446A1
:1013B000641E2578641CAB4200D21D46635D5B0051
:1013C000E31830BC18470000CD040000E30500001E
:1013D000F905000001060000790000002B0500005F
:1013E0008308000079000000790000003706000043
:1013F000790000002906000000DD23004D617920FE
:10140000313920323031350031393A34393A3439D2
:10141000F3046B0407615A0000EA23004D61792050
:10142000313920323031350031393A34393A3531B9
:1014300000AA1000D0A2AA55009B050000007C0560
:1014400000009204000057044000300480001D0496
:10145000C000F603C000D803EB0023004D617920E3
:10146000313920323031350031393A34393A353179
:1014700000007C0500009204000057044000300486
:1014800080001D04C000F603C000D80300009E07C2
:10149000000077070000500740002907800002077E
:1014A000C000EE06C000E4060000000000000000DE
:00000001FF
