:1000000000200020E5250408AD370108C1370108AC
:10001000D5370108E9370108FD3701080000000065
:10002000000000000000000000000000113801087E
:10003000253801080000000041610008671C010824
:10004000A5270408A9270408AD27040829480108A2
:10005000B12704083D4A0108B53F01089141010854
:10006000AB42010899430108B5270408B9270408E1
:10007000BD270408C1270408C5270408C9270408A8
:10008000814401089D450108CD270408D1270408B3
:10009000D5270408D9270408DD270408F9460108F4
:1000A000E1270408E5270408E9270408ED270408E8
:1000B000F1270408F5270408F9270408FD27040898
:1000C0000128040805280408092804083D38010807
:1000D0000D28040811280408152804081928040804
:1000E0006D460108514901081D280408212804080B
:1000F00025280408292804082D2804083128040884
:1001000035280408392804083D2804084128040833
:1001100045280408492804084D28040851280408E3
:1001200055280408592804085D2804086128040893
:1001300065280408692804086D2804087128040843
:1001400075280408792804087D28040881280408F3
:1001500085280408892804088D28040891280408A3
:1001600095280408992804089D280408A128040853
:10017000A5280408A9280408AD280408B128040803
:10018000B5280408B9280408BFF34F8FDFF8040A24
:10019000016801F4E061DFF8002A11430160BFF358
:1001A0004F8FFEE738B50020ADF800000246402131
:1001B000AB2002F0ACF9C0208DF8000000AC0F209D
:1001C0006070022300AA7221092002F021FD00289C
:1001D00001D1002032BDC1208DF8000000206070E8
:1001E000022300AA7221092002F012FD002801D189
:1001F000002032BDC2208DF800000F206070022365
:1002000000AA7221092002F003FD002801D100207C
:1002100032BDC3208DF8000000206070022300AAC8
:100220007221092002F0F4FC002801D1002032BD27
:10023000C4208DF800000F206070022300AA7221F4
:10024000092002F0E5FC002801D1002032BDC520C4
:100250008DF8000000206070022300AA722109209E
:1002600002F0D6FC002801D1002032BDC6208DF856
:1002700000000F206070022300AA7221092002F002
:10028000C7FC002801D1002032BDC7208DF8000036
:1002900000206070022300AA7221092002F0B8FC3D
:1002A000002801D1002032BD81208DF80000EE2011
:1002B0006070022300AA7221092002F0A9FC002824
:1002C00001D1002032BDDFF8D458607868738220F5
:1002D0008DF8000006206070022300AA7221092018
:1002E00002F096FC002801D1002032BD287C0028B5
:1002F0001DD08E208DF8000045206070022300AADA
:100300007221092002F084FC002801D1002032BDB6
:100310008F208DF8000058206070022300AA7221FF
:10032000092002F075FC00281FD1002032BD8E206C
:100330008DF8000082206070022300AA722109203B
:1003400002F066FC002801D1002032BD8F208DF81C
:1003500000008C206070022300AA7221092002F0A4
:1003600057FC002801D1002032BD80208DF800000C
:1003700007206070022300AA7221092002F048FCC5
:10038000002801D1002032BDDD208DF800002020A2
:100390006070022300AA7221092002F039FC0028B3
:1003A00001D1002032BD012032BD10B582B0002045
:1003B000ADF80000044602F02CFB0A2102F06AFDB1
:1003C00000E0641C032C12D2DFF8D407215C8DF806
:1003D0000010201800798DF80100022300AA722174
:1003E000072002F015FC0028EBD1002016BD0120EB
:1003F00016BD10B5DFF8A447A37D627D617C0FF2C6
:10040000280002F08AFB607C617D0843A17D0843DF
:100410004FF4004103D0002002F082FD02E00020F2
:1004200002F080FD012010BD233E50777220502540
:1004300064204D25642049256400000070B582B019
:1004400004460E4602F0F8FF0020ADF80000DFF889
:100450004C57688C0146002E02D02043688401E08E
:10046000A0436884688C00281DD001283AD0022857
:100470006ED003286CD0042800F02E81052800F0EF
:100480007B81062800F05681072800F0D9811028CA
:1004900067D0112800F0AE80202800F08D80212840
:1004A00000F0E8801CE0DD208DF8000000AC0020AA
:1004B0006070022300AA7221092002F0A9FB002823
:1004C00000F0F28180208DF800000020607002238F
:1004D00000AA7221092002F09BFB002800F0E481B1
:1004E000012076BD880701D5012028760022402111
:1004F000AB2002F00CF881208DF8000000ACEE205B
:100500006070022300AA7221092002F081FB0028FA
:1005100000F0CA8160786873DD208DF8000000204B
:100520006070022300AA7221092002F071FB0028EA
:1005300000F0BA8180208DF8000003206070022353
:1005400000AA7221092002F063FB0028C8D1ABE1A8
:10055000012901D101202876FFF724FE0028BFD110
:10056000A2E18F208DF8000000AC0A206070022309
:1005700000AA7221072002F04BFB002800F09481B2
:1005800080208DF8000081206070022300AA722173
:10059000072002F03DFB002800F08681DD208DF869
:1005A000000008206070022300AA7221072002F0D8
:1005B0002FFB002894D177E180208DF8000000AC5B
:1005C00081206070022300AA7221072002F020FB24
:1005D000002800F06981DD208DF80000082060709F
:1005E000022300AA7221072002F012FB00287FF4E8
:1005F00077AF59E1880701D50120287681208DF851
:10060000000000ACEE206070022300AA72210920D5
:1006100002F0FEFA002800F04781607868738F20AE
:100620008DF800000A206070022300AA72210720C2
:1006300002F0EEFA002800F0378180208DF80000EB
:1006400083206070022300AA7221072002F0E0FAE2
:10065000002800F02981DD208DF80000082060705E
:10066000022300AA7221072002F0D2FA00287FF4A8
:1006700037AF19E1880701D50120287681208DF850
:10068000000000ACEE206070022300AA7221092055
:1006900002F0BEFA002800F00781607868738020BD
:1006A0008DF8000083206070022300AA72210720C9
:1006B00002F0AEFA002800F0F780DD208DF800008F
:1006C00008206070022300AA7221072002F0A0FA1D
:1006D00000287FF405AFE7E081208DF8000000AC32
:1006E000EE206070022300AA7221092002F090FA25
:1006F000002800F0D98060786873DD208DF8000054
:1007000000206070022300AA7221092002F080FA02
:10071000002800F0C98080208DF800000320607060
:10072000022300AA7221092002F072FA00287FF445
:10073000D7AEB9E00846800715D581208DF80000B6
:1007400000ACEE206070022300AA7221092002F0A2
:100750005FFA002800F0A880607868730FF24C10F0
:1007600002F0DBF9BCE648077FF5BAAEFFF71AFDE9
:1007700000287FF4B5AE97E00846C0072CD581204D
:100780008DF8000000ACEE206070022300AA7221F8
:10079000092002F03DFA002800F086806078687336
:1007A000DD208DF8000000206070022300AA722175
:1007B000092002F02DFA002876D080208DF8000064
:1007C00003206070022300AA7221092002F020FA9F
:1007D00000287FF485AE67E048077FF581AE0022F0
:1007E0004021AB2001F093FE81208DF8000000AC89
:1007F000EE206070022300AA7221092002F008FA9C
:10080000002851D060786873DD208DF8000000204A
:100810006070022300AA7221092002F0F9F9002871
:1008200042D080208DF8000003206070022300AACF
:100830007221092002F0ECF900287FF451AE33E078
:1008400011F0050F05D0FFF7ADFC00287FF448AE8E
:100850002AE081208DF8000000ACEE2060700223B9
:1008600000AA7221092002F0D3F900281CD0607878
:100870006873DD208DF8000000206070022300AA5C
:100880007221092002F0C4F900280DD080208DF8D3
:10089000000003206070022300AA7221092002F0E8
:1008A000B7F900287FF41CAE002076BD233E21213D
:1008B00050522D3E4952000080B50FF2400002F028
:1008C0002CF90020ADF8000080208DF800000320F6
:1008D0008DF80100022300AA7221062002F098F987
:1008E000002801D1002002BD01210020FFF7A6FD54
:1008F000002801D1002002BD012002BD233E484C4A
:10090000530000001CB5044600208DF80400ADF82B
:1009100006000120009001ABDE227221072002F0C8
:10092000D3F9002801D1002016BDDE208DF8060085
:100930009DF8040020438DF8070002230DF1060204
:100940007221072002F064F9002801D1002016BDB1
:10095000012016BD30B583B00FF29C0002F0DDF827
:100960000020ADF804000446FFF71FFDDFF8C01DAE
:1009700008700028DFF8BC5D06D10FF2840002F099
:10098000CCF820463EBD641C0D2C11D260190079B4
:100990008DF804006019007D8DF80500022301AA7E
:1009A0007221072002F034F90028ECD100203EBD6E
:1009B0007A4C0120009004F11A0391227221072041
:1009C00002F082F9002801D100203EBD01200090F4
:1009D0002B4692227221072002F076F9002801D1DD
:1009E00000203EBD2A78A17E0FF2200002F095F88B
:1009F00003F0C7FA01203EBD233E505250000000D4
:100A0000233E50505F4641494C000000233E505267
:100A1000205245562030782578204445562030789D
:100A20002578000038B55D4DA97E0FF2D40002F0A4
:100A300074F80020ADF8000028848C208DF80000A8
:100A400000AC2020607000202873022300AA7221CD
:100A5000072002F0DDF8002801D1002032BD01207E
:100A60006874FFF7C6FC01210220FFF7E7FC0028AD
:100A700001D1002032BD88208DF80000F020607088
:100A8000022300AA7221072002F0C2F8002801D137
:100A9000002032BD89208DF800003F2060700223C5
:100AA00000AA7221072002F0B3F8002801D100202B
:100AB00032BD8A208DF8000000206070022300AA59
:100AC0007221072002F0A4F8002801D1002032BDD5
:100AD0008B208DF8000000206070022300AA722194
:100AE000072002F095F8002801D1002032BD202017
:100AF000FFF708FF002801D1002032BD012032BDE0
:100B0000233E50524F2030782578000000B583B046
:100B10000FF2900002F001F800208DF80400DFF8D9
:100B2000540C816A497A01291ED1C069407A012892
:100B30001AD101210020FFF781FC002801D10020FB
:100B40000EBD0120009001AB80227221072002F02F
:100B5000BBF8002801D100200EBD9DF804100FF253
:100B60004C0001F0DAFF0BE00C4800214174022038
:100B7000FFF764FC002801D100200EBDFFF739FC0F
:100B80002020FFF7BFFE002801D100200EBD01206C
:100B90000EBD00000CED00E00400FA0528D1002095
:100BA00020D30020233E505243000000233E26263F
:100BB000656E61626C652030782578000120704791
:100BC0001CB5044602F038FC0020ADF806008DF894
:100BD00004000120009001AB9E227221072002F048
:100BE00073F800280ED09DF80400000612D50220EC
:100BF00000900DF106039C227221072002F064F898
:100C0000002801D1002016BD9DF8060020709DF837
:100C100007006070012016BD2DE9F04784B004463E
:100C200002F00AFC054601F0F4FE064600200190A1
:100C3000ADF80800012000900DF107039E227221FB
:100C4000072002F041F8002801D10020F8E201203D
:100C500000900DF1060393227221072002F034F870
:100C6000002801D10020EBE20220009002AB942288
:100C70007221072002F028F8002801D10020DFE2CD
:100C80000DF1080999F801009DF8081041EA0020CB
:100C9000DFF8C87D797BC1F58071BA7BDFF8C03D94
:100CA000D25C12FB01F140F242325143FA7E012A3A
:100CB00003D140F2BA22504302E040F22172504385
:100CC0006422504390FBF1F0F97C002901D1B86314
:100CD00008E0B86BB97F4A1CBA77062902DB00210D
:100CE000F974B977397C00290BD141F65931884222
:100CF00028DB01213974F8630020F877FFF7DCFD69
:100D000094E2F96B411A44F62162914212DA40F6FC
:100D1000B831884214DA9DF80620920610D5FA7F81
:100D2000531CFB77C92A01DA88420BDA884201DAC0
:100D300000213974F8630020F877FFF7BDFD75E2F4
:100D40000020F8779DF80600800640F178820120A7
:100D500038770220009002AB9C227221072001F01C
:100D6000B3FF002801D100206AE299F801009DF844
:100D7000081041EA00280FFA88F841460FF2C840EF
:100D800001F0CBFE9DF80800607099F80100A0709A
:100D9000A7F82080787C002872D0387B00286FD19B
:100DA000002030758C208DF804000DF104092020FE
:100DB00089F801003873022301AA7221072001F08B
:100DC00027FF002801D100203AE205F28A0AB5F88F
:100DD0008A00002803D0BAF8020000280BD10FF2D5
:100DE000487001F09AFE4FF4FA60A5F88A0040F2CC
:100DF000DC50AAF8020088208DF80400002089F851
:100E00000100022301AA7221072001F001FF00283E
:100E100001D1002014E289208DF80400002089F817
:100E20000100022301AA7221072001F0F1FE00282F
:100E300001D1002004E28A208DF80400B5F88A0070
:100E400089F80100022301AA7221072001F0E0FEC7
:100E5000002801D10020F3E18B208DF80400B5F8C3
:100E60008A00000A89F80100022301AA72210720E2
:100E700001F0CEFE002801D10020E1E1012038750B
:100E800005F28A0ABAF80220B5F88A100FF2C430C7
:100E900001F043FE787C002800F0C881B5F88A0094
:100EA000804551DB307D00284ED10120F873207041
:100EB0002078307588208DF804000DF10409BAF807
:100EC000020089F80100022301AA7221072001F023
:100ED0009FFE002801D10020B2E189208DF8040096
:100EE000BAF80200000A89F80100022301AA72215F
:100EF000072001F08DFE002801D10020A0E18A200A
:100F00008DF80400FF2489F80140022301AA722110
:100F1000072001F07DFE002801D1002090E18B2008
:100F20008DF8040089F80140022301AA72210720EC
:100F300001F06EFE002801D1002081E141460FF250
:100F4000243001F0EAFD71E1BAF80200404553DBBC
:100F5000307D012850D10120F873002020702078C6
:100F6000307588208DF804000DF10409002089F8FF
:100F70000100022301AA7221072001F049FE002886
:100F800001D100205CE189208DF80400002089F85F
:100F90000100022301AA7221072001F039FE002876
:100FA00001D100204CE18A208DF80400B5F88A00B8
:100FB00089F80100022301AA7221072001F028FE0E
:100FC000002801D100203BE18B208DF80400B5F80A
:100FD0008A00000A89F80100022301AA7221072071
:100FE00001F016FE002801D1002029E141460FF250
:100FF0007C2001F092FD19E1B5F88A00404557DBED
:10100000307D002854D1387D012851D10120F8735A
:1010100000202070207830750020387588208DF8E9
:1010200004000DF10409002089F80100022301AA3F
:101030007221072001F0ECFD002801D10020FFE023
:1010400089208DF80400002089F80100022301AAFC
:101050007221072001F0DCFD002801D10020EFE023
:101060008A208DF80400B5F88A0089F8010002236F
:1010700001AA7221072001F0CBFD002801D1002038
:10108000DEE08B208DF80400B5F88A00000A89F8AC
:101090000100022301AA7221072001F0B9FD0028F6
:1010A00001D10020CCE00FF2CC1001F036FDBDE004
:1010B000B5F88A00804555DB307D012852D1387D56
:1010C00001284FD10120F87320702078307500205E
:1010D000387588208DF804000DF10409BAF8020073
:1010E00089F80100022301AA7221072001F090FD76
:1010F000002801D10020A3E089208DF80400BAF86F
:101100000200000A89F80100022301AA72210720C7
:1011100001F07EFD002801D1002091E08A208DF8A9
:101120000400FF2489F80140022301AA722107204C
:1011300001F06EFD002801D1002081E08B208DF8A8
:10114000040089F80140022301AA7221072001F05E
:101150005FFD002801D1002072E00FF2201001F0A5
:10116000DCFC63E0B5F88A0080455BDABAF802007F
:10117000404557DA307D012854D1387D012851D1BE
:101180000120F87300202070207830750020387519
:1011900088208DF804000DF10409002089F8010071
:1011A000022301AA7221072001F032FD002801D19B
:1011B000002045E089208DF80400002089F8010016
:1011C000022301AA7221072001F022FD002801D18B
:1011D000002035E08A208DF80400B5F88A0089F8EF
:1011E0000100022301AA7221072001F011FD00284D
:1011F00001D1002024E08B208DF80400B5F88A008E
:10120000000A89F80100022301AA7221072001F0D7
:10121000FFFC002801D1002012E00FF2680001F06D
:101220007CFC03E00FF2640001F077FC2020FFF764
:1012300069FB002801D1002002E0012000E000202D
:1012400004B0BDE8F0870000233E5072617720258E
:1012500064000000233E55703D25642C4C6F3D25F5
:1012600064000000233E503120256400233E5032AC
:1012700020256400233E526554483100233E5265C8
:1012800054483200233E526554483300233E456C97
:10129000736500002DE9FC4104460D4600200190D5
:1012A0000746DFF8B86730770120009001AB932242
:1012B0007221072001F008FD002801D138469FE087
:1012C000012000900DF105039E227221072001F0FC
:1012D000FBFC002801D1384692E09DF8040000078D
:1012E00013D5707D002806D00120307700F066FD10
:1012F0003846F07584E0B07D002806D001203077B4
:1013000001F0DCF83846F0757AE002F095F8804696
:101310002078072825D16078FF2822D12946601C33
:10132000FFF74EFCA078617841EA002212B2B8F8CB
:101330008A00824207DB0120207021780FF2C4006E
:1013400001F0EBFB0AE0B8F88C00904206DB38466F
:10135000207021780FF2AC0001F0DFFB01204FE09C
:101360007F1C0020F07529462046FFF755FC002819
:101370000DD0707C00280AD0F07B002807D00FF237
:10138000980001F0CAFB0020F0730120F075052FD2
:1013900003DA03F081FB0028E2D09DF80400C021AD
:1013A000084201D001203077307F002809D1706BCE
:1013B000411C71639DF804200FF2640001F0ADFB45
:1013C00001E000207063706B1E2807DB0FF26800DD
:1013D00001F0A3FBFEF7D8FE00207063DE208DF83D
:1013E0000600FA208DF8070002230DF10602722193
:1013F000072001F00DFC002801D1002000E0F07D65
:10140000BDE8F681233E536C65657020414443205E
:101410002564202564000000233E50555000000044
:10142000233E696E7620696E742025642073746192
:101430007475732025780000233E526573657452DD
:101440005100000070B582B005460020ADF80000E4
:1014500001F0F2FF0446DFF8040601210175287847
:10146000697841EA0020A4F88A0004F28A06A87884
:10147000E97841EA00207080B4F88A00002802D0A0
:101480007088002809D10FF2A00001F046FB4FF44C
:10149000FA60A4F88A000020708088208DF800008F
:1014A00000ADF0206870022300AA7221072001F02D
:1014B000AFFB002801D1002076BD89208DF8000007
:1014C0003F206870022300AA7221072001F0A0FBD0
:1014D000002801D1002076BD8A208DF80000002070
:1014E0006870022300AA7221072001F091FB0028F6
:1014F00001D1002076BD8B208DF80000002068709F
:10150000022300AA7221072001F082FB002801D1EA
:10151000002076BD7288B4F88A100FF2140001F032
:10152000FCFA012076BD0000233E5054483D3000B7
:10153000233E544853455420256420256400000070
:1015400010B584B0044601A800210A4606C0082050
:10155000009001ABC0227221092001F0B5FB0028E8
:1015600001D1002019E09DF80400207001A8417805
:1015700061708178A170C178E17001792171417940
:1015800061718179A171C179E17142789DF804108E
:101590000FF20C0001F0C1FA012004B010BD0000F0
:1015A000233E505220474554205452494D20307814
:1015B000257820307825780080B50FF218010720B3
:1015C00003F0FAFE0FF234010A20BDE8044003F0F4
:1015D000F3BE000055090008250A00080D0B00089D
:1015E000BD0B00080000000095120008451400081B
:1015F0000000000000000000000000005509000885
:10160000250A00080D0B0008BD0B000800000000B3
:10161000C10B000845140008000000000000000095
:101620000000000000207047002070470020704735
:10163000002070470020704700207047002070474E
:101640000FF20801062003F0B7BE000025160008BF
:10165000291600082D1600083116000800000000A9
:1016600035160008000000003D1600083916000875
:101670000000000038B50FF2480001F04EFA2C4C83
:101680002078002817D00020ADF80000054600E0C3
:101690006D1C052D11D2281900798DF8000028192C
:1016A000007B8DF80100022300AA7221092001F0BD
:1016B000AFFA0028ECD1002032BD012032BD00007D
:1016C000233E4C494750000010B582B0E34CA17E48
:1016D0000FF2640001F021FA0020ADF80000902024
:1016E0008DF8000003208DF80100022300AA72216A
:1016F000092001F08DFA002801D1002016BD032039
:10170000A07301206076A0740320206301210846A5
:10171000FEF794FE002801D1002016BD1020FFF72F
:10172000F1F8002801D1002016BD012016BD0000EF
:10173000A4D20020F8D10020233E4C49474F20304E
:101740007825780080B50FF2300001F0E6F9C34843
:10175000002181740120FEF771FE002801D10020D4
:1017600002BD1020FFF7CEF8002801D1002002BDF5
:10177000012002BD64830120233E4C494743000001
:10178000012070472DE9F04F8DB004460AA80021D2
:101790000A4606C088460846CDE90801DFF8140D60
:1017A000D0F824A008468AF872000120009006AB09
:1017B000AB227221072001F087FA002861D09DF842
:1017C000180040065DD4A54D687F002848D02878D1
:1017D000207068786070A878A070E878E070287948
:1017E000207168796071A879A071E879E071287A30
:1017F0002072687A60726078217841EA0029E07886
:10180000A17841EA00266079217941EA0027E07950
:10181000A17941EA002808A8009043463A4631469B
:10182000484600F0C6F9DDE90801C5E90A01286B60
:101830000128C0F20F81DDE90801CDE90401A87B90
:101840000290687B0190CDF800803B4632464946C5
:101850000FF2102001F061F9286B401E2863F9E0B7
:10186000687E012803D0287E002840F08C80082064
:1018700000900AAB94227221092001F025FA002879
:1018800001D14046E7E09DF82800A0710AA8417800
:10189000E17181782170C17861700179A17041791D
:1018A000E17081792171C0796071687B2072A87BB9
:1018B00060726078217841EA0029E078A17841EAF5
:1018C00000266079217941EA0027E079A17941EA8F
:1018D000002808A8009043463A463146484600F0A2
:1018E00068F900281BD1687E01284DD10020687658
:1018F000DFF8C40B5B2101700021417085218170EC
:101900000021C170AE2101710021417170218171EE
:101910000121C171EE2101720021417234E00020E9
:101920006876DFF8940B2178017061784170A178B6
:101930008170E178C1702179017161794171A1797A
:101940008171E179C171217A0172617A4172DDE9B7
:101950000801C5E90A01286B012864DBDDE90801FB
:10196000CDE90401A87B0290687B0190CDF800804E
:101970003B46324649460FF2201001F0CEF8286B64
:10198000401E28634FE04ED0DFF82C0B0178217009
:10199000417861708178A170C178E170017921711D
:1019A000417961718179A171C179E171017A217205
:1019B000407A6072002028766078217841EA002918
:1019C000E078A17841EA00266079217941EA002790
:1019D000E079A17941EA0028687B8DF81900207A26
:1019E000687395F80EB0607AA87308A80090434613
:1019F0003A463146484600F0DCF8DDE90801CDE919
:101A00000401A87B0290687B0190CDF800803B46E2
:101A1000324649460FF2B40001F07FF89DF81900F4
:101A2000687385F80EB01FFA89F9B9F15B0F11D10F
:101A3000B6B2852E0ED1BFB2AE2F0BD1B8F5B87F9E
:101A400008D1207AEE2805D1607A002802D1012041
:101A50008AF8720001200DB0BDE8F08F28D1002077
:101A6000081D0008233E6920723D256420673D253E
:101A70006420623D256420633D2564206174696DA6
:101A8000653D256420616761696E3D2564206C7544
:101A9000783D256C6C642000233E723D25642067F0
:101AA0003D256420623D256420633D2564206174EA
:101AB000696D653D256420616761696E3D2564201F
:101AC0006C75783D256C6C6420000000233E40401E
:101AD000723D256420673D256420623D25642063B6
:101AE0003D2564206174696D653D25642C20616726
:101AF00061696E3D2564206C75783D256C6C6420B1
:101B0000000000001CB504460020ADF806008DF86A
:101B100004000120009001AB90227221092001F005
:101B2000D3F8002801D1002016BD9DF8040000F074
:101B3000FC008DF80400012C0AD0042C04D0102CD9
:101B40001FD0402C22D026E040F001008DF8040088
:101B500090208DF806009DF804008DF80700DFF84E
:101B6000F44A9DF8040000F00300A07302230DF175
:101B700006027221092001F04BF800280DD1002047
:101B800016BD40F002008DF80400E1E740F00300CC
:101B90008DF80400DCE7002016BD0120E07416BDBE
:101BA000DFF8B01AC8767047DFF8A82AD2E90A0130
:101BB00070472DE9F84FDFF89CCA9CF81B40012CB8
:101BC00006D140F2BA2A40F2C67740F60C0405E08E
:101BD00040F2217A40F202374FF4B4741E46934625
:101BE0008946804609EB08005844801B00EBD07002
:101BF00045102DB29CF80E000FF20C11405C9CF8C1
:101C00000D10C1F5807110FB01F240F6DC2C0CFBCD
:101C100002F200928902B1F5803F01D34FF6FF71C5
:101C2000C9000A22B1FBF2F1102852D18B4250D3E5
:101C30000120FFF767FF002863D1A9EB050CABEB90
:101C4000050E0A9E45450BDAD6E9000102460B4611
:101C5000A8EB05007843C11710185941C6E90001E7
:101C60004D450CDAD6E9000102460B464FF47A7076
:101C700000FB0CF0C11710185941C6E900015D4581
:101C800008DAD6E900010EFB04F2801851EBE2718C
:101C9000C6E90001D6E90001002905DC00DB03D21A
:101CA00000200146C6E90001D6E900234FEAEA7B9D
:101CB000AAFB02010AFB03110BFB0211C6E900019A
:101CC000009A002303F02CFEC6E900010120BDE8C4
:101CD000F28F102807D1642E05DA4020FFF712FF9B
:101CE00000280ED1A9E7402802D164398B4203D2E3
:101CF0000128A2D1642EA0DA1020FFF703FF0028EC
:101D00009BD00020E3E70000010410400FF208011F
:101D1000092003F051BB000075160008C916000821
:101D2000451700088117000800000000851700080B
:101D300000000000000000000000000000000000A3
:101D4000DFF8101948750120704710B5DFF8084B0F
:101D500020202070002060700A20A0700020E07019
:101D60000A202071002060713220A0710020E072F2
:101D700007222146DFF8E40A03F06BFE00206072C0
:101D8000012010BD00B583B000A800210A4606C09E
:101D90000722DFF8C41A0DF1010003F05AFEA0205B
:101DA0008DF80000082300AA7221072000F030FF00
:101DB000002801D100200EBD01200EBD80B5DFF846
:101DC000980A417B012903D100F0F5F8012002BDFA
:101DD000018AFF290CD000290DD0C27A521CC27290
:101DE000491E0182417AD2B2914201D20021C172D0
:101DF00000F010F805E0418A01820021C17200F074
:101E000009F80820FEF77EFD002801D1002002BD60
:101E1000012002BD38B50020ADF80000DFF8384AD7
:101E2000208A002801D1A07A60720722E07AC0EBF4
:101E3000C000DFF8281A4118204603F00AFEFFF719
:101E4000A1FFA7208DF8000000ADE0896870022393
:101E500000AA7221072000F0DBFE002801D100203B
:101E600032BD01211020FEF7E9FAA9208DF800000B
:101E700001206870022300AA7221072000F0C8FE2A
:101E8000002801D1002032BD012032BD3EB50446FC
:101E90006079029020790190E0780090A3786278D0
:101EA00021780FF6DC1000F038FEDFF8B4598122FB
:101EB000FF21284603F0D4FD80222146681C03F050
:101EC000C8FD0020287081232A467221072000F0D7
:101ED0009FFE002805D10FF6C01000F01EFE002066
:101EE0003EBD01203EBD80B501780F2905DADFF83F
:101EF0006829527A521C8A4205DA0FF6A81000F0BF
:101F00000CFE002002BD4278202A01DB2022427014
:101F10000022C2704271C1EBC101DFF840292023C9
:101F20008B54891800224A704278002A01D100227D
:101F300001E05200521E8A7182788A70C278CA709B
:101F400002790A7140794871012002BDDFF8080961
:101F5000417A491C417281720120704738B50446AC
:101F6000DFF8F4582C82FFF7F0FE002C00D06C82D2
:101F700021460FF6401000F0D0FD012032BDDFF801
:101F8000D818487301207047DFF8D818087001206E
:101F90007047DFF8D0080078704780B5DFF8B818D0
:101FA00008730A7B5200CA8101460FF6181000F030
:101FB000B4FD012002BD10B5DFF89C48217A0FF670
:101FC000141000F0AAFD0020FFF7BAFE0020607395
:101FD000607201461020FEF731FAFEF70AFA082077
:101FE000FEF790FC002801D1002010BD012010BD9B
:101FF0002DE9FE4F04460D4616461F460020824638
:10200000814680461AE05A4609EB040100A803F015
:1020100020FD00A800210BF8001008F101090A2298
:1020200003F028FD0FFA8AFA51464A1C974211DB49
:1020300045F821000AF1010A08F10108B0450BDA60
:1020400018F8041030390A29F6D3A8EB090BBBF1B4
:102050000A0FD8DB4FF0000A02460FFA8AFA5146FF
:102060000FF67C0000F059FD5046BDE8FE8F38B5F4
:1020700004460020ADF8000005294CD1A1208DF8C0
:10208000000000AD20786870022300AA72210720AA
:1020900000F0BEFD002801D1002032BDA2208DF845
:1020A000000060786870022300AA7221072000F007
:1020B000AFFD002801D1002032BDA4208DF8000022
:1020C000A0786870022300AA7221072000F0A0FD0A
:1020D000002801D1002032BDA5208DF80000E07855
:1020E0006870022300AA7221072000F091FD0028E9
:1020F00001D1002032BDA6208DF800002079687043
:10210000022300AA7221072000F082FD002801D1DD
:10211000002032BD012032BD70B58AB004460D46A4
:102120002E46212E01DB00202CE02122002100A8D8
:1021300003F096FC2A4621460DF1010003F089FCCC
:10214000212E01DA002E05D10FF2A87000F0E5FC77
:10215000002017E0022203218D2000F0D8F9002092
:102160008DF80000731CDBB200AA7221072000F07A
:102170004FFD002805D10FF28C7000F0CEFC00203E
:1021800000E001200AB070BDF0B5C1B005460E46B2
:10219000344640F20117BC4201DB00204BE03A46D6
:1021A000002100A803F05CFC324629460DF1010035
:1021B00003F04FFCBC4201DA002C05D10FF258703D
:1021C00000F0ABFC002036E0812C01DA254600E06F
:1021D0008025002203218D2000F099F900208DF840
:1021E00000006B1CDBB200AA7221072000F010FD7A
:1021F000002805D10FF2347000F08FFC00201AE0A7
:10220000812C17DB012203218D2000F080F90020B2
:102210008DF88000A4F17F03DBB220AA7221072091
:1022200000F0F6FC002805D10FF2147000F075FCE8
:10223000002000E0012041B0F0BD80B50021ADF8E4
:102240000010002810D0012827D1A9208DF8000007
:1022500008468DF80100022300AA7221072000F031
:10226000D7FC00281BD10DE0A9208DF8000002202A
:102270008DF80100034600AA7221072000F0C8FC77
:10228000002801D1002002BDDFF8DC05002101702B
:102290000FF2C06000F041FC01E000F002F8012004
:1022A00002BD80B500220821DD2000F030F90028B1
:1022B00001D1002002BD00212020FEF7BFF8DFF889
:1022C000940300218175FEF794F8012002BD10B53A
:1022D00082B00FF2886000F020FC00A800F0FEF849
:1022E000002805D10FF2806000F017FC002016BD19
:1022F0009DF8000001280AD0DFF85843A07D01288E
:1023000005D0607D012802D0607C012801D1002029
:1023100016BD01212020FEF791F8002805D10FF20B
:10232000586000F0FAFB002016BD0120A075FEF7F2
:1023300060F8012016BD2DE9F04389B00E46002457
:10234000DFF828554FF40073324605F14801FFF7D6
:102350004FFE002806D131460FF2286000F0DDFB69
:1023600001249BE0AE6C2146019106A900910DF17C
:102370001A0307AA411E89B205F14C0003F0ECFDD7
:10238000BDF81A00BDF81C10401A401CADF8100032
:10239000BDF8102005F14C01304603F0BFFD05F1FA
:1023A000280204A905F14C0003F0CFFB070005D17A
:1023B0000FF2DC5000F0B1FB01246FE0204606E094
:1023C00005EB40010A8D0A72120A4A72401C10285D
:1023D000F6DB7F00012001900DF1120000900DF15D
:1023E000160305AABDF8101005F14C0003F0B4FD6A
:1023F00005F64C0807EBD77040100390CDF8088025
:1024000005F128000190BDF812000090BDF81430CD
:10241000BDF816001946401A421C92B2BDF81010C1
:1024200005F14C0003F028FB8146B9F1000F05D1FE
:102430000FF26C5000F071FB01242FE0182028707F
:10244000BDF81200401E6870BDF81800401EA8704C
:102450002046E870DFF81804B0FBF6F02871DFF8CA
:10246000101406FB1010B0EB560F02D32879401C55
:1024700028712879C01E287105212846FFF7F7FD2D
:10248000394609B205F10800FFF746FE494609B290
:102490004046FFF779FE2046FFF7CFFE002C04D020
:1024A0006C4800218175084600E0012009B0BDE8B4
:1024B000F083000064830120FCC7012080B5FFF792
:1024C000F0FE002801D1002002BD0820FEF71AFA14
:1024D000002801D1002002BD012002BD1CB5044628
:1024E0000120009001ABA8227221072000F0ECFB34
:1024F000002801D1002016BD9DF8040000F0010065
:10250000411E8941C943C90F2170012016BD7CB508
:1025100006460C4615460020ADF806008DF804006E
:102520000120009001AB32467221072000F0CCFB65
:10253000002801D1002076BD8DF806609DF80400CA
:10254000A04328438DF804009DF804008DF807008F
:1025500002230DF106027221072000F059FB00282A
:1025600001D1002076BD012076BDBF490878002248
:102570000A70704738B50FF2344000F0CEFA0020F0
:10258000ADF80000BB4C2078002814D0002500E0F6
:102590006D1C052D11D2281900798DF8000028191D
:1025A000007B8DF80100022300AA7221092000F0AF
:1025B0002FFB0028ECD1002032BD012032BD10B528
:1025C00082B0244CA17E0FF2F03000F0A6FA002079
:1025D000ADF8000090208DF8000003208DF8010078
:1025E000022300AA7221092000F012FB002801D169
:1025F000002016BD0020A0840320A0730120607776
:1026000001460420FDF71AFF002801D1002016BD65
:10261000FA20FEF777F9002801D1002016BD01202D
:1026200016BD80B50FF2A03000F077FA09480021FE
:1026300041770420FDF702FF002801D1002002BDF0
:10264000FA20FEF75FF9002801D1002002BD012029
:1026500002BD000028D1002001207047F0B587B0EE
:1026600002A800210A4606C00846CDE904018DF8FB
:102670000400012000900DF105039E227221092023
:1026800000F022FB002801D1002057E0012000903B
:1026900001ABAB227221072000F016FB002801D10C
:1026A00000204BE09DF80500400603D59DF804008E
:1026B000400601D5002041E00820009002AB9422A2
:1026C0007221092000F000FB002801D1002035E034
:1026D000002202218020FFF71AFF674A9DF80800B8
:1026E000907102AB5E78D67198781070DC78547077
:1026F000197991705D79D5709F79177193F807C03A
:1027000082F805C0537B1372937B537204AB009322
:10271000927942EA062347EA0C2241EA052140EA7F
:102720000420FFF746FA40221146AB20FFF7EFFEE8
:10273000022211468020FFF7EAFE012007B0F0BD1B
:102740007FB5044602A800210A4606C04B48056E24
:1027500008468DF80400012000900DF105039E222B
:102760007221092000F0B0FA002801D1002069E0B0
:102770000120009001ABAB227221072000F0A4FAE7
:10278000002801D100205DE09DF80500400603D53A
:102790009DF80400400601D4002053E0082000907A
:1027A00002AB94227221092000F08EFA002801D198
:1027B000002047E0002202218020FFF7A8FE02A8A7
:1027C00041789DF8082042EA0121C278837843EAE3
:1027D000022212FA81F14279037943EA022211FAC4
:1027E00082F1C279807940EA022011FA80F0224E0B
:1027F000411000EB91708010B08400224021AB208A
:10280000FFF785FE022211468020FFF780FEB6F911
:1028100024002070001260703078A0707078E07032
:10282000B0782071F07860713079A0717079E071C2
:10283000B0792072F0796072307AA072707AE072AA
:102840000120A87704B070BD0FF28811182002F0A3
:10285000B3BD054908707047DCC60120D87501205A
:10286000B4B5012035CA012034CA0120BC4E012074
:10287000FCD93D00A4D2002028D10020648301208F
:102880004D424420256420256420256420256420B1
:1028900025642025640000004D6F6265616D20573E
:1028A000460000004D6F6265616D20486F702046E4
:1028B00061696C004D4220486F70436F756E7420E3
:1028C000256400004D6F6265616D204C656E3D258D
:1028D000640000004D4220436C6F73652025640046
:1028E000233E6465635F64656C696D7420256420B4
:1028F00025640000233E53594D424F4C2054414221
:102900004C450000233E52454D434F4E2074696DA7
:102910006564617461000000233E53594D424F4C81
:10292000207061747465726E31000000233E524560
:102930004D434F4E207061747465726E320000001A
:10294000233E52454D434F4E207061747465726E44
:1029500033000000233E535441525400233E495259
:102960004F50454E00000000233E52454D434F4E10
:102970002042757379000000233E454E20464149B0
:102980004C000000233E53594D424F4C202564001B
:10299000233E616D7354696D6553697A650000006B
:1029A000233E5061747465726E000000233E4C49F2
:1029B0004749525000000000233E4C494749524FBE
:1029C0002030782578000000233E4C494749524387
:1029D0000000000075250008BF2500082326000818
:1029E000592600085D260008412700080000000065
:1029F00000000000000000000000000010B5DFF83B
:102A000090494FF404720021204603F029F8204633
:102A100010BDDFF87C09704710B5FFF7EFFF0446E3
:102A200000231A461146084600F092FAC046C046F6
:102A300000F0C3FD0A21204600F058F801F0F4F937
:102A400000F022FD204600F01EFA204600F018F8A3
:102A5000DFF84009006800F068FF204600F0AAF99E
:102A600000F01DFB00F0DAF900206072A072E07245
:102A70002073012060730020E075A073012010BD59
:102A800010B50446DFF8100900F0B1FE01206071B6
:102A900010BD10B5044600F0C6FF0120A07110BDA6
:102AA00038B50446012501F032F9012804D1284641
:102AB000E0700020A0700AE0022804D10020E0703D
:102AC0002846A07003E00020E070A070054628466C
:102AD00032BD80B501F0F6FA012002BD10B5044602
:102AE000E07901F03DFC0121217010BD70B5044674
:102AF0000025E679E171FFF7F1FF002807D02046B5
:102B0000FFF7BEFF2046FFF7C4FF012503E0E67193
:102B10002046FFF7E3FF284670BD0EB470B5C1B084
:102B2000054600A84FF4807103F094FAFFF771FF97
:102B3000044645AB2A464FF4807100A803F0A4FA7E
:102B400000A803F0BFFA451C00A82818002100F8CF
:102B5000011CDFF848683078401C30707078F02134
:102B6000084202D0992003F0D9FA03F044FB7078B0
:102B7000401C7070207E2818B0F5FA7F10DA207E95
:102B8000002803D0207E00190A2101762A4600A9D8
:102B9000207E0019193002F05CFF207E2818207674
:102BA0007078F021084202D0992003F0B7FA7078CB
:102BB000401E7070C0B2002801D103F016FB03F074
:102BC00044FD41B070BC5DF810FBDFF89007DFF802
:102BD000C8170160704710B50446FFF71AFF006977
:102BE000E040C0070ED5DFF8B8472068401C2060E1
:102BF0001E2807DB0FF2B870FFF78FFF01F02AFCE9
:102C00000020206010BDDFF89807002101607047A8
:102C10002DE9F84305460E4617464FF00208DFF847
:102C20007C476078F021084202D0992003F076FAC0
:102C300003F0E1FA6078401C60709DF80000401ECF
:102C40008DF8000017F8019B2846FFF7BEFF00AB88
:102C50004A463946304601F037FC002812D06078E9
:102C6000F021084202D0992003F058FA6078401E03
:102C70006070C0B2002801D103F0B7FAFFF7C3FFBC
:102C800001201FE05FFA88F8424629460FF23470AF
:102C9000FFF743FF4046A0F101080028D7D1607834
:102CA000F021084202D0992003F038FA6078401EE3
:102CB0006070C0B2002801D103F097FA2846FFF7F0
:102CC0008AFF0020BDE8F2832DE9F04704460D4657
:102CD00016461F46DFF88C86089888F80000DFF853
:102CE000BC9699F80100F021084202D0992003F027
:102CF00015FA03F080FA99F80100401C89F80100E8
:102D00002046FFF762FF4FF0020A4346324639463B
:102D1000284601F08DFC002815D099F80100F0211B
:102D2000084202D0992003F0F9F999F80100401EF9
:102D300089F80100C0B2002801D103F056FAFFF76C
:102D400062FF012022E05FFA8AFA524621460FF222
:102D50008060FFF7E2FE5046A0F1010A0028D4D1BE
:102D600099F80100F021084202D0992003F0D6F929
:102D700099F80100401E89F80100C0B2002801D175
:102D800003F033FA2046FFF726FF0020BDE8F08766
:102D900080B51146029A184600F0A6FD012002BD3A
:102DA00080B510465A1E92B20178401C00F07CFD9E
:102DB000012002BD1CB504460120009001AB752224
:102DC000D0210020FFF7E4FF9DF80400702808D10F
:102DD000002084F80E020FF20460FFF79EFE01202F
:102DE00016BD0120009001AB8F221B210020FFF7B0
:102DF000CFFF9DF80400692807D1022084F80E0255
:102E0000C7A0FFF78AFE012016BD022084F80E023B
:102E10000FF2D050FFF781FE012016BD02F065BC15
:102E2000F8B5044602270025DFF834650DE0394681
:102E30004F1EC9B200290AD1002804D120690121FE
:102E4000A9408843206102276D1C1B2D10DA56F81B
:102E50002500806F006880470128E8D121690122A0
:102E6000AA401143216156F8251001220A77E3E7B1
:102E70002069032803D0022801D0012802D140F4A0
:102E800080502061F1BD01F019BD01F07EBD01F05F
:102E900029BD0000DFF80405026A036A00BF00BF15
:102EA00000BF00BF00BF9B1A8B42F6DB7047417228
:102EB00030B597B003F0E4FC0446FFF7AAFD0546E1
:102EC00000A85C2103F0C6F80020ADF858008DF88A
:102ED00001000DF101000A21417000218170C170D3
:102EE000697A00290DD0002C18D000218DF800102F
:102EF00005218DF801100B21417000A805F0E6FFB7
:102F00000CE0002C0AD001218DF8001005218DF86D
:102F100001100B21417000A805F0D8FF17B030BD9B
:102F200001F052BD01F05ABD02210120F8E7022153
:102F30000120F7E701210846F2E701210846F1E701
:102F400001F056BD10B50446FFF763FD447510BD92
:102F50002DE9F04782B00C4615462F46264680469E
:102F60004FF47A714FF03C0C4FF4616918FB09F291
:102F700016FB0C22BA1801FB0232DFF8ECE39EF9D3
:102F800000A01AFB09F99EF901A01AFB0C9C9EF9FE
:102F900002904CFA89FCBEF9039001FB0C919EF85B
:102FA00008C0BCF1000F22D144EA000129431943B3
:102FB00002D001218EF808108EF80000B8F1000F41
:102FC00004D59EF8000018308EF800008EF80140FD
:102FD0008EF80250AEF8033000933B4632469EF91D
:102FE00000100FF24040FFF798FDBDE8F3879142D3
:102FF0000DD3A1EB020CACF2D17CDFF8A893CC4549
:10300000DAD30FF2FC3002B0BDE8F04785E5D3D249
:10301000A2EB010CACF2D179DFF888A3D145CBD378
:1030200063460FF2EC3002B0BDE8F04775E510B52D
:1030300004002FD003F0FAFCCB49CA68002A00D064
:10304000841AB1F80320A218A1F8032012B2B2F535
:103050007A7F06DBA2F57A72A1F803208A78521CE7
:103060008A7091F902203C2A04DB3C3A8A704A7843
:10307000521C4A7091F901203C2A04DB3C3A4A7008
:103080000A78521C0A7091F90020182A01DB0022EC
:103090000A70C86010BDB449052206F075B8B3487F
:1030A0000021017041701E22B14802F0D9BC3FB42A
:1030B00000210120AD4A1278002A0CD12CE05C6876
:1030C000019DAC4224D11B89BDF80840A3421FD109
:1030D0000020491CC9B291421EDAC1EBC103A44CC5
:1030E00004EB43039DF80340DD78A54213D1002C87
:1030F000E5D09C88BDF80450AC4209D1DC88BDF80D
:103100000650AC4204D11B89BDF80840A342DFD071
:1031100000F00100DDE7012004B030BC7047000082
:1031200053544D007FB40020014626E0C0EBC0029E
:1031300054008F4D66193C224FF46163645D7578CD
:1031400012FB05F513FB0454B57864199DF8005083
:103150009DF8016012FB06F213FB05229DF8023078
:1031600052FA83F2A24201D2824B9A18121BB2F594
:10317000966F00D9491C401CC0B27C4A1378984213
:10318000D4DBC9B28B4202D20020107001E0581A81
:1031900010707FBC70472DE9FF419DF80340022C61
:1031A0005EDA00A80FC8FFF782FF012858D100A8F7
:1031B0000FC8FFF7B7FF9DF802509DF801606C4FF4
:1031C000DFF8A88198F80000032825D13C214FF4AE
:1031D00061603A787B7811FB03F310FB0232BB7815
:1031E000D2189DF8003011FB06F110FB031050FAC5
:1031F00085F0904201D25F490818811AB1F5966FA7
:1032000002D94FF4966000E0801AA8F80200FFF798
:1032100046FF012088F8010098F80000C0EBC001CB
:1032200049009DF80020CA55C9194E708D70CC70A8
:10323000BDF80820002C09D1019B4B600A81BDF824
:103240000A204A81BDF80C208A8106E0BDF80430CE
:103250008B80BDF80630CB800A81401C88F80000C6
:10326000BDE8FF814149487800224A7070473F48D5
:1032700040887047242200214B4802F0F1BB1CB566
:1032800000A8FFF708FF484C24220021204602F046
:10329000E7FB9DF80000607604F219009DF801102C
:1032A00041709DF802108170FF21817213BD0000F2
:1032B0000FB410B52DED028B2F4C104605F0ACFF6E
:1032C0002E4A2F4B05F0C0FF206161619FED2D8BD1
:1032D000049805F0A1FF53EC182B05F0B5FF206012
:1032E0006160059805F098FF53EC182B05F0ACFFD2
:1032F000A060E1609DF81C00207604F118009DF8A4
:103300001D1041709DF81E1081709DF81F10C17036
:103310009DF820100171BDF8210000EE100AB8EEF2
:10332000400A10EE100A06F065F8184A1F4B05F027
:103330008BFF06F087F8C4F81D00BDF82300A4F841
:1033400021009DF8250084F82300BDEC028B10BC01
:103350005DF814FB0849242205F016BF18D300209D
:103360006483012037CA012080C7012050C9012091
:103370001CC4012080510100E0C40120FCA9F1D24D
:103380004D62503F8DEDB5A0F7C6B03E3BDF4F8D8F
:103390006096012034D3002000540040CCD100209E
:1033A00054C901205F4C260504C50120976EA23F39
:1033B000233E496E6974696C61697A6520493243BC
:1033C00000000000495745202564202564000000C6
:1033D000495245202564202564000000496E766529
:1033E0006E000000556E6B6E6F776E2036617869E7
:1033F000732073656E736F7221212121000000001C
:1034000041542D53657454533120256420256400A4
:1034100041542D5365745453322025642025642073
:103420002564000041542D536574542025643A25C9
:10343000643A25642E2564000048704790B401204A
:103440000901002807D500F00F00DFF8182D8018BB
:1034500000F8041C7047DFF8102D8154704710B538
:10346000401EB0F1807F01D3012010BDDFF8FC4C7D
:1034700060600F214FF0FF30FFF7E2FF0020A060F7
:1034800007202060002010BDF0B595B0012108464E
:1034900006F085F80121202006F0B8F80021202050
:1034A00006F0B4F80121202006F08FF8DFF8C04CB8
:1034B00008220C21204606F0B5F908220B212046EF
:1034C00006F0B0F900208DF8060001208DF8070005
:1034D00002208DF804004FF48050009002208DF8F7
:1034E000050000A9204606F04FF902208DF80400DF
:1034F0004FF40060009000A9204606F045F94FF413
:10350000E130029000200390ADF81000ADF81400F7
:103510000C20ADF81200DFF85C4C02A9204606F042
:1035200095F90121204606F0EBF901214FF48000C6
:1035300006F035F8DFF8404C204606F003FADFF8D5
:103540003C5C284606F0FEF964200A9000201190A9
:1035500003201290002013900E904FF480600C9086
:10356000DFF81C0C0790002014900D900B904FF486
:103570008030109000200F904FF020670697402079
:103580000990DFF8846D06F16400089006A92046D2
:1035900006F05CFA00200F9006970990089606A99D
:1035A000284606F053FA0021204606F076FA00215C
:1035B000284606F072FA15B0F0BDF0B583B0DFF81A
:1035C000B04B204606F084F8DFF8B85B284606F0DA
:1035D0007FF8DFF8386D304606F07AF801210846AA
:1035E00005F0DDFF0121022005F0D9FF01210420B3
:1035F00005F0D5FF0121082005F0D1FF01211020A1
:1036000005F0CDFF0121802005F0C9FF03208DF8D2
:10361000040001208DF8060000208DF807008DF8C9
:1036200005004FF6FF77009700A9204606F0ACF89A
:10363000009700A9284606F0A7F8009700A9DFF830
:10364000D80C06F0A1F800A9DFF8D00C06F09CF821
:1036500000A9DFF8FC0D06F097F800A9304606F047
:1036600093F80021012005F09AFF0021022005F0C7
:1036700096FF0021042005F092FF0021082005F0AC
:103680008EFF0021102005F08AFF0021802005F028
:1036900086FF0121832005F082FF01208DF80400C0
:1036A00000208DF8050001208DF8060000208DF81F
:1036B00007000320009000A9284606F065F80321C2
:1036C00028460183C04601208DF8040000208DF8B3
:1036D0000500ADF806004FF40040009000A9204618
:1036E00006F052F84FF4004120464183C0460420C2
:1036F000009001208DF806008DF8040000208DF860
:10370000050002208DF8070000A9204606F03CF8CD
:103710000820009000A9204606F036F80422062171
:10372000284606F07FF804220721284606F07AF89A
:1037300002208DF8040001208DF805008DF80600A8
:1037400000208DF807004020009000A9284606F0D0
:103750001BF88020009000A9284606F015F80121EA
:10376000802005F01CFF012000908DF806008DF8E8
:10377000040000208DF805008DF807000121304677
:103780000183C04600A9304605F0FEFF00208DF8F9
:1037900004008DF807000220009000A9204605F0E3
:1037A000F3FF0121802005F0FAFE022000900020A6
:1037B0008DF8060001208DF8040000208DF805002A
:1037C0008DF8070000A9304605F0DEFF02213046E3
:1037D0000183C046286820F0300040F010002860C7
:1037E000206820F0300040F010002060F7BD1FB5C9
:1037F000DFF8CC4CA0422FD101214FF4001005F08E
:10380000D9FE0121022005F0CAFE01214FF400106B
:1038100005F0F1FE00214FF4001005F0ECFE002051
:10382000ADF804004BF6FF70ADF806004FF4806071
:10383000ADF80A004FF48040ADF80C000A20ADF856
:103840000800DFF8800C009000A9204606F009FA75
:103850000121204606F068FA1FBDF8B5044640F67F
:10386000FF752E46DFF8B47D0221384606F026FBB0
:10387000002805D12846451E0028F5D10020F2BDBC
:10388000214638468181C0460121384606F016FBA4
:10389000002804D13046461E0028F5D1EEE7384610
:1038A0008089C046C0B2F2BDF8B504460D46164642
:1038B000DFF8D0784FF4805138464183C04605F098
:1038C0007F00FFF7CAFF03E014F8010BFFF7C5FF05
:1038D0003046461E80B20028F6D14FF4805138465B
:1038E000BDE8F44005F09ABFF8B504460D4616460B
:1038F000DFF890784FF4805138464183C04645F058
:103900008000FFF7AAFF04E00020FFF7A6FF04F8FD
:10391000010B3046461E80B20028F5D14FF480518D
:103920003846BDE8F44005F079BF30B587B00446AD
:1039300001214FF4804005F03DFE0121022005F0F9
:103940002EFE01208DF8040000208DF806000120D5
:103950008DF8070000208DF805004FF4805000908E
:10396000DFF8205800A9284605F00EFF4FF48051DB
:1039700028464183C046002040F6FF7100E0401C0D
:103980008842FCD34FF4805128460183C04605226B
:103990000D21284605F046FF05220E21284605F098
:1039A00041FF05220F21284605F03CFF02208DF83B
:1039B00004000020ADF806008DF805004FF46040CB
:1039C000009000A9284605F0DFFE204606F00EFA1A
:1039D0000020ADF80800ADF80C000220ADF80E0094
:1039E0000120ADF810004FF40070ADF81200202057
:1039F000ADF814000020ADF816000720ADF818004F
:103A00004FF48270ADF80A0002A9204606F01DFAB4
:103A10000321DFF8080CC94301810121204606F08B
:103A200037FA07B030BD2DE9F04192B001214FF4D3
:103A3000805005F0CAFD0121084605F0B0FD0121C6
:103A40004FF4800005F0ABFDDFF824470522114656
:103A5000204605F0E7FE05220721204605F0E2FE9C
:103A600005220621204605F0DDFE05220421204620
:103A700005F0D8FE02208DF8040001208DF8050025
:103A80000020ADF806002020009000A9204605F097
:103A90007BFE8020009000A9204605F075FE4020A6
:103AA000009000A9204605F06FFE1020009000A9AC
:103AB000204605F069FEDFF8684B204606F096F9CF
:103AC000DFF8605B002028806860012028810020EA
:103AD0006881E8600720288200206880DFF8486B52
:103AE000304605F02FFFDFF8447B384605F02AFF0B
:103AF0004FF48060069000210D9103210E9100216A
:103B00000F910A910890DFF8080D03900846109075
:103B1000099007904FF400300C9008460B904FF03E
:103B2000C068CDF80880402005900846049002A99E
:103B3000304605F08BFF00200B90CDF808800590F3
:103B400005F11400049002A9384605F07FFF00201B
:103B500068802946204606F078F901220221204695
:103B600006F0A2F901221146204606F09DF9012136
:103B7000204606F08DF90021304605F08EFF002129
:103B8000384605F08AFF12B0BDE8F08170B596B0F6
:103B90000121084605F003FD01214FF4804005F0A6
:103BA00014FD0121084605F0FAFC01214FF4003014
:103BB00005F021FD00214FF4003005F01CFD01212E
:103BC0004FF4003005F0F6FCDFF8A445072202218F
:103BD000204605F027FE07220321204605F022FE9D
:103BE00000208DF80A0001208DF80B0002208DF8CE
:103BF00008000420019002208DF8090001A9204648
:103C000005F0C2FD02208DF808000820019001A9EE
:103C1000204605F0B9FD4FF4E130039000200490F8
:103C2000ADF81400ADF818000C20ADF81600DFF860
:103C3000E44B03A9204605F009FE0121204605F0CA
:103C40005FFE01214FF4001005F0A9FCDFF8C84B1E
:103C5000204605F077FEDFF8C45B284605F072FECB
:103C600064200B90002012900320139000201490E9
:103C70000F904FF480600D90DFF8A40B08900020A7
:103C800015900E900C904FF4803011900020109001
:103C90004FF00066079640200A900020099007A97F
:103CA000204605F0D3FE0020109007960A90DFF81A
:103CB000080C099007A9284605F0C8FE0F208DF8CA
:103CC000010000208DF8020001208DF80300102073
:103CD0008DF8000000A806F0FEF811208DF8000015
:103CE00000A806F0F8F801221021284605F00BFF85
:103CF00001221021204605F006FF0021204605F094
:103D0000CCFE0021284605F0C8FE16B070BD30B5C7
:103D100089B001214FF0805005F04CFC012006F0E5
:103D200013F901214FF4802005F039FC0F2006F033
:103D3000BBFA0446102006F0B7FA0546012005F04C
:103D40002BFC002005F028FC21460F2006F09FFAEE
:103D50002946102006F09BFA00214FF4802005F040
:103D60001EFC012005F0B6FB412005F065FC002893
:103D7000FAD04FF4807005F0F9FB012005F009FC42
:103D800006F035F90320069041F6FF7007900020F9
:103D9000059005A806F0E2F80020029002A906F0BE
:103DA00047F900208DF8070001208DF804008DF8F8
:103DB00005008DF8060001A9002006F0B2F94FF4C5
:103DC000800006F051FB4FF48000039000208DF836
:103DD000100008208DF8110001208DF8120003A8B2
:103DE00006F000FB03208DF800000D208DF8010087
:103DF00000208DF8020001208DF8030000A806F0D5
:103E00006AF8032006F001FA4FF4804006F0B7FA92
:103E10004FF4800006F028FB01214FF4804006F0AB
:103E200074FA012009B030BD10B586B0012103201D
:103E300005F0B5FB01214FF4804005F0C6FB0020E2
:103E40008DF810008DF813000120039003A9C848D5
:103E500005F09AFC4FF48074039401208DF8130050
:103E600003A9C84805F090FC0021084606F004FBB1
:103E70000821012006F000FB00208DF80800012039
:103E80008DF80A0001900C208DF8090001A806F0B9
:103E9000A9FA019410208DF8090001A806F0A2FAF1
:103EA000204606F0E1FA17208DF800000F208DF86B
:103EB000010000208DF8020001208DF8030000A809
:103EC00006F009F80121002006F0D6FA00208DF84E
:103ED000080001208DF80A00022001900C208DF8C6
:103EE000090001A806F07EFA07208DF800000F20D7
:103EF0008DF8010000208DF8020001208DF80300EC
:103F000000A805F0E8FF06B010BD10B586B001218D
:103F1000032005F044FB01214FF4804005F055FBE0
:103F200000208DF810008DF813004FF400740394F6
:103F300003A9944805F028FC0921012006F09CFA09
:103F400000208DF8080001208DF80A000194082057
:103F50008DF8090001A806F045FA204606F084FA1B
:103F600017208DF800000F208DF8010000208DF83B
:103F7000020001208DF8030000A805F0ACFF06B098
:103F800010BD00B585B00121032005F008FB01211B
:103F90004FF4804005F019FB00208DF810008DF8DB
:103FA00013000820039003A9764805F0EDFB0321D8
:103FB000012006F061FA00208DF8080001208DF83C
:103FC0000A00082001900C208DF8090001A806F0D5
:103FD00009FA082006F048FA09208DF800000F20A1
:103FE0008DF8010000208DF8020001208DF80300FB
:103FF00000A805F070FF05B000BD30B58DB00446D7
:1040000001214FF4807005F0E0FA00A805F0F6FBFE
:104010000A20009003208DF8040000208DF807008E
:1040200000A9534805F0B0FB06F03AFA02A806F0E2
:104030007CFA4FF48030039002A806F068FA06A8D4
:1040400006F05BFADFF8145B06A9284606F035FA9D
:10405000072301222146284606F078FA0121284646
:1040600006F0B7FA0121284606F065FA0DB030BD1A
:1040700038B5DFF8E84A204606F0A6FA4FF47A751C
:104080000221204606F0BCFA002803D12846451E2E
:104090000128F5DA2046BDE8324006F0A5BA80B521
:1040A0000021DFF8B80A06F046FA00214FF48070CC
:1040B000BDE8044005F089BADFF87C0B0068704762
:1040C0000000000038B5040040D0012005F03CFF9E
:1040D000002006F0B4F84FF40055042006F030F943
:1040E000012804D12846451E80B20028F5D100EEF3
:1040F000104AB8EE400ADFED860A80EE800AF0EE44
:10410000000A20EE200ADFED830A80EE800ABDEE71
:10411000C00A10EE100A401E80B206F086F84FF476
:10412000804006F02CF94FF4800006F09DF9012044
:1041300006F085F8DFF8000B01218160046021465C
:104140000FF24400BDE83440FEF7E7BCDFF8E80AB0
:1041500000210160012005F0F7FE0020BDE832409B
:1041600006F06DB818ED00E000E400E010E000E0BB
:104170000000024000140140A06402402864024094
:104180000414014000040240536574525443203D1E
:104190002025640070B501240023DFF8401A1A4678
:1041A0008A608A6812F00C0FFBD1DFF8902A05466E
:1041B0000B2D45D8DFE805F01C44444406171C2BA2
:1041C00030353A3F8D6845F080058D60DFF8705AD4
:1041D0004FF4C0662E600D6825F080750D60DFF825
:1041E000645A15602DE02346DFF8B45A156028E0C4
:1041F0008D688D60DFF8485A4FF4C0662E600D68F8
:1042000025F080750D60DFF89C5A156019E00223D7
:10421000DFF8945A156014E00323DFF8905A156014
:104220000FE00423DFF8885A15600AE00523DFF861
:10423000845A156005E00623DFF87C5A156000E01B
:104240001C46002B4AD003EBC3030FF2D4055B19C5
:104250008D688D600D6825F080750D600D6825F006
:1042600080650D609D781E8845EA8615DE787608A3
:10427000761E45EA06451E7945EA06654D60DD88ED
:104280001E7A360746EA8515DFF8C06A35600D6884
:1042900045F080750D600D68AD01FCD55B7943F488
:1042A000C063DFF89C592B608B688B608B688B60D8
:1042B000052804D1886840F09000886005E00A284D
:1042C00003D1886840F480508860886840F002001C
:1042D0008860886800F00C000828FAD11068DFF8C0
:1042E000701A884207D2DFF8880A016821F4404139
:1042F00041F48041016010684FF47A71B0FBF1F035
:10430000FFF7ADF8204670BD10B30120001C02403D
:1043100000007A440000004700080240000C024000
:10432000200110040F03020103F00010060F010228
:104330000103C00010080F01020103C00010060FA6
:1043400001020103F00010060F01020103C8001072
:10435000040F02020103A80010020F030201030070
:1043600018E7002800E0401EFDD1704730B583B04B
:104370000725534988426AD101208DF804008DF841
:1043800005008DF8060000208DF807004020009001
:10439000DFF8E04900A9204605F0F6F980200090FA
:1043A00000A9204605F0F0F9402120464183C0468F
:1043B0000F20FFF7D6FF402120460183C0460F2083
:1043C000FFF7CFFF2846451E80B20028ECD18020A1
:1043D000009000A9204605F0D7F9402120464183EE
:1043E000C0460520FFF7BDFF802120460183C0465F
:1043F0000520FFF7B6FF402120460183C0460A2072
:10440000FFF7AFFF402120464183C0460520FFF75C
:10441000A8FF802120464183C0460520FFF7A1FF69
:1044200002208DF8040001208DF805008DF80600AB
:1044300000208DF807004020009000A9204605F0DC
:10444000A3F98020009000A9204605F09DF937BD12
:104450000010024038B50024DFF81C5901212868FB
:1044600005F09BFC286805F0CDFB2868FFF7BFF935
:1044700005E02868FFF77AFF2868FFF7B8F94FF4DE
:104480000031286805F094FC002802D0641C332C0D
:10449000EFDB31BD30B40022838A008BDFF8D848CF
:1044A000656843EA00400840000255EA1020606059
:1044B0000840884200D10122104630BC70470000FD
:1044C00000540040801A06002DE9F84F04460D46BE
:1044D00016464FF420691F78DFF89C884FF40031AE
:1044E000D8F8000005F064FC002808D04846A0F188
:1044F00001090028F2D1FFF7ADFF00208CE0D8F8C9
:10450000000001884FF6FF52114001800121D8F8C8
:10451000000005F015FC4FF4007AD1460020C8F8E1
:104520000400D8F800B0DFF854185846FFF7B2FF7F
:10453000002805D14846A0F101090028F1D163E027
:10454000D14600222146584605F012FC0020C8F84A
:104550000400D8F80040DFF828182046FFF79AFF3B
:10456000002805D14846A0F101090028F1D14BE00F
:104570003146C9B220460182C046D1460020C8F863
:104580000400D8F80040DFF8FC172046FFF782FF50
:10459000002805D14846A0F101090028F1D133E0F7
:1045A000012F15D1297820460182C046D14600202E
:1045B000C8F80400DFF8D017D8F80000FFF76AFF4A
:1045C000002823D14846A0F101090028F2D11BE0C0
:1045D0003846471EC0B2002818D015F8011BD8F87D
:1045E00000000182C046D1460020C8F80400DFF870
:1045F0009817D8F80000FFF74DFF0028E8D148468B
:10460000A0F101090028F2D1002005E00121D8F82D
:10461000000005F0A1FB0120BDE8F28F003800404A
:1046200000300140BCC40120886402401064024094
:104630002DE9F54F81B00D461E464FF420683778BE
:10464000DFF834474FF40031206805F0B1FB002853
:1046500008D04046A0F101080028F3D1FFF7FAFE88
:104660000020D3E0206801884FF6FF5211400180FE
:104670000121206805F064FB4FF40079C846002052
:104680006060DFF8F8A6D4F800B051465846FFF74E
:1046900001FF002805D14046A0F101080028F2D111
:1046A00091E000229DF80410584605F061FBC846D1
:1046B00000206060D4F800B0DFF8C4165846FFF759
:1046C000E9FE002805D14046A0F101080028F1D1FB
:1046D00079E0BDF80810C9B258460182C046C84604
:1046E000DFF8A816206805F063FB002805D14046D6
:1046F000A0F101080028F3D165E00121206805F050
:104700001FFBC84600206060D4F800B051465846F0
:10471000FFF7C0FE002805D14046A0F1010800289F
:10472000F2D150E001229DF80410584605F020FB1C
:10473000022FC84639DADFF85816206805F038FB32
:10474000002805D14046A0F101080028F3D13AE045
:104750000021206805F015FB2068018B012105F080
:10476000FBFAC846DFF82C16206805F021FB00286C
:1047700005D14046A0F101080028F3D123E02068CC
:10478000008AC0B228703078401E3070C846206859
:104790000188890505D54046A0F101080028F6D119
:1047A00011E0012105F0EDFA2BE000206060DFF858
:1047B000E8152068FFF76EFE002806D14046A0F1FC
:1047C00001080028F3D1002020E0012616E0012F87
:1047D0000CD1012E0AD100263146206805F0D1FA0D
:1047E0002068818A018B012105F0B6FA2068818A50
:1047F000490603D5008A05F8010B7F1EFFB2002F82
:10480000E5D10121206805F0BCFA0120BDE8FE8F4A
:104810000C30014000440040A0600240886002402B
:1048200004440040DFF874050168082933D1DFF83B
:10483000AC130A6842F080720A604268B2F1806F7D
:1048400003D10A6842F080620A600A689201FCD5CE
:104850008A6842F002028A608A6802F00C02082A22
:10486000FAD14268B2F1806F02D10A681201FCD518
:10487000DFF8C8130968DFF8D824914207D2DFF8BF
:10488000F0140A6822F4404242F480420A60002197
:104890000160416070474168B1F1806F0AD1DFF873
:1048A0003C130A6842F080620A600A681201FCD573
:1048B000002141607047000064930120DFF8E004AC
:1048C000016841F080510160DFF8A40401688908A3
:1048D000890041F001010160DFF8C8040FF21D01F9
:1048E00041607047DFF8C404016821F004010160F1
:1048F00030BF016841F004010160704738B5DFF84E
:10490000A844208840F004002080FEF782F8807AD6
:10491000012803D1012005F01AFB02E0002005F078
:1049200016FBDFF888548021DFF8840405F0C6FA0E
:10493000002818D172B6A948DFF86014826802F026
:104940000C020A60006800F080604860286840F04F
:104950000400286030BF62B6286820F00400286098
:10496000FFF760FF0CE0608840F00400608028687A
:1049700020F00400286030BF286840F00400286060
:10498000608840F00400608031BDDFF818044068A2
:1049900000470000DFF81C14401E052812D8DFE88D
:1049A00000F00306090C110FDFF8C8130AE0DFF866
:1049B000081407E0DFF8041404E0DFF8041401E051
:1049C000DFF800140846704710B50C46FFF7E2FF09
:1049D000214689B2BDE8104004F020BF10B50C4656
:1049E000FFF7D8FF214689B2BDE8104004F018BF98
:1049F000E0B500238DF8083001238DF80A30002A35
:104A000003D10C228DF8092002E008228DF809203C
:104A1000042840D8DFE800F00316222B2B000820E2
:104A2000019009208DF800000F208DF80100002072
:104A30008DF80200012924D118468DF803008DF865
:104A40000A0022E01846019010208DF80900062087
:104A50008DF800000E208DF80100E8E7022001909B
:104A600007208DF800000F208DF80100DFE74FF4DC
:104A70000070019017208DF800000F208DF80100C4
:104A8000D5E78DF803008DF80A0001A805F0AAFC0F
:104A900000A805F020FA07BD0821B64804F0B7BE0B
:104AA00010B5044601214FF4802004F078FD214622
:104AB000102005F0ECFB00214FF48020BDE81040F1
:104AC00004F06DBD10B501214FF4802004F067FDA6
:104AD000102005F0E9FB044600214FF4802004F08B
:104AE0005EFD7B2004F0A8FD002802D099A0FEF70F
:104AF00014F87A2004F0A0FD002802D096A0FEF75A
:104B00000CF8792004F098FD002802D093A0FEF75D
:104B100004F87C2004F090FD002802D090A0FDF75E
:104B2000FCFF7D2004F088FD002802D08DA0FDF759
:104B3000F4FF7E2004F080FD002802D08AA0FDF75B
:104B4000ECFF7F2004F078FD002802D087A0FDF75D
:104B5000E4FF04F083FD2046C0B210BD00200140F8
:104B60003EB50C4615460422014602A800F071FF2E
:104B70000422214601A800F06CFF0422294600A867
:104B800000F067FF02A9002005F052FA01A90020F9
:104B900005F0C7FA05F0C0FA04468B4A00230098D6
:104BA0001946101A63EB0101490341EAD041400361
:104BB00000F0D8FE0090844205D2011B4FF0004067
:104BC00005F07FFB37BDA04207D2C4F50050009925
:104BD00009184FF0004005F074FB37BD0038024063
:104BE0002DE9704384B004460D46164602A9002004
:104BF00005F06DFA01A9002005F0E3FA05F08CFA42
:104C00000090714AA2FB00894FEA583848EAC94827
:104C1000A2EB08000090042202A9204600F019FF30
:104C2000042201A9284600F014FF042200A93046FE
:104C300000F00FFFBDE87F83D8C70120DCD2002041
:104C4000003C024000127A0070B48C1E012C01DA84
:104C50000C34401E3C216425B0FBF5F5C5EB9005F6
:104C60004FF4C876B0FBF6F6751940F26F16744330
:104C70000C26B4FBF6F46419121940F26D1404FB0F
:104C80000020524A101800EB400203EBC200039AC6
:104C900001FB0020049A01FB002070BC704700005B
:104CA000809698000024F40000366E010048E80168
:104CB000005A620280F0FA0200BD01051CB50C46E4
:104CC00001680191416800918368C2680169491CCB
:104CD000406900F26C70FFF7B7FF2060002016BD3E
:104CE00010B58EB03A480068C404E40C01A9002055
:104CF00005F0EDF900A9002005F063FA9DF8040025
:104D000006909DF8050005909DF8060004909DF81A
:104D10000100401E08909DF8020007909DF80300D6
:104D20006430099002A904A8FFF7C8FF4FF47A7015
:104D300010FB04F0400BC0F57A700390029A4FF418
:104D40007A73C117E3FB02010EB010BD8438024034
:104D500001879303504F520050494E00424F52007A
:104D60005346540049574400575744004C5057008D
:104D7000007000400004024018D30020010003002E
:104D80008200070080000700840007000400001074
:104D9000020000104000001002000300C8C80120FB
:104DA00040380240D8C701201800024010ED00E052
:104DB000003001400000024000080240000C0240A8
:104DC00000100240001C024000CA9A3B7505F5FF26
:104DD00028280040506002604160086070470A68FF
:104DE000F8E748600160704701684068F9E7F8B586
:104DF0000600DFF8805901D52846F2BD2C46002078
:104E0000A96900E0096805F11802914204D00C4636
:104E1000A2689642F6D10120002840D1286AD0F835
:104E20008070182005F0F4FB0446A660002F05D022
:104E3000B74203D2B6FBF7F0784300E03046E060BB
:104E4000002F02D0B74200D23E46266100202075D6
:104E5000DFF824693078401C30707078F021084207
:104E600002D0992001F05AF901F0C5F97078401C80
:104E7000707005F118012046FFF7B1FF7078F0213E
:104E8000084202D0992001F049F97078401E7070F4
:104E9000C0B2002801D101F0A8F901F0D6FB2046EC
:104EA000F2BD38B5044694F91400002829D1DFF882
:104EB000C8582878401C28706878F021084202D031
:104EC000992001F02BF901F096F96878401C687080
:104ED0002046FFF789FF204605F0B2FB6878F021F5
:104EE000084202D0992001F019F96878401E6870D4
:104EF000C0B2002801D101F078F9BDE8314001F0DD
:104F0000A4BB31BDF8B5044608466FF00045FFF775
:104F10006EFF064694F9050094F90410814214D1FD
:104F2000C01C800005F074FB074694F905000128B9
:104F300007DB82002168384600F08BFD206805F011
:104F40007FFB27606079C01C607194F90400411CEC
:104F50002171216841F82060DFF81808864202D0EC
:104F6000307D401C3075002008E0216851F8201089
:104F70008A68954201DB1546A160401C94F9041033
:104F80008842F2DBF1BDF8B504466FF00046DFF869
:104F9000E427154610464FF0FF33002704E066452E
:104FA00001DB664675467F1C94F904C067450DDA3F
:104FB000D4F800C05CF827E0DEF808C0002BEED57E
:104FC0008C45ECD170463B465BB2ECE7002B11D42C
:104FD000BCF1010F0EDB06E0216801EB8306766869
:104FE00041F823605B1C94F904104E1EB342F3DBBE
:104FF000491E2171904204D0017D491E0175FFF7C1
:1050000050FFA560F1BD10B4C26A836B406C9C6810
:10501000002C02D56FF0004300E01B698468002C6F
:1050200002D56FF0004000E00069984200DD1846AC
:10503000D2685143884201DB012000E0002010BC0F
:10504000704738B5DFF82C170A6AD36E012490F93F
:105050000850AC402343D36601F6A451FFF7BFFECE
:10506000012032BD10B5DFF80C17096ACA6E0123A2
:1050700090F90840A3409A43CA66FFF7B5FE0120A5
:1050800010BD012070472DE9FC4104460D4616462F
:105090001F4604F12400FFF735FF07EB470004EB40
:1050A0008008314608F13000FFF72CFF019598F990
:1050B000340000903B46627A94F908100FF20470B5
:1050C000FDF72BFDBDE8F3812DE9FC4104460D46BB
:1050D00016461F4604F12400FFF755FF07EB470073
:1050E00004EB8008314608F13000FFF74CFF0195D2
:1050F00098F9340000903B46627A94F908100FF258
:10510000D860FDF70AFDBDE8F381C16A8A68012A0B
:1051100009DB0969012906DA006D002801D50020A4
:105120007047022070470020704701EB410200EBFE
:105130008201896B8A68012A09DB0969012906DA7B
:10514000006D002801D50020704702207047002024
:105150007047002900D5D8E7E7E7012900DA0121E7
:1051600013460A468FE7012900DA012113460A4651
:10517000AAE7DFF80806C06A417A481E8041C00FDE
:10518000704713464FF0FF3211467CE713464FF04D
:10519000FF32114698E780B5DFF8E0050068417AF4
:1051A000002902D1806F40688047012002BD80B590
:1051B000FFF758FFDFF8C4050068417A002902D1E3
:1051C000806F80688047012002BDB1F57A7F01DCE5
:1051D0004FF47A7113460A464FF4FA7153E7B1F56A
:1051E0007A7F01DC4FF47A7113460A464FF4FA7164
:1051F0006AE710B50446002922D5E06A81680129D2
:105200001CDB0069012819DA02212046FFF7FBFEAA
:10521000002813D194F9540010F1010F04D100209B
:1052200084F85400012010BD002807D101206077C8
:105230004FF0FF3084F85400022010BD002010BD54
:10524000BDE8104071E74FF0FF3280F85420F8E6D7
:10525000DFF82025126AD2F88020A032524202657F
:10526000EFE600290AD5C06A8168012904DB0069DC
:10527000012801DA022070470020704755E7B52960
:1052800000DAB42113460A463C21FCE6B52900DACF
:10529000B42113460A463C2116E710B504460029FE
:1052A00027D5E06A8168012921DB006901281EDA1F
:1052B00003212046FFF7A7FE002818D194F95400D7
:1052C000014611F1010F04D1002084F8540001209F
:1052D00010BD002803D1012084F8540010BD01291D
:1052E00005D14FF0FF3084F85400022010BD00209B
:1052F00010BDBDE8104018E74FF0FF3280F8542091
:10530000DFF87024126AD2F88020B432524202656B
:1053100097E6DFF86024126AD2F8802046325242C3
:1053200002658EE6DFF84C24126AD2F880204632FD
:105330005242026585E613463C221146A3E6134617
:105340003C221146C0E6002918D5C16A8A68012AA4
:1053500014DB0969012911DA90F85410491C80F80E
:10536000541049B2002901D101207047012905D10B
:105370004FF0FF3180F85410022070470020704732
:1053800013464FF0FF3211467DE613464FF0FF32D1
:10539000114699E680B5FFF754FEFDF73AFB002170
:1053A0000175012002BD80B5FFF75CFEFDF731FB02
:1053B00000210175012002BDF8B50C46DFF8BC13D1
:1053C00051F82050287205F154060FF22041B162C5
:1053D0001A2800F25781DFE810F01B00300042006D
:1053E0006B00570080008F009D00D500AB00C70008
:1053F000E300F100FD00080113011F012A01400133
:1054000040014001400140014001B9004B0135011C
:10541000D848016A072281F8842005F10801062294
:105420004A760A228A7600F6AC50486040F2DC5098
:1054300088600FF2D430B06224E1CE48016A843132
:1054400003224A7005F1080106224A760A228A766A
:1054500000F59850883048606420886012E1C548A3
:10546000016A843100228A7005F108010C224A7613
:1054700010228A7600F5A0500C30486010468860F3
:105480000FF2D830B062FDE0BA48016A84310022E0
:105490000A7105F1080107224A760B228A7600F587
:1054A000A0504860104688600FF2B030B062E9E06A
:1054B000B048016A84310022CA7005F10801062251
:1054C0004A760A228A7600F5A0501C3048601046C1
:1054D00088600FF28830B062D4E005F10801062040
:1054E00048760A208876A64848604FF4FA708860AB
:1054F0000FF28430B062C5E005F10801142048764F
:10550000182088769F484860182088600FF2F43091
:10551000B062B7E005F108010320487607208876DD
:1055200099484860072088600FF2A030B062A9E077
:1055300005F108010A2048760E20887693484860D5
:105540000E2088600FF24C30B0629BE005F108013C
:105550000C204876102088768D484860102088609E
:105560000FF24C30B0628DE005F108010220487660
:105570000620887687484860062088600FF26830E9
:10558000B0627FE005F108010520487609208876A1
:1055900081484860092088600FF2A420B06271E061
:1055A00005F10801062048760A2088767B48486085
:1055B0000A2088600FF26C20B06263E005F10801F8
:1055C00001204876052088767548486040F286605C
:1055D000886057E005F108010120487605208876AB
:1055E00070484860052088604CE005F108010C20F7
:1055F0004876102088766C4848601020886041E02A
:1056000005F1080111204876152088766748486022
:1056100041F66630886035E005F1080111204876D2
:105620001520887662484860152088602AE005F1D8
:10563000080104204876082088765E4848600820E3
:1056400088601FE005F1080124204876052088764F
:10565000594848600520886014E005F108010120E0
:10566000487605208876554848600520886009E01E
:1056700005F10801062048760A20887650484860DF
:105680000A20886005F108010020087548758875B2
:105690000876C8600861487005F12807B8624FF0C5
:1056A000FF3085F8540070800622002105F1580073
:1056B00000F0D6F900210B460DE001EB410205EBAD
:1056C000820282F8343034325370506005EB81002E
:1056D0001A468264491C27480229EEDB194685F8E0
:1056E0002810797078607462F1BD10B5214CFDF717
:1056F000A3FE20620020214A05E004EBC011243102
:1057000042F82010401C1B28F7DB4FF0FF30A06050
:10571000E06000202061FDF77CF990F80E0200287F
:1057200002D0022805D008E006F089FB07F0B4F9A2
:1057300003E008F0DBF808F0A3FE09F06FFBFBF7CD
:105740003BFF0AF0ABF8FBF77BFFFCF7DFFAFDF756
:105750007BF80AF073FC0AF072FD0AF081FD0AF092
:1057600069FD0AF082FD0AF00DFFBDE810400AF065
:1057700081BD000008600020CCD10020648301209E
:1057800030740020247600206876002048760020BF
:1057900058760020707600203C7600207876002035
:1057A00084760020147D00201C7D00202C7D0020AC
:1057B000949800200C7D0020AC980020F473002009
:1057C000FC730020414420256420256420256420AA
:1057D00025642C2025640000524D2025642025647A
:1057E00020256420256420256400000083500008E3
:1057F0004350000883500008655000085B510008C2
:1058000067510008535100087351000843500008C5
:1058100073510008655000085B510008675100088B
:105820005351000897510008435000088350000866
:10583000AF510008835100088D51000853510008F2
:105840008350000847520008835000086550000844
:10585000CB510008DF510008F351000883500008C5
:105860005152000883500008655000085B51000841
:10587000675100086352000883500008F95200087D
:1058800083500008655000087F5200088D520008C0
:105890009B520008835000081353000883500008EF
:1058A000655000085B51000867510008535100081B
:1058B00083500008255300088350000865500008F5
:1058C000375300083F53000847530008835000082F
:1058D0009553000883500008A7530008815300081F
:1058E0008B530008535100088350000843500008B0
:1058F00083500008655000085B510008675100089C
:10590000535100088350000843500008835000089A
:1059100065500008815300088B530008535100085C
:1059200013F0004C03D55B42524263F100039CEA42
:10593000210C00F0178010B5644603D34942404261
:1059400061F1000100F00EF8640004D349424042C6
:1059500061F10001244203D55B42524263F100032E
:1059600010BD00001B4213D1094236D12AB1844632
:10597000B0FBF2F002FB10C270470AF029BEFCD364
:105980000022002370470B00020000210020704716
:10599000904271EB030CF6D370B5B1FA81F4B3FA0F
:1059A00083F52C1BA340C4F1200532FA05F63343DE
:1059B000A2405FF00046E64002E05B085FEA320288
:1059C000841A71EB030524BF204629467641F4D39F
:1059D00002000B003000002170BD012ACFD970B544
:1059E000140C20D0B1FA81F4B2FA82F5C4F120048B
:1059F0006419B4F12006D6D3B2405FF00044F440FD
:105A0000002502E052085FEA3303C61A71EB020E6A
:105A100024BF3046714664416D41F3D302000B0050
:105A20002000290070BD0C46B1FBF2F102FB1145CC
:105A30002D0445EA1045B5FBF2F402FB145580B283
:105A400040EA0545B5FBF2F002FB105240EA044083
:105A500070BD10B50400200003F096FB200010BDBF
:105A600010B5040010000A00010020000AF0B2FD89
:105A7000200010BD0AF071BE2DE9F84F82460E4697
:105A800017460A9DADB2A846A8F1010007FB1064B5
:105A90007008B8F1020F0DDBFE280DDADDF830904A
:105AA0004FF4807200214846FFF7DAFF00220B987E
:105AB0000D992BE0FF28F1DD002044E05AF822C0C8
:105AC00030F813E0F44509D102EBD27C4FEA6C0CBC
:105AD0001CF809E04EEA031E0CF809E00AEB820C00
