:1000000000600020653C0308E5DC0208F9DC02081A
:100010000DDD020821DD020835DD020800000000C8
:1000200000000000000000000000000049DD0208A0
:100030005DDD020800000000B55A00085BF1000811
:10004000A33D0308A73D0308AB3D0308FFE20208F8
:10005000B33D030867E40208B1DF020841E102088A
:10006000CDE10208C73D0308CB3D0308CF3D03089F
:10007000D33D0308D73D0308DB3D0308DF3D0308FC
:10008000E33D0308E73D0308EB3D0308EF3D0308AC
:10009000F33D0308F73D0308FB3D0308FF3D03085C
:1000A000033E0308073E03080B3E03080F3E030808
:1000B000133E0308173E03081B3E03081F3E0308B8
:1000C000233E0308273E03082B3E030875DD020884
:1000D000333E0308373E03083B3E03083F3E030818
:1000E0006BE20208CBE302084B3E03084F3E0308D5
:1000F000533E0308573E03085B3E03085F3E030878
:10010000633E0308673E03086B3E03086F3E030827
:10011000733E0308773E03087B3E03087F3E0308D7
:10012000833E0308873E03088B3E03088F3E030887
:10013000933E0308973E03089B3E03089F3E030837
:10014000A33E0308A73E0308AB3E0308AF3E0308E7
:10015000B33E0308B73E0308BB3E0308BF3E030897
:10016000C33E0308C73E0308CB3E0308CF3E030847
:10017000D33E0308D73E0308DB3E0308DF3E0308F7
:10018000E33E0308E73E030838B50020ADF8000061
:10019000044601F094FF05464FF48051204602F0DA
:1001A000F2F90A21284602F077F900E0641C062CD7
:1001B00012D2DFF8FC0C215C8DF800102018007AB8
:1001C0008DF80100022300AA7221072002F06FF8C7
:1001D0000028EBD1002032BD012032BD2DE9FC41C9
:1001E0000746884602F030FB04460020ADF80400C4
:1001F000DFF8C05C288C0646B8F1000F02D0384307
:10020000288401E0B8432884012000900DF1060302
:10021000AB227221062002F0A4F8002801D10020B0
:10022000C4E1288C0E2800F2A681DFE810F00F0050
:10023000A4011C00A4013F00A4013F00A401B700D9
:10024000A401B700A401B700A401B70080208DF875
:10025000040000208DF805009DF8060000F0FD0068
:100260008DF8060087E116F00C0F01D001206875AB
:1002700081208DF8040001AEEE207070022301AAE7
:100280007221092002F013F8002801D100208DE12D
:100290007078E87080208DF80400032070709DF85D
:1002A000060000F0FD008DF8060064E1304600070E
:1002B00001D4022E01D1012068759D208DF8040023
:1002C00001AE0C207070022301AA7221092001F0F6
:1002D000EEFF002801D1002068E19E208DF8040087
:1002E0000C207070022301AA7221092001F0DFFFA7
:1002F000002801D1002059E181208DF80400FD2063
:100300007070022301AA7221092001F0D0FF002899
:1003100001D100204AE17078E8708E208DF8040049
:10032000287A002812D00C218F2002F05EFB0421D5
:100330008F2002F031FB3021902002F056FB30215B
:10034000902002F029FB4520707011E00C218F20D5
:1003500002F04BFB08218F2002F01EFB3021902081
:1003600002F043FB1021902002F016FB82207070F7
:10037000022301AA7221092001F099FF002801D16E
:10038000002013E180208DF80400272070709DF874
:10039000060000F0FD008DF80600ECE016F00807FE
:1003A00001AE4FD102F02AFC01206875A4208DF81F
:1003B000040000207070DFF87C0D00210170022322
:1003C00001AA7221092001F072FF002801D100204A
:1003D000ECE0A5208DF8040000207070DFF8580DC7
:1003E00000210170022301AA7221092001F05FFFA0
:1003F000002801D10020D9E0A7208DF804000020BA
:100400007070DFF8A80D00210170022301AA72218B
:10041000092001F04CFF002801D10020C6E0A920EE
:100420008DF8040000207070DFF8840D0021017049
:10043000022301AA7221092001F039FF002801D10D
:100440000020B3E081208DF80400FE2070700223AC
:1004500001AA7221092001F02AFF002801D1002001
:10046000A4E07078E8708E208DF80400287A0028C7
:1004700012D00C218F2002F0B8FA04218F2002F054
:100480008BFA3021902002F0B0FA3021902002F057
:1004900083FA4F20707011E00C218F2002F0A5FA32
:1004A00008218F2002F078FA3021902002F09DFA86
:1004B0002121902002F070FA84207070022301AA9A
:1004C0007221092001F0F3FE002801D100206DE027
:1004D000002F20D1B4F88A00B4F88C10401AE883B9
:1004E000B4F88A108900A98389B2FF2901D3FE21BB
:1004F000A98380B28100652902DB6420E88301E0E2
:100500008000E883A98BE88B0A1AEA8392B20FF283
:10051000A00001F056FEA6208DF80400287A0028DD
:100520000AD06021A32002F060FA4121A32002F04A
:1005300033FA5720707009E06021A32002F055FAC9
:100540004121A32002F028FA8B207070022301AA17
:100550007221092001F0ABFE002801D1002025E026
:1005600080208DF80400672070709DF8060040F030
:1005700002008DF80600022301AA7221092001F071
:1005800096FE002801D1002010E0AB208DF8040079
:100590009DF806008DF80500022301AA72210920AA
:1005A00001F085FE401E8041C043C00FBDE8F681CA
:1005B000233E6755703D25642C674C6F3D256400D4
:1005C00010B534220021DFF8900C02F0A1FEDFF814
:1005D000E4480120A07102F0A5FE02F02FFA0120EC
:1005E0002073DFF8EC0D0021017010BD10B582B052
:1005F0000FF25C0001F0E5FD0020ADF80000802066
:100600008DF8000000AC03206070022300AA722164
:10061000062001F04CFE002818D0DFF89808817AF7
:1006200000290DD08C218DF800100021617081709F
:10063000022300AA7221062001F039FE002805D00D
:10064000FFF7BEFF01210020FFF7C8FD13BD00002A
:10065000233E484C5300000010B582B00FF240001A
:1006600001F0AFFD0020ADF80000044600E0641C7E
:10067000052C12D2DFF85C0D215C8DF800102018DB
:10068000007A8DF80100022300AA7221072001F0F0
:100690000EFE0028EBD1002016BD012016BD000083
:1006A000233E50525000000030B583B00FF284005A
:1006B00001F087FD0020ADF804008DF80600DFF89A
:1006C000F447607180208DF8040001AD032068704C
:1006D000022301AA7221072001F0E9FD002801D1BF
:1006E00000203EBD8C208DF8040000206870A070B2
:1006F000022301AA7221072001F0D9FD002801D1AF
:1007000000203EBD0120607201460420FFF766FD17
:10071000002801D100203EBD012000900DF106030C
:10072000E5227221072001F01CFE401E8041C043DB
:10073000C00F3EBD233E50524F00000000B583B0B5
:100740000FF2600001F03DFD0020ADF806008DF8CD
:10075000040080208DF8060003208DF80700022396
:100760000DF106027221072001F0A1FD002801D140
:1007700000200EBDDFF83C07002141720420FFF786
:100780002DFD002801D100200EBD0120009001ABFD
:10079000E5227221072001F0E4FD401E8041C043A4
:1007A000C00F0EBD233E5052430000000120704791
:1007B00030B583B004460020ADF80400DFF8F456ED
:1007C000A87B00282CD1A87A002802D0287C207091
:1007D00031E0012000900DF10503932272210720E2
:1007E00001F0BFFD00280DD09DF80500800722D53F
:1007F0000120009001AB9C227221072001F0B1FD85
:10080000002801D100203EBD9DF80400697951FA0D
:1008100080F080B2400820709DF8040068710AE002
:10082000012808D1DFF8300A41696A79891849102E
:1008300021704069687101203EBD2DE9F04391B0FF
:10084000044602F001F8054601F039FC0646002096
:10085000ADF80800ADF80C008DF80A0001200090FA
:100860000DF10A0393227221072001F07AFD00287E
:1008700001D1002024E20220009003AB94227221D7
:10088000072001F06EFD002801D1002018E2DFF8FA
:1008900024769DF80D009DF80C1041EA0020DFF849
:1008A0000C1D4843F978C1F580713A79DFF8003DB5
:1008B000D25C12FB01F140F24232514390FBF1F065
:1008C000797B002902D0B97A002901D1B86208E009
:1008D000B86AF97D4A1CFA75062902D3002179739A
:1008E000F975397A00290CD141F6593188422DDB4E
:1008F00001213972F86200203876FFF777FE012077
:10090000DEE1F96A411A44F62162914215DA40F6B5
:10091000B831884218DA9DF80A20920614D53A7E3A
:10092000531C3B76C92A04D2BA7A002A0ED18842D7
:100930000CDA884201DA00213972F8620020387638
:10094000FFF754FE0120BBE1002038769DF80A0035
:10095000800640F1B4810020B873012000900DF1B1
:100960000A0393227221072001F0FBFC002801D129
:100970000020A5E19DF80A0080071BD5012000900A
:1009800003AB9C227221072001F0EBFC002801D16F
:10099000002095E19DF80C00797951FA80F080B241
:1009A000400860709DF80C00F8739DF80C00787199
:1009B00060783874387B002802D00020387371E1E9
:1009C000DFF8108D607888F80000B87900280AD028
:1009D00002F03EF8002806D1B87A002803D06078EB
:1009E00002F048F87AE0787A002839D0B87AB978F5
:1009F000084335D1002030758C208DF808000DF1AA
:100A00000809202089F80100B870022302AA722187
:100A1000072001F04CFC002801D1002050E1892082
:100A20008DF80800002089F80100022302AA722133
:100A3000072001F03CFC002801D1002040E18B2080
:100A40008DF80800B5F88A0089F80100022302AA8F
:100A50007221072001F02BFC002801D100202FE19A
:100A6000B87A00280ED105F18A004288B5F88A10BC
:100A70000FF2542001F0A5FB61780FF25C2001F029
:100A8000A0FB2BE0414684B06846182203F048F8EA
:100A90000FBC02F058FC04A802F0BBFCDFF8B49CC9
:100AA000484604A9342203F03BF899F81C000028BA
:100AB00007D034224946DFF8A00703F05CF8012094
:100AC000787009F11C00417D88F81410817D88F848
:100AD0001510007D002801D0FFF772FD787A0028FC
:100AE00000F0E080B87A002840F0DC806078B5F84B
:100AF0008A10884231D3307D00282ED10120F87130
:100B000020702078307589208DF808000DF10809D3
:100B100005F18A00408889F80100022302AA7221A7
:100B2000072001F0C4FB002801D10020C8E08B2081
:100B30008DF80800FF2089F80100022302AA722123
:100B4000072001F0B4FB002801D10020B8E0617853
:100B50000FF2901001F035FBA4E005F28A00418805
:100B60006278914231D3317D01292ED10120F87173
:100B7000002020702078307589208DF808000DF154
:100B80000809002089F80100022302AA7221072027
:100B900001F08DFB002801D1002091E08B208DF821
:100BA0000800B5F88A0089F80100022302AA722120
:100BB000072001F07CFB002801D1002080E0617853
:100BC0000FF2281001F0FDFA6CE0B5F88A10627897
:100BD000914235D3317D002932D1797C01292FD141
:100BE0000120F87100202070207830750020787482
:100BF00089208DF808000DF10809002089F801000E
:100C0000022302AA7221072001F051FB002801D122
:100C1000002055E08B208DF80800B5F88A0089F88F
:100C20000100022302AA7221072001F040FB0028E4
:100C300001D1002044E00FF2BC0001F0C2FA31E023
:100C40006178428891422DD3317D01292AD1797C66
:100C5000012927D10021797489218DF808100DF11F
:100C60000809408889F80100022302AA722107209E
:100C700001F01DFB002801D1002021E08B208DF820
:100C80000800FF2089F80100022302AA7221072030
:100C900001F00DFB002801D1002011E00FF25C00F3
:100CA00001F08FFA0120009003ABE52272210720AA
:100CB00001F057FB401E8041C043C00F00E0002000
:100CC00011B0BDE8F0830000233E55703D25642C33
:100CD0004C6F3D2564000000233E505241572025B3
:100CE00064000000233E503120256400233E503232
:100CF00020256400233E526554483100233E52654E
:100D0000544832002DE9F84304460D46694EB07C44
:100D1000002805D000F011FF0020F0743075C5E008
:100D200001F092FD804600273846ADF8000020789B
:100D3000072823D16078FF2820D12946601CFFF7BF
:100D400037FD6078B8F88A10884208D301202070F7
:100D5000627821780FF2601001F033FA0CE0B8F8F5
:100D60008C006178884207D33846207062782178F9
:100D70000FF2441001F025FA012097E00020F074F2
:100D8000307529462046FFF758FD00280DD0707AAF
:100D900000280AD0F079002807D00FF2301001F0B7
:100DA00010FA0020F07101203075B07A002877D059
:100DB000DFF84C8DD8F8189009F10C00417DC0681F
:100DC000D9F80C20801800F049FA002868D0DFF824
:100DD00000060078411E8941C90FF174707800281F
:100DE00001D000207070707A002857D0D9F80C001C
:100DF00040780DF1000989F80100B18B814218D2C9
:100E000001F05DF9007D002813D1707E401C7076E2
:100E1000C0B202282DD100207076012701F04FF9D1
:100E20003946017599F801100FF2A80001F0C9F9CF
:100E30001FE099F80100F18B884218D201F03FF9C8
:100E4000007D012813D1707E401C7076C0B202284C
:100E50000FD100207076012701F031F900210175D2
:100E600099F801100FF2780001F0ABF901E00020D1
:100E70007076002F12D0D8F81C8001F020F9007D88
:100E80008DF8000008F10C00427D00A9C068D8F878
:100E90000C30C01802F06FFE012030750020307059
:100EA00003F0F2FE00283FF469AF307DBDE8F28325
:100EB000B09A0020C8990020233E536C65657020CD
:100EC000414443202564202564000000233E505502
:100ED00050000000233E677570312025640000003B
:100EE000233E67757032202564000000F8B5074680
:100EF0000020ADF8000001F0A7FC0546DFF8104D1A
:100F0000012060743878A5F88A0005F28A0678789E
:100F10007080B5F88A00002802D07088002808D1B7
:100F20000FF2940001F04DF97820A5F88A00002016
:100F3000708089208DF8000000AF708878700223DF
:100F400000AA7221072001F0B2F900280DD08B20F1
:100F50008DF80000B5F88A007870022300AA72218B
:100F6000072001F0A4F9002801D10020F2BD728809
:100F7000B5F88A100FF2480001F023F9B5F88A009D
:100F80007188401AE083B5F88A108900A18389B27C
:100F9000FF2901D3FE21A18380B28100652902DBF4
:100FA0006420E08301E08000E083A08BE18B401AA5
:100FB000E0830120F2BD0000233E5054483D300044
:100FC000233E5448534554202564202564000000E6
:100FD00080B50FF21801072004F0C0FA0FF23001BB
:100FE0000A20BDE8044004F0B9BA00005906000820
:100FF000A90600083D070008AD0700080000000032
:10100000050D0008ED0E00080000000000000000C3
:1010100059060008A90600083D070008AD070008AA
:1010200000000000B1070008ED0E000800000000FD
:101030000000000010B582B00FF2540001F0C1F8BA
:101040000020ADF80000FFF79FF8002803D10FF251
:10105000480001F0B6F8002400E0641C0B2C12D20A
:10106000DFF87C0D2118097B8DF80010205C8DF8CD
:101070000100022300AA7221062001F018F90028BD
:10108000EBD1002016BD03F033F8012016BD00009F
:10109000233E474550000000233E47504641494CFF
:1010A0000000000038B50FF2940001F08AF800202B
:1010B000ADF8000080208DF8000000AC03206070C7
:1010C000022300AA7221062001F0F1F8002801D1C4
:1010D000002032BD8C208DF8000000206070DFF809
:1010E000305BA870022300AA7221062001F0DFF80D
:1010F000002801D1002032BDA3208DF80000DFF8C8
:10110000E00CC0786070022300AA7221062001F072
:10111000CEF8002801D1002032BD0120A872FFF7CF
:101120004FFA01210820FFF759F8401E8041C043C3
:10113000C00F32BDCF600120D0600120233E474563
:101140004F00000010B582B00FF2680001F039F8CE
:101150000020ADF8000080208DF8000000AC0320D6
:101160006070022300AA7221062001F0A0F8002876
:1011700001D1002016BDDFF86C0C0021817208201F
:10118000FFF72CF8002801D1002016BD9F208DF814
:10119000000000206070022300AA7221062001F0E6
:1011A00086F8401E8041C043C00F16BDD1600120AB
:1011B000D2600120233E47454300000001207047D4
:1011C00030B58DB0DFF8485AA879002814D001F066
:1011D0003FFC002810D0DFF8FC44201D0FC801F0B0
:1011E00035FD01F03EFC002832D00020A87101201E
:1011F00060752075A0752BE0A879002828D1DFF84C
:10120000D444214684B06846182202F089FC0FBC01
:1012100002F0CCF800A802F0FCF8DFF838552846B8
:1012200000A9342202F07CFC05F11C00417D2175EF
:10123000817D6175007D002801D0FFF7C1F9287F0D
:10124000002805D034222946DFF8FC0C02F093FC7C
:1012500001200DB030BD0000845D012010B584B0C8
:10126000044602A8002101600846ADF804000120F0
:10127000009001AB93227221062001F072F8002841
:1012800000F088809DF8040010F0040004D1DFF81D
:101290008019497800297DD0002806D0DFF8700930
:1012A0004178002901D101218173012000900DF1C5
:1012B0000503AE227221062001F053F8002869D000
:1012C0009DF80500002817D00420009002ABFC22F6
:1012D0007221062001F045F800285BD0DFF8F40306
:1012E0009DF80810416002A94A7882608A78C2603D
:1012F000C9780161FFF764FFDFF84C1C0A78DFF85A
:1013000010094378002B227007D000226270A2706F
:10131000E27022716271A2710BE04A6962708A699F
:10132000A2704A68E2708A682271CA6862710A69AA
:10133000A2710A6AE2714A6A22728A6A6272CA6A8F
:10134000A2724A7FE272DFF8042C12782273DFF86F
:10135000002C12786273DFF8FC2B1278A273DFF88E
:10136000F82B1278E273DFF8F42B12782274DFF88E
:10137000F02B12786274DFF8EC2B1278A274C27B27
:10138000E274002202700878042801D11046087027
:10139000012000E0002004B010BDDFF8480AC07C46
:1013A000704780B5052802D1084600F002F80120F8
:1013B00002BD80B5017841F04103DFF8AC1BCB7072
:1013C000027801780FF6C03000F0FBFE012002BD6C
:1013D0004A640120C09A002070B584B00446002001
:1013E000019002A8002101600E460FF6B03000F017
:1013F000E8FE01210820FEF7F1FEA0208DF8040090
:1014000001AD30466870022301AA7221062000F067
:101410004EFF002801D13046C5E0A1208DF8040020
:10142000FF206870022301AA7221062000F03FFF0E
:10143000002801D13046B6E0AB208DF80400012031
:101440006870022301AA7221062000F030FF0028F4
:1014500001D13046A7E0012000900DF10603802263
:101460007221062000F07DFF002801D130469AE06D
:1014700080208DF804009DF8060040F0450068705B
:10148000022301AA7221062000F011FF002801D1D9
:10149000304688E0A3208DF80400DFF84409C078C6
:1014A0006870022301AA7221062000F000FF0028C4
:1014B00001D1304677E0012000900DF10703AF2203
:1014C0007221062000F04DFF002801D100206AE0C3
:1014D0009DF80700C0070BD50420009002ABFC224A
:1014E0007221062000F03DFF00280CD100205AE0B8
:1014F0003046461CB0F57A7FDDDB0FF6A82000F001
:1015000060FE00204FE09DF80800207002A841789E
:1015100061708178A170C078E070012000900DF1B9
:10152000060380227221062000F01BFF002801D153
:10153000002038E080208DF80400DFF8A808417A08
:10154000002905D09DF8060000F0BF0068700CE08F
:101550009DF8061001F0BB016970C07A002804D123
:101560009DF8060000F0BA006870022301AA7221FB
:10157000062000F09CFE002801D1002013E0AB20E3
:101580008DF8040000206870022301AA7221062051
:1015900000F08DFE002801D1002004E00021082089
:1015A000FEF71CFE012004B070BD0000D8D0010081
:1015B000402000080FF68C21062003F0CFBF1CB599
:1015C0000FF6EC1000F0FDFD00208DF80400ADF8E2
:1015D0000600044600E0641C052C13DADFF88C09D1
:1015E000215C8DF806102018007A8DF80700022380
:1015F0000DF106027221092000F059FE0028EAD1FF
:10160000002016BD0120009001ABD62272210620D9
:1016100000F0A7FE002801D1002016BD9DF804109F
:101620000FF6941000F0CDFDDFF8B8079DF8041018
:10163000C9098176012016BD30B583B0DFF8A44713
:10164000A07E002804D00FF6801000F0BAFD03E061
:101650000FF67C1000F0B5FD0020ADF804008020EE
:101660008DF8040001AD03206870022301AA7221E5
:10167000092000F01CFE002801D100203EBD8F2073
:101680008DF804000B206870022301AA7221092042
:1016900000F00DFE002801D100203EBD0320207186
:1016A0000120A075E07201460220FEF797FD002898
:1016B00001D100203EBD012000900DF10603E6227D
:1016C0007221092000F04DFE401E8041C043C00F32
:1016D0003EBD00005460012000B583B00FF6F80055
:1016E00000F06FFD0020ADF8060080208DF80600A8
:1016F00003208DF8070002230DF106027221092054
:1017000000F0D5FD002801D100200EBD0120009081
:1017100001AB8F227221092000F023FE002801D1A5
:1017200000200EBDDFF8BC060021C1720220FEF7CA
:1017300055FD002801D100200EBD0120009001AB15
:10174000E6227221092000F00CFE401E8041C043B9
:10175000C00F0EBDB85D0120012070472DE9F0419A
:1017600084B004460020ADF804000290DFF8900336
:10177000456A002085F85E00DFF86866B07D0128C4
:1017800003D0707D002840F090800220009001ABD3
:1017900094227221092000F0E4FD00282DD09DF84C
:1017A0000400A07101AF7878E0710220009001ABD5
:1017B00096227221092000F0D4FD00281DD09DF84A
:1017C00004002070787860700220009001AB9822AD
:1017D0007221092000F0C5FD00280ED09DF80400FC
:1017E000A0707878E0700220009001AB9A227221FC
:1017F000092000F0B6FD002801D1002097E09DF8F7
:101800000400207178786071F0782072307960720D
:101810006078217841EA0020E178A27842EA01214B
:101820006279237943EA0222E379A77947EA03231D
:1018300002AF009700F0CCF800281BD1B07D012842
:1018400034D10020B075DFF828075B21017000213A
:101850004170852181700021C170AE21017100218C
:101860004171702181710121C171EE21017200214C
:1018700041721BE00020B075DFF8F406217801709A
:1018800061784170A1788170E178C170217901712E
:1018900061794171A1798171E179C171217A017216
:1018A000617A41720298706238E037D0DFF8C00682
:1018B00001782170417861708178A170C178E17000
:1018C00001792171417961718179A171C179E171E8
:1018D000017A2172407A60720020707560782178F8
:1018E00041EA0020E178A27842EA01216279237975
:1018F00043EA0222E379A77947EA0323F77894F8C9
:1019000008C086F803C096F80480647A347102AC8B
:10191000009400F05DF8F77086F80480029840F6B5
:101920008451884202D1012085F85E00012004B074
:10193000BDE8F0811CB504460020ADF806008DF826
:1019400004000120009001AB8F227221092000F0D9
:1019500008FD002801D1002016BD9DF8040000F00C
:10196000FC008DF80400012C0AD0042C04D0102CAB
:101970001FD0402C22D026E040F001008DF804005A
:101980008F208DF806009DF804008DF80700DFF821
:1019900054449DF8040000F00300207102230DF16F
:1019A00006027221092000F082FC00280DD10020DF
:1019B00016BD40F002008DF80400E1E740F003009E
:1019C0008DF80400DCE7002016BD0120607316BD11
:1019D0002DE9F04105460E46174670193818C01A11
:1019E000401C441024B2002C00D50024DFF8F4136E
:1019F00008790FF24C62805CC978C1F5807110FBE8
:101A000001F240F6DC2C0CFB02F88902B1F5803FB4
:101A100001D34FF6FF71C9000A22B1FBF2F1102881
:101A20002DD18B422BD30120FFF784FF00283ED11C
:101A3000311B0698AC4206DA02682B1B4FF4B475D2
:101A400005FB03220260B44205DA02684FF47A73A0
:101A500003FB01210160BC4201DA016801600168F9
:101A6000002901D50021016040F2A641B8FBF1F147
:101A70000268B2FBF1F101600120BDE8F08110289D
:101A800007D1642B05D24020FFF754FF00280ED168
:101A9000CEE7402802D164398B4203D20128C7D156
:101AA000642BC5D21020FFF745FF0028C0D00020CE
:101AB000E3E70FF2B451092003F050BDC94988741F
:101AC0000120704710B5DFF8AC44202020700020C2
:101AD00060700A20A0700020E0700A2020710020B1
:101AE00060713220A0710020E07207222146DFF8E9
:101AF000880402F040F800206072012010BD000050
:101B00000060002000B583B000A800210A4606C08E
:101B10000722DFF860140DF1010002F02CF8A0207C
:101B20008DF80000082300AA7221072000F0BFFBF7
:101B3000401E8041C043C00F0EBD00B583B00020E1
:101B40008DF80400DFF82C04417B012903D100F05B
:101B5000AAF901200EBD418AFF290CD000290DD021
:101B6000C27A521CC272491E4182417AD2B291425B
:101B700001D20021C17200F014F805E0818A41828F
:101B80000021C17200F00DF80120009001ABE322AA
:101B90007221072000F0E5FB401E8041C043C00FCA
:101BA0000EBD38B50020ADF80000DFF8C843608AEC
:101BB000002801D1A07A60720722E07AC0EBC00051
:101BC000DFF8B4134118204601F0D5FFFFF79AFF64
:101BD00080208DF8000000AD81206870022300AAEB
:101BE0007221072000F063FB002801D1002032BDE4
:101BF000A7208DF80000208A6870022300AA7221B5
:101C0000072000F054FB401E8041C043C00F32BD8E
:101C1000C899002030B585B0044600208DF80C002E
:101C2000ADF80E006079029020790190E078009084
:101C3000A378627821780FF2A83000F0C2FA012070
:101C4000009003AB80227221072000F08AFB00285D
:101C500001D1002061E0C74D9DF80C0028720120E1
:101C6000009003AB8F227221072000F07AFB00283E
:101C700001D1002051E09DF80C00A87301200090D4
:101C800003AB90227221072000F06BFB002801D1EA
:101C9000002042E09DF80C00E87300F0A5F88F20CA
:101CA0008DF80E000DF10E050B20687002230DF16A
:101CB0000E027221072000F0FAFA002801D100205C
:101CC0002BE090208DF80E000120687002230DF1AA
:101CD0000E027221072000F0EAFA002801D100204C
:101CE0001BE0A64D8122FF21284601F011FB802236
:101CF0002146681C01F03FFF0020287081232A46FE
:101D00007221072000F0D3FA002805D10FF2E82055
:101D100000F057FA002000E0012005B030BD80B58A
:101D200001780F2904DA934A527A521C8A4205DA62
:101D30000FF2D02000F045FA002002BD4278202AA0
:101D400001D3202242700022C2704271C1EBC10156
:101D5000894A20238B54891800224A704278002A2D
:101D600001D1002201E05200521E8A7182788A70ED
:101D7000C278CA7002790A7140794871012002BDA7
:101D80007C48417A491C417281720120704738B504
:101D90000446784D6C82FFF795FE002C00D0AC8293
:101DA00021460FF2702000F00CFA012032BD71497B
:101DB00048730120704772490870012070477048CD
:101DC0000078704780B56B4908730A7B52000A821D
:101DD00001460FF2502000F0F4F9012002BD00008E
:101DE000489A0020C899002000B583B00020ADF8C3
:101DF00006008DF8040080208DF8060001208DF883
:101E0000070002230DF106027221072000F04FFAAD
:101E1000002801D100200EBD10200090594BA022B7
:101E20007221072000F09DFA002801D100200EBD8C
:101E30000120009001AB80227221072000F091FA6E
:101E4000401E8041C043C00F0EBD00B587B00020CA
:101E5000ADF8000001A8142103F0CCFD80208DF81E
:101E6000000001208DF80100022300AA7221072042
:101E700000F01DFA002801D1002012E01022414993
:101E80000DF1050001F077FEA0208DF8040011236C
:101E900001AA7221072000F00AFA401E8041C043C7
:101EA000C00F07B000BD30B583B00020ADF804000E
:101EB0008DF806002F4C217A0FF2781000F081F98E
:101EC0000020FFF7FBFD002060736072FFF7BDFF8D
:101ED0008F208DF8040001ADA07B6870022301AA59
:101EE0007221072000F0E3F9002801D100203EBD57
:101EF00090208DF80400E07B6870022301AA722113
:101F0000072000F0D4F9002801D100203EBD802038
:101F10008DF80400207A6870022301AA722107203C
:101F200000F0C5F9002801D100203EBD012000903D
:101F30000DF10603E3227221072000F012FA401E81
:101F40008041C043C00F3EBD845D01205C61012023
:101F5000CF600120D0600120D1600120D26001203B
:101F60005D6101205E610120489A0020D09A002026
:101F700044620120B460012014520120D44C01209D
:101F80004964012070610120233E474520435520CC
:101F9000257820257820257800000000233E47532F
:101FA000454C4600233E4753544552520000000022
:101FB000233E4C4947500000233E4C4348495020A3
:101FC0003078257800000000233E3E4C49474F0002
:101FD000233E4C49474F0000233E4C4947430000F5
:101FE0004D4244202564202564202564202564205A
:101FF00025642025640000004D6F6265616D2057E7
:10200000460000004D6F6265616D20486F7020468C
:1020100061696C004D4220486F70436F756E74208B
:10202000256400004D6F6265616D204C656E3D2535
:10203000640000004D4220436C6F736520256400EE
:102040000104104035100008A510000845110008D3
:10205000BD110008000000009B13000800000000F4
:10206000D9130008A3130008BF150008391600088B
:10207000D916000859170008000000005D17000875
:10208000000000000000000000000000BFF34F8FC0
:10209000DFF81807016801F4E061DFF84027114319
:1020A0000160BFF34F8FFEE710B5DFF834474FF400
:1020B0008E720021204601F02BF9204610BDDFF87A
:1020C0002007704710B5FFF7EFFF044600231A46BC
:1020D0001146084600F06FFAC046C04601F062FDA6
:1020E000204600F019F801F0B4FF204600F0D0F9C6
:1020F000204600F015F8204600F01FF800F093F994
:1021000000206072A072E0722073012060730020D2
:10211000E075A073012010BD0021C171017231E092
:1021200010B50446DFF8880601F0E8FDDFF8B406D4
:1021300001F0E4FD0120607110BD10B5044601F00E
:1021400048FE0120A07110BD38B50446012501F0FC
:10215000F3FE012804D12846E0700020A0700AE0B8
:10216000022804D10020E0702846A07003E000207F
:10217000E070A0700546284632BD80B502F05AF8DE
:10218000012002BD10B50446E07902F091F9012169
:10219000217010BD70B504460025E679E171FFF7A6
:1021A000F1FF002807D02046FFF7BAFF2046FFF7CF
:1021B000C4FF012503E0E6712046FFF7E3FF284650
:1021C00070BD0EB470B5C1B0054600A84FF4807163
:1021D00003F010FCFFF773FF044645AB2A464FF4AB
:1021E000807100A803F016FC00A803F031FC451C28
:1021F00000A82818002100F8011CDFF8EC653078F1
:10220000401C30707078F021084202D0992003F011
:102210003FFC03F0AAFC7078401C7070207E2818E8
:10222000FF2810DA207E002803D0207E00190A2122
:1022300001762A4600A9207E0019193001F09BFC86
:10224000207E2818207600A803F0F7FE7078F02191
:10225000084202D0992003F01BFC7078401E707079
:10226000C0B2002801D103F07AFC04F0D4FA41B0E6
:1022700070BC5DF810FB0428DFF8380503D8DFF8E0
:10228000301501607047DFF85C1501607047DFF8BA
:10229000281551F82000007F002807D0DFF84C05F2
:1022A00001784A1C0270032900D3EFE670472DE93C
:1022B000F84305460E4617464FF00208DFF828455A
:1022C0006078F021084202D0992003F0E1FB03F08E
:1022D0004CFC6078401C60709DF80000401E8DF83A
:1022E000000017F8019B2846FFF7C5FF00AB4A46E0
:1022F0003946304602F0F4F9002810D06078F02119
:10230000084202D0992003F0C3FB6078401E607041
:10231000C0B2002801D103F022FC01201FE05FFAC7
:1023200088F8424629460FF2D040FFF74AFF404660
:10233000A0F101080028D9D16078F021084202D02C
:10234000992003F0A5FB6078401E6070C0B20028A1
:1023500001D103F004FC2846FFF799FF0020BDE8F7
:10236000F2832DE9F04704460D4616461F460898AD
:10237000DFF8488488F80000DFF86C9499F80100D1
:10238000F021084202D0992003F082FB03F0EDFB1C
:1023900099F80100401C89F801002046FFF76BFF07
:1023A0004FF0020A434632463946284602F048FAC0
:1023B000002813D099F80100F021084202D099209A
:1023C00003F066FB99F80100401E89F80100C0B2D5
:1023D000002801D103F0C3FB012022E05FFA8AFA52
:1023E000524621460FF21C40FFF7EBFE5046A0F18B
:1023F000010A0028D6D199F80100F021084202D044
:10240000992003F045FB99F80100401E89F801006E
:10241000C0B2002801D103F0A2FB2046FFF737FF2E
:102420000020BDE8F08703F010BAF8B50446022793
:102430000025DFF884630DE039464F1EC9B200293C
:102440000AD1002804D120690121A94088432061D4
:1024500002276D1C162D10DA56F82500006E006854
:1024600080470128E8D121690122AA401143216156
:1024700056F8251001220A77E3E72069032803D0E4
:10248000022801D0012802D140F480502061F1BD22
:1024900002F01EBB02F077BB81B00022ADF8022033
:1024A000ADF80020C079042808D0062809D00828F3
:1024B0000AD009280BD00A280CD00EE04FF4C860CF
:1024C0000DE04FF448600AE04FF4C85007E04FF4C5
:1024D000FA5004E042F2107001E041F27070ADF881
:1024E00002200DE0BDF80020521CADF80020BDF820
:1024F00000208242F6DBBDF80220521CADF802201B
:10250000BDF802208A4203D20022ADF80020EEE797
:1025100001B07047417230B589B004F097FA0446B3
:10252000FFF7CDFD054600A8242103F063FA002043
:10253000ADF8220001900A208DF8080000208DF8E7
:1025400009008DF80A00687A00280DD0002C18D0F8
:1025500000208DF80000052001900B208DF8080068
:1025600000A806F09FFA0CE0002C0AD001208DF89C
:102570000000052001900B208DF8080000A806F04F
:1025800091FA09B030BD02F01ABB02F022BB012162
:102590000846F8E701210846F7E702210120F2E7A3
:1025A00002210120F1E702F01FBB10B50446FFF73E
:1025B00086FD447510BD2DE9F843054617460E46C5
:1025C0004FF47A704FF03C0C4FF4616815FB08F43F
:1025D00016FB0C443C1900FB0434DFF8E4E19EF9DF
:1025E000009019FB08F89EF9019019FB0C8C9EF9DC
:1025F00002804CFA88FCBEF9038000FB0C809EF838
:1026000008C0BCF1000F20D141EA05001043184377
:1026100002D001208EF808008EF8005028460028CD
:1026200002D518308EF800008EF801108EF80220C6
:10263000AEF8033000933B4632469EF900100FF28D
:10264000F410FFF7BEFDBDE8F183A0420ED3A0EB6E
:10265000040CACF2D17CDFF89881C445DCD322466F
:1026600001460FF2AC10BDE8F843AAE5D4D2A4EBC2
:10267000000CACF2D178DFF87891C845CCD3634632
:10268000224601460FF2981001B0BDE8F04398E5EC
:1026900010B504002FD004F08FFA4949CA68002A07
:1026A00000D0841AB1F80320A218A1F8032012B2B6
:1026B000B2F57A7F06DBA2F57A72A1F803208A7858
:1026C000521C8A7091F902203C2A04DB3C3A8A7041
:1026D0004A78521C4A7091F901203C2A04DB3C3AAA
:1026E0004A700A78521C0A7091F90020182A01DBFE
:1026F00000220A70C86010BD3149052201F000BAFD
:102700000FB410B52DED028B2E4C104606F008FBD1
:102710002D4A2E4B06F01CFB206161619FED2C8B36
:10272000049806F0FDFA53EC182B06F011FB20601C
:102730006160059806F0F4FA53EC182B06F008FBDC
:10274000A060E1609DF81C00207604F118009DF85F
:102750001D1041709DF81E1081709DF81F10C170F2
:102760009DF820100171BDF8210000EE100AB8EEAE
:10277000400A10EE100A06F0BDFB174A1D4B06F08A
:10278000E7FA06F0DFFBC4F81D00BDF82300A4F84B
:1027900021009DF8250084F82300BDEC028B10BCBD
:1027A0005DF814FB0749242201F0AAB90CED00E002
:1027B000005400400C9B0020006000204D6401206C
:1027C000C0610120585F0120FCA9F1D24D62503F49
:1027D0008DEDB5A0F7C6B03E3BDF4F8D0400FA0586
:1027E0007C3F012000580040F89900204C640120F3
:1027F0005F4C2605976EA23F49574520256420254A
:102800006400000049524520256420256400000032
:1028100041542D53657454533120256420256400A0
:1028200041542D536574545332202564202564206F
:102830002564000041542D536574542025643A25C5
:10284000643A25642E25640000487047204B01201F
:1028500000214FF0804200E092089042FCD3002A11
:1028600009D05318984203D3401A801A01EB420151
:1028700049089208F3E708467047002802D400F0A0
:102880007F0002E0404240F08000C0B2704700F09C
:102890007F01802800D349420846704730B404467F
:1028A0000D46A54200DA2C461546A54200DA2C4614
:1028B000A34200DA1C46204630BC704730B40446C0
:1028C0000D46AC4200DA2C461546AC4200DA2C46E6
:1028D0009C4200DA1C46204630BC70471849002252
:1028E0004A608A600861C860704770B50546144C3C
:1028F000A0682169626823689A4214DB91FBF3F6B1
:10290000266190FBF3F0FFF7A3FFA060072804DB2C
:102910002846FFF7E3FF002070BDE6602561002137
:102920006160A16070BD521C626069182161E1683C
:10293000491B01FB0100A060002070BD00000000E9
:10294000609A00200EB47FB5044608A80FC80C9DFD
:1029500005FB00F6009605FB01F6019605FB03F664
:10296000039605FB02F00290204600A9102201F018
:10297000D7F804B070BC5DF810FB10B40C181C192B
:10298000101910BC70470A7822EA000008707047DE
:102990000A7810430870704730B583B004460D467E
:1029A0000020ADF806000120009001AB2246722104
:1029B0000720FFF7D6FC002801D100203EBD01A969
:1029C0002846FFF7E5FF8DF806409DF804008DF8D6
:1029D000070002230DF1060272210720FFF767FCB2
:1029E000401E8041C043C00F3EBD30B583B0044699
:1029F0000D460020ADF806000120009001AB2246F4
:102A000072210720FFF7ADFC002801D100203EBD58
:102A100001A92846FFF7B7FF8DF806409DF804008E
:102A20008DF8070002230DF1060272210720FFF73F
:102A30003EFC401E8041C043C00F3EBDDFF8C808C9
:102A400000210170C17008214170817000F00FBD3C
:102A5000DFF8B4080078032801D101207047002076
:102A60007047DFF8A4080078042801D101207047DE
:102A70000020704710B5DFF89048217800290FD169
:102A80000F219F20FFF7B1FF06219F20FFF784FF52
:102A9000012020700020E07020710120607210BDC4
:102AA000012952D1617A002954D1217900291CD100
:102AB000E17802290BD062785208824207D30120C4
:102AC000E07000F023F9002840F0978062E00129CF
:102AD00060D0A178490881425CD20220E07000F009
:102AE00038F9002840F0898054E001291ED1E178AE
:102AF00002290AD062785208824206D30120E0708F
:102B000000F08EF9002878D10BE0012909D0A178D6
:102B10004908814205D20220E07000F0A4F90028A3
:102B20006BD1E078012859D000202071022020705C
:102B30000020E0700F219F20FFF757FF09219F2001
:102B4000FFF72AFF0120607210BD022955D1617A7A
:102B5000002902D00020607210BD217900291ED109
:102B6000E17802290AD062785208824206D3012015
:102B7000E07000F010F900283FD10BE0012909D0E6
:102B8000A1784908814205D20220E07000F026F9C0
:102B9000002832D10020E0700120207110BD0129F1
:102BA00021D1E17802290AD062785208824206D304
:102BB0000120E07000F079F900281ED10BE0012916
:102BC00009D0A1784908814205D20220E07000F0C6
:102BD0008FF9002811D1E078012802D10020E0709F
:102BE00010BD002020710F219F20FFF7FEFE032063
:102BF00020700020E0700120607210BD38B5002008
:102C0000ADF80000DFF804472078FFF740FE9D2173
:102C10008DF8001000ADFFF730FE6870022300AAA7
:102C200072210720FFF743FB00280ED06078FFF7E2
:102C30002EFE9E218DF80010FFF71FFE6870022304
:102C400000AA72210720FFF732FB31BD3FB581B0EA
:102C5000DFF8B4462078032856D101A80FC8FFF743
:102C60001DFE054601A80FC8FFF728FE217900299F
:102C700020D1E17802290BD06278AA4208DB01203A
:102C8000E07001A80FC800F055F900283CD10CE015
:102C900001290AD0A178814207DA0220E07001A858
:102CA0000FC800F0C4F900282ED10020E0700120E8
:102CB000207129E0012923D1E17802290BD0627823
:102CC000AA4208DB0120E07001A80FC800F027FA33
:102CD000002819D10CE001290AD0A178814207DA35
:102CE0000220E07001A80FC800F095FA00280BD16F
:102CF00000202071E078012802D10020E07003E07C
:102D0000042020700020E07005B030BD10B582B006
:102D10000020ADF80000DFF8F4452078FFF7B7FD9C
:102D200010F17B0F01DA002016BD9D218DF80010F7
:102D3000001FFFF7A2FD8DF801002070022300AAFA
:102D400072210720FFF7B3FA401E8041C043C00F35
:102D500016BD10B582B00020ADF80000DFF8AC451C
:102D60002078FFF794FD7C2801DB002016BD9D2113
:102D70008DF80010001DFFF780FD8DF80100207018
:102D8000022300AA72210720FFF791FA401E80411A
:102D9000C043C00F16BD10B582B00020ADF80000D2
:102DA000DFF868456078FFF772FD10F17B0F01DAFC
:102DB000002016BD9E218DF80010001FFFF75DFD5D
:102DC0008DF801006070022300AA72210720FFF72E
:102DD0006EFA401E8041C043C00F16BD10B582B0D0
:102DE0000020ADF80000DFF824456078FFF74FFDC4
:102DF0007C2801DB002016BD9E218DF80010001DEF
:102E0000FFF73BFD8DF801006070022300AA7221DC
:102E10000720FFF74CFA401E8041C043C00F16BD8B
:102E200010B582B00020ADF80000DFF8E044207853
:102E3000FFF72DFD10F17F0F01D1002016BD9D2160
:102E40008DF80010401EFFF718FD8DF8010020706E
:102E5000022300AA72210720FFF729FA401E8041B1
:102E6000C043C00F16BD10B582B00020ADF8000001
:102E7000DFF898442078FFF70AFD7F2801D1002071
:102E800016BD9D218DF80010401CFFF7F6FC8DF853
:102E900001002070022300AA72210720FFF707FA21
:102EA000401E8041C043C00F16BD10B582B0002047
:102EB000ADF80000DFF854446078FFF7E8FC10F14B
:102EC0007F0F01D1002016BD9E218DF80010401EFD
:102ED000FFF7D3FC8DF801006070022300AA722175
:102EE0000720FFF7E4F9401E8041C043C00F16BD24
:102EF00010B582B00020ADF80000DFF81044607813
:102F0000FFF7C5FC7F2801D1002016BD9E218DF85A
:102F10000010401CFFF7B1FC8DF801006070022327
:102F200000AA72210720FFF7C2F9401E8041C0436A
:102F3000C00F16BD3FB581B000252846ADF8000092
:102F4000DFF8C44301986178884217DA6079FFF7A7
:102F50009EFC10F17A0F11DBA4218DF80010001FE8
:102F6000FFF78BFC00A948706071022300AA722150
:102F70000720FFF79CF9002853D0012502986178BB
:102F8000884217DAA079FFF782FC10F17A0F11DB83
:102F9000A5218DF80010001FFFF76FFC00A94870F5
:102FA000A071022300AA72210720FFF780F90028F0
:102FB00037D0012503986178884217DAE079FFF766
:102FC00066FC10F17A0F11DBA7218DF80010001FAD
:102FD000FFF753FC00A94870E071022300AA722198
:102FE0000720FFF764F900281BD0012504986178B9
:102FF000884219DA207AFFF74AFC10F17A0F13DBC6
:10300000A9218DF80010001FFFF737FC00A94870B8
:103010002072022300AA72210720FFF748F9002836
:1030200001D1002001E00125284605B030BD3FB5A3
:1030300081B000252846ADF80000B34CA078019976
:10304000884216DA6079FFF722FC7B2811DAA42186
:103050008DF80010001DFFF710FC00A9487060718A
:10306000022300AA72210720FFF721F9002850D07F
:103070000125A0780299884216DAA079FFF707FCAB
:103080007B2811DAA5218DF80010001DFFF7F5FB54
:1030900000A94870A071022300AA72210720FFF73F
:1030A00006F9002835D00125A0780399884216DA60
:1030B000E079FFF7ECFB7B2811DAA7218DF80010EF
:1030C000001DFFF7DAFB00A94870E071022300AA97
:1030D00072210720FFF7EBF800281AD00125A0780D
:1030E0000499884218DA207AFFF7D1FB7B2813DA9B
:1030F000A9218DF80010001DFFF7BFFB00A9487043
:103100002072022300AA72210720FFF7D0F80028BE
:1031100001D1002001E00125284605B030BD3FB5B2
:1031200081B000252846ADF80000774C0198617801
:10313000884217DA6079FFF7AAFB10F17F0F11D0F0
:10314000A4218DF80010401EFFF797FB00A94870DE
:103150006071022300AA72210720FFF7A8F8002857
:1031600053D0012502986178884217DAA079FFF7D9
:103170008EFB10F17F0F11D0A5218DF80010401E9D
:10318000FFF77BFB00A94870A071022300AA7221FF
:103190000720FFF78CF8002837D0012503986178C5
:1031A000884217DAE079FFF772FB10F17F0F11D038
:1031B000A7218DF80010401EFFF75FFB00A94870A3
:1031C000E071022300AA72210720FFF770F800289F
:1031D0001BD0012504986178884219DA207AFFF71C
:1031E00056FB10F17F0F13D0A9218DF80010401E5F
:1031F000FFF743FB00A948702072022300AA722146
:103200000720FFF754F8002801D1002001E0012534
:10321000284605B030BD3FB581B000252846ADF841
:103220000000394CA0780199884216DA6079FFF7DE
:103230002EFB7F2811D0A4218DF80010401CFFF731
:103240001CFB00A948706071022300AA72210720AC
:10325000FFF72DF8002850D00125A0780299884268
:1032600016DAA079FFF713FB7F2811D0A5218DF87E
:103270000010401CFFF701FB00A94870A071022359
:1032800000AA72210720FFF712F8002835D0012587
:10329000A0780399884216DAE079FFF7F8FA7F28D8
:1032A00011D0A7218DF80010401CFFF7E6FA00A905
:1032B0004870E071022300AA72210720FEF7F7FF91
:1032C00000281AD00125A0780499884218DA207ABB
:1032D000FFF7DDFA7F2813D0A9218DF80010401CDC
:1032E000FFF7CBFA00A948702072022300AA7221CE
:1032F0000720FEF7DCFF002801D1002001E00125B6
:10330000284605B030BD0000CA6001205D61012083
:1033100010B5044610460A460146204605F05AFEFE
:10332000204610BDDFF880070021C161DFF87C175F
:1033300000220A7701224A7700221046086381F8AA
:103340002000C87770470FB410B5DFF85C479DF8D0
:103350001D00411E8941C90F6177201D03A910225C
:1033600000F0DEFBDFF844079DF81E1041770021D6
:1033700080F8201001779DF80810002907D1217FDF
:103380004A1C227706290ED3012101770BE0002089
:103390002077607F00289DF8080002D100F030F906
:1033A00001E000F09DF810BC5DF814FB0FB438B5D7
:1033B000DFF8F4469DF82400411E8941C90FE177EA
:1033C000201D05A9102200F0ABFBDFF8E0569DF8A8
:1033D0002600687705A80FC8FFF770FA606168617A
:1033E000002085F820002877E07F002804D105A878
:1033F0000FC800F0AEF909E0A07F002805A80FC8AB
:1034000002D000F0DFF901E000F018FA31BC5DF8FD
:1034100014FBF0B50446DFF8985605F11C06DFF8FA
:103420008806C17F4A1E9241D20F7275407F411EAD
:103430008941C90FB175DFF87476387F307597F818
:1034400020002877284639461C2200F069FBB87F07
:10345000707005F12000DFF85C16102200F060FBB0
:10346000204629463422BDE8F04000F059BB10B593
:1034700082B00020ADF80000A0208DF8000000AC64
:1034800000206070DFF82C0600210174022300AADE
:1034900072210720FEF70BFF002801D1002016BD86
:1034A000A1208DF80000FF206070022300AA722185
:1034B0000720FEF7FCFE002801D1002016BD802168
:1034C000A320FFF769FA3C21A220FFF765FADFF895
:1034D000D80500218177DFF8D4050163012016BDEE
:1034E00010B50446DFF8C005807F0028204602D0D2
:1034F000BDE810400BE000F039F8DFF8B005C07F00
:10350000002803D12046BDE8104053E010BD10B59F
:10351000DFF89845E07F012827D1201DDFF89815B6
:10352000102200F0FDFA04202070A069C7280FD1F6
:10353000201D0FC8FFF7C2F9A17F814208DADFF82A
:103540007C05012101700FF28850FEF73AFE07E07A
:10355000DFF86805002101700FF28C50FEF731FE94
:10356000012084F820000020E07710BD10B5DFF8BE
:103570003C45E17F012909D100F0CBF8002802D0B9
:103580000420E07710BD0020E06210BD002909D1C1
:1035900000F0B6F8002802D00220E07710BD00202D
:1035A000E06210BDE06A411CE1620B2801DB0020F3
:1035B000E06210BD10B5044600F055F8204600F05A
:1035C0005DF8204600F065F8204600F06DF8DFF861
:1035D000D804416A01EB8102D100642291FBF2F12F
:1035E000826B436B9A4204DAC06A052290FBF2F0C8
:1035F00003E0806A142290FBF2F0BDE8104091E0F5
:1036000038B5044600F014F8204600F01AF8DFF848
:103610009854686A00EB8001C800642190FBF1F1C6
:1036200004EB8400400000F07DF80120687731BD94
:10363000DFF874144FF4FA620A62C8224A62FFF794
:103640004DB9DFF86414C82212FB00F28A623222FC
:1036500012FB00F2CA6200EB800252000A63486368
:103660008863C863704710B50146DFF83C4404F135
:1036700030020A2000F025F8E06310BD10B50146C5
:10368000DFF8244404F12C02322000F01AF8A06381
:1036900010BD10B50146DFF8104404F12802C8201F
:1036A00000F00FF8606310BD10B5FFF71EF964213C
:1036B00001FB00F4002C02D0204600F013F8204655
:1036C00010BD10B400EBD0735B101468091900FB37
:1036D0000131441C91FBF4F11160591891FBF0F099
:1036E00010BC704710B50146C82900DAC821DFF8C0
:1036F000B84304F120020A20FFF7E3FF606210BD27
:10370000DFF8A813496A814201DA012070470020DE
:103710007047DFF89813896A884201DA0120704700
:103720000020704740F2DD52904201DB40F2DC5055
:103730000A2901DA0A2102E0652900DB6421081860
:10374000401D0A2190FBF1F0C0B2D849486288625E
:10375000704780B500F004F8D3480121C17701BD5E
:103760000FB587B0C820019007A883B069460CC880
:103770000CC10CC80CC10EBC02A8FFF7E3F8D0487E
:1037800002A9102200F0CCF90A20019007A883B00A
:1037900069460CC80CC10CC80CC10EBC02A8FFF7CE
:1037A000D1F8C84802A9102200F0BAF9C64807A902
:1037B000102200F0B5F9C54807A9102200F0B0F9B1
:1037C0000BB000BD00BF1FB5B84CE07F002802D091
:1037D00001280ED01FBD0020A061201D00A91022CD
:1037E00000F09EF902202070012084F82000E0778C
:1037F0001FBD201D00A9102200F092F901202070A9
:10380000A069401CA061C72807D10121AB20FFF7A8
:10381000ECF80021AB20FFF7BFF8A069C82809DB4E
:103820000020A0610121AB20FFF7DFF80021AB20D1
:10383000FFF7B2F8012084F820001FBD1FB59B4C94
:10384000E07F002803D0012084F8200003E000A8D6
:103850000FC800F037F800A80FC800F00AF8607F22
:10386000002805D0206B292802DBBDE81F40D8E0E6
:103870001FBD1FB58D4CE07F012804D002280DD05C
:10388000042817D01FBD201D00A9102200F048F900
:1038900001202070A069401CA0611FBD0020A06114
:1038A000201D00A9102200F03BF902202070012009
:1038B000E0771FBD042020700020E077012084F80D
:1038C00020001FBDFFB585B07848016B491C01631E
:1038D00005A883B069460CC80CC10CC80CC10EBC4D
:1038E00001A800F025F805A883B069460CC80CC1F2
:1038F0000CC80CC10EBC01A800F040F8734C94E851
:103900000F00FFF73AF805466A4E6F4F97E80F0031
:10391000FFF733F88542304604DA2146102200F0E2
:10392000FFF803E03946102200F0FAF809B0F0BDC4
:103930000EB430B588B004460BAD0BA80FC885E8AF
:103940000F005F4802900BA882B069460CC80CC1FA
:103950000CC80CC10CBCC82103A800F035F85A4DA6
:10396000284603A9102200F0DBF820462946102241
:1039700000F0D6F808B030BC5DF810FB0EB430B5DE
:1039800088B004460BAD0BA80FC885E80F004D4862
:1039900002900BA882B069460CC80CC10CC80CC1BF
:1039A0000CBC0A2103A800F00FF8484D284603A9D3
:1039B000102200F0B5F820462946102200F0B0F899
:1039C00008B030BC5DF810FB0CB47FB504460D4662
:1039D00008AE08A80FC886E80F000C9E32460146C4
:1039E0002846FFF76EFE0090321D09992846FFF722
:1039F00068FE019006F10C020B992846FFF761FE64
:103A0000039006F108020A992846FFF75AFE029031
:103A1000204600A9102200F083F804B070BC5DF8C5
:103A20000CFB70B582B00020ADF80000214C94E88A
:103A30000F00FEF743FF401D1C4DFF2802DDFF2055
:103A4000A87700E0A877A0208DF8000000AE686A93
:103A5000707070782074022300AA72210720FEF78C
:103A600026FC002801D1002076BDA1208DF80000A1
:103A7000A87F7070022300AA72210720FEF717FCAE
:103A8000002801D1002076BD8021A320FEF7ADFFE4
:103A90003C21A220FEF7A9FF0348012181770020E5
:103AA0002863084676BD0000545B0120EC5D0120D0
:103AB000205E01204C610120585B01204A640120F6
:103AC00080610120A061012090610120B06101208E
:103AD000233E445F6C6F6E675F67657374757265D4
:103AE000203A202564000000233E525F6C6F6E6711
:103AF0005F67657374757265203A20256400000065
:103B000062B38B0708D0521E11F8013B00F8013B4D
:103B100000F024808B07F6D1830740F0208000BF9F
:103B2000103A07D330B4B1E83810103AA0E8381092
:103B3000F9D230BC530724BFB1E80810A0E8081040
:103B400044BF51F8043B40F8043BD20724BF31F88E
:103B5000022B20F8022B44BF0B7803707047083A01
:103B600007D3B1E80810083A40F8043B40F804CB0A
:103B7000F7D25307E4E710B50446FFF7C1FF20462C
:103B800010BD50F8041B61B150F8042BD30744BF9B
:103B9000A9F101039A18002342F8043B091FFAD146
:103BA000EFE7704730B583B00121032005F0AAFA92
:103BB000DFF8804C204605F041FBDFF87C5C2846AE
:103BC00005F03CFB01208DF8040000208DF8050075
:103BD00001208DF8060000208DF8070001212846FD
:103BE0000183C0460120009000A9284605F082FB11
:103BF000022128460183C0460220009000A92846E1
:103C000005F078FB01208DF8040000208DF80500F8
:103C1000ADF806004FF48070009000A9284605F02A
:103C200069FB4FF4807128464183C04601208DF81E
:103C3000040000208DF8050001208DF8060000200A
:103C40008DF807004FF48050009000A9204605F041
:103C500051FB4FF4805120464183C0460422062187
:103C6000284605F095FB04220721284605F090FB25
:103C700002208DF8040001208DF805008DF8060063
:103C800000208DF807004020009000A9284605F08C
:103C900031FB8020009000A9284605F02BFB042270
:103CA0000A21284605F074FB09220321284605F065
:103CB0006FFB02208DF8040001208DF805008DF8BF
:103CC000060000208DF807004FF48060009000A9E6
:103CD000284605F00FFB0820009000A9284605F0B3
:103CE00009FB286820F0300040F0100028602068B0
:103CF00020F0300040F01000206037BD1FB5DFF825
:103D00003C4BA04230D101214FF4001005F005FAE0
:103D10000121022005F0F6F901214FF4001005F011
:103D20001DFA00214FF4001005F018FA0020ADF83C
:103D300004004BF6FF70ADF806004FF48060ADF85C
:103D40000A004FF48040ADF80C000A20ADF80800DE
:103D5000DFF8CC0C009000A9204605F05CFB0121A7
:103D6000204605F0BBFB1FBDDFF8B84CA0422FD1A9
:103D700001214FF4800005F0D0F90121022005F067
:103D8000C1F901214FF4800005F0E8F900214FF45A
:103D9000800005F0E3F90020ADF804004BF6FF7059
:103DA000ADF806004FF48060ADF80A004FF4804093
:103DB000ADF80C000A20ADF80800DFF8640C0090A4
:103DC00000A9204605F027FB0121204605F086FBCF
:103DD0001FBD2DE9F04192B001214FF4805005F054
:103DE000A7F90121084605F08DF901214FF4800063
:103DF00005F088F9DFF83C4A05221146204605F017
:103E0000C7FA05220721204605F0C2FA052206213D
:103E1000204605F0BDFA05220421204605F0B8FA37
:103E200002208DF8040001208DF805000020ADF877
:103E300006002020009000A9204605F05BFA8020B3
:103E4000009000A9204605F055FA4020009000A9F6
:103E5000204605F04FFA1020009000A9204605F0FA
:103E600049FADFF8C44B204605F09AFBDFF8BC5B4B
:103E70000020288068600120288100206881E86097
:103E80000720288200206880DFF8A46B304605F008
:103E9000F7FBDFF8A07B384605F0F2FB4FF48060BB
:103EA000069000210D9103210E9100210F910A919E
:103EB0000890DFF8180C03900846109009900790BE
:103EC0004FF400300C9008460B904FF0C068CDF8CE
:103ED0000880402005900846049002A9304605F06D
:103EE00053FC00200B90CDF80880059005F11400DC
:103EF000049002A9384605F047FC00206880294656
:103F0000204605F07CFB01220221204605F0A6FB9D
:103F100001221146204605F0A1FB0121204605F0B3
:103F200091FB0021304605F056FC0021384605F093
:103F300052FC12B0BDE8F08130B589B001214FF0DC
:103F4000805005F0EAF8012005F0AEFC01214FF4A5
:103F5000802005F0D7F80F2005F056FE044610200B
:103F600005F052FE0546012005F0C9F8002005F0D5
:103F7000C6F821460F2005F03AFE2946102005F02C
:103F800036FE00214FF4802005F0BCF8012005F03A
:103F900055F8412005F003F90028FAD04FF480705D
:103FA00005F097F8012005F0A7F805F0D0FC3F20B8
:103FB000069040F2FF1007900020059005A805F03C
:103FC0007DFC0020029002A905F0E2FC00208DF8A3
:103FD000070001208DF804008DF805008DF806001B
:103FE00001A9002005F04DFD4FF4800005F0ECFE26
:103FF0004FF48000039000208DF8100008208DF809
:10400000110001208DF8120003A805F09BFE03208B
:104010008DF800000D208DF8010000208DF80200C1
:1040200001208DF8030000A805F0DBFE032005F059
:104030009CFD4FF4804005F052FE4FF4800005F0E7
:10404000C3FE01214FF4804005F00FFE012009B0AE
:1040500030BD10B586B00121084605F053F80121A6
:104060004FF4804005F064F800208DF810008DF8C2
:10407000130001200390DFF8BC4703A9204605F098
:1040800039F90420039003A9204605F033F90021F3
:10409000084605F0DFFE0221002005F0DBFE0020CF
:1040A0008DF8080001208DF80A0001900C208DF891
:1040B000090001A805F046FE042001900C208DF8AF
:1040C000090001A805F03EFE042005F07DFE282031
:1040D0008DF800000F208DF8010000208DF80200FF
:1040E00001208DF8030000A805F07BFE06B010BD8E
:1040F00010B586B00121084605F004F801214FF4FF
:10410000804005F015F800208DF810008DF81300A0
:104110004FF40064039403A9DFF8180705F0EAF8E8
:104120000B21002005F096FE00208DF808000120EC
:104130008DF80A0001940C208DF8090001A805F003
:1041400001FE204605F040FE28208DF800000F20DB
:104150008DF8010000208DF8020001208DF8030089
:1041600000A805F03EFE06B010BD30B58DB0044687
:1041700001214FF4807004F0DBFF00A805F0F4F893
:104180000A20009003208DF8040000208DF807001D
:1041900000A9DFF8A00605F0ADF805F06FFE02A853
:1041A00005F0B1FE4FF48030039002A805F09DFEAB
:1041B00006A805F090FEDFF8DC5A06A9284605F0AF
:1041C0006AFE072301222146284605F0ADFE0121A3
:1041D000284605F0EEFE0121284605F09AFE0DB0B6
:1041E00030BD38B5DFF8AC4A204605F0DDFE4FF4AF
:1041F0007A750221204605F0F3FE002803D12846F7
:10420000451E0128F5DA2046BDE8324005F0DCBE47
:1042100080B50021DFF87C0A05F07BFE00214FF419
:104220008070BDE8044004F083BFDFF8280B00680D
:104230007047000038B5040040D0012005F034FB81
:10424000002005F0ACFC4FF40055042005F028FDDB
:10425000012804D12846451E80B20028F5D100EE81
:10426000104AB8EE400ADFED800A80EE800AF0EED8
:10427000000A20EE200ADFED7D0A80EE800ABDEE06
:10428000C00A10EE100A401E80B205F07EFC4FF40A
:10429000804005F024FD4FF4800005F095FD0120DD
:1042A00005F07DFCDFF8AC0A012181600460214645
:1042B0000FF22000BDE83440FDF783BFDFF8940A19
:1042C00000210160012005F0EFFA0020BDE8324036
:1042D00005F065BC536574525443203D20256400AD
:1042E00030B4014601200023DFF86C2A1C4694609C
:1042F000946814F00C0FFBD10C460B2C55D8DFE85A
:1043000004F02054545406192031383F464D946827
:1043100044F080049460DFF8444A4FF4C06525609F
:10432000146824F080741460DFF8B44ADFF8305A5F
:1043300025603BE00346DFF8A84ADFF8A85A25606D
:1043400034E094689460DFF8144A4FF4C065256047
:10435000146824F080741460DFF8844ADFF8885A07
:10436000256023E00223DFF8784ADFF8805A2560D1
:104370001CE00323DFF8684ADFF8745A256015E073
:104380000423DFF85C4ADFF8C45A25600EE00523F9
:10439000DFF84C4ADFF8B85A256007E00623DFF85B
:1043A000404ADFF8B05A256000E01846002B4AD09A
:1043B00003EBC3030FF2B8041B19946894601468EC
:1043C00024F080741460146824F0806414609C7875
:1043D0001D8844EA8514DD786D086D1E44EA0544A5
:1043E0001D7944EA05645460DC881D7A2D0745EA8E
:1043F0008414DFF8C05A2C60146844F08074146090
:104400001468A401FCD55B7943F4C063DFF84C4920
:1044100023609368936093689360052904D1916841
:1044200041F09001916005E00A2903D1916841F4BF
:1044300080519160916841F002019160916801F0B2
:104440000C010829FAD1DFF898190968DFF8682A01
:10445000914207D2DFF8F41A0A6822F4404242F48B
:1044600080420A6030BC704700007A440000004778
:10447000200110040F03020103F00010060F0102D7
:104480000103C00010080F01020103C00010060F55
:1044900001020103F00010060F01020103C8001021
:1044A000040F02020103A80010020F03020103001F
:1044B00016E7002800E0401EFDD170477CB50726B6
:1044C000DE4988426BD101208DF804008DF805008B
:1044D0008DF8060000208DF8070040200090DFF8DE
:1044E0008C5A00A9284604F005FF8020009000A9FE
:1044F000284604F0FFFE402128464183C0460F2095
:10450000FFF7D7FF402128460183C0460F20FFF761
:10451000D0FF3046461E80B20028ECD180200090AB
:1045200000A9284604F0E6FE402128464183C04603
:104530000520FFF7BEFF802128460183C0460520E5
:10454000FFF7B7FF402128460183C0460A20FFF746
:10455000B0FF402128464183C0460520FFF7A9FF50
:10456000802128464183C0460520FFF7A2FF022094
:104570008DF8040001208DF805008DF8060000205C
:104580008DF807004020009000A9284604F0B2FEF4
:104590008020009000A9284604F0ACFE73BDDFF82F
:1045A000841488426AD101208DF804008DF805003A
:1045B0008DF8060000208DF807004FF48064009409
:1045C000DFF8A85900A9284604F094FE08200090BE
:1045D00000A9284604F08EFE214628464183C046A5
:1045E0000A20FFF766FF214628460183C0460A20BD
:1045F000FFF75FFF3046461E80B20028ECD108204E
:10460000009000A9284604F075FE21462846418303
:10461000C0460520FFF74DFF082128460183C0460C
:104620000520FFF746FF214628460183C0460A20A1
:10463000FFF73FFF214628464183C0460520FFF78C
:1046400038FF082128464183C0460520FFF731FF87
:1046500002208DF8040001208DF805008DF8060079
:1046600000208DF80700009400A9284604F042FEBF
:104670000820009000A9284604F03CFE73BD10B548
:10468000DFF8EC480121206804F061FF206804F0A5
:1046900093FE2068FFF732FB05E02068FFF70EFF6E
:1046A0002068FFF72BFB4FF40031206804F05AFF1D
:1046B0000028F2D110BD30B40022838A008BDFF8CD
:1046C000B048656843EA00400840000255EA1020FF
:1046D00060600840884200D10122104630BC70471B
:1046E0002DE9F84F04460D4616464FF420491F7831
:1046F000DFF87C884FF40031D8F8000004F032FF76
:10470000002808D04846A0F101090028F2D1FFF79F
:10471000B6FF00208CE0D8F8000001884FF6FF5269
:10472000114001800121D8F8000004F0E3FE4FF4AD
:10473000805AD1460020C8F80400D8F800B0DFF84D
:1047400034185846FFF7B7FF002805D14846A0F1B6
:1047500001090028F1D163E0D146002221465846E4
:1047600004F0E0FE0020C8F80400D8F80040DFF8AC
:1047700008182046FFF79FFF002805D14846A0F102
:1047800001090028F1D14BE03146C9B2204601822F
:10479000C046D1460020C8F80400D8F80040DFF831
:1047A000DC172046FFF787FF002805D14846A0F117
:1047B00001090028F1D133E0012F15D129782046D5
:1047C0000182C046D1460020C8F80400DFF8B017C7
:1047D000D8F80000FFF76FFF002823D14846A0F16A
:1047E00001090028F2D11BE03846471EC0B200285C
:1047F00018D015F8011BD8F800000182C046D14638
:104800000020C8F80400DFF87817D8F80000FFF798
:1048100052FF0028E8D14846A0F101090028F2D152
:10482000002005E00121D8F8000004F06FFE01200F
:10483000BDE8F28F00000240000402400054004036
:104840002DE9F54F81B00D461E464FF420483778CC
:10485000DFF81C474FF40031206804F083FE002885
:1048600008D04046A0F101080028F3D1FFF707FF68
:104870000020D3E0206801884FF6FF5211400180EC
:104880000121206804F036FE4FF48059C84600200C
:104890006060DFF8E0A6D4F800B051465846FFF754
:1048A0000AFF002805D14046A0F101080028F2D1F6
:1048B00091E000229DF80410584604F033FEC846EB
:1048C00000206060D4F800B0DFF8AC165846FFF75F
:1048D000F2FE002805D14046A0F101080028F1D1E0
:1048E00079E0BDF80810C9B258460182C046C846F2
:1048F000DFF89016206804F035FE002805D1404608
:10490000A0F101080028F3D165E00121206804F03E
:10491000F1FDC84600206060D4F800B0514658460A
:10492000FFF7C9FE002805D14046A0F10108002884
:10493000F2D150E001229DF80410584604F0F2FD37
:10494000022FC84639D2DFF84016206804F00AFE6C
:10495000002805D14046A0F101080028F3D13AE033
:104960000021206804F0E7FD2068018B012104F09C
:10497000CDFDC846DFF81416206804F0F3FD0028CA
:1049800005D14046A0F101080028F3D123E02068BA
:10499000008AC0B228703078401E3070C846206847
:1049A0000188890505D54046A0F101080028F6D107
:1049B00011E0012104F0BFFD2BE000206060DFF872
:1049C000D0152068FFF777FE002806D14046A0F1F9
:1049D00001080028F3D1002020E0012616E0012F75
:1049E0000CD1012E0AD100263146206804F0A3FD27
:1049F0002068818A018B012104F088FD2068818A6A
:104A0000490603D5008A05F8010B7F1EFFB2002F6F
:104A1000E5D10121206804F08EFD0120BDE8FE8F64
:104A2000801A06000058004000300140345F012029
:104A30008864024010640240DFF8580501680829C4
:104A400033D1DFF814130A6842F080720A604268BA
:104A5000B2F1806F03D10A6842F080620A600A688E
:104A60009201FCD58A6842F002028A608A6802F0EC
:104A70000C02082AFAD14268B2F1806F02D10A68AA
:104A80001201FCD5DFF858130968DFF82C24914295
:104A900007D2DFF8B8140A6822F4404242F4804298
:104AA0000A6000210160416070474168B1F1806F88
:104AB00009D1A9490A6842F080620A600A681201B5
:104AC000FCD5002141607047000000000C3001401F
:104AD000DFF8C404016841F080510160DFF86C0424
:104AE00001688908890041F001010160DFF8AC0428
:104AF0000FF205014160704738B5DFF8A444208803
:104B000040F004002080FDF7DAFA807A012803D112
:104B1000012004F0CCFE02E0002004F0C8FEDFF823
:104B200084548021DFF8800404F0A2FD002818D10D
:104B300072B68948DFF85C14826802F00C020A60E1
:104B4000006800F080604860286840F00400286039
:104B500030BF62B6286820F004002860FFF76CFFC1
:104B60000CE0608840F004006080286820F00400B9
:104B7000286030BF286840F004002860608840F05A
:104B80000400608031BDDFF8140440680047DFF89E
:104B90001C14012806D010D3032809D005D30428FB
:104BA00009D00AE0DFF8C41307E0DFF8041404E0DA
:104BB000DFF8001401E0DFF800140846704710B574
:104BC0000C46FFF7E4FF214689B2BDE8104004F02F
:104BD000DBBB10B50C46FFF7DAFF214689B2BDE812
:104BE000104004F0D3BB0000E0B500238DF808307E
:104BF00001238DF80A30002A03D10C228DF80920F8
:104C000002E008228DF8092004283CD8DFE800F0F3
:104C1000030D192222004FF40060019028208DF826
:104C200000000F208DF801001CE0184601901020B4
:104C30008DF8090006208DF800000E208DF8010087
:104C400010E00220019007208DF800000F208DF861
:104C5000010007E00420019008208DF800000F20DB
:104C60008DF8010000208DF80200012903D11846BB
:104C70008DF8030001E08DF8030001A805F062F84B
:104C800000A805F0AEF807BD4FF40061C74804F076
:104C900074BB00000020014010B5044601214FF410
:104CA000802004F02FFA2146102004F0A0FF0021FC
:104CB0004FF48020BDE8104004F024BA10B5012163
:104CC0004FF4802004F01EFA102004F09DFF0446EB
:104CD00000214FF4802004F015FA7B2004F05FFAE5
:104CE000002802D09AA0FDF76CFA7A2004F057FA57
:104CF000002802D097A0FDF764FA792004F04FFA5B
:104D0000002802D094A0FDF75CFA7C2004F047FA5A
:104D1000002802D091A0FDF754FA7D2004F03FFA5C
:104D2000002802D08EA0FDF74CFA7E2004F037FA5E
:104D3000002802D08BA0FDF744FA7F2004F02FFA60
:104D4000002802D088A0FDF73CFA04F03EFA204685
:104D5000C0B210BD5062012000380240003C024049
:104D600000127A003EB50C4615460422014602A800
:104D7000FEF701FF0422214601A8FEF7FCFE0422F3
:104D8000294600A8FEF7F7FE02A9002004F000FE65
:104D900001A9002004F075FE04F06EFE0446874A67
:104DA000002300981946101A63EB0101490241EAF9
:104DB000D051400205F03EF90090844205D2011B1B
:104DC0004FF0004004F02DFF37BDA04207D2C4F5DC
:104DD0000070009909184FF0004004F022FF37BD21
:104DE000AC9A0020809698000024F40000366E01F2
:104DF0000048E8012DE9704384B004460D4616468C
:104E000002A9002004F013FE01A9002004F089FE8D
:104E100004F032FE0090694AA2FB00894FEA58284C
:104E200048EAC958A2EB08000090042202A92046D3
:104E3000FEF7A1FE042201A92846FEF79CFE0422EB
:104E400000A93046FEF797FEBDE87F83005A620254
:104E500080F0FA0200BD0105F0B4049C059D8E1E91
:104E6000012E01DA0C36401E3C216427B0FBF7F717
:104E7000C7EB90074FF4C87CB0FBFCFC674440F2E2
:104E80006F1C0CFB06F64FF00C0CB6FBFCF6F6198B
:104E9000921940F26D1606FB0020494A101800EBEB
:104EA000400203EBC20001FB004001FB0050F0BCDC
:104EB0007047000084380240018793031CB50C46FC
:104EC00001680191416800918368C2680169491CC9
:104ED000406900F26C70FFF7BFFF2060002016BD34
:104EE00010B58EB037480068C405E40D01A9002054
:104EF00004F09DFD00A9002004F013FE9DF80400BD
:104F000006909DF8050005909DF8060004909DF818
:104F10000100401E08909DF8020007909DF80300D4
:104F20006430099002A904A8FFF7C8FF4FF47A7013
:104F300010FB04F0400AC0F57A700390029A4FF417
:104F40007A73C117E3FB02010EB010BD0070004080
:104F5000504F520050494E00424F520053465400A9
:104F600049574400575744004C5057000004024032
:104F70000C9B002001000300820007008000070056
:104F80008400070004000010020000104000001020
:104F900002000300446301204038024050620120B7
:104FA0001800024010ED00E0003001400000024017
:104FB00000080240000C02400010024000CA9A3B68
:104FC0007505F5FF282800405060026041600860C8
:104FD00070470A68F8E748600160704701684068F8
:104FE000F9E7F8B50600DFF8C05802D505F158001A
:104FF000F2BD05F158040020296F00E0096805F1B1
:105000007002914204D00C46A2689642F6D101206B
:10501000002840D1A86FD0F88070182005F082F8E1
:105020000446A660002F05D0B74203D2B6FBF7F0C6
:10503000784300E03046E060002F02D0B74200D253
:105040003E46266100202075DFF860683078401CFD
:1050500030707078F021084202D0992000F018FDDD
:1050600000F083FD7078401C707005F170012046DF
:10507000FFF7AFFF7078F021084202D0992000F0CE
:1050800007FD7078401E7070C0B2002801D100F09A
:1050900066FD01F0C0FB2046F2BD38B5044694F928
:1050A0001400002829D1DFF804582878401C287003
:1050B0006878F021084202D0992000F0E9FC00F065
:1050C00054FD6878401C68702046FFF787FF204633
:1050D00005F040F86878F021084202D0992000F0ED
:1050E000D7FC6878401E6870C0B2002801D100F07B
:1050F00036FDBDE8314001F08EBB31BDF8B5044648
:1051000008466FF00045FFF76CFF064694F905006E
:1051100094F90410814214D1C01C800005F002F8FB
:10512000074694F90500012807DB8200216838460C
:10513000FEF721FD206805F00DF827606079C01C9E
:10514000607194F90400411C2171216841F82060CC
:10515000DFF85C07864202D0307D401C30750020AD
:1051600008E0216851F820108A68954201DB154655
:10517000A160401C94F904108842F2DBF1BDF8B53F
:1051800004466FF00046DFF8202702F1580502F1CF
:1051900058004FF0FF33002704E0664501DB664608
:1051A00075467F1C94F904C067450DDAD4F800C039
:1051B0005CF827E0DEF808C0002BEED58C45ECD17A
:1051C00070463B465BB2ECE7002B11D4BCF1010FFB
:1051D0000EDB06E0216801EB8306766841F8236068
:1051E0005B1C94F904104E1EB342F3DB491E21717F
:1051F00002F15801884204D0017D491E0175FFF774
:105200004CFFA560F1BD10B4C26A836B406C9C6812
:10521000002C02D56FF0004300E01B698468002C6D
:1052200002D56FF0004000E00069984200DD1846AA
:10523000D2685143884201DB012000E0002010BC0D
:10524000704738B5DFF860168A6FD36E012490F985
:105250000850AC402343D36601F66C11FFF7B9FE4A
:10526000012032BD10B5DFF84016896FCA6E0123E8
:1052700090F90840A3409A43CA66FFF7AFFE0120A9
:1052800010BD012070472DE9FC4104460D4616462D
:105290001F4604F12400FFF731FF07EB470004EB42
:1052A0008008314608F13000FFF728FF019598F992
:1052B000340000903B46627A94F908100FF2F450E3
:1052C000FCF77FFFBDE8F3812DE9FC4104460D4664
:1052D00016461F4604F12400FFF751FF07EB470075
:1052E00004EB8008314608F13000FFF748FF0195D4
:1052F00098F9340000903B46627A94F908100FF256
:10530000C850FCF75EFFBDE8F381C16A8A68012AD4
:1053100009DB0969012906DA006D002801D50020A2
:105320007047022070470020704701EB410200EBFC
:105330008201896B8A68012A09DB0969012906DA79
:10534000006D002801D50020704702207047002022
:105350007047002900D5D8E7E7E7012900DA0121E5
:1053600013460A468FE7012900DA012113460A464F
:10537000AAE7DFF83405C06A417A481E8041C00FB1
:10538000704713464FF0FF3211467CE713464FF04B
:10539000FF32114698E780B5DFF80C050068417AC6
:1053A000002902D1006E40688047012002BD80B50F
:1053B000FFF758FFDFF8F0040068417A002902D1B6
:1053C000006E80688047012002BDB1F57A7F01DC64
:1053D0004FF47A7113460A464FF4FA7153E7B1F568
:1053E0007A7F01DC4FF47A7113460A464FF4FA7162
:1053F0006AE710B50446002922D5E06A81680129D0
:105400001CDB0069012819DA02212046FFF7FBFEA8
:10541000002813D194F954004FF0FF31884204D191
:10542000002084F85400012010BD002806D101207E
:105430006077084684F85400022010BD002010BD9B
:10544000BDE8104071E74FF0FF3280F85420F8E6D5
:10545000DFF85424926FD2F88020A03252420265C5
:10546000EFE600290AD5C06A8168012904DB0069DA
:10547000012801DA022070470020704755E7B5295E
:1054800000DAB42113460A463C21FCE6B52900DACD
:10549000B42113460A463C2116E710B504460029FC
:1054A00026D5E06A8168012920DB006901281DDA20
:1054B00003212046FFF7A7FE002817D194F95400D6
:1054C0004FF0FF31884204D1002084F854000120BD
:1054D00010BD002803D1012084F8540010BD01281C
:1054E00004D1084684F85400022010BD002010BDED
:1054F000BDE8104019E74FF0FF3280F85420DFF884
:10550000A823926FD2F88020B4325242026598E606
:10551000DFF89423926FD2F88020C832524202659D
:105520008FE613464FF0FF321146ACE613464FF0BC
:10553000FF321146C8E680B5FFF783FEFCF7BFFDDA
:1055400000210175012002BD80B5FFF78BFEFCF73D
:10555000B6FD00210175012002BD00002DE9F041DA
:105560000C46D14D55F82060307206F154070FF209
:105570006C313961152800F22E81DFE810F0160039
:105580002600330053004300620073008200B20023
:105590009200A200C200D200E000EC00F900070176
:1055A0001301200120012001200106F1080006213D
:1055B00041760A21817605F67411416040F2DC5192
:1055C00081600FF23430386105E106F108000621F0
:1055D00041760A21817605F6507141604FF496714B
:1055E0008160F8E006F108000C21417610218176F7
:1055F00005F5805190314160102181600FF24C30EF
:105600003861E8E006F10800072141760B21817638
:1056100005F58051843141600B2181600FF22C30FF
:105620003861D8E006F10800062141760A2181762A
:1056300005F5855141600A2181600FF21030386113
:10564000C9E006F10800062141760A21817605F5B8
:105650008051AC3141604FF4FA7181600FF2083033
:105660003861B8E006F108001421417618218176EE
:1056700005F595514160182181600FF25C30386169
:10568000A9E006F10800022141760621817605F5A0
:105690009051D4314160062181600FF204303861AD
:1056A00099E006F108000A2141760E21817605F580
:1056B0009051C43141600E2181600FF2C8203861E1
:1056C00089E006F10800012141760521817605F582
:1056D0009051DC314160052181600FF2E02038619A
:1056E00079E006F10800052141760921817605F56A
:1056F0009051B8314160092181600FF23420386146
:1057000069E006F10800062141760A21817605F557
:105710009051E43141600A2181600FF2F810386144
:1057200059E006F10800012141760521817605F551
:105730009051F031416040F2866181604BE006F1AA
:105740000800012141760521817605F5CC514160A3
:10575000052181603FE006F108000C21417610210F
:10576000817605F5C851883141601021816032E0B1
:1057700006F10800112141761521817605F5C85101
:105780009831416041F66631816024E006F10800FD
:10579000112141761521817605F55451416015217D
:1057A000816018E006F10800042141760821817625
:1057B00005F5C85178314160082181600BE006F1A0
:1057C0000800012141760521817605F580517C3163
:1057D00041600521816006F10800002101754175D5
:1057E00081750176C1600161417006F128080846A3
:1057F000C8F828004FF0FF3086F854007880062261
:1058000006F15800FDF784FD002010E000EB400198
:1058100006EB8101002281F8342034314A7005F111
:1058200058024A6006EB800100228A64401C02286C
:10583000ECDB002086F8280088F8010005F158000C
:10584000C8F80400FC60BDE8F08110B5164CFCF708
:10585000FBFFA067002006E0682111FB00417C31BE
:1058600044F82010401C1628F6DB4FF0FF3020666D
:1058700060660020A06605F09AFD06F0A0FD07F026
:10588000B7FEFBF7A5FB08F057F8FBF793FEFCF714
:1058900010F908F0BBF808F0F2FB08F0BCF8BDE81E
:1058A000104008F0C9B8000000600020F8990020FE
:1058B0005860002041442025642025642025642070
:1058C00025642C2025640000524D20256420256489
:1058D00020256420256420256400000083520008F0
:1058E0004352000883520008655200085B530008C9
:1058F00067530008535300087353000843520008CD
:1059000073530008655200085B5300086753000892
:10591000535300089753000843520008835200086D
:10592000AF530008835300088D53000853530008F9
:10593000835200084754000883520008655200084B
:10594000CB530008DF530008F353000883520008CC
:105950005154000883520008655200085B53000848
:10596000675300086354000883520008F754000886
:1059700083520008655200087F5400088D540008C7
:105980009B540008835200081155000883520008F8
:10599000655200085B530008675300085353000822
:1059A0008352000837550008835200084955000803
:1059B000235500082D550008535300088352000852
:1059C0004352000883520008655200085B530008E8
:1059D00067530008535300088352000843520008DD
:1059E0008352000865520008235500082D55000811
:1059F00053530008002208F0DFBB8268521C82600B
:105A0000426832B10268531C036011704168491E3C
:105A10004160704708B584B00023029311B9009328
:105A2000019302E00090481E019004AB00A90748D2
:105A30007844183008F0DAFB009909B100220A70A6
:105A4000002858BF029805B000BD00BFAFFFFFFFA0
:105A500000F10103810704D010F8011B89B181070F
:105A6000FAD10268B2F10131914311F0803F04BFD5
:105A700050F8042FF6E710F8011B11B110F8011BC4
:105A8000FBE7C01A70470268531C0360117070472F
:105A900000B585B002460FF2140100A809F00EFA15
:105AA00000A800F093FB05B000BD00004F45256441
:105AB0000000000030488168002904BF08B008E0F9
:105AC000EFF30982A2F12802036882E8F84F8368A5
:105AD0005A6000F047FD816859B14A6892E8F84F72
