:1000000000100020CD8504085D8B0008718B00086E
:10001000858B0008998B0008AD8B0008000000005C
:10002000000000000000000000000000C18B00087C
:10003000D58B000800000000B1550008AB62010834
:100040002D8704083187040835870408F762010802
:1000500039870408399D00083D930008339500084E
:100060005B960008519700083D8704084187040803
:1000700045870408498704084D8704085187040808
:100080004D98000875990008558704085987040899
:100090005D8704086187040865870408F19A0008F1
:1000A000698704086D870408718704087587040848
:1000B000798704087D8704088187040885870408F8
:1000C000898704088D87040891870408ED8B000850
:1000D00095870408998704089D870408A187040868
:1000E000599A00082D9C0008A5870408A9870408D0
:1000F000AD870408B1870408B5870408B9870408E8
:10010000BD870408C1870408C5870408C987040897
:10011000CD870408D1870408D5870408D987040847
:10012000DD870408E1870408E5870408E9870408F7
:10013000ED870408F1870408F5870408F9870408A7
:10014000FD87040801880408058804080988040854
:100150000D88040811880408158804081988040803
:100160001D880408218804082588040829880408B3
:100170002D88040831880408358804083988040863
:100180003D88040841880408DFF8580B0078704760
:100190002DE9F04798B002F057FC0446DFF8480B11
:1001A000856BDFF8486B376826E098F81910D8F8A7
:1001B0001000D8F804208018D7F820215269904701
:1001C000002802D0384602F07DFD00213846D9F8DB
:1001D000042092699047022802D1012088F8160075
:1001E00001213846D9F8042092699047022802D1AB
:1001F000384602F05DFE3F68B74242D097F90800EA
:100200001A28F8D01B28F6D00728F4D00B2807DBD3
:100210000E2805D00F2803D0102801D01828EAD1C5
:100220000628E8D007F10808D8F84800002804D5C7
:10023000D4F880100818C8F8480007F590794FF0F6
:10024000FF313846D9F80420926990478246BAF1C6
:10025000010F05D198F84C00D7F82011096988479B
:10026000BAF1020FB1D197F9080001289DD1687A3F
:1002700000289AD0A87F012897D1384602F022FDA5
:10028000A3E7D4E91C01002901D100280CD00A20E1
:100290008DF8020002208DF80000D4F88000ADF83F
:1002A000580000A803F0BCFA012018B0BDE8F087A0
:1002B00030B585B004460D46CA208DF80000288868
:1002C000ADF801000220ADF80300BDF80100001DEB
:1002D00003F0FCFBCDF8090002220DF1030103F04D
:1002E0001DFC02222946DDF80900801C03F016FCE3
:1002F0002A882146DDF80900001D03F00FFC0020CC
:10030000288000A9DFF8E80903F026FC05B030BD1D
:1003100042F23411081A322801DA01207047002015
:10032000704780B503F059FC407B002804D002F0F0
:1003300097FBDFF8C019086001BD80B502F090FBA3
:10034000DFF8B419086001BD80B502F092FBDFF858
:10035000AC29C2E9000101BDDFF89C0900687047C3
:10036000DFF89829D2E90001704770B582B00446E1
:100370000020009004F10C05FFF7EEFFE96F401A32
:100380000090E96AC968DFF87829511808180090C8
:10039000687DAB7DEE68E4686968891B994205D188
:1003A000042200A9001903F0B9FB73BD042200A9BF
:1003B00034191B19C01803F0B1FB73BD70B582B0BE
:1003C000044600200090054604F19006307A01288A
:1003D00034D104F10800016C01290CDB8168827EB4
:1003E00091FBF2F1012908D0006BC0684FF47A71DB
:1003F0004843009001E00120009094F908000C2887
:1004000001D011280ED1FFF7A7FFD4E92423801AC9
:100410000090DFF8EC180818009001460FF2681001
:1004200003F046FC2846C4F814017822014604F182
:100430009C0004F03BF92846307288E094F90800EB
:100440000C2801D0112821D1FFF786FFD4E92423FD
:10045000801A0090FFF780FF2946D4E924239942AF
:1004600009D801D3904206D26420009001460FF2D1
:10047000301003F01DFC0098DFF884180818009075
:1004800001460FF2301003F013FC26E0FFF768FF7F
:10049000D4E9242300F096F8009004F10800006BE2
:1004A000C0680099002914D09DED000AB8EE400AFA
:1004B00000EE900AF8EEE00A9FED5B1A60EE810A0A
:1004C000B7EE081A60EE810AF4EE400AF1EE10FA77
:1004D00003D54FF47A714843009094F908000C2832
:1004E0002CD011282AD0D4F81401411CC4F81411BE
:1004F00004EB80000099C0F89C10284605E004EB4E
:100500008001D1F89C104D19401CD4F81411884278
:10051000F5DBB5FBF1F00090D4F814011E280DDBDB
:100520001D20C4F81401002006E004EB8001D1F87E
:10053000A020C1F89C20401C1D28F6DB04F58A7021
:100540000179012903D1002101715020009004F1AB
:100550000800042200A9437E05694068281818187D
:1005600003F0DCFA94F908000C2801D0112805D119
:10057000FFF7F2FE0021C4E9240173BDFFF7F0FE8E
:10058000C4E9240173BD0000466972737420546984
:100590006D652064696666203D20256400000000CA
:1005A00054696D655F646966665F6F766572203D4C
:1005B0002025640054696D655F64696666203D208E
:1005C0002564000038B52DED028B04460D4610461B
:1005D0001946A94205D801D3A04202D29FED138A41
:1005E00001E09FED138A04F06BF800EE100A30EE84
:1005F000088A2046294604F063F800EE100A38EE17
:10060000400ABCEEC00ADFF8FC16B8EEC00AD1ED15
:10061000010A20EE200ABCEEC00A10EE100A0860A3
:10062000BDEC028B32BD000000007A440000804621
:100630000000000030B41488651C15800525655441
:100640001488651C1580635413885C1C1480007A20
:10065000585430BC704732B515461C4621884A1C98
:10066000228037224A5521884A1C2280007A485528
:10067000022200A92088401903F050FA2088801C2B
:10068000208031BD2DE9F041054616461F4605F193
:100690000808069CA4B298F81A0004FB00F2D8F8E7
:1006A000040009183888801903F038FA388898F857
:1006B0001A10614311FA80F038803888FFF728FE5D
:1006C000002803D039463046FFF7F2FD95F90800BF
:1006D00016280AD1D8F81000D8F80410415C0FF29F
:1006E0001000BDE8F04103F0E3BABDE8F08100007E
:1006F0002323205368616B652025640030B400F12A
:1007000010039B7C914203D1006990FBF3F00DE054
:100710000C46154603D2281B90FBF3F006E0006957
:10072000001B90FBF3F095FBF3F1081880B230BC8E
:10073000704700F110018A688B7CD2188A600069CA
:10074000824201D10020886000208873704770B514
:1007500082B004460D461E4692B289B2FFF7CEFF24
:100760000090069B324629462046FFF78BFF73BD5B
:10077000F8B5044615461E462269002D00D11546DF
:10078000069F0097FFF7E3FF2069854206DA00978E
:1007900033462A4600212046FFF7D9FFF1BD2DE957
:1007A000F04184B004460F469046A1696069002874
:1007B00016D500250A4692B289B22046FFF79EFF61
:1007C000064643463A4631462046FFF744FFA269B3
:1007D000CDF800803B4611462046FFF7C9FF39E0BF
:1007E000814217DA01250A4692B2014689B22046B3
:1007F000FFF784FF064643463A4631462046FFF758
:100800002AFFCDF800803B46A26961692046FFF7C8
:10081000AFFF1FE00225884206D00A4692B2014689
:1008200089B22046FFF76AFFA26992B2616989B274
:100830002046FFF763FF064643463A4631462046C8
:10084000FFF709FFCDF800803B46A26961692046A9
:10085000FFF77DFFA06B80680290A069019060693E
:1008600000902B46324694F908100FF20C0003F06A
:100870001FFABDE8FF8100005061636B203D2564D5
:10088000202564202564202564202564202564001B
:1008900070B582B004460D461646A06C012811DAE8
:1008A000A07F012811D133462A4601212046FFF7B7
:1008B000D2FE0120009033462A46A1692046FFF768
:1008C000E1FE02E02046FFF76AFF01233246294697
:1008D0002046FFF7AFFE00206061A061A36CE26CD0
:1008E00094F908100FF20C0003F0E2F9A06CE06438
:1008F00073BD0000666C7573682025642025642034
:10090000256400002DE9F84304460D46164602F022
:100910009BF8814603F061F9804604F10807B87D31
:1009200000280ED02046FFF749FD94F908000C2856
:1009300007D1012084F81901D4F81C01401CC4F827
:100940001C01386C0128C0F2DC8098F80E000028E9
:1009500048D0B87D002800F01C81786CD9F8801050
:10096000401A7864B87E3969FA68531A834205D010
:10097000002A33D1BA68511A81422FD194F9082044
:10098000397E0FF2142003F093F9397E00291ED02E
:1009900094F908200FF2182003F08AF93869B97E1B
:1009A000421892B2F96889B22046FFF7A7FE334693
:1009B0002A4601462046FFF74EFE00962B46386930
:1009C000B97E4218F9682046FFF7D2FE06E04FF0E4
:1009D000FF30F860FFF7C0FCC4F888002046BDE88F
:1009E000F243A6E698F80E00002840F0D280786C1A
:1009F000D9F88010401A7864F96811F1010F10D10C
:100A0000B87D002802D02046FFF793FE2046FFF76E
:100A1000ACFC324629462046FFF7C1FE3869F86033
:100A2000B7E001284CDA386C7864386BD0F80C8069
:100A300094F908308268396C0FF2901003F038F99D
:100A400094F908000C281FD0B868B97E90FBF1F02B
:100A5000396C91FBF8F1814202DB4FF0FF30F86016
:100A6000B87D0028204607D0FFF763FE32462946AE
:100A70002046FFF794FE20E0FFF7A0FC324629460F
:100A80002046FFF78CFE18E094F81901012814D1D4
:100A9000D4F81C01B968BA7E91FBF2F1884202D108
:100AA0004FF0FF30F860324629462046FFF777FEC8
:100AB0000020C4F81C0184F819013869F86068E066
:100AC00094F908000C2815D1D4F81C01B968BA7E35
:100AD00091FBF2F188420DD14FF0FF30F8603246C1
:100AE00029462046FFF75BFE0020C4F81C0184F86D
:100AF00019014EE0B87D00284BD02046BDE8F243F6
:100B000017E6B87D002844D094F9080098F80A1038
:100B100000291FD0072807D00D2805D0162803D09C
:100B20001A2801D01B282FD133462A4601212046FE
:100B3000FFF791FD0120009033462A46396920468F
:100B4000FFF7A0FD7A7894F908100FF2940003F0F3
:100B5000AFF819E0092809D194F87210012905D1DC
:100B60000FF28C00BDE8F44303F0A2B833462A46E6
:100B700001212046FFF76FFD0120009033462A46F1
:100B800039692046FFF77EFD2046FFF7D2FD386920
:100B9000F860BDE8F183000073757370656E6420C2
:100BA0006669666F2066756C6C202564202564007C
:100BB00073757370656E64206669666F2066756C08
:100BC0006C20322025642025640000006669666F71
:100BD0002066756C6C332025642025642025640014
:100BE00041502053757320256420256400000000C7
:100BF000233E6C75785F73617420256400000000EB
:100C0000F8B504460D463848466896F87300012842
:100C10001DD1002086F873002888411C29800821F6
:100C200001550020ADF8000007460EE006EB8700F6
:100C3000006EADF80000022200A92888001902F019
:100C40006DFF2888801C28807F1C032FEEDBF1BD00
:100C5000F8B504460D46FFF7D3FF244E376805E08C
:100C60002A4621463846FFF74DFE3F68B742F7D186
:100C7000F1BD2DE9F04104460D461B4EF76907F121
:100C80000C0898F81510D8F80C00FA688018D7F8F6
:100C900020215269904700280AD0012088F81200CC
:100CA000787A002804D02A4621463846FFF72AFEE3
:100CB000B66906F10C07797DF868F2688018D6F8F5
:100CC000202152699047002809D00120B874707A19
:100CD000002804D02A4621463046FFF713FE0120A3
:100CE000BDE8F0815CAE0120CC9A01202C400020B0
:100CF0004CCE0020E0AD0120E4AD012058AD012034
:100D000000CA9A3BF8CB00200288D21C02800A80DD
:100D1000704780B50B889B1AADF80030BDF80030E5
:100D2000002B09D01018012100F8031C022200A991
:100D3000801E02F0F3FE01BD0888C01E088001BDC0
:100D40002DE9F04FADF68C2D04460D4601F07CFEEA
:100D5000064602F042FF804610A840F6482103F004
:100D6000E3FC00208DF8020006A8282103F0DCFC3B
:100D700001A8142103F0D8FC0020ADF800000746BC
:100D8000D6E91C01002902D1002800F02C8598F931
:100D9000090004F07DF9002800F0258500A9284607
:100DA000FFF7B2FFB8461CE0D6E91C01424604F04A
:100DB000D9FB00F0010011F0000101D100280ED094
:100DC000C8EB0810DFF8481E01EB800292F903001F
:100DD000012804D10DF1020110A8526B904708F1CF
:100DE0000108B8F13C0FDFDBBA461BE029884A1C3A
:100DF0002A80807808552888FFF78AFA00280DD0C5
:100E0000BDF8002029462046FFF783FF29462046EB
:100E1000FFF74EFA00A92846FFF776FF0AF1010A0C
:100E20004FFA8AFA9DF80200824580F2D48429881C
:100E3000481C288040F2491010FB0AF010AA825C7E
:100E40000A5529884A1C2A8010AA861870780855E5
:100E50002988481C2880701C42780A55417803294B
:100E600027D0092900F09A810C2900F075811A29F0
:100E700000F091821B2900F0A4811C2900F0BB82A4
:100E80001D2900F0AE811E2900F0A682262900F05F
:100E9000DE822C2900F00A832F2900F0E782302916
:100EA00000F06183312900F08C83342900F0EA835B
:100EB0009CE77178032904D129884A1C2A8082780A
:100EC0000A5529884A1C2A80C2780A55C178C02947
:100ED0000FD106F22708B8F82E20D8F8301028884D
:100EE000001902F01BFE2888B8F82E100818288078
:100EF00081E70846E0284AD106F20506002035E0E1
:100F000056F820100A0222F0FF12090A01F0FF1120
:100F1000114346F820104FEA314146F8201006EB05
:100F200080014A68130223F0FF13120A02F0FF1235
:100F30001A434A604FEA32424A608A68130223F039
:100F4000FF13120A02F0FF121A438A604FEA32427C
:100F50008A60CA68130223F0FF13120A02F0FF121C
:100F60001A43CA604FEA3242CA60001D1428C7DB28
:100F700050210FF67C0002F09BFE5022314628885B
:100F8000001902F0CBFD28885030288033E7791C07
:100F9000000647D401A8321D52783A54C9B2B2793A
:100FA0000A54491CC9B200220A544A1C06F206011E
:100FB000D2B24B781354521CF389D2B21F0A175481
:100FC000521CD2B21354521C06F20E03D2B29F78B6
:100FD0001754521CD2B2DB781354521CD2B2B37CD9
:100FE0001354521CD2B2F37C1354521CD2B28B78DD
:100FF0001354521CD2B2C9781154511CC9B2B27ADE
:101000000A54491CC9B2F27A0A544F1CFFB23A463C
:1010100001A92888001902F081FD288850FA87F07C
:101020002880E8E6D6F8052006A8130C3B54C9B280
:10103000130A0B54491CC9B20A54491CD6F809209A
:10104000C9B2130C0B54491CC9B2130A0B54491CE6
:10105000C9B20A54491CD6F80D20C9B2130C0B545E
:10106000491CC9B2130A0B54491CC9B20A54491C81
:10107000D6F81120C9B2130C0B54491CC9B2130A7B
:101080000B54491CC9B20A54491CD6F82720C9B2CE
:10109000130C0B54491CC9B2130A0B54491CC9B296
:1010A0000A54491C06F22708C9B298F804200A54C9
:1010B000491CC9B298F805200A54491CB8F8062002
:1010C000C9B2130A0B54491CC9B20A54491CC9B20B
:1010D00098F808200A54491CD6F81520C9B2130CF8
:1010E0000B54491CC9B2130A0B54491CC9B20A5407
:1010F000491CD6F81920C9B2130C0B54491CC9B2AB
:10110000130A0B54491CC9B20A54491CD6F81D20B5
:10111000C9B2130C0B54491CC9B2130A0B54491C15
:10112000C9B20A54491CD6F82120C9B2130C0B5479
:10113000491CC9B2130A0B54491CC9B20A544F1CAA
:10114000FFB23A4606A92888001902F0E7FC288871
:1011500050FA87F028804EE6F11CB1F90300C0F385
:10116000072242EA0020A1F80300B1F90700C0F30A
:10117000072242EA0020A1F80700B1F90500C0F3F8
:10118000072242EA0020A1F8050009222888001958
:1011900002F0C4FC2888093028802CE629880B46F8
:1011A0007278032A08D10222F11C181902F0B6FC49
:1011B0002888801C28801EE6491C298080781855C4
:1011C00019E629884A1C2A808078085570780528F5
:1011D0007FF411AE2888411C2980311D49780155C2
:1011E00009E606F103087078012840F0C4802888D9
:1011F000411C298098F8041001554FF00009A1E026
:10120000C9EB491000EB080BDBF81800010221F0D4
:10121000FF11000A00F0FF100843CBF818004FEA56
:101220003040CBF8180004220BF11801288800196F
:1012300002F074FC2888001D2880DBF808000102F9
:1012400021F0FF11001200F0FF100843CBF8080056
:10125000C0F30F4141EA0040CBF8080004220BF133
:1012600008012888001902F059FC2888001D2880F0
:10127000DBF80C00010221F0FF11001200F0FF105A
:101280000843CBF80C00C0F30F4141EA0040CBF813
:101290000C0004220BF10C012888001902F03EFC1E
:1012A0002888001D2880DBF81000010221F0FF11C2
:1012B000001200F0FF100843CBF81000C0F30F41FC
:1012C00041EA0040CBF8100004220BF110012888FD
:1012D000001902F023FC2888001D2880DBF81C0080
:1012E000010221F0FF11000A00F0FF100843CBF8C3
:1012F0001C004FEA3040CBF81C0004220BF11C010B
:101300002888001902F00AFC2888001D2880BBF8F4
:101310001600010A41EA0020ABF8160002220BF188
:1013200016012888001902F0F9FB2888801C288003
:10133000411C298080B2DBF82010015509F1010918
:101340005FFA89F998F804008145FFF659AFB6F8BD
:101350004321D6F845112888001902F0DFFB2888C0
:10136000B6F8431108182880B6F843110FF29040E0
:1013700002F09EFC3FE505287FF43DAD2888411C26
:10138000298098F8021001552888411C298098F876
:10139000031001552FE5F11C7078032804D128882B
:1013A000421C2A80B27A0255D1F80100020222F0D2
:1013B000FF12000A00F0FF101043C1F801004FEACD
:1013C0003040C1F8010007222888001902F0A6FB6E
:1013D0002888C01D28800EE5F11C0888020A42EA10
:1013E0000020088002222888001902F097FB288834
:1013F000801C2880FFE4F11C7278012A7FF4FBAC8A
:101400008078012815D12888421C2A800978015546
:10141000B288D6F806102888001902F07FFB2888C9
:10142000B18808182880B1880FF2E83002F040FC3B
:10143000E1E402287FF4DFAC2888421C2A800A7885
:1014400002552888421C2A80C9790155D3E4F11C31
:101450000888020A42EA002008800222288800192F
:1014600002F05CFB2888801C2880C4E4F01C2988DA
:101470004A1C2A8001220A5529884A1C2A800522F2
:101480000A5529884A1C2A80C1220A5529884A1CE3
:101490002A8042790A5529884A1C2A8042780A55AE
:1014A00029884A1C2A8080780855A4E4F61C2988DB
:1014B0000B463078020727D5481C2880307818550D
:1014C0002888411C2980F17901552888411C2980F0
:1014D000317A0155D6F80900010221F0FF11000A06
:1014E00000F0FF100843C6F809004FEA3040C6F884
:1014F0000900042206F109012888001902F00EFBF8
:101500002888001D288076E4400721D5481C2880C3
:10151000307818552888411C298071780155D6F8F3
:101520000300010221F0FF11000A00F0FF10084340
:10153000C6F803004FEA3040C6F803000422F11C4D
:101540002888001902F0EAFA2888001D288052E451
:10155000B278D6F80D10181902F0E0FA2888B178A0
:101560004018288047E4F61C3068010221F0FF1182
:10157000001200F0FF1008433060011441EA0040FF
:101580003060042231462888001902F0C7FA288802
:10159000001D28807068010221F0FF11001200F088
:1015A000FF1008437060011441EA0040706004229B
:1015B000311D2888001902F0B1FA2888001D288002
:1015C00019E4F61C3068010221F0FF11001200F04E
:1015D000FF1008433060C0F30F4141EA0040306023
:1015E000042231462888001902F098FA2888001D44
:1015F00028807068010221F0FF11001200F0FF1036
:1016000008437060C0F30F4141EA0040706004225B
:10161000311D2888001902F081FA2888001D2880D1
:10162000B068010221F0FF11001200F0FF10084322
:10163000B060C0F30F4141EA0040B060042206F1FF
:1016400008012888001902F069FA2888001D2880FE
:10165000F068010221F0FF11001200F0FF100843B2
:10166000F060C0F30F4141EA0040F060042206F14F
:101670000C012888001902F051FA2888001D2880E2
:10168000FFF7B9BBF61C3068010221F0FF11001210
:1016900000F0FF1008433060011441EA0040306060
:1016A000042231462888001902F038FA2888001DE3
:1016B00028807068010221F0FF11001200F0FF1075
:1016C00008437060011441EA004070600422311D3B
:1016D0002888001902F022FA2888001D2880B068A6
:1016E000010221F0FF11001200F0FF100843B0606A
:1016F000011441EA0040B060042206F10801288884
:10170000001902F00BFA2888001D2880F26833695E
:10171000F06831691B0243EA1263120222F0FF12E1
:1017200023F0FF13000A40EA0160090A00F0FF10ED
:1017300001F0FF1110431943F0603161D6F80C80BD
:10174000D6F81090F06831694FEA094949EA18491A
:10175000DFF8C024134602EA084209EA0303904670
:10176000000C40EA01404FF6FF7210404246104321
:1017700053EA1141F0603161F2683369F068316910
:101780001346084600211943F0603161F068316961
:10179000082206F10C012888001902F0BFF92888F8
:1017A000083028807069010221F0FF11001200F05A
:1017B000FF1008437061011441EA00407061042287
:1017C00006F114012888001902F0A8F92888001DE4
:1017D0002880FFF710BBBDF8002029462046FFF700
:1017E00098FA03F083FC0DF68C2DBDE8F08F000015
:1017F00050442053462053656E7425640000000059
:101800004F4A483A20415442442073697A653A204D
:10181000256400004F4A483A2041504452207369E1
:101820007A653A20256400002DE9F04105460E4610
:1018300002F0D3F90746DFF8E0432078401C20701F
:101840006078F021084202D0992003F09FFE03F057
:1018500013FF6078401C607097F81C80B8F1000F8F
:1018600027D03088404480B2FEF752FD002803D0D4
:1018700031462846FEF71CFD3088411C318003218B
:1018800041553088411C318000F80580424607F1FF
:101890001D013088401902F041F930884044308001
:1018A0004FF4FA72002107F11D0002F0FFFE002044
:1018B00038776078F021084202D0992003F066FE64
:1018C0006078401E6070C0B2002801D103F0CEFEE7
:1018D000BDE8F04104F0BAB938B504460D4602F04F
:1018E0007CF9817A002909D1417B002906D1298818
:1018F0004A1C2A8006220A550121417331BD38B5A0
:1019000004460D46288800280CD02046FFF78CFF9F
:1019100029462046FFF7E0FF29462046BDE834402F
:10192000FEF7C6BC31BD14B585B0049101A90022F3
:10193000134614461CC10A21ADF8001004218DF88D
:1019400004108DF805000A4605A90DF1060002F005
:10195000E5F8042204A90DF10A0002F0DFF800A95D
:1019600001A8FEF7A5FC06B010BD80B502F035F960
:101970004FF4967102F09CFB07208DF802000120C5
:10198000ADF8000000A90DF10200FEF791FC01BDC9
:101990002DE9F04383B005460F46904602F01DF94D
:1019A00081460026D5F80900041D28780146012942
:1019B00000F07F800F2937D0352943D0362938D021
:1019C000402948D0802900F0A080812900F0A7801C
:1019D000822900F0A480852900F0A180862900F0EA
:1019E0009E80882900F09B808A2900F0A0808B29A6
:1019F00000F0BB808C2900F0C7808D2900F0D280D8
:101A0000DD2900F0DC80DF2900F0F080F02927D00C
:101A1000F42938D0F62941D0F8295FD0F9294DD0E2
:101A2000FF2900F0C48077E099F81A0020700120A7
:101A300073E004F0ACFE15220146204602F06EF879
:101A400001206AE0012006F0E8FD304606F0E9FDDD
:101A50000120207061E0204606F002F901205CE0E0
:101A600004226E49204602F059F807F05EFD002876
:101A700004D108F017FE012007F053FD012009F002
:101A8000F3FC012049E0484602F0BCFA082209F1C3
:101A90001001204602F042F801203EE003222146D8
:101AA00030465F4B9B68D3F820311B6A9847012072
:101AB00033E0204609F094FE01202EE0B5F8012025
:101AC000B5F80300C010C0EB0011D5F8050000EB1D
:101AD0008111204602F022F801201EE03046ADF8C8
:101AE000040001206979012900D1032008F086FF54
:101AF00008F0BFFFADF8040008F0D2FF022201A9F0
:101B0000204602F00BF8012007E0D5F80500207010
:101B10002146304601F08FFA3046BDE8FE8331465B
:101B20002170214600F07F0001F085FAF4E70120E2
:101B300020703B4845683746287F002801D1304651
:101B4000EBE7687A002804D1D5F820014068804787
:101B500007462046D5F82011C9698847002FDBD0F9
:101B6000D5F8200180688047D6E70120B5F803103A
:101B7000C1F3C101091D884040F0020020702146D8
:101B8000012001F058FAC7E799F800002070012001
:101B9000607099F80500A07099F80600E0700120C7
:101BA0002071BAE7204609F02FFE0646B4E704F19B
:101BB0000802211D204609F0FBFC0120ADE76879F1
:101BC000174951F82050687A00280BD04246394610
:101BD0002846FEF75DFE1349082009F0D7FE0120D4
:101BE000207001E030462070012096E768790C49AA
:101BF00051F82050286995F8221090FBF1F0401E12
:101C00000090042200A9204601F088FF012084E70B
:101C1000A01F01200000FFFF08CA002014CC0020F4
:101C2000CC9A0120F40301202DE9F041B6B006461C
:101C300001F0D3FF054600F007FFD6F809100C1D90
:101C40003178002202924FF0FF32199217460A466D
:101C5000312A00F05181322A00F05881332A00F0F5
:101C60006481342A00F06B81372A7BD0A12A00F0EE
:101C70008281A22A00F0CE81A42A00F0D981A52A6F
:101C800000F08C80A62A00F08F80B12A00F05084EA
:101C9000B22A00F02886B82A00F0E581C12A00F0B7
:101CA0000482CD2A00F0A780CE2A00F0BC80D02A82
:101CB00032D0D12A28D0D22A33D0D32A37D0D42A2E
:101CC00039D0D62A5AD0D72A58D0D82A5ED0D92A85
:101CD0005CD0EC2A00F08180F12A6BD0F22A00F06F
:101CE000BB80F52A00F0DC80F72A00F0F180FA2AA8
:101CF00000F04786FB2A00F04786FD2A00F0DC80D2
:101D0000FE2A00F04B86F3E00021284602F0DDF9C0
:101D10000020A8730120ECE0002009F0A5FB0120C1
:101D2000E7E00121284602F0D0F90120E1E000209F
:101D3000A8720120DDE00120A87200206873012054
:101D4000A873DFF86C0C016808E08A6B92F9142024
:101D5000012A02DB012281F8182109688142F4D1AD
:101D60000120C6E0002221461046DFF8483C1B68EF
:101D7000D3F820311B6A98470120BAE0D62901D157
:101D8000012000E00020E8720120B2E0D92901D151
:101D9000012000E0002028730120AAE0D6F8090005
:101DA00009F07DFE0120A4E0D6F8090009F0ACFF9F
:101DB00001209EE000210CE00A180B5D82F88430BF
:101DC000022905D10A5D80F887200A5D80F8882005
:101DD000491C0329F0DB01208BE0237840F27D725F
:101DE000DFF8D41BDFF8D40B01F062FF207806F097
:101DF00001FA01207DE0002511E0DFF8B80B46680C
:101E000006EB8506022204EB450106F1600001F0B5
:101E100085FE316EDFF8A80B01F04AFF6D1C032D23
:101E2000EBDB012065E0002512E0DFF8880B066897
:101E300006EB4506022204EB450106F1580001F0CD
:101E40006DFEB6F95810DFF87C0B01F031FF6D1C08
:101E5000032DEADB01204CE0D5E9042302F08002E7
:101E600013F0000303D1002A01D1012041E02178C1
:101E7000627812EB0121A0F88A10A178E27812EBC7
:101E80000121A0F88C1004212046DFF8282BD2690C
:101E9000D2F8202192699047002829D0012028E01B
:101EA000032221460120DFF80C3B9B68D3F8203148
:101EB0001B6A984701201CE01B2221460720DFF8FF
:101EC000F43A9B68D3F820311B6A9847012010E050
:101ED000DFF8E00A8669D6F820018068804700288C
:101EE00006D0012221460520D6F820311B6A9847EA
:101EF000002036B0BDE8F08106F097FB012801D143
:101F00000120F6E7204606F007FBF1E706F08DFB1F
:101F1000012801D10120ECE7204606F02AFB2078B9
:101F20000028E5D006F062FBE2E706F07EFB012820
:101F300001D10120DDE7207806F05FFBD8E706F04D
:101F400074FB012801D10120D3E7DFF87C0A01F0FE
:101F5000AFFE002006F061FB012006F037FA04F026
:101F6000EAFD012006F05DFB207806F061FB06F03B
:101F700097FA0120BDE794F900500422611C02A8E1
:101F800001F0CCFDB6F80100062806DB0422611D35
:101F900019A801F0C3FD94F909702846DFF8141A56
:101FA000042802D10A690023937251F8206000F0DE
:101FB0004BFDD0E91C23C2F3401800F045FDD0E9E9
:101FC0001C23C2F38020804400F03EFDD0E91C2396
:101FD000C2F3800000EB080296F90800072804D13C
:101FE000717A002901D0002A04D0182809D1707A0A
:101FF000002806D0717ADFF8D40901F059FE0120DB
:1020000077E70097199B00220299284601F080F893
:1020100020706DE794F900500422611C02A801F0C1
:102020007DFD00231A460299284601F043F960E736
:1020300094F900500422611C02A801F06FFDB6F86B
:102040000100062806DB0422611D19A801F066FDC7
:1020500094F909700097199B00220299284601F013
:10206000A8F9207044E720780146032904D01A29F2
:1020700010D02C290ED011E060780DF10D025070B7
:10208000012805D1A0788DF80F00204601F05EFBF5
:1020900001202EE7204601F059FBF9E794F90110E1
:1020A00040B20020C046C0B223E720780146491E56
:1020B00051D00D390DD0C91E55D0491E032921D943
:1020C000091F00F0A680491E00F0048119393AD09A
:1020D00016E20E208DF80C0060780DF10D025070A4
:1020E000A1788DF80F10E2780DF10F035A700023DC
:1020F000ADF8113052B249B240B202F037F801F0F7
:1021000023FBFDE18DF80C000146122903D10DF1EE
:102110000D0062784270132902D160788DF80F00AB
:10212000142903D10DF10F0062784270152903D1F3
:102130000DF10D006178417062782178DFF8900828
:1021400001F0B6FDDCE130208DF80C000DF10D0042
:1021500061784170D4E101208DF80C000DF10F0081
:1021600061784170CCE10DF10D0061784170A0788B
:102170008DF80F000DF10F00E178417020798DF896
:102180001100002802D001281FD030E06079A17929
:10219000090401EB0060E17900EB0120217A40188D
:1021A000CDF812000DF11206607AA17A11EB002031
:1021B000B080E07A217B11EB0020F080607BA17B76
:1021C00011EB0020ADF81A0011E06079A17911EB54
:1021D0000020ADF812000DF11206E079217A11EB22
:1021E00000207080607AA17A11EB0020B0801AA8DC
:1021F0000DF10E010E2209F05DFF1AA80FC802F0C2
:10220000D8F802F03DF9012840F07A8101F0F1FAA6
:1022100076E16078A178090401EB0060E17800EBD9
:10222000012021794018CDF80E006179A2791204BD
:1022300002EB0161E27901EB0221227A8918CDF8E3
:102240001210627AA37A1B0403EB0262E37A02EBB8
:102250000322237BD2180DF112067260637B8DF886
:102260001A30A37B8DF81B300DF11B03E57B5D70ED
:10227000257C9D70657CDD70A57CE67C16EB0525D4
:102280002DB29D80267D05EB0625667DAD19DD808E
:10229000A57D1D72002803D1002901D1002A0CD090
:1022A0000DF10E0184B06846162209F003FF0FBC41
:1022B00002F00CF902F0ECF801E002F0EEF80DF19A
:1022C0000E0184B06846162209F0F4FE0FBC01F03E
:1022D0007CFA15E160788DF80D001D283ED10DF1D6
:1022E0001206A1787171A17801290DD1E1782279C6
:1022F00012EB0121ADF80E1089B20A460146DFF853
:10230000D40601F0D5FCFBE002290BD1E07821795D
:1023100011EB0021ADF8101089B2DFF8BC0601F016
:10232000C7FCEDE003290AD1E078217911EB002107
:10233000F18089B2DFF8A40601F0BAFCE0E00429DC
:1023400040F0DE80E078217911EB0021ADF81A1021
:1023500089B2DFF88C0601F0ABFCD1E0032828D16C
:10236000A1780DF15E056970DFF8780601F0A0FC38
:102370006878012816D10020142880F2C18004EB6F
:102380008001CA780B791B0403EB02624B7902EBE4
:1023900003228979511803AA02EB8002C2F80210C5
:1023A000401CE9E7022840F0AB80E0788DF85E0041
:1023B000A6E01C2827D1A0788DF81100A07801286C
:1023C00008D1E1780DF10D025170DFF81C0601F023
:1023D0006FFC95E0022807D1E1788DF80F10DFF847
:1023E0000C0601F065FC8BE0032800F089800528CD
:1023F00040F08680E1780DF10F035970DFF8F005A9
:1024000001F056FC7CE02C2830D10DF11200A178AF
:102410008171A078012803D1E0788DF812006FE077
:10242000022806D1E078217911EB0020ADF81900DF
:1024300066E0032806D1E078217911EB0020ADF8A1
:102440001B005DE0042807D1E078217911EB002022
:102450000DF11B01488053E0052851D1E078217926
:1024600011EB00200DF11B01888049E0372803D1D2
:10247000204609F08FFF43E030281BD1A0788DF86B
:102480000F00A078012804D10DF10D00E178417012
:1024900036E0022834D140F63522DFF81C15DFF88B
:1024A000540501F005FCB6F80110E01C0AF065FEC9
:1024B00001201EE5342823D10DF11200A17801710D
:1024C000A078012817D10DF10E00E17822791204CD
:1024D00002EB0161627901EB0221A279891800EE19
:1024E000101AB8EEC00ADFED850A80EE200A10EE61
:1024F000101A016004E0022802D1E078CDF8120041
:1025000006208DF8780020788DF879000DF17B0099
:1025100003A9552209F0CEFD0DF179000B21417080
:102520000020ADF8D0001EA801F07AF9C0B2E0E4B6
:10253000207801463C2905DBDFF8BC0401F0B8FB3C
:102540000020D6E4C1EB0112DFF8B01401EB8201E8
:10255000897E012940F09381014603292ED0062966
:102560006BD0092931D00C294BD00D2957D019290E
:1025700000F096801A296DD01B2900F0A6801C2936
:1025800000F0E5801D2900F0BB801E2900F0ED80E1
:10259000262900F0F880272900F003812C2900F07B
:1025A00028812D2900F03E812F2900F0508130290B
:1025B00000F04681342900F056815BE10322611C62
:1025C0000DF10E0001F0AAFA59E10722611C0DF18C
:1025D0000E0001F0A3FABDF80E00010A41EA002046
:1025E000ADF80E00BDF81000010A41EA0020ADF878
:1025F0001000BDF81200010A41EA0020ADF81200F7
:102600003DE10322611C0DF10E0001F087FABDF8D7
:102610000F00010A41EA0020ADF80F002FE103226C
:10262000611C0DF10E0001F079FABDF80F00010AEE
:1026300041EA0020ADF80F0021E10122611C0DF1FB
:102640000E0001F06BFA0DF10D004178EC4801F03D
:102650002FFB14E10B22611C0DF10E0001F05EFA5C
:10266000DDF80F00010221F0FF11000A00F0FF1059
:102670000843CDF80F004FEA3040CDF80F000DF1C0
:1026800012067088010A41EA00207080002396F942
:10269000062096F9051096F9040001F067FDEEE0BA
:1026A0000622611C0DF10E0001F038FABDF80E0093
:1026B000010A41EA0020ADF80E00BDF81200010A3F
:1026C00041EA0020ADF81200D9E00422611C0DF1AE
:1026D0000E0001F023FABDF80E00010A41EA0020C5
:1026E000ADF80E00BDF81000010A41EA0020ADF877
:1026F0001000C44801F0DCFAC1E000BF00401C46F5
:102700000922611C0DF10E0001F008FABDF80E005F
:10271000010A41EA0020ADF80E00BDF81000010AE0
:1027200041EA0020ADF81000BDF81200010A41EAAC
:102730000020ADF812000DF11206002396F90420D6
:1027400096F9031096F9020001F010FD97E00DF1E3
:102750000D0061784170A0788DF80F00A278617843
:102760000FF2A82001F0A4FA89E00322611C0DF108
:102770000E0001F0D3F9BDF80F00010A41EA002074
:10278000ADF80F007BE00522611C0DF10E0001F099
:10279000C5F9BDF80F00010A41EA0020ADF80F00AD
:1027A0006DE00A22611C0DF10E0001F0B7F9BDF9D0
:1027B0000E00C0F3072141EA0020ADF80E00BDF97C
:1027C0001000C0F3072141EA0020ADF81000BDF968
:1027D0001200C0F3072141EA0020ADF812000DF10C
:1027E0001206B6F90200C0F3072141EA002070800A
:1027F00045E00822611C0DF10E0001F08FF9BDF8D3
:102800001000010A41EA0020ADF810000DF1120697
:10281000002396F9032096F9021096F9010001F0C1
:10282000A5FC2CE00222611C0DF10E0001F076F9EE
:10283000BDF80E00010A41EA0020ADF80E001EE0CE
:102840000222611C0DF10E0001F068F917E00DF194
:102850000D00E178417020798DF80F000DF10F0027
:10286000617941700BE00922611C0DF10E0001F04D
:1028700055F904E08DF80C0060788DF80D00207893
:102880000146052908D1604801210170687A0028B5
:1028900010D10846FFF72DBB18290BD18DF80C007D
:1028A00060788DF80D000DF10D00A1784170E07891
:1028B0008DF80F0000208DF8780020788DF87900D1
:1028C0000DF17B0003A9552209F0F4FB0DF179000D
:1028D0000B2141700020ADF8D0001EA800F0A0FF31
:1028E000C0B2FFF706BB207801463C2906DB0FF299
:1028F0002C1001F0DDF90020FFF7FBBA052905D106
:102900004148002101700120FFF7F3BA1A291CD1B8
:102910000822611C0DF10E0001F000F9DDF80F0036
:10292000010221F0FF11000A00F0FF100843CDF86A
:102930000F004FEA3040CDF80F000DF112067088FD
:10294000010A41EA0020708005E02C2903D10DF135
:102950000D006178417001208DF8780020788DF8A5
:1029600079000DF17B0003A9552209F0A3FB0DF1BD
:1029700079000B2141701EA800F052FFC0B2FFF792
:10298000B8BA0120FFF7B5BA2078002803D10FF2BA
:10299000AC000BF057F80120FFF7ABBA04F10802C6
:1029A000211D204608F0C2FD0120FFF7A2BA000059
:1029B0002C400020CC9A0120B4700408CC7004088C
:1029C000F8700408047104081071040820710408E8
:1029D0004471040854710408647104087071040897
:1029E0007C710408887104089C710408B0710408A3
:1029F000C4710408D871040814720408A01F0120CF
:102A0000307204083C7204085CAE0120415044520C
:102A10002041444420256420256400004C696272F2
:102A20006172792072616E6765206973206F7665C7
:102A3000722C2052656D6F766500000051505F5218
:102A4000455155455354000000487047409B0120B4
:102A500080B5FFF7F9FFDFF8401B4860012002BD99
:102A600080B508F025FEDFF8341BD1E90023801A79
:102A700002BD01F0ABBD2DE9F84304460020054638
:102A80000646DFF81C1B496804F108073A697B68B1
:102A900002EB030894F90820002A15D1B8F90000C8
:102AA000B8F90250B8F90460B7F85010411AA8F804
:102AB0000010B7F85210691AA8F80210B7F85410AD
:102AC000711AA8F8041040E004F16C09012A27D11A
:102AD000B8F80010A4F86C10B8F80210A9F80210A9
:102AE000B8F80410A9F80410B4F86C10BA6D891A7B
:102AF000A8F80010B9F80210FA6D891AA8F80210A7
:102B0000B9F804103A6E891AA8F80410B96DA8F83B
:102B10000610F96DA8F80810396EA8F80A1014E02C
:102B2000B4F86C20A8F80020B9F80220A8F8022018
:102B3000B9F80420A8F804200A6EA8F806204A6E06
:102B4000A8F80820896EA8F80A1094F9081000293E
:102B500051D1B8F90010C913B1EBE03F14D0B7F967
:102B60005010C913B1EBE03F0ED00FF64C2001F02E
:102B70009FF8B8F90000012802DBDFF8280A01E01D
:102B800047F6FF70A8F80000B8F90210C913B1EBBE
:102B9000E53F14D0B7F95210C913B1EBE53F0ED0A1
:102BA0000FF6202001F084F8B8F90200012802DBBA
:102BB000DFF8F00901E047F6FF70A8F80200B8F965
:102BC0000410C913B1EBE63F70D0B7F95410C91324
:102BD000B1EBE63F6AD00FF6F81001F069F8B8F9EA
:102BE0000400012802DBDFF8BC0901E047F6FF70B2
:102BF000A8F804005AE0012958D1B4F96C00B8F9DA
:102C00000010C913B1EBE03F14D0B7F95810C91345
:102C1000B1EBE03F0ED00FF6A01001F049F8B8F983
:102C20000000012802DBDFF87C0901E047F6FF70B5
:102C3000A8F8000004F16C09B9F90200B8F9021013
:102C4000C913B1EBE03F14D0B7F95C10C913B1EB75
:102C5000E03F0ED00FF66C1001F02AF8B8F9020030
:102C6000012802DBDFF83C0901E047F6FF70A8F815
:102C70000200B9F90400B8F90410C913B1EBE03F40
:102C800014D0B7F96010C913B1EBE03F0ED00FF6C6
:102C9000401001F00DF8B8F90400012802DBDFF85C
:102CA000040901E047F6FF70A8F8040094F9080051
:102CB000002804D1002000E0401C0328FCDBBDE814
:102CC000F1830000F8B50446A069E16845180027C3
:102CD00094F90860052E02D30E2E40F0B480012E28
:102CE00001D00E2E02D12046FFF7C5FE3046012846
:102CF00004D9C01E02D00B3840F0A080002E01D1B4
:102D00004FF6FF77DFF8900840680E2E03D030189A
:102D100090F8840001E090F88500401E062870D8E5
:102D2000DFE800F00413222F3E4D5E00B5F90200EB
:102D30002988791AB5F90420B5F90830B5F806C024
:102D4000A7EB0C0CB5F90A7067E02888381A698877
:102D5000791AB5F90420EB88FB1AB5F808C0A7EB7F
:102D60000C0CB5F90A7058E06888381AB5F90010EB
:102D7000B5F904202B89FB1AB5F906C0B5F90A701C
:102D80004BE02888381AB5F90210AA88BA1AEB88DD
:102D9000FB1AB5F908C0B5F80AE0A7EB0E073CE04E
:102DA000B5F90200B5F90010AA88BA1AB5F90830C9
:102DB000B5F906C0B5F80AE0A7EB0E072DE0B5F9A6
:102DC00000006988791AAA88BA1AB5F90630B5F8E8
:102DD00008C0A7EB0C0CB5F80AE0A7EB0E071CE047
:102DE0006888381A2988791AAA88BA1A2B89FB1A8E
:102DF000B5F806C0A7EB0C0CB5F80AE0A7EB0E0778
:102E00000BE0B5F90000B5F90210B5F90420B5F9E9
:102E10000630B5F908C0B5F90A70012E07D14FF098
:102E2000000E01E00EF1010EBEF1030FFADB288067
:102E30006980AA80EB80A5F808C06F81002E02D1BE
:102E40002046FFF718FE0120F2BD000070B40468B0
:102E50000D6816685B1E062B27D8DFE803F0040810
:102E60000D11161B20000560604208601DE06242E3
:102E700002606842086018E06A4202600C6014E078
:102E800061420160704210600FE005600C607042AA
:102E900010600AE0684208607042106005E06B4212
:102EA0000360604208607042106070BC70470000B0
:102EB00070B52DED028B82B08169C2688A1890F9D5
:102EC000081008460A2800F2AD80DFE800F0062B63
:102ED00089ABAB65ABABAB96A400B2F90240B2F9DB
:102EE0000450DFF8B40641689FED860AB2F900008D
:102EF00000EE900AF8EEE00A60EE800AC1ED000AEA
:102F000000EE904AF8EEE00A60EE800AC1ED010A98
:102F100000EE905AF8EEE00A20EE800A081D80EDDF
:102F2000010A83E0B2F90240B2F90450DFF8680602
:102F300041680E1D9FED748BB2F9000000EE100A7F
:102F4000B8EEC00A10EE100A0AF008FE53EC182B77
:102F50000AF02CFE0AF0FCFEB06000EE104AB8EE5B
:102F6000C00A10EE100A0AF0F9FD53EC182B0AF013
:102F70001DFE0AF0EDFEF06000EE105AB8EEC00A39
:102F800010EE100A0AF0EAFD53EC182B0AF00EFEC0
:102F90000AF0DEFE306149E00020009010680090E9
:102FA000DFF8F40541689DED000AB8EEC00ADFEDD8
:102FB000C00A20EE200A81ED0C0A91ED0C0AB5EE54
:102FC000400AF1EE10FA31D090ED020AD1ED0C0A70
:102FD00030EE200A80ED020A0188491C018025E0BC
:102FE000DFF8B40541681088A1F85A0001F25A00D0
:102FF000518841809188818018E0DFF89C05416804
:1030000001F25A001188C180518801819188418163
:10301000D18881810AE0DFF880054068118880F856
:10302000681003E00FF2B45000F042FE012002B03D
:10303000BDEC028B70BD70B50D46DFF8641551F81C
:1030400020400026207F002801D1304670BD607AE4
:10305000002804D0D4F8200180688047064628461E
:10306000D4F82011C96988470546002E03D0D4F84A
:10307000200140688047284670BD01207047F0B4A9
:10308000002A14D400F10804A57EA66892FBF1F78B
:103090006F43B74202DA2264626408E090F9087074
:1030A0000C2F02D096FBF5F24A4322646264002B97
:1030B00003D4990701D508300376F0BC704700218E
:1030C0008164416181610269C06801F0EFBA04283E
:1030D00017D101F10C008A7A012A09D00722427522
:1030E0000B228275DFF8C024CA600B214160704753
:1030F0001522427519228275DFF8B024CA601921A1
:103100004160704760F69C3A89AD84FA0A74513F79
:103110002DE9F24F98B08046144699460020ADF84C
:1031200058008DF801000DF101050A20687000209B
:10313000A870E870B8F11D0F7BD24646DFF8600436
:1031400050F826704FF0020A387F002871D0189886
:10315000C82802D1B420189003E0422801D13C20B5
:103160001890002C02D1012087F898009DF988B0B2
:10317000BBF1000F09D45FEACB7006D55B464A4627
:1031800018993846FFF779FF8FE0002C14D1787A30
:1031900000280BD131460FF2504000F089FD59460E
:1031A0003846FFF78CFF012087F899005B464A46B6
:1031B00018993846FFF763FF07F58E790F2E01D077
:1031C000102E06D14146C9B218A8D9F80420926938
:1031D00090471A2E06D14146C9B218A8D9F8042042
:1031E000926990471B2E06D14146C9B218A8D9F85A
:1031F00004209269904739464046FFF768FF787A85
:1032000000281FD1214649B23846D9F80820126853
:10321000904700280FD0D9F8040040688047002864
:1032200005D15146A1F1010AC9B20029F3D1002804
:1032300001D1002039E0214649B23846D9F80820AA
:1032400052689047787A401C78720C2E0CD0112E60
:103250000AD00D2E08D0224652B218993846D9F815
:1032600008301B6998470EE0B86B1421C160002C30
:1032700009D1002087F81901C7F81C01FFF7F0FBFE
:103280000021C7E9240100F0F0F8162E0CD1002C23
:103290000AD100208DF800003B208DF801000A20A3
:1032A000687000A800F0BCFA012019B0BDE8F08FEA
:1032B0000AD7233C2DE9F04798B007460E4614463E
:1032C00019460020ADF858008DF801000DF10105F8
:1032D0000A2068700020A870E8701D2F08D2B0483E
:1032E00050F827804FF0020998F81C00002801D1FF
:1032F00000205BE0C82E01D1B42602E0422E00D1AE
:103300003C26002C02D14046FFF7D9FE98F8090070
:1033100001281DD108F5907A214649B24046DAF8D5
:1033200004209268904700280BD0D8F820018068CC
:103330008047002805D14846A0F10109C0B2002805
:10334000F3D1214649B24046DAF80420D2689047CA
:1033500098F80900002802D0401E88F809000C2FB8
:103360000DD0112F0BD00D2F09D0224652B231466D
:10337000404608F590735B685B69984704E0D8F8AD
:1033800038004FF0FF31C16000F06FF8162F0CD1FC
:10339000002C0AD101208DF800003B208DF801009F
:1033A0000A20687000A800F03BFA012018B0BDE8C0
:1033B000F0872DE9F04106460C4615461A461D2EAB
:1033C00020D2774850F82670387F00281AD0C82CB1
:1033D00001D1B42402E0422C00D13C249DF91830E4
:1033E000002B06D4D80704D521463846BDE8F04165
:1033F00043E605EB450007EB8008D8F83800806805
:10340000002801D500202EE021463846FFF737FE80
:103410000C2E27D0112E25D00D2E23D0D8F8380011
:10342000806884421ED0012C1CDB0FF2C41000F017
:103430003FFC2A4652B2D8F8380081683846D7F89F
:1034400024315B6998472A4652B221463846D7F85C
:1034500024311B69984700F008F8002D02D10120A3
:1034600087F898000120BDE8F08170B56FF0004644
:1034700034464F48016804E08A68A24200DA1446E4
:1034800009688142F8D14B4D2878401C2870687833
:10349000F021084202D0992002F078F802F0ECF80E
:1034A0006878401C6870B44200D100243A4E7068BD
:1034B000C467D0F8802021468A4212D0002901D06A
:1034C000002A0BD1C0F880100FF2341000F0F0FB8E
:1034D0007068D0F8800000F0C7FB02E001200AF01D
:1034E0008BFC6878F021084202D0992002F04EF857
:1034F0006878401E6870C0B2002801D102F0B6F8AA
:1035000002F0A4FB012070BD38B50546294C207897
:10351000401C20706078F021084202D0992002F00F
:1035200035F802F0A9F86078401C607029460FF267
:10353000E40000F0BDFB18484068C0F880501C480B
:10354000016805E08A68B2FBF5F26A43CA6009685F
:103550008142F7D16078F021084202D0992002F030
:1035600015F86078401E6070C0B2002801D102F0EA
:103570007DF8BDE8314002F069BB0D490A6808E0FA
:103580001369012B01DAD368136113691B1A1361E4
:1035900012688A42F4D17047D8AB012010AD0120E7
:1035A000CC9A01200080FFFF50470020DCA90120B9
:1035B0002040002008CA002058206973206F7665DB
:1035C0007200000059206973206F76657200000058
:1035D0005A206973206F766572000000554353547A
:1035E000282564294E5300004164642025640000AE
:1035F0006368616E67652072617465320000000067
:10360000675F707453682D3E6354696D6572203D29
:10361000202564006374696D6572203D2025640077
:103620007C487047F8B50C461646012500282BD17A
:10363000C6EB0610774901EB8007386AE040C00707
:1036400008D523463A6A31460FF2883000F030FB45
:103650000220F2BD4FF0FF30009003462A46796801
:103660002046FFF755FD00280CD023463A6A314624
:103670000FF2703000F01CFB386A2946A140084365
:1036800038622CE00220F2BD012828D1C6EB0610DA
:10369000604901EB8007386AE040C00708D4234640
:1036A0003A6A31460FF24C3000F002FB032516E077
:1036B0004FF0FF332A4679682046FFF7FBFD0028CC
:1036C00007D023463A6A31460FF2383000F0F0FA5C
:1036D00000E00325386A0121A1408843386228466A
:1036E000F2BD01F0CDBD02B598B00021ADF8581083
:1036F0008DF801100DF101010A224A7000228A7032
:10370000CA7005218DF800108DF80100042218A957
:103710000DF1030000F002FA0020ADF8580000A8F7
:1037200000F07EF819B000BD10B40022884201D329
:10373000421A06E00B1A384CA34202D3374A10183B
:10374000421A104610BC70470BF0C0B838B5447828
:1037500085780078032822D01A2802D02C282AD075
:1037600031BD012C0CD101200CF05CFD012322465F
:103770001A210FF2A02001B0BDE8304000F098BA45
:10378000022C21D102200CF04DFD022322461A21E9
:103790000FF2942001B0BDE8304000F089BA012C4E
:1037A00012D128460BF0AFF829460FF29020BDE861
:1037B000344000F07DBA012C06D129460FF2882052
:1037C000BDE8344000F074BA31BD0FB480B50028B4
:1037D00005D10846002802D11046002804D00CF07C
:1037E000FAFF0DF09EFA01E00CF0DEFF01BC5DF87F
:1037F00014FB0DF003B800223C2809D2C0EB0013E3
:10380000044800EB8300006AC840C00700D50122CD
:1038100010467047A01F0120A1780F05005C260507
:1038200030B595B00446012594F90000062800F251
:10383000BC80DFE800F0042648647AB2B600E11CE0
:1038400082B06846552208F035FC0CBC94F9021091
:1038500094F9010001F04EF9022809D1607801F0D5
:1038600013FB002561780FF2E81000F021FAA2E0C6
:10387000032840F0A08061780FF2DC1000F018FA05
:1038800099E060781A280BD1E01C01F0C9FDA37AF9
:10389000D4F8062061790FF2C81000F009FA04E0AC
:1038A0002C2802D1E01C01F0BBFD94F9021094F920
:1038B000010001F014FA03287DD161780FF2B810ED
:1038C00000F0F6F977E0B4F8581000A801F0F6FA25
:1038D0009DF9040002280AD1009800B201F0D4FA40
:1038E000002500990FF2981000F0E2F963E0032838
:1038F00061D100990FF2901000F0DAF95BE00DF061
:10390000CCFF022809D1607801F0BEFA0025617869
:103910000FF27C1000F0CCF94DE003284BD1617818
:103920000FF2741000F0C4F945E0607805280CD15E
:1039300028460EF094F802280DD003283BD1617878
:103940000FF2641000F0B4F935E002280DD10EF04A
:103950008CF90228F1D1607801F096FA002561789F
:103960000FF23C1000F0A4F925E02F2823D10EF02F
:10397000EBFA022809D1607801F086FA0025617817
:103980000FF22C1000F094F915E0032813D16178A0
:103990000FF2241000F08CF90DE0204601F0F3FA4C
:1039A00009E0204601F099FC05E061780FF2101063
:1039B00000F07EF90025284615B030BD0120704783
:1039C0000FB4022004B070470120704700207047F8
:1039D00070470000534D4143202564202564202575
:1039E00064000000534D4120256420256420256497
:1039F00000000000534D52432025642025642025FB
:103A000064000000534D5220256420256420256465
:103A1000000000004154205249204E6F72202D2595
:103A200064202564202564004154205249204261CD
:103A300074202D25642025642025640050442055E1
:103A4000542D256400000000534C4D2025640000D7
:103A5000414C4F4620256400414C434620256400DC
:103A60004F4A4820454C20307825782030782578FA
:103A70002030782578000000524C43462025640011
:103A8000504C4F4620256400504C4346202564008E
:103A900050414F4620256400504143462025640094
:103AA00050504F4620256400505043462025640066
:103AB00050534F4620256400505343462025640050
:103AC0004558204C4D454C202564000010B504009D
:103AD00010480078002805D10F480EF0F6FA0D487E
:103AE000012101700C480EF02AFB20000FF0FAF9BA
:103AF000040009480EF057FB200010BD10B504006B
:103B000005480EF01CFB20000FF046FB02480EF0AB
:103B10004AFB10BD65AE0120A4AB012010B5040026
:103B2000200008F0C7FA200010BD10B450F8041BA4
:103B300081B102681218001D50F8043BDC0744BF35
:103B4000A9F10104E31852F8044B43F8044B091F90
:103B5000F9D1EBE710BC704738B504000D001748E9
:103B60000078401C1549087015480078002802D0DC
:103B7000A12001F00BFD02F028F8A07E662802D0FB
:103B8000822001F003FD802080F3118800BF00BF78
:103B900008E0382120000FF08DFD802080F311888F
:103BA00000BF00BFE06821698842F2D029002000F0
:103BB0000FF0A4FD02F04AF831BD00BF08CA002092
:103BC00063AE012010B5DFF8E4494FF4067200211E
:103BD000204600F06BFD204610BDDFF8D00970478D
:103BE00010B5FFF7EFFF044600231A4611460846BA
:103BF00000F0BCFAC046C04606F06BFA0A21204627
:103C000000F03FF806F00FFE06F0CAF9204600F07B
:103C100049FA204600F018F8DFF89409006806F029
:103C200010FC204600F09BF900F047FB00F0E8F99B
:103C300000206072A072E072207301206073002087
:103C4000E076A073012010BD10B50446DFF86409CA
:103C500006F059FB0120607110BD10B5044606F056
:103C60006EFC0120A07110BD80B506F04CFF012054
:103C700002BD10B50446E07907F056F80121217025
:103C800010BD70B504460025E679E171FFF7F1FF3C
:103C9000002807D02046FFF7D7FF2046FFF7DDFFBB
:103CA000012503E0E6712046FFF7E3FF284670BDDB
:103CB0000EB470B5C1B0054600A84FF4807100F095
:103CC00033FDFFF78AFF044645AB2A464FF4807167
:103CD00000A80FF07FFD00A80FF09AFD451C00A87A
:103CE0002818002100F8011CDFF8CC683078401C4F
:103CF00030707078F021084202D0992001F046FC23
:103D000001F0BAFC7078401C7070207F2818B0F564
:103D1000FA7F10DA207F002803D0207F00190A21C3
:103D200001772A4600A9207F00191D30FFF7F6FE13
:103D3000207F281820777078F021084202D099203F
:103D400001F024FC7078401E7070C0B2002801D1D0
:103D500001F08CFC01F07AFF41B070BC5DF810FB03
:103D6000DFF81408DFF84C180160704710B50446FE
:103D7000FFF733FFD0E9042310461946224601F02D
:103D8000F1FB00F0010011F0000101D100280ED07C
:103D9000DFF828482068401C20601E2807DB0FF64B
:103DA0003800FFF785FF07F039F80020206010BDCC
:103DB000DFF808080021016070472DE9F843054647
:103DC0000E4617464FF00208DFF8EC476078F02106
:103DD000084202D0992001F0D9FB01F04DFC607837
:103DE000401C60709DF80000401E8DF8000017F820
:103DF000019B2846FFF7B4FF00AB4A4639463046E0
:103E000007F044F8002812D06078F021084202D070
:103E1000992001F0BBFB6078401E6070C0B20028A2
:103E200001D101F023FCFFF7C3FF01201FE05FFA7F
:103E300088F8424629460FF2B470FFF739FF404632
:103E4000A0F101080028D7D16078F021084202D003
:103E5000992001F09BFB6078401E6070C0B2002882
:103E600001D101F003FC2846FFF780FF0020BDE8E8
:103E7000F2832DE9F04704460D4616461F46DFF84B
:103E80000087089888F80000DFF82C9799F801005F
:103E9000F021084202D0992001F078FB01F0ECFB00
:103EA00099F80100401C89F801002046FFF758FFEF
:103EB0004FF0020A434632463946284607F09CF83E
:103EC000002815D099F80100F021084202D099206D
:103ED00001F05CFB99F80100401E89F80100C0B2B6
:103EE000002801D101F0C2FBFFF762FF012022E0B0
:103EF0005FFA8AFA524621460FF2FC60FFF7D8FEBD
:103F00005046A0F1010A0028D4D199F80100F0210F
:103F1000084202D0992001F039FB99F80100401EB7
:103F200089F80100C0B2002801D101F09FFB2046B2
:103F3000FFF71CFF0020BDE8F08780B51146029A0C
:103F4000184606F05DFA012002BD80B510465A1EE3
:103F500092B20178401C06F033FA012002BD7CB514
:103F600004460120009001AB8022D0210020FFF701
:103F7000E4FF0FF2A8650FF28C669DF804304FF451
:103F8000047231462846FFF793FE9DF80400D128BD
:103F900001D0D22808D1012084F812020FF29460D7
:103FA000FFF786FE012076BD0120009001AB8F2235
:103FB0001B210020FFF7C1FF9DF8043040F21B22B7
:103FC00031462846FFF774FE9DF80410692907D191
:103FD000022084F81202BDA0FFF76AFE012076BD20
:103FE0000FF25860FFF764FE022084F812020120ED
:103FF00084F812020FF26060FFF75AFE012076BDCE
:1040000010F0EAB82DE9F843054602264FF0000803
:10401000DFF8689516E03046461EC0B2002814D17D
:10402000002C0CD1D5E9046701200021424610F094
:1040300015FA26EA000027EA0101C5E90401022673
:1040400008F10108B8F11D0F18DA59F82800D0F866
:104050002001006880470446012CDCD1D5E90467C3
:1040600001200021424610F0F9F930433943C5E9F7
:10407000040159F8280001210177D1E7D5E90401AD
:10408000002901D1032807D0002901D1022803D03B
:10409000002905D1012803D140F48050C5E904016D
:1040A000BDE8F18307F0EBB807F053B907F0FEB8AD
:1040B000DFF80405026A036A00BF00BF00BF00BF4B
:1040C00000BF9B1A8B42F6DB7047417230B597B048
:1040D000FCF75AF80446FFF780FD054600A85C216E
:1040E00000F022FB0020ADF858008DF801000DF122
:1040F00001000A21417000218170C170697A002994
:104100000DD0002C18D000218DF8001005218DF85D
:1041100001100B21417000A8FFF782FB0CE0002C7E
:104120000AD001218DF8001005218DF801100B2116
:10413000417000A8FFF774FB17B030BD07F028B935
:1041400007F030B902210120F8E702210120F7E74A
:1041500001210846F2E701210846F1E707F02CB9F2
:1041600010B50446FFF739FD447610BD2DE9F04740
:1041700082B00C4615462F46264680464FF47A718B
:104180004FF03C0C4FF4616918FB09F216FB0C224E
:10419000BA1801FB0232DFF8ECE39EF900A01AFB2B
:1041A00009F99EF901A01AFB0C9C9EF902904CFAA9
:1041B00089FCBEF9039001FB0C919EF808C0BCF18C
:1041C000000F22D144EA00012943194302D0012102
:1041D0008EF808108EF80000B8F1000F04D59EF894
:1041E000000018308EF800008EF801408EF8025062
:1041F000AEF8033000933B4632469EF900100FF2B2
:104200009840FFF755FDBDE8F38791420DD3A1EB30
:10421000020CACF2D17CDFF8A893CC45DAD30FF2D4
:10422000544002B0BDE8F04742E5D3D2A2EB010C06
:10423000ACF2D179DFF888A3D145CBD363460FF236
:10424000444002B0BDE8F04732E510B504002FD07D
:10425000FCF782F8CB49CA68002A00D0841AB1F86A
:104260000320A218A1F8032012B2B2F57A7F06DB70
:10427000A2F57A72A1F803208A78521C8A7091F90B
:1042800002203C2A04DB3C3A8A704A78521C4A706D
:1042900091F901203C2A04DB3C3A4A700A78521C0E
:1042A0000A7091F90020182A01DB00220A70C86008
:1042B00010BDB449052207F0FDBEB34800210170CE
:1042C00041701E22B14800F0F1B9000053544D0076
:1042D0003FB400210120AC4A1278002A0CD12CE016
:1042E0005C68019DAC4224D11B89BDF80840A34203
:1042F0001FD10020491CC9B291421EDAC1EBC10393
:10430000A24C04EB43039DF80340DD78A54213D192
:10431000002CE5D09C88BDF80450AC4209D1DC8863
:10432000BDF80650AC4204D11B89BDF80840A34239
:10433000DFD000F00100DDE7012004B030BC7047A1
:104340007FB40020014626E0C0EBC00254008F4D30
:1043500066193C224FF46163645D757812FB05F5C4
:1043600013FB0454B57864199DF800509DF8016062
:1043700012FB06F213FB05229DF8023052FA83F27B
:10438000A24201D2824B9A18121BB2F5966F00D945
:10439000491C401CC0B27C4A13789842D4DBC9B295
:1043A0008B4202D20020107001E0581A10707FBCBE
:1043B00070472DE9FF419DF80340022C5EDA00A80A
:1043C0000FC8FFF785FF012858D100A80FC8FFF7D5
:1043D000B7FF9DF802509DF801606C4FDFF8A8818F
:1043E00098F80000032825D13C214FF461603A7809
:1043F0007B7811FB03F310FB0232BB78D2189DF8D7
:10440000003011FB06F110FB031050FA85F09042CA
:1044100001D25F490818811AB1F5966F02D94FF49D
:10442000966000E0801AA8F80200FFF746FF01201E
:1044300088F8010098F80000C0EBC00149009DF821
:104440000020CA55C9194E708D70CC70BDF8082077
:10445000002C09D1019B4B600A81BDF80A204A81DA
:10446000BDF80C208A8106E0BDF804308B80BDF8D1
:104470000630CB800A81401C88F80000BDE8FF812F
:104480004149487800224A7070473F484088704749
:10449000242200214B4800F009B91CB500A8FFF701
:1044A00008FF484C24220021204600F0FFF89DF828
:1044B0000000607604F219009DF8011041709DF82B
:1044C00002108170FF21817213BD00000FB410B57E
:1044D0002DED028B2F4C10460FF0D2FF2E4A2F4BA2
:1044E00009F064FB206161619FED2D8B04980FF052
:1044F000C7FF53EC182B09F059FB20606160059849
:104500000FF0BEFF53EC182B09F050FBA060E160E8
:104510009DF81C00207604F118009DF81D104170D4
:104520009DF81E1081709DF81F10C1709DF820101D
:104530000171BDF8210000EE100AB8EE400A10EE3D
:10454000100A09F00BFB184A1F4B09F02FFB09F06A
:10455000FFFBC4F81D00BDF82300A4F821009DF85E
:10456000250084F82300BDEC028B10BC5DF814FB21
:104570000849242207F09EBDE0CB0020CC9A012000
:104580003BAE0120E8AB012098AD012018A8012026
:1045900080510100B8A80120FCA9F1D24D62503F22
:1045A0008DEDB5A0F7C6B03E3BDF4F8DE07C01201E
:1045B0000CCC00200054004008CA00209CAD012013
:1045C0005F4C2605DCA80120976EA23F80B510F055
:1045D0004DF8002104BD0000233E496E6974696CEA
:1045E00061697A652049324300000000495745203F
:1045F00025642025640000004952452025642025BB
:104600006400000053485F48415F436865636B3650
:104610004178697353656E736F72000025732825A6
:104620006429203A20726567203D205B3078253070
:1046300032785D00426F73636800000057484F4155
:104640004D49206661696C203A207265675B30785D
:10465000253032785D000000556E6B6E6F776E20EE
:1046600036617869732073656E736F722121212121
:104670000000000041542D536574545331202564CB
:104680002025640041542D53657454533220256411
:10469000202564202564000041542D536574542066
:1046A00025643A25643A25642E25640010B504007B
:1046B00010000A000100200010F03EF9200010BD9B
:1046C00050EA010200F00E80094200BF0BD1B0FA9F
:1046D00080F18840C1F19D01C905020672F10042D6
:1046E00041EB10207047B1FA81F241409040C2F195
:1046F000200261FA02F181EA000018BF40F00100D7
:1047000002F19D01E8E750F8041B61B150F8042B59
:10471000D30744BFA9F101039A18002342F8043BD0
:10472000091FFAD1EFE77047002210F03DB9826807
:10473000521C8260426832B10268531C03601170DF
:104740004168491E4160704770B5DFF83C4BFEF789
:104750007BF9E06410F042F9FEF762FF2065002566
:1047600017E04FF0FF31C176DFF8201B4162DFF820
:10477000201B8162DFF81C2BC262DFF81C2B026356
:10478000DFF8A42C42638163206D3018806B804772
:104790006D1C3C2D80F2AC81216DC5EB05108600AF
:1047A000002070547018002242700122C27600224C
:1047B00082764FF0FF324260002282700262C27045
:1047C0002A46921E392ACCD8DFE812F047003B0077
:1047D00066014F00570062007C003A003A003A0040
:1047E0003A003A003A0085008E003A003A003A005A
:1047F0003A0096003A009F003A006C01B0000401B4
:1048000010011A013A00C800D000D900E100FC00F4
:104810003A003A003A003A003A003A003A003A00C8
:1048200026013B013A0052016A0074005D017701E4
:10483000BC003A00A80047018C0187017F013301C9
:104840008FE7DFF8F40BC1F8EC00012081F8CE000F
:1048500001F17C003C21C16396E701F17C00DFF8A7
:10486000DC2B42631420C8678EE701F1EC00DFF80F
:10487000D01B81671421416486E701F5B670DFF82B
:10488000C42B4263012282753C20C1F86C017BE796
:1048900001F5B670DFF8B01B01673C21C16373E717
:1048A00001F63C30DFF8A41BC163012181773C2174
:1048B000816069E701F63C30DFF8941B8167B42121
:1048C000416461E7DFF88C0BC1F8180201F5B6709E
:1048D0001421816758E701F56270DFF87C2B426391
:1048E000B420C1F888034FE701F56270DFF86C1B54
:1048F00001673C21C16347E701F59E60DFF8602B4B
:1049000042633C20C1F8F0043EE7DFF8580BC1F8E1
:104910009C0501F59E603C21816735E701F6684002
:10492000DFF8441B81673C2141642DE701F21460EC
:10493000DFF8381BC1630721C177012181773C2152
:10494000816021E7DFF8280BC1F8680C012081F8AD
:104950004A0C01F6BC30B421816715E701F20470FE
:10496000DFF8101B8167142141640DE701F28470A8
:10497000DFF8042B42633C20C1F8840704E701F20E
:104980008470DFF8F81A01671421C163FCE6FFF7B1
:1049900024F990F81202012802D0022807D00CE076
:1049A000206D00F2FC70DFF8D81A416305E0206D3D
:1049B00000F2FC70DFF8CC1A4163206D0A21C0F8C8
:1049C000FC17E1E6DFF8C00AC1F86C081420C1F852
:1049D0003808D9E6DFF8B40AC1F88C06012081F85E
:1049E0006E0601F214603C214164CDE601F28C6058
:1049F000DFF89C1AC1630121817714218160C3E62D
:104A0000DFF8900AC1F80407012081F8E60601F2F8
:104A10008C603C214164B7E601F65420DFF8782A27
:104A200042630322C275012282753C20C1F8540AF8
:104A3000AAE601F69450DFF8641A816714214164F4
:104A4000A2E6DFF85C0AC1F8C40A012081F8A60AD0
:104A500001F654203C21C16396E601F6E840DFF8F8
:104A6000442A4263012282751420C1F8E80C8BE6C7
:104A7000DFF8340AC1F83C0B012081F81E0B14202A
:104A8000C1F8080B80E601F6BC30DFF8202A42634B
:104A90001420C1F8BC0B77E601F1EC00DFF8101A26
:104AA000C16371E6DFF80C0AC1F81406012081F831
:104AB000F6053C20C1F8E00566E601F6BC30DFF8FB
:104AC000F81901671421C1635EE601F69450DFF81E
:104AD000EC19C1631421816056E6DFF8E409C1F8DE
:104AE000940D51E601F6E840DFF8D81901674BE66E
:104AF000012070BD0CB42DE9F04393B006460F467B
:104B0000012534461A2C42D02C2C40D0C4EB041082
:104B10004FEA8008DFF870970B2F18D1D9F85000B2
:104B200040444178002912D090F91B20012A0EDB65
:104B300091420CDB304600F068F90546D9F8500088
:104B40004044002141700FF68C10FFF7B1F8D9F8FE
:104B5000500018F8001000294FD108EB00014A78E6
:104B6000002A4AD1002208F80020104648701AA9ED
:104B700083B06846582207F0ADFA0EBC304600F00C
:104B80006AF8022834D0032837D1032535E00B2FEB
:104B900015D1C4EB04104FEA8008DFF8EC96D9F881
:104BA0005000404490F91B20012A08DB40789042D5
:104BB00005DB0FF62810FFF77BF8022046E01A2CE1
:104BC00004D13846C0B20AF028FC05E02C2C03D1F1
:104BD0003846C0B20FF0A4FF1AA983B06846582225
:104BE00007F078FA0EBC304600F035F8022801D103
:104BF00002202BE0032800D103250A2F0DD1DFF876
:104C00008896D9F85000C4EB04114FEA810818F8CF
:104C10000010491C08F8001017E00B2F15D1DFF821
:104C20006896032C07D1D9F8500090F8B5000028F9
:104C300001D109F092FDC4EB04104FEA8008D9F8C5
:104C4000500040444178491C4170284613B0BDE8EB
:104C5000F0035DF80CFB0EB42DE9F04193B005466E
:104C60000124C0EB00118F00DFF81C66D6F85080DD
:104C70001A2801D02C2808D117F80800002809D1DB
:104C800007EB08004078002804D107EB080000215A
:104C90008170016219A984B06846582207F01AFA97
:104CA0000FBC47447F6AB847022801D1022011E0B7
:104CB000032801D103240CE0D6F84C80D8E91C6706
:104CC000204600212A460FF0C9FB30433943C8E98A
:104CD0001C01204613B0BDE8F0015DF810FB2DE982
:104CE000F84304460D4601262746C7EB07104FEA56
:104CF0008008DFF89495D9F850001A2F4ED02C2F49
:104D00004CD04044417802290BDB90F91B20012A4A
:104D100007DB1346994204DB42700FF2CC70FEF7BA
:104D2000C7FFD9F8500018F80010002904D108EB8B
:104D300000025278002A65D02A460A2A09D10029A1
:104D400003D0491E08F8001017E0002108F80010F1
:104D500013E00B2A11D108EB00014A78002A02D097
:104D6000521E4A7001E000224A70032F05D190F8CC
:104D7000B500002801D109F0FFFCD9F8500018F85F
:104D8000001000293ED14044407800283AD1204606
:104D900000F03BF8032835D1032633E018F8001063
:104DA000002904D108EB00025278002A2AD02A46B2
:104DB0000A2A09D1002903D0491E08F800100EE084
:104DC000002108F800100AE00B2A08D1404441787D
:104DD000002902D0491E417001E0002141701A2FC4
:104DE00004D12846C0B20AF018FB05E02C2F03D1ED
:104DF0002846C0B20FF094FE204600F006F80328C3
:104E000000D103263046BDE8F2832DE9F041074684
:104E10000126B846C8EB08108500DFF86C44206D09
:104E20002818806A8047032800D10326B8F12C0F88
:104E300007D1206D295C00290AD128184078002864
:104E400006D1384640B200F07BF9032800D1032692
:104E5000206D295C002914D128184178002910D12F
:104E6000002181700162D4F84C80D8E91C450120F2
:104E70003A460FF0F3FA24EA000025EA0101C8E9F6
:104E80001C013046BDE8F08138B50446C4EB04107F
:104E90008000DFF8F453296D002242544018114677
:104EA00041702046FFF7B1FFE86CD0E91C23214692
:104EB0000FF23C60FEF7FCFE012032BD2DE9F0410F
:104EC000B6B004460E46B6B201208DF86400DFF895
:104ED000B8531AA8E96C6C2207F0FCF817951AA9C8
:104EE00084B068466C2207F0F5F80FBC00F0D6F9E4
:104EF00000270BE0032803D1189703208DF86400E6
:104F0000286D4044002181707F1C7FB23C2F2ADA3B
:104F1000EA6CD2E91C013A4600F024FB00F00100E3
:104F200011F0000101D10028EED0C7EB07104FEAC5
:104F30008008286D404441680029E5D48278521CDD
:104F40008270D2B2724389B28A42DDDBC06A804786
:104F50000228CFD1189702208DF86400DDE91801EE
:104F6000C4E9000103E0DDE91801C4E9000136B03D
:104F7000BDE8F0810021401F42F20C72904200D245
:104F80000121084670472DE9F04383B00446002014
:104F900001900422E11C01A8FEF7C0FD6178BA4E21
:104FA000376D3C2515FB01704068019A904204D191
:104FB0000FF24C50FEF77CFE68E01046FFF7DAFF78
:104FC000002809D16178019B15FB017042680FF23E
:104FD0003C50FEF76DFE59E0DFF8EC743868D0F80D
:104FE000008025E090F908906078316D15FB001085
:104FF000006A20FA09F0C00717D54FF0FF30009083
:105000000346012201994846FEF782F840B2002883
:105010000BD1617801980090306D15FB0100436859
:105020004A460FF2FC40FEF743FE4046D0F80080AF
:10503000B842D7D13868D0F800801FE090F90890C6
:10504000086A20FA09F0C00715D54FF0FF33012296
:1050500049684846FEF72EF940B200280BD1617826
:1050600001980090306D15FB010043684A460FF22D
:10507000C840FEF71DFE4046D0F800806178326DD2
:1050800015FB0121B842D9D101984860BDE8F783EA
:105090002DE9F8438146002425467B4F21E0C5EBEE
:1050A00005108600386D06EB0008002088F8030024
:1050B000FA6CD2E91C012A4600F054FA00F0010013
:1050C00011F0000101D100280AD04846D8F830106C
:1050D0008847002804D0386D30180121C1700C4673
:1050E0006D1C3C2DDBDB2046BDE8F2836648C16CBD
:1050F000D1E91C23002B01D1002A0DD0002107E0AB
:10510000C2EB0213026D02EB83020023D370491C31
:1051100049B20A463C2AF3DB704700B502465A48BA
:10512000C36CD3E91C0100F01DFA00F0010011F07E
:10513000000101D1002801D0012000BD084600BDBA
:105140002DE9F04781460124C9EB091085004E4E38
:10515000306D2818006A002828D0DB4F3868D0F856
:10516000008003E003244046D0F80080B8421DD000
:1051700090F908A0306D2818016A012202FA0AF29B
:10518000114021FA0AF149B20129ECD14FF0FF3365
:10519000012241685046FEF78DF80028E2D05246C1
:1051A00049460FF2AC30FEF783FDDCE72046BDE850
:1051B000F08710B598B004465A22002100A8FFF7E6
:1051C00075FA0020ADF858008DF801000DF10100CE
:1051D0000A21417000218170C1700846ADF8580065
:1051E000600737D50520FFF798FF002808D0042076
:1051F0008DF8000005208DF8010000A8FEF710FBD7
:105200000220FFF78AFF002808D004208DF8000054
:1052100002208DF8010000A8FEF702FB2F20FFF707
:105220007CFF002808D004208DF800002F208DF886
:10523000010000A8FEF7F4FA0320FFF76EFF002834
:1052400008D004208DF8000003208DF8010000A88C
:10525000FEF7E6FAE00611D50820FFF75EFF00280A
:105260000CD003208DF8000008208DF8010000A864
:10527000FEF7D6FA0FF2E420FEF71AFD18B010BDC3
:1052800001494C2206F026BF7CA40120C139000848
:10529000BD390008C9390008CD3900080FB41B9882
:1052A0000099016001994160029981600399C16090
:1052B0000499016105994161BDF85A100183BDF857
:1052C0005C104183BDF85E1081830C9901621399D3
:1052D00041621499816204B070474178122904D167
:1052E000401C0179002009F0FABA132904D1401CAE
:1052F0004179012009F0F3BA142904D1401C8179C5
:10530000022009F0ECBA152903D1401C007909F0FC
:105310000BBB302904D1401C90F904000CF078BE7E
:10532000012904D1401C90F906000CF05DBE17293C
:1053300075D1411CCA78032A0AD01B2A14D01C2A12
:1053400033D01D2A1BD02C2A3FD0342A59D0704785
:1053500090F85610012902D1401D09F0F5BE02292E
:105360005DD1401D09F0F0BE087A012802D188887D
:105370000BF01EBA022852D1C8880BF017BA4A7B2C
:10538000012A02D188880BF0B2BC022A02D1C88857
:105390000BF0A1BC042A03D1B0F811000BF0A9BC9A
:1053A000032A3CD1C8890BF0B0BCC879012802D1CE
:1053B000087910F00BBD022802D1487910F015BD14
:1053C00005282CD1887910F000BD8A7B012A02D1F2
:1053D000087A10F078B9022A02D1008A10F05FB979
:1053E000032A02D1408A10F064B9042A03D1123092
:1053F000408810F081B9052A11D11230808810F050
:105400006CB90A7B012A05D1D0F8051000EE101AFC
:1054100010F010BD022A02D1886810F014BD704748
:105420002A49086070470000D13900082748006801
:1054300070472749087070471FE10008391C0108B0
:10544000F919010849690408A13E04088F6B040892
:1054500077610408E91701083D7A0408B780040859
:10546000417E0408057D040801830408B7FF000895
:10547000A360010831E90108EB810408A56504086F
:10548000E1E8030803260408BDE701083F07010817
:10549000895D0108910C0108D155010801730408C8
:1054A0009F7B040873C10008151F01087747040893
:1054B000A5B700087D7F04089DF7030887790408D5
:1054C00085770408FD7504082C400020A0AD01205C
:1054D0003CAE0120414C204558000000414C204585
:1054E000582D415400000000524C20455800000047
:1054F0005445524D20256420256C6C750000000039
:105500004558204C4D435231202564004558204CCD
:105510004D4352322025642025642025640000007C
:105520004558204C4D4352332025642025642025C6
:1055300064202564000000004558204C4D4352343F
:1055400020256420256420256420256400000000B7
:10555000534D5241202564202564000048572053B4
:105560004D410000D2B2203A22BF21FA02F00021C0
:1055700070472032D141D04048409140D14048400E
:1055800070470268531C03601170704700B585B006
:1055900002460FF2140100A810F040FE00A808F027
:1055A00051FA05B000BD00004F4525640000000021
:1055B00034488168002904BF08B008E0EFF309828D
:1055C000A2F12802036882E8F84F83685A6000F06D
:1055D00056F9816859B14A6892E8F84F036002F1C0
:1055E000280282F3098813F47F4F3FD07047264882
:1055F00026490968401A80F308884FF08071C1611C
:10560000234981617FF0060E704701BC2046DFF818
:1056100084E000BDFEE7204800681C490968401A84
:10562000203820F0070080F308884FF0000115486B
:10563000417081F3118862B600F014F8FEE7036848
:105640000CB44FF0000141704FF0000181F311885C
:105650001249134A0A604FF0800181F311880CBC93
:10566000036070470D490E4A0A6070474FF0000111
:1056700081F31188704700BF4FF0800181F31188DA
:10568000704700BF08CA0020E00F002034AB0108BB
:1056900085640108155600080000000804ED00E0CC
:1056A0000000001010B4802080F3118800BF00BFFC
:1056B000DFF8F0078068DFF8EC1700220A7100219C
:1056C00081F3118800282ED0016800292BD042696F
:1056D00001684969914226D1016800E019000B6810
:1056E000002B02D05C699442F8D0802282F31188AA
:1056F00000BF00BFDFF8AC271269824203D1DFF898
:10570000A42703681361026A036813601A620162C6
:105710000B6803600268002A00D01862086091F8E4
:10572000450081F84400002080F3118810BC7047C8
:10573000802080F3118800BF00BFDFF86C0700688D
:10574000DFF86017096A401A01283ADADFF85407CF
:10575000006A05E0DFF84C170862002181F3118828
:10576000DFF848170978C90726D5802181F3118809
:1057700000BF00BFDFF8341709788907EAD5DFF8E2
:105780002C17097811F0FD01DFF820271170002196
:1057900081F31188DFF80C17096A8842FAD0DFF824
:1057A00004170862DFF800070068401CDFF8F816ED
:1057B0000860DFF8F0164862802080F3118800BF8F
:1057C00000BF704710B5DFF8DC0600214171DFF83B
:1057D000D406006A10F18040DFF8C8164862DFF88E
:1057E000C406C069002805D0DFF8B806DFF8B41693
:1057F000C9698847002080F31188DFF8A806C468CB
:105800000EE0E068DFF89C16496A401A002803D5CC
:10581000DFF89006E1684162002080F31188246877
:10582000002C26D0802080F3118800BF00BFDFF855
:1058300074060069002806D06069DFF868160969F7
:10584000496988421AD3207C4007E5D5E068DFF833
:105850005416096A401A0128D3DA200000F036FAFB
:10586000802080F3118800BF00BF207C0028C8D1B1
:1058700004E0802080F3118800BF00BF10BD38B560
:10588000DFF8200600214170DFF8180601210170C1
:10589000DFF81006C06B002818D0802080F3118834
:1058A00000BF00BFDFF8FC05C06B8047002080F31D
:1058B0001188DFF8F0050021C163DFF8E805002159
:1058C0004163DFF8E005002180F8381010F0C0FCDB
:1058D0000078C0B2CD2802D07D20FFF757FEDFF858
:1058E000C4058068002812D0DFF8B8058068806C95
:1058F00000280CD0DFF8AC058068806C01680800D7
:10590000002804D0DFF89C05806840688847DFF8ED
:10591000940590F8310000280FD0DFF888058068E2
:10592000DFF8801591F8301080F84410DFF8740526
:105930000079002801D0FFF7B5FEDFF8680590F880
:10594000400000283DD0DFF85C0590F84000C0071B
:1059500018D5DFF85C050068DFF84815096A401AB9
:1059600000280FD5DFF83C0590F8400010F0FE004D
:10597000DFF8301581F84000DFF8280590F8400086
:1059800000281ED0802080F3118800BF00BF10F0D7
:10599000BCFD002181F31188DFF808158968002912
:1059A0000CD0DFF800158968896B4118DFF80425F1
:1059B0001268891ADFF8EC2492689163DFF8F41416
:1059C0000860DFF8E004806800280ED0DFF8D40417
:1059D0008068007C002808D1DFF8C8048068406B2C
:1059E000401CDFF8C01489684863DFF8B804006918
:1059F000002839D006E0DFF8AC04216801610020FE
:105A000080F31188802080F3118800BF00BFDFF889
:105A100094040469002C2FD0257CEDB2002D2BD0EE
:105A2000680716D5E068DFF87C14096A411A012975
:105A300006DA200000F04AF9207C002809D113E0A2
:105A4000DFF86014496A411A002902D5DFF85414BE
:105A50004862EDB215F0FB001028CCD1A068806838
:105A60004068007C0028C6D1802080F3118800BFE8
:105A700000BF01E0FFF7A6FEDFF828044079002808
:105A8000F8D1DFF828040078C00701D5FFF750FEF1
:105A9000DFF8100400214171DFF8080400690028D4
:105AA00053D0DFF800040069007C002809D0DFF83B
:105AB000F403006980688068DFF8E8134068886054
:105AC00005E0DFF8E003DFF8DC1309698160DFF847
:105AD000D403806890F85000642802D08020FFF73B
